{
  "_format": "hh-sol-artifact-1",
  "contractName": "CollateralVaultL1",
  "sourceName": "contracts/layer1/core/CollateralVaultL1.sol",
  "abi": [
    {
      "inputs": [
        {
          "internalType": "address",
          "name": "_collateralToken",
          "type": "address"
        }
      ],
      "stateMutability": "nonpayable",
      "type": "constructor"
    },
    {
      "inputs": [
        {
          "internalType": "address",
          "name": "owner",
          "type": "address"
        }
      ],
      "name": "OwnableInvalidOwner",
      "type": "error"
    },
    {
      "inputs": [
        {
          "internalType": "address",
          "name": "account",
          "type": "address"
        }
      ],
      "name": "OwnableUnauthorizedAccount",
      "type": "error"
    },
    {
      "inputs": [],
      "name": "ReentrancyGuardReentrantCall",
      "type": "error"
    },
    {
      "inputs": [
        {
          "internalType": "address",
          "name": "token",
          "type": "address"
        }
      ],
      "name": "SafeERC20FailedOperation",
      "type": "error"
    },
    {
      "anonymous": false,
      "inputs": [
        {
          "indexed": true,
          "internalType": "address",
          "name": "user",
          "type": "address"
        },
        {
          "indexed": false,
          "internalType": "uint256",
          "name": "amount",
          "type": "uint256"
        },
        {
          "indexed": false,
          "internalType": "uint256",
          "name": "totalUserLocked",
          "type": "uint256"
        },
        {
          "indexed": true,
          "internalType": "bytes32",
          "name": "l2TxHash",
          "type": "bytes32"
        }
      ],
      "name": "CollateralLocked",
      "type": "event"
    },
    {
      "anonymous": false,
      "inputs": [
        {
          "indexed": true,
          "internalType": "address",
          "name": "user",
          "type": "address"
        },
        {
          "indexed": false,
          "internalType": "uint256",
          "name": "amount",
          "type": "uint256"
        },
        {
          "indexed": false,
          "internalType": "uint256",
          "name": "remaining",
          "type": "uint256"
        },
        {
          "indexed": true,
          "internalType": "bytes32",
          "name": "l2TxHash",
          "type": "bytes32"
        }
      ],
      "name": "CollateralUnlocked",
      "type": "event"
    },
    {
      "anonymous": false,
      "inputs": [
        {
          "indexed": true,
          "internalType": "address",
          "name": "triggeredBy",
          "type": "address"
        }
      ],
      "name": "EmergencyPauseTriggered",
      "type": "event"
    },
    {
      "anonymous": false,
      "inputs": [
        {
          "indexed": true,
          "internalType": "address",
          "name": "resumedBy",
          "type": "address"
        }
      ],
      "name": "EmergencyResumed",
      "type": "event"
    },
    {
      "anonymous": false,
      "inputs": [
        {
          "indexed": true,
          "internalType": "address",
          "name": "user",
          "type": "address"
        },
        {
          "indexed": false,
          "internalType": "uint256",
          "name": "amount",
          "type": "uint256"
        }
      ],
      "name": "EmergencyWithdrawalExecuted",
      "type": "event"
    },
    {
      "anonymous": false,
      "inputs": [
        {
          "indexed": true,
          "internalType": "address",
          "name": "user",
          "type": "address"
        },
        {
          "indexed": false,
          "internalType": "uint256",
          "name": "amount",
          "type": "uint256"
        },
        {
          "indexed": false,
          "internalType": "uint256",
          "name": "unlockTime",
          "type": "uint256"
        }
      ],
      "name": "EmergencyWithdrawalRequested",
      "type": "event"
    },
    {
      "anonymous": false,
      "inputs": [
        {
          "indexed": true,
          "internalType": "address",
          "name": "oldBridge",
          "type": "address"
        },
        {
          "indexed": true,
          "internalType": "address",
          "name": "newBridge",
          "type": "address"
        }
      ],
      "name": "L2BridgeUpdated",
      "type": "event"
    },
    {
      "anonymous": false,
      "inputs": [
        {
          "indexed": true,
          "internalType": "address",
          "name": "previousOwner",
          "type": "address"
        },
        {
          "indexed": true,
          "internalType": "address",
          "name": "newOwner",
          "type": "address"
        }
      ],
      "name": "OwnershipTransferred",
      "type": "event"
    },
    {
      "anonymous": false,
      "inputs": [
        {
          "indexed": true,
          "internalType": "address",
          "name": "oldRegistry",
          "type": "address"
        },
        {
          "indexed": true,
          "internalType": "address",
          "name": "newRegistry",
          "type": "address"
        }
      ],
      "name": "StateRegistryUpdated",
      "type": "event"
    },
    {
      "inputs": [],
      "name": "EMERGENCY_DELAY",
      "outputs": [
        {
          "internalType": "uint256",
          "name": "",
          "type": "uint256"
        }
      ],
      "stateMutability": "view",
      "type": "function"
    },
    {
      "inputs": [],
      "name": "MAX_LOCK_PER_TX",
      "outputs": [
        {
          "internalType": "uint256",
          "name": "",
          "type": "uint256"
        }
      ],
      "stateMutability": "view",
      "type": "function"
    },
    {
      "inputs": [
        {
          "internalType": "address",
          "name": "user",
          "type": "address"
        }
      ],
      "name": "canExecuteEmergencyWithdrawal",
      "outputs": [
        {
          "internalType": "bool",
          "name": "",
          "type": "bool"
        }
      ],
      "stateMutability": "view",
      "type": "function"
    },
    {
      "inputs": [],
      "name": "collateralToken",
      "outputs": [
        {
          "internalType": "contract IERC20",
          "name": "",
          "type": "address"
        }
      ],
      "stateMutability": "view",
      "type": "function"
    },
    {
      "inputs": [],
      "name": "dailyLockLimit",
      "outputs": [
        {
          "internalType": "uint256",
          "name": "",
          "type": "uint256"
        }
      ],
      "stateMutability": "view",
      "type": "function"
    },
    {
      "inputs": [],
      "name": "dailyLockedAmount",
      "outputs": [
        {
          "internalType": "uint256",
          "name": "",
          "type": "uint256"
        }
      ],
      "stateMutability": "view",
      "type": "function"
    },
    {
      "inputs": [],
      "name": "emergencyPaused",
      "outputs": [
        {
          "internalType": "bool",
          "name": "",
          "type": "bool"
        }
      ],
      "stateMutability": "view",
      "type": "function"
    },
    {
      "inputs": [
        {
          "internalType": "address",
          "name": "",
          "type": "address"
        }
      ],
      "name": "emergencyWithdrawals",
      "outputs": [
        {
          "internalType": "uint256",
          "name": "amount",
          "type": "uint256"
        },
        {
          "internalType": "uint256",
          "name": "requestTime",
          "type": "uint256"
        },
        {
          "internalType": "bool",
          "name": "executed",
          "type": "bool"
        }
      ],
      "stateMutability": "view",
      "type": "function"
    },
    {
      "inputs": [],
      "name": "executeEmergencyWithdrawal",
      "outputs": [],
      "stateMutability": "nonpayable",
      "type": "function"
    },
    {
      "inputs": [
        {
          "internalType": "address",
          "name": "user",
          "type": "address"
        }
      ],
      "name": "getEmergencyWithdrawal",
      "outputs": [
        {
          "internalType": "uint256",
          "name": "amount",
          "type": "uint256"
        },
        {
          "internalType": "uint256",
          "name": "requestTime",
          "type": "uint256"
        },
        {
          "internalType": "bool",
          "name": "executed",
          "type": "bool"
        },
        {
          "internalType": "uint256",
          "name": "unlockTime",
          "type": "uint256"
        }
      ],
      "stateMutability": "view",
      "type": "function"
    },
    {
      "inputs": [
        {
          "internalType": "address",
          "name": "user",
          "type": "address"
        }
      ],
      "name": "getLockedCollateral",
      "outputs": [
        {
          "internalType": "uint256",
          "name": "",
          "type": "uint256"
        }
      ],
      "stateMutability": "view",
      "type": "function"
    },
    {
      "inputs": [],
      "name": "getRemainingDailyLockCapacity",
      "outputs": [
        {
          "internalType": "uint256",
          "name": "",
          "type": "uint256"
        }
      ],
      "stateMutability": "view",
      "type": "function"
    },
    {
      "inputs": [],
      "name": "getTimeUntilLimitReset",
      "outputs": [
        {
          "internalType": "uint256",
          "name": "",
          "type": "uint256"
        }
      ],
      "stateMutability": "view",
      "type": "function"
    },
    {
      "inputs": [],
      "name": "getTotalLocked",
      "outputs": [
        {
          "internalType": "uint256",
          "name": "",
          "type": "uint256"
        }
      ],
      "stateMutability": "view",
      "type": "function"
    },
    {
      "inputs": [],
      "name": "getVaultStats",
      "outputs": [
        {
          "internalType": "uint256",
          "name": "_totalLocked",
          "type": "uint256"
        },
        {
          "internalType": "uint256",
          "name": "contractBalance",
          "type": "uint256"
        }
      ],
      "stateMutability": "view",
      "type": "function"
    },
    {
      "inputs": [],
      "name": "l2Bridge",
      "outputs": [
        {
          "internalType": "address",
          "name": "",
          "type": "address"
        }
      ],
      "stateMutability": "view",
      "type": "function"
    },
    {
      "inputs": [],
      "name": "lastLockResetTime",
      "outputs": [
        {
          "internalType": "uint256",
          "name": "",
          "type": "uint256"
        }
      ],
      "stateMutability": "view",
      "type": "function"
    },
    {
      "inputs": [
        {
          "internalType": "address",
          "name": "user",
          "type": "address"
        },
        {
          "internalType": "uint256",
          "name": "amount",
          "type": "uint256"
        },
        {
          "internalType": "bytes32",
          "name": "l2TxHash",
          "type": "bytes32"
        }
      ],
      "name": "lockCollateral",
      "outputs": [],
      "stateMutability": "nonpayable",
      "type": "function"
    },
    {
      "inputs": [
        {
          "internalType": "address",
          "name": "",
          "type": "address"
        }
      ],
      "name": "lockedCollateral",
      "outputs": [
        {
          "internalType": "uint256",
          "name": "",
          "type": "uint256"
        }
      ],
      "stateMutability": "view",
      "type": "function"
    },
    {
      "inputs": [],
      "name": "owner",
      "outputs": [
        {
          "internalType": "address",
          "name": "",
          "type": "address"
        }
      ],
      "stateMutability": "view",
      "type": "function"
    },
    {
      "inputs": [],
      "name": "renounceOwnership",
      "outputs": [],
      "stateMutability": "nonpayable",
      "type": "function"
    },
    {
      "inputs": [
        {
          "internalType": "uint256",
          "name": "amount",
          "type": "uint256"
        }
      ],
      "name": "requestEmergencyWithdrawal",
      "outputs": [],
      "stateMutability": "nonpayable",
      "type": "function"
    },
    {
      "inputs": [],
      "name": "resumeFromEmergency",
      "outputs": [],
      "stateMutability": "nonpayable",
      "type": "function"
    },
    {
      "inputs": [
        {
          "internalType": "uint256",
          "name": "newLimit",
          "type": "uint256"
        }
      ],
      "name": "setDailyLockLimit",
      "outputs": [],
      "stateMutability": "nonpayable",
      "type": "function"
    },
    {
      "inputs": [
        {
          "internalType": "address",
          "name": "_l2Bridge",
          "type": "address"
        }
      ],
      "name": "setL2Bridge",
      "outputs": [],
      "stateMutability": "nonpayable",
      "type": "function"
    },
    {
      "inputs": [
        {
          "internalType": "address",
          "name": "_stateRegistry",
          "type": "address"
        }
      ],
      "name": "setStateRegistry",
      "outputs": [],
      "stateMutability": "nonpayable",
      "type": "function"
    },
    {
      "inputs": [],
      "name": "stateRegistry",
      "outputs": [
        {
          "internalType": "address",
          "name": "",
          "type": "address"
        }
      ],
      "stateMutability": "view",
      "type": "function"
    },
    {
      "inputs": [],
      "name": "totalLocked",
      "outputs": [
        {
          "internalType": "uint256",
          "name": "",
          "type": "uint256"
        }
      ],
      "stateMutability": "view",
      "type": "function"
    },
    {
      "inputs": [
        {
          "internalType": "address",
          "name": "newOwner",
          "type": "address"
        }
      ],
      "name": "transferOwnership",
      "outputs": [],
      "stateMutability": "nonpayable",
      "type": "function"
    },
    {
      "inputs": [],
      "name": "triggerEmergencyPause",
      "outputs": [],
      "stateMutability": "nonpayable",
      "type": "function"
    },
    {
      "inputs": [
        {
          "internalType": "address",
          "name": "user",
          "type": "address"
        },
        {
          "internalType": "uint256",
          "name": "amount",
          "type": "uint256"
        },
        {
          "internalType": "bytes32",
          "name": "l2TxHash",
          "type": "bytes32"
        }
      ],
      "name": "unlockCollateral",
      "outputs": [],
      "stateMutability": "nonpayable",
      "type": "function"
    }
  ],
  "bytecode": "0x60a06040526a084595161401484a00000060075534801561001f57600080fd5b50604051620016d4380380620016d483398101604081905261004091610133565b6001600055338061006c57604051631e4fbdf760e01b8152600060048201526024015b60405180910390fd5b610075816100e1565b506001600160a01b0381166100cc5760405162461bcd60e51b815260206004820152601560248201527f496e76616c696420746f6b656e206164647265737300000000000000000000006044820152606401610063565b6001600160a01b031660805242600955610163565b600180546001600160a01b038381166001600160a01b0319831681179093556040519116919082907f8be0079c531659141344cd1fd0a4f28419497f9722a3daafe3b4186f6b6457e090600090a35050565b60006020828403121561014557600080fd5b81516001600160a01b038116811461015c57600080fd5b9392505050565b6080516115396200019b600039600081816103b7015281816106d401528181610c5701528181610e7a015261116a01526115396000f3fe608060405234801561001057600080fd5b50600436106101e55760003560e01c806392bdf9ba1161010f578063b3aac012116100a2578063ed84660711610071578063ed84660714610462578063f2fde38b14610473578063f4732da614610486578063f4993bbd1461048e57600080fd5b8063b3aac012146103d9578063d49ab22c146103e1578063dc6bae381461040a578063e39e5e0b1461045957600080fd5b8063a73497df116100de578063a73497df1461038e578063ab52329814610397578063ae1f6aaf1461039f578063b2016bd4146103b257600080fd5b806392bdf9ba146103055780639ac406a514610325578063a396602a1461035e578063a59aa5a61461037157600080fd5b80634f206d7f11610187578063729d071511610156578063729d0715146102b657806382944e2d146102bf57806385ff240e146102c95780638da5cb5b146102f457600080fd5b80634f206d7f1461028a57806356891412146102925780636b7c6d201461029b578063715018a6146102ae57600080fd5b806323c7b49c116101c357806323c7b49c1461022d57806327c830a9146102405780633a944126146102645780633d36d9711461027757600080fd5b8063034bfb81146101ea5780630619cc1514610205578063139a61ff1461021a575b600080fd5b6101f2610496565b6040519081526020015b60405180910390f35b610218610213366004611425565b6104dc565b005b61021861022836600461145a565b6104e9565b61021861023b366004611425565b61075f565b60055461025490600160a01b900460ff1681565b60405190151581526020016101fc565b61025461027236600461148d565b610963565b61021861028536600461148d565b6109dd565b610218610a86565b6101f260035481565b6102186102a936600461145a565b610ac8565b610218610d16565b6101f260085481565b6101f262093a8081565b6005546102dc906001600160a01b031681565b6040516001600160a01b0390911681526020016101fc565b6001546001600160a01b03166102dc565b6101f261031336600461148d565b60026020526000908152604090205481565b61033861033336600461148d565b610d2a565b6040805194855260208501939093529015159183019190915260608201526080016101fc565b61021861036c36600461148d565b610da5565b610379610e55565b604080519283526020830191909152016101fc565b6101f260075481565b610218610eed565b6004546102dc906001600160a01b031681565b6102dc7f000000000000000000000000000000000000000000000000000000000000000081565b6101f2610f35565b6101f26103ef36600461148d565b6001600160a01b031660009081526002602052604090205490565b61043c61041836600461148d565b60066020526000908152604090208054600182015460029092015490919060ff1683565b6040805193845260208401929092521515908201526060016101fc565b6101f260095481565b6101f269d3c21bcecceda100000081565b61021861048136600461148d565b610f6a565b6003546101f2565b610218610fa5565b6000600954620151806104a991906114be565b42106104b6575060075490565b600754600854106104c75750600090565b6008546007546104d791906114d7565b905090565b6104e46111d4565b600755565b6004546001600160a01b031633146105395760405162461bcd60e51b815260206004820152600e60248201526d4f6e6c79204c322062726964676560901b60448201526064015b60405180910390fd5b600554600160a01b900460ff16156105865760405162461bcd60e51b815260206004820152601060248201526f115b595c99d95b98de481c185d5cd95960821b6044820152606401610530565b61058e611201565b6001600160a01b0383166105d35760405162461bcd60e51b815260206004820152600c60248201526b24b73b30b634b2103ab9b2b960a11b6044820152606401610530565b600082116106185760405162461bcd60e51b81526020600482015260126024820152710416d6f756e74206d757374206265203e20360741b6044820152606401610530565b6001600160a01b0383166000908152600260205260409020548211156106805760405162461bcd60e51b815260206004820152601e60248201527f496e73756666696369656e74206c6f636b656420636f6c6c61746572616c00006044820152606401610530565b6001600160a01b038316600090815260026020526040812080548492906106a89084906114d7565b9250508190555081600360008282546106c191906114d7565b909155506106fb90506001600160a01b037f000000000000000000000000000000000000000000000000000000000000000016848461122b565b6001600160a01b038316600081815260026020908152604091829020548251868152918201528392917fe6fea673ec5891fd03be95f2657436619789223c68c840fd2fdc88bb3bbe35e991015b60405180910390a361075a6001600055565b505050565b610767611201565b600554600160a01b900460ff166107b85760405162461bcd60e51b81526020600482015260156024820152744e6f7420696e20656d657267656e6379206d6f646560581b6044820152606401610530565b336000908152600260205260409020548111156108115760405162461bcd60e51b8152602060048201526017602482015276125b9cdd59999a58da595b9d0818dbdb1b185d195c985b604a1b6044820152606401610530565b3360009081526006602052604090206002015460ff16156108685760405162461bcd60e51b8152602060048201526011602482015270105b1c9958591e481c995c5d595cdd1959607a1b6044820152606401610530565b33600090815260066020526040902060010154156108c15760405162461bcd60e51b815260206004820152601660248201527550656e64696e6720726571756573742065786973747360501b6044820152606401610530565b6040805160608101825282815242602080830182815260008486018181523380835260069094529590209351845551600184015592516002909201805460ff1916921515929092179091557f6055b9e008637eb8e9ab4faa67bf39b6e34013ab63b9df2935891398a66b213c90839061093e9062093a80906114be565b6040805192835260208301919091520160405180910390a26109606001600055565b50565b6001600160a01b0381166000908152600660209081526040808320815160608101835281548152600182015493810184905260029091015460ff1615159181019190915290158015906109b857508060400151155b80156109d6575062093a8081602001516109d291906114be565b4210155b9392505050565b6109e56111d4565b6001600160a01b038116610a345760405162461bcd60e51b8152602060048201526016602482015275496e76616c696420627269646765206164647265737360501b6044820152606401610530565b600480546001600160a01b038381166001600160a01b0319831681179093556040519116919082907ffbeaf70015f6ad12833bc6726f03af9bb91a7ee52827c6413c6c250c77854c9590600090a35050565b610a8e6111d4565b6005805460ff60a01b1916905560405133907f1e9c7db3ca9c0db24e98d98c1065c14eb6e9b0eeaacb3326360b12789ccebbb790600090a2565b6004546001600160a01b03163314610b135760405162461bcd60e51b815260206004820152600e60248201526d4f6e6c79204c322062726964676560901b6044820152606401610530565b600554600160a01b900460ff1615610b605760405162461bcd60e51b815260206004820152601060248201526f115b595c99d95b98de481c185d5cd95960821b6044820152606401610530565b610b68611201565b6001600160a01b038316610bad5760405162461bcd60e51b815260206004820152600c60248201526b24b73b30b634b2103ab9b2b960a11b6044820152606401610530565b60008211610bf25760405162461bcd60e51b81526020600482015260126024820152710416d6f756e74206d757374206265203e20360741b6044820152606401610530565b69d3c21bcecceda1000000821115610c415760405162461bcd60e51b815260206004820152601260248201527108af0c6cacac8e640dac2f040e0cae440e8f60731b6044820152606401610530565b610c4a8261128a565b610c7f6001600160a01b037f000000000000000000000000000000000000000000000000000000000000000016843085611323565b6001600160a01b03831660009081526002602052604081208054849290610ca79084906114be565b925050819055508160036000828254610cc091906114be565b90915550506001600160a01b038316600081815260026020908152604091829020548251868152918201528392917f6f55f454f279aaa9e234e6da6843a322398a7ee40229ee9db56109504a079a3c9101610748565b610d1e6111d4565b610d286000611362565b565b6001600160a01b038116600090815260066020908152604080832081516060810183528154808252600183015494820185905260029092015460ff161515928101839052849384938493919081610d82576000610d95565b62093a808460200151610d9591906114be565b9450945094509450509193509193565b610dad6111d4565b6001600160a01b038116610e035760405162461bcd60e51b815260206004820152601860248201527f496e76616c6964207265676973747279206164647265737300000000000000006044820152606401610530565b600580546001600160a01b038381166001600160a01b0319831681179093556040519116919082907f343bc515543dc5468d9b7d9d18f0ba746a1d4d51b8fbaf8dbcc3a810f8d0e82d90600090a35050565b6003546040516370a0823160e01b815230600482015260009182916001600160a01b037f000000000000000000000000000000000000000000000000000000000000000016906370a0823190602401602060405180830381865afa158015610ec1573d6000803e3d6000fd5b505050506040513d601f19601f82011682018060405250810190610ee591906114ea565b915091509091565b610ef56111d4565b6005805460ff60a01b1916600160a01b17905560405133907f7fc2170197efe2877ae0df3c17bce1285ce7a01eadade9718118a394495e722290600090a2565b60008060095462015180610f4991906114be565b9050804210610f5a57600091505090565b610f6442826114d7565b91505090565b610f726111d4565b6001600160a01b038116610f9c57604051631e4fbdf760e01b815260006004820152602401610530565b61096081611362565b610fad611201565b33600090815260066020526040902060018101546110055760405162461bcd60e51b8152602060048201526015602482015274139bc81dda5d1a191c985dd85b081c995c5d595cdd605a1b6044820152606401610530565b600281015460ff161561104d5760405162461bcd60e51b815260206004820152601060248201526f105b1c9958591e48195e1958dd5d195960821b6044820152606401610530565b62093a80816001015461106091906114be565b4210156110af5760405162461bcd60e51b815260206004820152601760248201527f44656c617920706572696f64206e6f74207061737365640000000000000000006044820152606401610530565b80543360009081526002602052604090205410156111095760405162461bcd60e51b8152602060048201526017602482015276125b9cdd59999a58da595b9d0818dbdb1b185d195c985b604a1b6044820152606401610530565b6002808201805460ff1916600117905581543360009081526020929092526040822080549192909161113c9084906114d7565b90915550508054600380546000906111559084906114d7565b90915550508054611192906001600160a01b037f00000000000000000000000000000000000000000000000000000000000000001690339061122b565b805460405190815233907faf6e7d750e5a786a0b4d0e00806a5f778d09769d9c8c0ee377cc6df72af071159060200160405180910390a250610d286001600055565b6001546001600160a01b03163314610d285760405163118cdaa760e01b8152336004820152602401610530565b60026000540361122457604051633ee5aeb560e01b815260040160405180910390fd5b6002600055565b6040516001600160a01b0383811660248301526044820183905261075a91859182169063a9059cbb906064015b604051602081830303815290604052915060e01b6020820180516001600160e01b0383818316178352505050506113b4565b60095461129a90620151806114be565b42106112aa576000600855426009555b600754816008546112bb91906114be565b11156113095760405162461bcd60e51b815260206004820152601860248201527f45786365656473206461696c79206c6f636b206c696d697400000000000000006044820152606401610530565b806008600082825461131b91906114be565b909155505050565b6040516001600160a01b03848116602483015283811660448301526064820183905261135c9186918216906323b872dd90608401611258565b50505050565b600180546001600160a01b038381166001600160a01b0319831681179093556040519116919082907f8be0079c531659141344cd1fd0a4f28419497f9722a3daafe3b4186f6b6457e090600090a35050565b600080602060008451602086016000885af1806113d7576040513d6000823e3d81fd5b50506000513d915081156113ef5780600114156113fc565b6001600160a01b0384163b155b1561135c57604051635274afe760e01b81526001600160a01b0385166004820152602401610530565b60006020828403121561143757600080fd5b5035919050565b80356001600160a01b038116811461145557600080fd5b919050565b60008060006060848603121561146f57600080fd5b6114788461143e565b95602085013595506040909401359392505050565b60006020828403121561149f57600080fd5b6109d68261143e565b634e487b7160e01b600052601160045260246000fd5b808201808211156114d1576114d16114a8565b92915050565b818103818111156114d1576114d16114a8565b6000602082840312156114fc57600080fd5b505191905056fea26469706673582212204503f26b0d83e633955fd991024199387e5a9e8cff94e35d21dc10d24a6137bb64736f6c63430008160033",
  "linkReferences": {},
  "deployedLinkReferences": {}
}