{"contracts/layer2/aggregator/L2StateAggregator.sol":{"L2StateAggregator":{"abi":[{"inputs":[{"internalType":"address","name":"_l1StateRegistry","type":"address"}],"stateMutability":"nonpayable","type":"constructor"},{"inputs":[{"internalType":"address","name":"owner","type":"address"}],"name":"OwnableInvalidOwner","type":"error"},{"inputs":[{"internalType":"address","name":"account","type":"address"}],"name":"OwnableUnauthorizedAccount","type":"error"},{"anonymous":false,"inputs":[{"indexed":true,"internalType":"address","name":"oldRegistry","type":"address"},{"indexed":true,"internalType":"address","name":"newRegistry","type":"address"}],"name":"L1RegistryUpdated","type":"event"},{"anonymous":false,"inputs":[{"indexed":true,"internalType":"bytes32","name":"moduleId","type":"bytes32"}],"name":"ModuleDeactivated","type":"event"},{"anonymous":false,"inputs":[{"indexed":true,"internalType":"bytes32","name":"moduleId","type":"bytes32"},{"indexed":false,"internalType":"address","name":"moduleAddress","type":"address"}],"name":"ModuleRegistered","type":"event"},{"anonymous":false,"inputs":[{"indexed":true,"internalType":"bytes32","name":"moduleId","type":"bytes32"},{"indexed":false,"internalType":"bytes32","name":"stateHash","type":"bytes32"},{"indexed":false,"internalType":"address","name":"updatedBy","type":"address"}],"name":"ModuleStateUpdated","type":"event"},{"anonymous":false,"inputs":[{"indexed":true,"internalType":"address","name":"previousOwner","type":"address"},{"indexed":true,"internalType":"address","name":"newOwner","type":"address"}],"name":"OwnershipTransferred","type":"event"},{"anonymous":false,"inputs":[{"indexed":true,"internalType":"bytes32","name":"stateRoot","type":"bytes32"},{"indexed":false,"internalType":"uint256","name":"blockNumber","type":"uint256"},{"indexed":false,"internalType":"uint256","name":"timestamp","type":"uint256"}],"name":"StateRootComputed","type":"event"},{"anonymous":false,"inputs":[{"indexed":true,"internalType":"bytes32","name":"stateRoot","type":"bytes32"},{"indexed":true,"internalType":"uint256","name":"l2Block","type":"uint256"},{"indexed":true,"internalType":"uint256","name":"l1TxId","type":"uint256"},{"indexed":false,"internalType":"uint256","name":"totalCollateral","type":"uint256"},{"indexed":false,"internalType":"uint256","name":"totalDebt","type":"uint256"}],"name":"StateSubmittedToL1","type":"event"},{"inputs":[],"name":"MIN_SUBMISSION_INTERVAL","outputs":[{"internalType":"uint256","name":"","type":"uint256"}],"stateMutability":"view","type":"function"},{"inputs":[{"internalType":"address","name":"moduleAddress","type":"address"}],"name":"authorizeModule","outputs":[],"stateMutability":"nonpayable","type":"function"},{"inputs":[{"internalType":"address","name":"","type":"address"}],"name":"authorizedModules","outputs":[{"internalType":"bool","name":"","type":"bool"}],"stateMutability":"view","type":"function"},{"inputs":[],"name":"calculateStateRoot","outputs":[{"internalType":"bytes32","name":"","type":"bytes32"}],"stateMutability":"view","type":"function"},{"inputs":[],"name":"canSubmitToL1","outputs":[{"internalType":"bool","name":"","type":"bool"}],"stateMutability":"view","type":"function"},{"inputs":[],"name":"currentStateRoot","outputs":[{"internalType":"bytes32","name":"","type":"bytes32"}],"stateMutability":"view","type":"function"},{"inputs":[{"internalType":"bytes32","name":"moduleId","type":"bytes32"}],"name":"deactivateModule","outputs":[],"stateMutability":"nonpayable","type":"function"},{"inputs":[],"name":"forceSubmitToL1","outputs":[],"stateMutability":"nonpayable","type":"function"},{"inputs":[],"name":"getAllModuleIds","outputs":[{"internalType":"bytes32[]","name":"","type":"bytes32[]"}],"stateMutability":"view","type":"function"},{"inputs":[],"name":"getModuleCount","outputs":[{"internalType":"uint256","name":"","type":"uint256"}],"stateMutability":"view","type":"function"},{"inputs":[{"internalType":"bytes32","name":"moduleId","type":"bytes32"}],"name":"getModuleState","outputs":[{"internalType":"bytes32","name":"stateHash","type":"bytes32"},{"internalType":"uint256","name":"lastUpdate","type":"uint256"},{"internalType":"bool","name":"active","type":"bool"}],"stateMutability":"view","type":"function"},{"inputs":[],"name":"getStateHistoryLength","outputs":[{"internalType":"uint256","name":"","type":"uint256"}],"stateMutability":"view","type":"function"},{"inputs":[{"internalType":"uint256","name":"index","type":"uint256"}],"name":"getStateRootByIndex","outputs":[{"internalType":"bytes32","name":"","type":"bytes32"}],"stateMutability":"view","type":"function"},{"inputs":[],"name":"getSystemState","outputs":[{"internalType":"uint256","name":"totalCollateral","type":"uint256"},{"internalType":"uint256","name":"totalDebt","type":"uint256"},{"internalType":"uint256","name":"activePositions","type":"uint256"},{"internalType":"uint256","name":"totalOrders","type":"uint256"},{"internalType":"uint256","name":"blockNumber","type":"uint256"},{"internalType":"uint256","name":"timestamp","type":"uint256"}],"stateMutability":"view","type":"function"},{"inputs":[],"name":"l1StateRegistry","outputs":[{"internalType":"address","name":"","type":"address"}],"stateMutability":"view","type":"function"},{"inputs":[],"name":"lastSubmission","outputs":[{"internalType":"uint256","name":"","type":"uint256"}],"stateMutability":"view","type":"function"},{"inputs":[{"internalType":"uint256","name":"","type":"uint256"}],"name":"moduleIds","outputs":[{"internalType":"bytes32","name":"","type":"bytes32"}],"stateMutability":"view","type":"function"},{"inputs":[{"internalType":"bytes32","name":"","type":"bytes32"}],"name":"moduleStates","outputs":[{"internalType":"bytes32","name":"stateHash","type":"bytes32"},{"internalType":"uint256","name":"lastUpdate","type":"uint256"},{"internalType":"bool","name":"active","type":"bool"}],"stateMutability":"view","type":"function"},{"inputs":[],"name":"owner","outputs":[{"internalType":"address","name":"","type":"address"}],"stateMutability":"view","type":"function"},{"inputs":[{"internalType":"bytes32","name":"moduleId","type":"bytes32"},{"internalType":"address","name":"moduleAddress","type":"address"}],"name":"registerModule","outputs":[],"stateMutability":"nonpayable","type":"function"},{"inputs":[],"name":"renounceOwnership","outputs":[],"stateMutability":"nonpayable","type":"function"},{"inputs":[{"internalType":"address","name":"moduleAddress","type":"address"}],"name":"revokeModuleAuthorization","outputs":[],"stateMutability":"nonpayable","type":"function"},{"inputs":[{"internalType":"address","name":"_l1StateRegistry","type":"address"}],"name":"setL1StateRegistry","outputs":[],"stateMutability":"nonpayable","type":"function"},{"inputs":[{"internalType":"uint256","name":"","type":"uint256"}],"name":"stateHistory","outputs":[{"internalType":"bytes32","name":"","type":"bytes32"}],"stateMutability":"view","type":"function"},{"inputs":[{"internalType":"bytes32","name":"","type":"bytes32"}],"name":"stateRootToBlock","outputs":[{"internalType":"uint256","name":"","type":"uint256"}],"stateMutability":"view","type":"function"},{"inputs":[],"name":"submitToL1","outputs":[],"stateMutability":"nonpayable","type":"function"},{"inputs":[],"name":"systemState","outputs":[{"internalType":"uint256","name":"totalCollateral","type":"uint256"},{"internalType":"uint256","name":"totalDebt","type":"uint256"},{"internalType":"uint256","name":"activePositions","type":"uint256"},{"internalType":"uint256","name":"totalOrders","type":"uint256"},{"internalType":"uint256","name":"blockNumber","type":"uint256"},{"internalType":"uint256","name":"timestamp","type":"uint256"}],"stateMutability":"view","type":"function"},{"inputs":[],"name":"timeUntilNextSubmission","outputs":[{"internalType":"uint256","name":"","type":"uint256"}],"stateMutability":"view","type":"function"},{"inputs":[{"internalType":"address","name":"newOwner","type":"address"}],"name":"transferOwnership","outputs":[],"stateMutability":"nonpayable","type":"function"},{"inputs":[{"internalType":"bytes32","name":"moduleId","type":"bytes32"},{"internalType":"bytes32","name":"stateHash","type":"bytes32"}],"name":"updateModuleState","outputs":[],"stateMutability":"nonpayable","type":"function"},{"inputs":[{"internalType":"uint256","name":"totalCollateral","type":"uint256"},{"internalType":"uint256","name":"totalDebt","type":"uint256"},{"internalType":"uint256","name":"activePositions","type":"uint256"},{"internalType":"uint256","name":"totalOrders","type":"uint256"}],"name":"updateSystemState","outputs":[],"stateMutability":"nonpayable","type":"function"}],"evm":{"bytecode":{"linkReferences":{},"object":"608060405234801561001057600080fd5b5060405161150838038061150883398101604081905261002f9161012f565b338061005657604051631e4fbdf760e01b8152600060048201526024015b60405180910390fd5b61005f816100df565b506001600160a01b0381166100b65760405162461bcd60e51b815260206004820152601360248201527f496e76616c6964204c3120726567697374727900000000000000000000000000604482015260640161004d565b600380546001600160a01b0319166001600160a01b03929092169190911790554260025561015f565b600080546001600160a01b038381166001600160a01b0319831681178455604051919092169283917f8be0079c531659141344cd1fd0a4f28419497f9722a3daafe3b4186f6b6457e09190a35050565b60006020828403121561014157600080fd5b81516001600160a01b038116811461015857600080fd5b9392505050565b61139a8061016e6000396000f3fe608060405234801561001057600080fd5b50600436106101e55760003560e01c80638f60482d1161010f578063a78e922b116100a2578063cd86903311610071578063cd86903314610478578063d87c33761461048d578063f2fde38b146104a0578063fbd824e7146104b357600080fd5b8063a78e922b14610433578063ac2eba9814610446578063bfefb7951461044f578063c8e2469e1461045857600080fd5b8063991292e3116100de578063991292e3146103e75780639978bcfa14610405578063a30a8e711461040d578063a446f5681461042057600080fd5b80638f60482d1461036a5780638fe08c2914610373578063902e0dd5146103c157806390544984146103d457600080fd5b806357d56267116101875780638ab94eaf116101565780638ab94eaf146103225780638c1799d11461032a5780638da5cb5b146103325780638e4df2f11461035757600080fd5b806357d56267146102b05780635eb66191146102b85780636477768b146102cb578063715018a61461031a57600080fd5b80631a3472a9116101c35780631a3472a91461024d57806328fa777f1461025557806334624ca3146102955780633f06a3021461029d57600080fd5b80630edae3cb146101ea57806316a222e41461020557806317f6fe5b1461021a575b600080fd5b6101f26104c6565b6040519081526020015b60405180910390f35b610218610213366004611128565b610653565b005b61023d610228366004611176565b600e6020526000908152604090205460ff1681565b60405190151581526020016101fc565b600c546101f2565b600654600754600854600954600a54600b545b604080519687526020870195909552938501929092526060840152608083015260a082015260c0016101fc565b6101f2610701565b6101f26102ab366004611198565b61072f565b6005546101f2565b6101f26102c6366004611198565b610798565b6102fd6102d9366004611198565b60046020526000908152604090208054600182015460029092015490919060ff1683565b6040805193845260208401929092521515908201526060016101fc565b6102186107b9565b6102186107cd565b610218610984565b6000546001600160a01b03165b6040516001600160a01b0390911681526020016101fc565b610218610365366004611176565b6109e3565b6101f260025481565b6102fd610381366004611198565b60008181526004602090815260409182902082516060810184528154808252600183015493820184905260029092015460ff161515930183905293909250565b6102186103cf366004611176565b610a0c565b6101f26103e2366004611198565b610aae565b600654600754600854600954600a54600b5461026895949392919086565b61023d610abe565b61021861041b366004611176565b610ad8565b61021861042e366004611198565b610b4c565b6102186104413660046111b1565b610bec565b6101f260015481565b6101f2610e1081565b6101f2610466366004611198565b600d6020526000908152604090205481565b610480610ce2565b6040516101fc91906111dd565b61021861049b366004611221565b610d3a565b6102186104ae366004611176565b610ee5565b60035461033f906001600160a01b031681565b60055460009081906104d9906001611259565b67ffffffffffffffff8111156104f1576104f1611272565b60405190808252806020026020018201604052801561051a578160200160208202803683370190505b50905060005b6005548110156105cc5760006005828154811061053f5761053f611288565b6000918252602080832090910154808352600490915260409091206002015490915060ff16156105c35760008181526004602090815260409182902054825191820184905291810191909152606001604051602081830303815290604052805190602001208383815181106105b6576105b6611288565b6020026020010181815250505b50600101610520565b50600654600754600854600954600a54600b546040805160208101979097528601949094526060850192909252608084015260a083015260c082015260e00160405160208183030381529060405280519060200120816005805490508151811061063857610638611288565b60200260200101818152505061064d81610f23565b91505090565b336000908152600e602052604090205460ff166106af5760405162461bcd60e51b81526020600482015260156024820152744e6f7420617574686f72697a6564206d6f64756c6560581b60448201526064015b60405180910390fd5b6040805160c081018252858152602081018590529081018390526060810182905243608082018190524260a0909201829052600695909555600793909355600891909155600955600a91909155600b55565b600080610e106002546107149190611259565b905080421061072557600091505090565b61064d428261129e565b600c5460009082106107735760405162461bcd60e51b815260206004820152600d60248201526c092dcecc2d8d2c840d2dcc8caf609b1b60448201526064016106a6565b600c828154811061078657610786611288565b90600052602060002001549050919050565b600581815481106107a857600080fd5b600091825260209091200154905081565b6107c16110ab565b6107cb60006110d8565b565b6107d56110ab565b60006107df6104c6565b6001818155600c805491820190557fdf6966c971051c3d54ec59162606531493a51404a002842f56009d7e5cf4a8c7018190556000818152600d602052604080822043908190556006546007549251602481018690526044810192909252606482015260848101919091529192509060a40160408051601f198184030181529181526020820180516001600160e01b03166374394df760e01b17905260035490516349460b4d60e11b815291925060009160649163928c169a916108b1916001600160a01b03169086906004016112b1565b6020604051808303816000875af11580156108d0573d6000803e3d6000fd5b505050506040513d601f19601f820116820180604052508101906108f49190611310565b42600281905560408051438152602081019290925291925084917fa938aa98582150744c56367318d3a5f5cd92bde822f25ff5a31eeb88e36b4121910160405180910390a26006546007546040805192835260208301919091528291439186917fc8281a000eab8bc6f4321b42029109cbb1e783ff071b93128f7a2407727bc466910160405180910390a4505050565b610e106002546109949190611259565b4210156107d55760405162461bcd60e51b815260206004820152601760248201527f5375626d697373696f6e20746f6f206672657175656e7400000000000000000060448201526064016106a6565b6109eb6110ab565b6001600160a01b03166000908152600e60205260409020805460ff19169055565b610a146110ab565b6001600160a01b038116610a5c5760405162461bcd60e51b815260206004820152600f60248201526e496e76616c6964206164647265737360881b60448201526064016106a6565b600380546001600160a01b038381166001600160a01b0319831681179093556040519116919082907f452f789ea74007bd52f942eca0f35f65ac2366985a059a268cab05aa3b4ecbf690600090a35050565b600c81815481106107a857600080fd5b6000610e10600254610ad09190611259565b421015905090565b610ae06110ab565b6001600160a01b038116610b285760405162461bcd60e51b815260206004820152600f60248201526e496e76616c6964206164647265737360881b60448201526064016106a6565b6001600160a01b03166000908152600e60205260409020805460ff19166001179055565b610b546110ab565b60008181526004602052604090206002015460ff16610ba95760405162461bcd60e51b81526020600482015260116024820152704d6f64756c65206e6f742061637469766560781b60448201526064016106a6565b600081815260046020526040808220600201805460ff191690555182917f1b3395b7c125da23d86f4eeff6f9e82c3e1e159933a183b553fb0ceca0bd0be591a250565b610bf46110ab565b81610c355760405162461bcd60e51b8152602060048201526011602482015270125b9d985b1a59081b5bd91d5b19481251607a1b60448201526064016106a6565b6001600160a01b038116610c845760405162461bcd60e51b8152602060048201526016602482015275496e76616c6964206d6f64756c65206164647265737360501b60448201526064016106a6565b6001600160a01b0381166000818152600e6020908152604091829020805460ff19166001179055905191825283917fd63be02155b46636309fb0a4a79647c60971aecaad53cbc83aad90cd75fd9d5491015b60405180910390a25050565b60606005805480602002602001604051908101604052809291908181526020018280548015610d3057602002820191906000526020600020905b815481526020019060010190808311610d1c575b5050505050905090565b336000908152600e602052604090205460ff16610d915760405162461bcd60e51b81526020600482015260156024820152744e6f7420617574686f72697a6564206d6f64756c6560581b60448201526064016106a6565b81610dd25760405162461bcd60e51b8152602060048201526011602482015270125b9d985b1a59081b5bd91d5b19481251607a1b60448201526064016106a6565b80610e145760405162461bcd60e51b8152602060048201526012602482015271092dcecc2d8d2c840e6e8c2e8ca40d0c2e6d60731b60448201526064016106a6565b60008281526004602052604090206002015460ff16610e6357600580546001810182556000919091527f036b6384b5eca791c62761152d0c79bb0604c104a5fb6f4eb0703f3154bb3db0018290555b6040805160608101825282815242602080830191825260018385018181526000888152600484528690209451855592519084015590516002909201805460ff1916921515929092179091558151838152339181019190915283917fd99ea162e2f693d07eb615544a07553554baf290ce277fe70379dbbd1f1b27619101610cd6565b610eed6110ab565b6001600160a01b038116610f1757604051631e4fbdf760e01b8152600060048201526024016106a6565b610f20816110d8565b50565b8051600090808203610f385750600092915050565b80600103610f635782600081518110610f5357610f53611288565b6020026020010151915050919050565b6001811115611098576000805b610f7b60018461129e565b81101561102f57848181518110610f9457610f94611288565b602002602001015185826001610faa9190611259565b81518110610fba57610fba611288565b6020026020010151604051602001610fdc929190918252602082015260400190565b6040516020818303038152906040528051906020012085838151811061100457611004611288565b60209081029190910101528161101981611329565b92506110289050600282611259565b9050610f70565b5061103b600283611342565b600103611091578361104e60018461129e565b8151811061105e5761105e611288565b602002602001015184828151811061107857611078611288565b60209081029190910101528061108d81611329565b9150505b9050610f63565b82600081518110610f5357610f53611288565b6000546001600160a01b031633146107cb5760405163118cdaa760e01b81523360048201526024016106a6565b600080546001600160a01b038381166001600160a01b0319831681178455604051919092169283917f8be0079c531659141344cd1fd0a4f28419497f9722a3daafe3b4186f6b6457e09190a35050565b6000806000806080858703121561113e57600080fd5b5050823594602084013594506040840135936060013592509050565b80356001600160a01b038116811461117157600080fd5b919050565b60006020828403121561118857600080fd5b6111918261115a565b9392505050565b6000602082840312156111aa57600080fd5b5035919050565b600080604083850312156111c457600080fd5b823591506111d46020840161115a565b90509250929050565b6020808252825182820181905260009190848201906040850190845b81811015611215578351835292840192918401916001016111f9565b50909695505050505050565b6000806040838503121561123457600080fd5b50508035926020909101359150565b634e487b7160e01b600052601160045260246000fd5b8082018082111561126c5761126c611243565b92915050565b634e487b7160e01b600052604160045260246000fd5b634e487b7160e01b600052603260045260246000fd5b8181038181111561126c5761126c611243565b60018060a01b03831681526000602060406020840152835180604085015260005b818110156112ee578581018301518582016060015282016112d2565b506000606082860101526060601f19601f830116850101925050509392505050565b60006020828403121561132257600080fd5b5051919050565b60006001820161133b5761133b611243565b5060010190565b60008261135f57634e487b7160e01b600052601260045260246000fd5b50069056fea2646970667358221220b1b8ca20905b105a6d1fe1465b23caf97d7b7edaeb8569cb0f14cdfbb2fcd54964736f6c63430008160033","opcodes":"PUSH1 0x80 PUSH1 0x40 MSTORE CALLVALUE DUP1 ISZERO PUSH2 0x10 JUMPI PUSH1 0x0 DUP1 REVERT JUMPDEST POP PUSH1 0x40 MLOAD PUSH2 0x1508 CODESIZE SUB DUP1 PUSH2 0x1508 DUP4 CODECOPY DUP2 ADD PUSH1 0x40 DUP2 SWAP1 MSTORE PUSH2 0x2F SWAP2 PUSH2 0x12F JUMP JUMPDEST CALLER DUP1 PUSH2 0x56 JUMPI PUSH1 0x40 MLOAD PUSH4 0x1E4FBDF7 PUSH1 0xE0 SHL DUP2 MSTORE PUSH1 0x0 PUSH1 0x4 DUP3 ADD MSTORE PUSH1 0x24 ADD JUMPDEST PUSH1 0x40 MLOAD DUP1 SWAP2 SUB SWAP1 REVERT JUMPDEST PUSH2 0x5F DUP2 PUSH2 0xDF JUMP JUMPDEST POP PUSH1 0x1 PUSH1 0x1 PUSH1 0xA0 SHL SUB DUP2 AND PUSH2 0xB6 JUMPI PUSH1 0x40 MLOAD PUSH3 0x461BCD PUSH1 0xE5 SHL DUP2 MSTORE PUSH1 0x20 PUSH1 0x4 DUP3 ADD MSTORE PUSH1 0x13 PUSH1 0x24 DUP3 ADD MSTORE PUSH32 0x496E76616C6964204C3120726567697374727900000000000000000000000000 PUSH1 0x44 DUP3 ADD MSTORE PUSH1 0x64 ADD PUSH2 0x4D JUMP JUMPDEST PUSH1 0x3 DUP1 SLOAD PUSH1 0x1 PUSH1 0x1 PUSH1 0xA0 SHL SUB NOT AND PUSH1 0x1 PUSH1 0x1 PUSH1 0xA0 SHL SUB SWAP3 SWAP1 SWAP3 AND SWAP2 SWAP1 SWAP2 OR SWAP1 SSTORE TIMESTAMP PUSH1 0x2 SSTORE PUSH2 0x15F JUMP JUMPDEST PUSH1 0x0 DUP1 SLOAD PUSH1 0x1 PUSH1 0x1 PUSH1 0xA0 SHL SUB DUP4 DUP2 AND PUSH1 0x1 PUSH1 0x1 PUSH1 0xA0 SHL SUB NOT DUP4 AND DUP2 OR DUP5 SSTORE PUSH1 0x40 MLOAD SWAP2 SWAP1 SWAP3 AND SWAP3 DUP4 SWAP2 PUSH32 0x8BE0079C531659141344CD1FD0A4F28419497F9722A3DAAFE3B4186F6B6457E0 SWAP2 SWAP1 LOG3 POP POP JUMP JUMPDEST PUSH1 0x0 PUSH1 0x20 DUP3 DUP5 SUB SLT ISZERO PUSH2 0x141 JUMPI PUSH1 0x0 DUP1 REVERT JUMPDEST DUP2 MLOAD PUSH1 0x1 PUSH1 0x1 PUSH1 0xA0 SHL SUB DUP2 AND DUP2 EQ PUSH2 0x158 JUMPI PUSH1 0x0 DUP1 REVERT JUMPDEST SWAP4 SWAP3 POP POP POP JUMP JUMPDEST PUSH2 0x139A DUP1 PUSH2 0x16E PUSH1 0x0 CODECOPY PUSH1 0x0 RETURN INVALID PUSH1 0x80 PUSH1 0x40 MSTORE CALLVALUE DUP1 ISZERO PUSH2 0x10 JUMPI PUSH1 0x0 DUP1 REVERT JUMPDEST POP PUSH1 0x4 CALLDATASIZE LT PUSH2 0x1E5 JUMPI PUSH1 0x0 CALLDATALOAD PUSH1 0xE0 SHR DUP1 PUSH4 0x8F60482D GT PUSH2 0x10F JUMPI DUP1 PUSH4 0xA78E922B GT PUSH2 0xA2 JUMPI DUP1 PUSH4 0xCD869033 GT PUSH2 0x71 JUMPI DUP1 PUSH4 0xCD869033 EQ PUSH2 0x478 JUMPI DUP1 PUSH4 0xD87C3376 EQ PUSH2 0x48D JUMPI DUP1 PUSH4 0xF2FDE38B EQ PUSH2 0x4A0 JUMPI DUP1 PUSH4 0xFBD824E7 EQ PUSH2 0x4B3 JUMPI PUSH1 0x0 DUP1 REVERT JUMPDEST DUP1 PUSH4 0xA78E922B EQ PUSH2 0x433 JUMPI DUP1 PUSH4 0xAC2EBA98 EQ PUSH2 0x446 JUMPI DUP1 PUSH4 0xBFEFB795 EQ PUSH2 0x44F JUMPI DUP1 PUSH4 0xC8E2469E EQ PUSH2 0x458 JUMPI PUSH1 0x0 DUP1 REVERT JUMPDEST DUP1 PUSH4 0x991292E3 GT PUSH2 0xDE JUMPI DUP1 PUSH4 0x991292E3 EQ PUSH2 0x3E7 JUMPI DUP1 PUSH4 0x9978BCFA EQ PUSH2 0x405 JUMPI DUP1 PUSH4 0xA30A8E71 EQ PUSH2 0x40D JUMPI DUP1 PUSH4 0xA446F568 EQ PUSH2 0x420 JUMPI PUSH1 0x0 DUP1 REVERT JUMPDEST DUP1 PUSH4 0x8F60482D EQ PUSH2 0x36A JUMPI DUP1 PUSH4 0x8FE08C29 EQ PUSH2 0x373 JUMPI DUP1 PUSH4 0x902E0DD5 EQ PUSH2 0x3C1 JUMPI DUP1 PUSH4 0x90544984 EQ PUSH2 0x3D4 JUMPI PUSH1 0x0 DUP1 REVERT JUMPDEST DUP1 PUSH4 0x57D56267 GT PUSH2 0x187 JUMPI DUP1 PUSH4 0x8AB94EAF GT PUSH2 0x156 JUMPI DUP1 PUSH4 0x8AB94EAF EQ PUSH2 0x322 JUMPI DUP1 PUSH4 0x8C1799D1 EQ PUSH2 0x32A JUMPI DUP1 PUSH4 0x8DA5CB5B EQ PUSH2 0x332 JUMPI DUP1 PUSH4 0x8E4DF2F1 EQ PUSH2 0x357 JUMPI PUSH1 0x0 DUP1 REVERT JUMPDEST DUP1 PUSH4 0x57D56267 EQ PUSH2 0x2B0 JUMPI DUP1 PUSH4 0x5EB66191 EQ PUSH2 0x2B8 JUMPI DUP1 PUSH4 0x6477768B EQ PUSH2 0x2CB JUMPI DUP1 PUSH4 0x715018A6 EQ PUSH2 0x31A JUMPI PUSH1 0x0 DUP1 REVERT JUMPDEST DUP1 PUSH4 0x1A3472A9 GT PUSH2 0x1C3 JUMPI DUP1 PUSH4 0x1A3472A9 EQ PUSH2 0x24D JUMPI DUP1 PUSH4 0x28FA777F EQ PUSH2 0x255 JUMPI DUP1 PUSH4 0x34624CA3 EQ PUSH2 0x295 JUMPI DUP1 PUSH4 0x3F06A302 EQ PUSH2 0x29D JUMPI PUSH1 0x0 DUP1 REVERT JUMPDEST DUP1 PUSH4 0xEDAE3CB EQ PUSH2 0x1EA JUMPI DUP1 PUSH4 0x16A222E4 EQ PUSH2 0x205 JUMPI DUP1 PUSH4 0x17F6FE5B EQ PUSH2 0x21A JUMPI JUMPDEST PUSH1 0x0 DUP1 REVERT JUMPDEST PUSH2 0x1F2 PUSH2 0x4C6 JUMP JUMPDEST PUSH1 0x40 MLOAD SWAP1 DUP2 MSTORE PUSH1 0x20 ADD JUMPDEST PUSH1 0x40 MLOAD DUP1 SWAP2 SUB SWAP1 RETURN JUMPDEST PUSH2 0x218 PUSH2 0x213 CALLDATASIZE PUSH1 0x4 PUSH2 0x1128 JUMP JUMPDEST PUSH2 0x653 JUMP JUMPDEST STOP JUMPDEST PUSH2 0x23D PUSH2 0x228 CALLDATASIZE PUSH1 0x4 PUSH2 0x1176 JUMP JUMPDEST PUSH1 0xE PUSH1 0x20 MSTORE PUSH1 0x0 SWAP1 DUP2 MSTORE PUSH1 0x40 SWAP1 KECCAK256 SLOAD PUSH1 0xFF AND DUP2 JUMP JUMPDEST PUSH1 0x40 MLOAD SWAP1 ISZERO ISZERO DUP2 MSTORE PUSH1 0x20 ADD PUSH2 0x1FC JUMP JUMPDEST PUSH1 0xC SLOAD PUSH2 0x1F2 JUMP JUMPDEST PUSH1 0x6 SLOAD PUSH1 0x7 SLOAD PUSH1 0x8 SLOAD PUSH1 0x9 SLOAD PUSH1 0xA SLOAD PUSH1 0xB SLOAD JUMPDEST PUSH1 0x40 DUP1 MLOAD SWAP7 DUP8 MSTORE PUSH1 0x20 DUP8 ADD SWAP6 SWAP1 SWAP6 MSTORE SWAP4 DUP6 ADD SWAP3 SWAP1 SWAP3 MSTORE PUSH1 0x60 DUP5 ADD MSTORE PUSH1 0x80 DUP4 ADD MSTORE PUSH1 0xA0 DUP3 ADD MSTORE PUSH1 0xC0 ADD PUSH2 0x1FC JUMP JUMPDEST PUSH2 0x1F2 PUSH2 0x701 JUMP JUMPDEST PUSH2 0x1F2 PUSH2 0x2AB CALLDATASIZE PUSH1 0x4 PUSH2 0x1198 JUMP JUMPDEST PUSH2 0x72F JUMP JUMPDEST PUSH1 0x5 SLOAD PUSH2 0x1F2 JUMP JUMPDEST PUSH2 0x1F2 PUSH2 0x2C6 CALLDATASIZE PUSH1 0x4 PUSH2 0x1198 JUMP JUMPDEST PUSH2 0x798 JUMP JUMPDEST PUSH2 0x2FD PUSH2 0x2D9 CALLDATASIZE PUSH1 0x4 PUSH2 0x1198 JUMP JUMPDEST PUSH1 0x4 PUSH1 0x20 MSTORE PUSH1 0x0 SWAP1 DUP2 MSTORE PUSH1 0x40 SWAP1 KECCAK256 DUP1 SLOAD PUSH1 0x1 DUP3 ADD SLOAD PUSH1 0x2 SWAP1 SWAP3 ADD SLOAD SWAP1 SWAP2 SWAP1 PUSH1 0xFF AND DUP4 JUMP JUMPDEST PUSH1 0x40 DUP1 MLOAD SWAP4 DUP5 MSTORE PUSH1 0x20 DUP5 ADD SWAP3 SWAP1 SWAP3 MSTORE ISZERO ISZERO SWAP1 DUP3 ADD MSTORE PUSH1 0x60 ADD PUSH2 0x1FC JUMP JUMPDEST PUSH2 0x218 PUSH2 0x7B9 JUMP JUMPDEST PUSH2 0x218 PUSH2 0x7CD JUMP JUMPDEST PUSH2 0x218 PUSH2 0x984 JUMP JUMPDEST PUSH1 0x0 SLOAD PUSH1 0x1 PUSH1 0x1 PUSH1 0xA0 SHL SUB AND JUMPDEST PUSH1 0x40 MLOAD PUSH1 0x1 PUSH1 0x1 PUSH1 0xA0 SHL SUB SWAP1 SWAP2 AND DUP2 MSTORE PUSH1 0x20 ADD PUSH2 0x1FC JUMP JUMPDEST PUSH2 0x218 PUSH2 0x365 CALLDATASIZE PUSH1 0x4 PUSH2 0x1176 JUMP JUMPDEST PUSH2 0x9E3 JUMP JUMPDEST PUSH2 0x1F2 PUSH1 0x2 SLOAD DUP2 JUMP JUMPDEST PUSH2 0x2FD PUSH2 0x381 CALLDATASIZE PUSH1 0x4 PUSH2 0x1198 JUMP JUMPDEST PUSH1 0x0 DUP2 DUP2 MSTORE PUSH1 0x4 PUSH1 0x20 SWAP1 DUP2 MSTORE PUSH1 0x40 SWAP2 DUP3 SWAP1 KECCAK256 DUP3 MLOAD PUSH1 0x60 DUP2 ADD DUP5 MSTORE DUP2 SLOAD DUP1 DUP3 MSTORE PUSH1 0x1 DUP4 ADD SLOAD SWAP4 DUP3 ADD DUP5 SWAP1 MSTORE PUSH1 0x2 SWAP1 SWAP3 ADD SLOAD PUSH1 0xFF AND ISZERO ISZERO SWAP4 ADD DUP4 SWAP1 MSTORE SWAP4 SWAP1 SWAP3 POP JUMP JUMPDEST PUSH2 0x218 PUSH2 0x3CF CALLDATASIZE PUSH1 0x4 PUSH2 0x1176 JUMP JUMPDEST PUSH2 0xA0C JUMP JUMPDEST PUSH2 0x1F2 PUSH2 0x3E2 CALLDATASIZE PUSH1 0x4 PUSH2 0x1198 JUMP JUMPDEST PUSH2 0xAAE JUMP JUMPDEST PUSH1 0x6 SLOAD PUSH1 0x7 SLOAD PUSH1 0x8 SLOAD PUSH1 0x9 SLOAD PUSH1 0xA SLOAD PUSH1 0xB SLOAD PUSH2 0x268 SWAP6 SWAP5 SWAP4 SWAP3 SWAP2 SWAP1 DUP7 JUMP JUMPDEST PUSH2 0x23D PUSH2 0xABE JUMP JUMPDEST PUSH2 0x218 PUSH2 0x41B CALLDATASIZE PUSH1 0x4 PUSH2 0x1176 JUMP JUMPDEST PUSH2 0xAD8 JUMP JUMPDEST PUSH2 0x218 PUSH2 0x42E CALLDATASIZE PUSH1 0x4 PUSH2 0x1198 JUMP JUMPDEST PUSH2 0xB4C JUMP JUMPDEST PUSH2 0x218 PUSH2 0x441 CALLDATASIZE PUSH1 0x4 PUSH2 0x11B1 JUMP JUMPDEST PUSH2 0xBEC JUMP JUMPDEST PUSH2 0x1F2 PUSH1 0x1 SLOAD DUP2 JUMP JUMPDEST PUSH2 0x1F2 PUSH2 0xE10 DUP2 JUMP JUMPDEST PUSH2 0x1F2 PUSH2 0x466 CALLDATASIZE PUSH1 0x4 PUSH2 0x1198 JUMP JUMPDEST PUSH1 0xD PUSH1 0x20 MSTORE PUSH1 0x0 SWAP1 DUP2 MSTORE PUSH1 0x40 SWAP1 KECCAK256 SLOAD DUP2 JUMP JUMPDEST PUSH2 0x480 PUSH2 0xCE2 JUMP JUMPDEST PUSH1 0x40 MLOAD PUSH2 0x1FC SWAP2 SWAP1 PUSH2 0x11DD JUMP JUMPDEST PUSH2 0x218 PUSH2 0x49B CALLDATASIZE PUSH1 0x4 PUSH2 0x1221 JUMP JUMPDEST PUSH2 0xD3A JUMP JUMPDEST PUSH2 0x218 PUSH2 0x4AE CALLDATASIZE PUSH1 0x4 PUSH2 0x1176 JUMP JUMPDEST PUSH2 0xEE5 JUMP JUMPDEST PUSH1 0x3 SLOAD PUSH2 0x33F SWAP1 PUSH1 0x1 PUSH1 0x1 PUSH1 0xA0 SHL SUB AND DUP2 JUMP JUMPDEST PUSH1 0x5 SLOAD PUSH1 0x0 SWAP1 DUP2 SWAP1 PUSH2 0x4D9 SWAP1 PUSH1 0x1 PUSH2 0x1259 JUMP JUMPDEST PUSH8 0xFFFFFFFFFFFFFFFF DUP2 GT ISZERO PUSH2 0x4F1 JUMPI PUSH2 0x4F1 PUSH2 0x1272 JUMP JUMPDEST PUSH1 0x40 MLOAD SWAP1 DUP1 DUP3 MSTORE DUP1 PUSH1 0x20 MUL PUSH1 0x20 ADD DUP3 ADD PUSH1 0x40 MSTORE DUP1 ISZERO PUSH2 0x51A JUMPI DUP2 PUSH1 0x20 ADD PUSH1 0x20 DUP3 MUL DUP1 CALLDATASIZE DUP4 CALLDATACOPY ADD SWAP1 POP JUMPDEST POP SWAP1 POP PUSH1 0x0 JUMPDEST PUSH1 0x5 SLOAD DUP2 LT ISZERO PUSH2 0x5CC JUMPI PUSH1 0x0 PUSH1 0x5 DUP3 DUP2 SLOAD DUP2 LT PUSH2 0x53F JUMPI PUSH2 0x53F PUSH2 0x1288 JUMP JUMPDEST PUSH1 0x0 SWAP2 DUP3 MSTORE PUSH1 0x20 DUP1 DUP4 KECCAK256 SWAP1 SWAP2 ADD SLOAD DUP1 DUP4 MSTORE PUSH1 0x4 SWAP1 SWAP2 MSTORE PUSH1 0x40 SWAP1 SWAP2 KECCAK256 PUSH1 0x2 ADD SLOAD SWAP1 SWAP2 POP PUSH1 0xFF AND ISZERO PUSH2 0x5C3 JUMPI PUSH1 0x0 DUP2 DUP2 MSTORE PUSH1 0x4 PUSH1 0x20 SWAP1 DUP2 MSTORE PUSH1 0x40 SWAP2 DUP3 SWAP1 KECCAK256 SLOAD DUP3 MLOAD SWAP2 DUP3 ADD DUP5 SWAP1 MSTORE SWAP2 DUP2 ADD SWAP2 SWAP1 SWAP2 MSTORE PUSH1 0x60 ADD PUSH1 0x40 MLOAD PUSH1 0x20 DUP2 DUP4 SUB SUB DUP2 MSTORE SWAP1 PUSH1 0x40 MSTORE DUP1 MLOAD SWAP1 PUSH1 0x20 ADD KECCAK256 DUP4 DUP4 DUP2 MLOAD DUP2 LT PUSH2 0x5B6 JUMPI PUSH2 0x5B6 PUSH2 0x1288 JUMP JUMPDEST PUSH1 0x20 MUL PUSH1 0x20 ADD ADD DUP2 DUP2 MSTORE POP POP JUMPDEST POP PUSH1 0x1 ADD PUSH2 0x520 JUMP JUMPDEST POP PUSH1 0x6 SLOAD PUSH1 0x7 SLOAD PUSH1 0x8 SLOAD PUSH1 0x9 SLOAD PUSH1 0xA SLOAD PUSH1 0xB SLOAD PUSH1 0x40 DUP1 MLOAD PUSH1 0x20 DUP2 ADD SWAP8 SWAP1 SWAP8 MSTORE DUP7 ADD SWAP5 SWAP1 SWAP5 MSTORE PUSH1 0x60 DUP6 ADD SWAP3 SWAP1 SWAP3 MSTORE PUSH1 0x80 DUP5 ADD MSTORE PUSH1 0xA0 DUP4 ADD MSTORE PUSH1 0xC0 DUP3 ADD MSTORE PUSH1 0xE0 ADD PUSH1 0x40 MLOAD PUSH1 0x20 DUP2 DUP4 SUB SUB DUP2 MSTORE SWAP1 PUSH1 0x40 MSTORE DUP1 MLOAD SWAP1 PUSH1 0x20 ADD KECCAK256 DUP2 PUSH1 0x5 DUP1 SLOAD SWAP1 POP DUP2 MLOAD DUP2 LT PUSH2 0x638 JUMPI PUSH2 0x638 PUSH2 0x1288 JUMP JUMPDEST PUSH1 0x20 MUL PUSH1 0x20 ADD ADD DUP2 DUP2 MSTORE POP POP PUSH2 0x64D DUP2 PUSH2 0xF23 JUMP JUMPDEST SWAP2 POP POP SWAP1 JUMP JUMPDEST CALLER PUSH1 0x0 SWAP1 DUP2 MSTORE PUSH1 0xE PUSH1 0x20 MSTORE PUSH1 0x40 SWAP1 KECCAK256 SLOAD PUSH1 0xFF AND PUSH2 0x6AF JUMPI PUSH1 0x40 MLOAD PUSH3 0x461BCD PUSH1 0xE5 SHL DUP2 MSTORE PUSH1 0x20 PUSH1 0x4 DUP3 ADD MSTORE PUSH1 0x15 PUSH1 0x24 DUP3 ADD MSTORE PUSH21 0x4E6F7420617574686F72697A6564206D6F64756C65 PUSH1 0x58 SHL PUSH1 0x44 DUP3 ADD MSTORE PUSH1 0x64 ADD JUMPDEST PUSH1 0x40 MLOAD DUP1 SWAP2 SUB SWAP1 REVERT JUMPDEST PUSH1 0x40 DUP1 MLOAD PUSH1 0xC0 DUP2 ADD DUP3 MSTORE DUP6 DUP2 MSTORE PUSH1 0x20 DUP2 ADD DUP6 SWAP1 MSTORE SWAP1 DUP2 ADD DUP4 SWAP1 MSTORE PUSH1 0x60 DUP2 ADD DUP3 SWAP1 MSTORE NUMBER PUSH1 0x80 DUP3 ADD DUP2 SWAP1 MSTORE TIMESTAMP PUSH1 0xA0 SWAP1 SWAP3 ADD DUP3 SWAP1 MSTORE PUSH1 0x6 SWAP6 SWAP1 SWAP6 SSTORE PUSH1 0x7 SWAP4 SWAP1 SWAP4 SSTORE PUSH1 0x8 SWAP2 SWAP1 SWAP2 SSTORE PUSH1 0x9 SSTORE PUSH1 0xA SWAP2 SWAP1 SWAP2 SSTORE PUSH1 0xB SSTORE JUMP JUMPDEST PUSH1 0x0 DUP1 PUSH2 0xE10 PUSH1 0x2 SLOAD PUSH2 0x714 SWAP2 SWAP1 PUSH2 0x1259 JUMP JUMPDEST SWAP1 POP DUP1 TIMESTAMP LT PUSH2 0x725 JUMPI PUSH1 0x0 SWAP2 POP POP SWAP1 JUMP JUMPDEST PUSH2 0x64D TIMESTAMP DUP3 PUSH2 0x129E JUMP JUMPDEST PUSH1 0xC SLOAD PUSH1 0x0 SWAP1 DUP3 LT PUSH2 0x773 JUMPI PUSH1 0x40 MLOAD PUSH3 0x461BCD PUSH1 0xE5 SHL DUP2 MSTORE PUSH1 0x20 PUSH1 0x4 DUP3 ADD MSTORE PUSH1 0xD PUSH1 0x24 DUP3 ADD MSTORE PUSH13 0x92DCECC2D8D2C840D2DCC8CAF PUSH1 0x9B SHL PUSH1 0x44 DUP3 ADD MSTORE PUSH1 0x64 ADD PUSH2 0x6A6 JUMP JUMPDEST PUSH1 0xC DUP3 DUP2 SLOAD DUP2 LT PUSH2 0x786 JUMPI PUSH2 0x786 PUSH2 0x1288 JUMP JUMPDEST SWAP1 PUSH1 0x0 MSTORE PUSH1 0x20 PUSH1 0x0 KECCAK256 ADD SLOAD SWAP1 POP SWAP2 SWAP1 POP JUMP JUMPDEST PUSH1 0x5 DUP2 DUP2 SLOAD DUP2 LT PUSH2 0x7A8 JUMPI PUSH1 0x0 DUP1 REVERT JUMPDEST PUSH1 0x0 SWAP2 DUP3 MSTORE PUSH1 0x20 SWAP1 SWAP2 KECCAK256 ADD SLOAD SWAP1 POP DUP2 JUMP JUMPDEST PUSH2 0x7C1 PUSH2 0x10AB JUMP JUMPDEST PUSH2 0x7CB PUSH1 0x0 PUSH2 0x10D8 JUMP JUMPDEST JUMP JUMPDEST PUSH2 0x7D5 PUSH2 0x10AB JUMP JUMPDEST PUSH1 0x0 PUSH2 0x7DF PUSH2 0x4C6 JUMP JUMPDEST PUSH1 0x1 DUP2 DUP2 SSTORE PUSH1 0xC DUP1 SLOAD SWAP2 DUP3 ADD SWAP1 SSTORE PUSH32 0xDF6966C971051C3D54EC59162606531493A51404A002842F56009D7E5CF4A8C7 ADD DUP2 SWAP1 SSTORE PUSH1 0x0 DUP2 DUP2 MSTORE PUSH1 0xD PUSH1 0x20 MSTORE PUSH1 0x40 DUP1 DUP3 KECCAK256 NUMBER SWAP1 DUP2 SWAP1 SSTORE PUSH1 0x6 SLOAD PUSH1 0x7 SLOAD SWAP3 MLOAD PUSH1 0x24 DUP2 ADD DUP7 SWAP1 MSTORE PUSH1 0x44 DUP2 ADD SWAP3 SWAP1 SWAP3 MSTORE PUSH1 0x64 DUP3 ADD MSTORE PUSH1 0x84 DUP2 ADD SWAP2 SWAP1 SWAP2 MSTORE SWAP2 SWAP3 POP SWAP1 PUSH1 0xA4 ADD PUSH1 0x40 DUP1 MLOAD PUSH1 0x1F NOT DUP2 DUP5 SUB ADD DUP2 MSTORE SWAP2 DUP2 MSTORE PUSH1 0x20 DUP3 ADD DUP1 MLOAD PUSH1 0x1 PUSH1 0x1 PUSH1 0xE0 SHL SUB AND PUSH4 0x74394DF7 PUSH1 0xE0 SHL OR SWAP1 MSTORE PUSH1 0x3 SLOAD SWAP1 MLOAD PUSH4 0x49460B4D PUSH1 0xE1 SHL DUP2 MSTORE SWAP2 SWAP3 POP PUSH1 0x0 SWAP2 PUSH1 0x64 SWAP2 PUSH4 0x928C169A SWAP2 PUSH2 0x8B1 SWAP2 PUSH1 0x1 PUSH1 0x1 PUSH1 0xA0 SHL SUB AND SWAP1 DUP7 SWAP1 PUSH1 0x4 ADD PUSH2 0x12B1 JUMP JUMPDEST PUSH1 0x20 PUSH1 0x40 MLOAD DUP1 DUP4 SUB DUP2 PUSH1 0x0 DUP8 GAS CALL ISZERO DUP1 ISZERO PUSH2 0x8D0 JUMPI RETURNDATASIZE PUSH1 0x0 DUP1 RETURNDATACOPY RETURNDATASIZE PUSH1 0x0 REVERT JUMPDEST POP POP POP POP PUSH1 0x40 MLOAD RETURNDATASIZE PUSH1 0x1F NOT PUSH1 0x1F DUP3 ADD AND DUP3 ADD DUP1 PUSH1 0x40 MSTORE POP DUP2 ADD SWAP1 PUSH2 0x8F4 SWAP2 SWAP1 PUSH2 0x1310 JUMP JUMPDEST TIMESTAMP PUSH1 0x2 DUP2 SWAP1 SSTORE PUSH1 0x40 DUP1 MLOAD NUMBER DUP2 MSTORE PUSH1 0x20 DUP2 ADD SWAP3 SWAP1 SWAP3 MSTORE SWAP2 SWAP3 POP DUP5 SWAP2 PUSH32 0xA938AA98582150744C56367318D3A5F5CD92BDE822F25FF5A31EEB88E36B4121 SWAP2 ADD PUSH1 0x40 MLOAD DUP1 SWAP2 SUB SWAP1 LOG2 PUSH1 0x6 SLOAD PUSH1 0x7 SLOAD PUSH1 0x40 DUP1 MLOAD SWAP3 DUP4 MSTORE PUSH1 0x20 DUP4 ADD SWAP2 SWAP1 SWAP2 MSTORE DUP3 SWAP2 NUMBER SWAP2 DUP7 SWAP2 PUSH32 0xC8281A000EAB8BC6F4321B42029109CBB1E783FF071B93128F7A2407727BC466 SWAP2 ADD PUSH1 0x40 MLOAD DUP1 SWAP2 SUB SWAP1 LOG4 POP POP POP JUMP JUMPDEST PUSH2 0xE10 PUSH1 0x2 SLOAD PUSH2 0x994 SWAP2 SWAP1 PUSH2 0x1259 JUMP JUMPDEST TIMESTAMP LT ISZERO PUSH2 0x7D5 JUMPI PUSH1 0x40 MLOAD PUSH3 0x461BCD PUSH1 0xE5 SHL DUP2 MSTORE PUSH1 0x20 PUSH1 0x4 DUP3 ADD MSTORE PUSH1 0x17 PUSH1 0x24 DUP3 ADD MSTORE PUSH32 0x5375626D697373696F6E20746F6F206672657175656E74000000000000000000 PUSH1 0x44 DUP3 ADD MSTORE PUSH1 0x64 ADD PUSH2 0x6A6 JUMP JUMPDEST PUSH2 0x9EB PUSH2 0x10AB JUMP JUMPDEST PUSH1 0x1 PUSH1 0x1 PUSH1 0xA0 SHL SUB AND PUSH1 0x0 SWAP1 DUP2 MSTORE PUSH1 0xE PUSH1 0x20 MSTORE PUSH1 0x40 SWAP1 KECCAK256 DUP1 SLOAD PUSH1 0xFF NOT AND SWAP1 SSTORE JUMP JUMPDEST PUSH2 0xA14 PUSH2 0x10AB JUMP JUMPDEST PUSH1 0x1 PUSH1 0x1 PUSH1 0xA0 SHL SUB DUP2 AND PUSH2 0xA5C JUMPI PUSH1 0x40 MLOAD PUSH3 0x461BCD PUSH1 0xE5 SHL DUP2 MSTORE PUSH1 0x20 PUSH1 0x4 DUP3 ADD MSTORE PUSH1 0xF PUSH1 0x24 DUP3 ADD MSTORE PUSH15 0x496E76616C69642061646472657373 PUSH1 0x88 SHL PUSH1 0x44 DUP3 ADD MSTORE PUSH1 0x64 ADD PUSH2 0x6A6 JUMP JUMPDEST PUSH1 0x3 DUP1 SLOAD PUSH1 0x1 PUSH1 0x1 PUSH1 0xA0 SHL SUB DUP4 DUP2 AND PUSH1 0x1 PUSH1 0x1 PUSH1 0xA0 SHL SUB NOT DUP4 AND DUP2 OR SWAP1 SWAP4 SSTORE PUSH1 0x40 MLOAD SWAP2 AND SWAP2 SWAP1 DUP3 SWAP1 PUSH32 0x452F789EA74007BD52F942ECA0F35F65AC2366985A059A268CAB05AA3B4ECBF6 SWAP1 PUSH1 0x0 SWAP1 LOG3 POP POP JUMP JUMPDEST PUSH1 0xC DUP2 DUP2 SLOAD DUP2 LT PUSH2 0x7A8 JUMPI PUSH1 0x0 DUP1 REVERT JUMPDEST PUSH1 0x0 PUSH2 0xE10 PUSH1 0x2 SLOAD PUSH2 0xAD0 SWAP2 SWAP1 PUSH2 0x1259 JUMP JUMPDEST TIMESTAMP LT ISZERO SWAP1 POP SWAP1 JUMP JUMPDEST PUSH2 0xAE0 PUSH2 0x10AB JUMP JUMPDEST PUSH1 0x1 PUSH1 0x1 PUSH1 0xA0 SHL SUB DUP2 AND PUSH2 0xB28 JUMPI PUSH1 0x40 MLOAD PUSH3 0x461BCD PUSH1 0xE5 SHL DUP2 MSTORE PUSH1 0x20 PUSH1 0x4 DUP3 ADD MSTORE PUSH1 0xF PUSH1 0x24 DUP3 ADD MSTORE PUSH15 0x496E76616C69642061646472657373 PUSH1 0x88 SHL PUSH1 0x44 DUP3 ADD MSTORE PUSH1 0x64 ADD PUSH2 0x6A6 JUMP JUMPDEST PUSH1 0x1 PUSH1 0x1 PUSH1 0xA0 SHL SUB AND PUSH1 0x0 SWAP1 DUP2 MSTORE PUSH1 0xE PUSH1 0x20 MSTORE PUSH1 0x40 SWAP1 KECCAK256 DUP1 SLOAD PUSH1 0xFF NOT AND PUSH1 0x1 OR SWAP1 SSTORE JUMP JUMPDEST PUSH2 0xB54 PUSH2 0x10AB JUMP JUMPDEST PUSH1 0x0 DUP2 DUP2 MSTORE PUSH1 0x4 PUSH1 0x20 MSTORE PUSH1 0x40 SWAP1 KECCAK256 PUSH1 0x2 ADD SLOAD PUSH1 0xFF AND PUSH2 0xBA9 JUMPI PUSH1 0x40 MLOAD PUSH3 0x461BCD PUSH1 0xE5 SHL DUP2 MSTORE PUSH1 0x20 PUSH1 0x4 DUP3 ADD MSTORE PUSH1 0x11 PUSH1 0x24 DUP3 ADD MSTORE PUSH17 0x4D6F64756C65206E6F7420616374697665 PUSH1 0x78 SHL PUSH1 0x44 DUP3 ADD MSTORE PUSH1 0x64 ADD PUSH2 0x6A6 JUMP JUMPDEST PUSH1 0x0 DUP2 DUP2 MSTORE PUSH1 0x4 PUSH1 0x20 MSTORE PUSH1 0x40 DUP1 DUP3 KECCAK256 PUSH1 0x2 ADD DUP1 SLOAD PUSH1 0xFF NOT AND SWAP1 SSTORE MLOAD DUP3 SWAP2 PUSH32 0x1B3395B7C125DA23D86F4EEFF6F9E82C3E1E159933A183B553FB0CECA0BD0BE5 SWAP2 LOG2 POP JUMP JUMPDEST PUSH2 0xBF4 PUSH2 0x10AB JUMP JUMPDEST DUP2 PUSH2 0xC35 JUMPI PUSH1 0x40 MLOAD PUSH3 0x461BCD PUSH1 0xE5 SHL DUP2 MSTORE PUSH1 0x20 PUSH1 0x4 DUP3 ADD MSTORE PUSH1 0x11 PUSH1 0x24 DUP3 ADD MSTORE PUSH17 0x125B9D985B1A59081B5BD91D5B19481251 PUSH1 0x7A SHL PUSH1 0x44 DUP3 ADD MSTORE PUSH1 0x64 ADD PUSH2 0x6A6 JUMP JUMPDEST PUSH1 0x1 PUSH1 0x1 PUSH1 0xA0 SHL SUB DUP2 AND PUSH2 0xC84 JUMPI PUSH1 0x40 MLOAD PUSH3 0x461BCD PUSH1 0xE5 SHL DUP2 MSTORE PUSH1 0x20 PUSH1 0x4 DUP3 ADD MSTORE PUSH1 0x16 PUSH1 0x24 DUP3 ADD MSTORE PUSH22 0x496E76616C6964206D6F64756C652061646472657373 PUSH1 0x50 SHL PUSH1 0x44 DUP3 ADD MSTORE PUSH1 0x64 ADD PUSH2 0x6A6 JUMP JUMPDEST PUSH1 0x1 PUSH1 0x1 PUSH1 0xA0 SHL SUB DUP2 AND PUSH1 0x0 DUP2 DUP2 MSTORE PUSH1 0xE PUSH1 0x20 SWAP1 DUP2 MSTORE PUSH1 0x40 SWAP2 DUP3 SWAP1 KECCAK256 DUP1 SLOAD PUSH1 0xFF NOT AND PUSH1 0x1 OR SWAP1 SSTORE SWAP1 MLOAD SWAP2 DUP3 MSTORE DUP4 SWAP2 PUSH32 0xD63BE02155B46636309FB0A4A79647C60971AECAAD53CBC83AAD90CD75FD9D54 SWAP2 ADD JUMPDEST PUSH1 0x40 MLOAD DUP1 SWAP2 SUB SWAP1 LOG2 POP POP JUMP JUMPDEST PUSH1 0x60 PUSH1 0x5 DUP1 SLOAD DUP1 PUSH1 0x20 MUL PUSH1 0x20 ADD PUSH1 0x40 MLOAD SWAP1 DUP2 ADD PUSH1 0x40 MSTORE DUP1 SWAP3 SWAP2 SWAP1 DUP2 DUP2 MSTORE PUSH1 0x20 ADD DUP3 DUP1 SLOAD DUP1 ISZERO PUSH2 0xD30 JUMPI PUSH1 0x20 MUL DUP3 ADD SWAP2 SWAP1 PUSH1 0x0 MSTORE PUSH1 0x20 PUSH1 0x0 KECCAK256 SWAP1 JUMPDEST DUP2 SLOAD DUP2 MSTORE PUSH1 0x20 ADD SWAP1 PUSH1 0x1 ADD SWAP1 DUP1 DUP4 GT PUSH2 0xD1C JUMPI JUMPDEST POP POP POP POP POP SWAP1 POP SWAP1 JUMP JUMPDEST CALLER PUSH1 0x0 SWAP1 DUP2 MSTORE PUSH1 0xE PUSH1 0x20 MSTORE PUSH1 0x40 SWAP1 KECCAK256 SLOAD PUSH1 0xFF AND PUSH2 0xD91 JUMPI PUSH1 0x40 MLOAD PUSH3 0x461BCD PUSH1 0xE5 SHL DUP2 MSTORE PUSH1 0x20 PUSH1 0x4 DUP3 ADD MSTORE PUSH1 0x15 PUSH1 0x24 DUP3 ADD MSTORE PUSH21 0x4E6F7420617574686F72697A6564206D6F64756C65 PUSH1 0x58 SHL PUSH1 0x44 DUP3 ADD MSTORE PUSH1 0x64 ADD PUSH2 0x6A6 JUMP JUMPDEST DUP2 PUSH2 0xDD2 JUMPI PUSH1 0x40 MLOAD PUSH3 0x461BCD PUSH1 0xE5 SHL DUP2 MSTORE PUSH1 0x20 PUSH1 0x4 DUP3 ADD MSTORE PUSH1 0x11 PUSH1 0x24 DUP3 ADD MSTORE PUSH17 0x125B9D985B1A59081B5BD91D5B19481251 PUSH1 0x7A SHL PUSH1 0x44 DUP3 ADD MSTORE PUSH1 0x64 ADD PUSH2 0x6A6 JUMP JUMPDEST DUP1 PUSH2 0xE14 JUMPI PUSH1 0x40 MLOAD PUSH3 0x461BCD PUSH1 0xE5 SHL DUP2 MSTORE PUSH1 0x20 PUSH1 0x4 DUP3 ADD MSTORE PUSH1 0x12 PUSH1 0x24 DUP3 ADD MSTORE PUSH18 0x92DCECC2D8D2C840E6E8C2E8CA40D0C2E6D PUSH1 0x73 SHL PUSH1 0x44 DUP3 ADD MSTORE PUSH1 0x64 ADD PUSH2 0x6A6 JUMP JUMPDEST PUSH1 0x0 DUP3 DUP2 MSTORE PUSH1 0x4 PUSH1 0x20 MSTORE PUSH1 0x40 SWAP1 KECCAK256 PUSH1 0x2 ADD SLOAD PUSH1 0xFF AND PUSH2 0xE63 JUMPI PUSH1 0x5 DUP1 SLOAD PUSH1 0x1 DUP2 ADD DUP3 SSTORE PUSH1 0x0 SWAP2 SWAP1 SWAP2 MSTORE PUSH32 0x36B6384B5ECA791C62761152D0C79BB0604C104A5FB6F4EB0703F3154BB3DB0 ADD DUP3 SWAP1 SSTORE JUMPDEST PUSH1 0x40 DUP1 MLOAD PUSH1 0x60 DUP2 ADD DUP3 MSTORE DUP3 DUP2 MSTORE TIMESTAMP PUSH1 0x20 DUP1 DUP4 ADD SWAP2 DUP3 MSTORE PUSH1 0x1 DUP4 DUP6 ADD DUP2 DUP2 MSTORE PUSH1 0x0 DUP9 DUP2 MSTORE PUSH1 0x4 DUP5 MSTORE DUP7 SWAP1 KECCAK256 SWAP5 MLOAD DUP6 SSTORE SWAP3 MLOAD SWAP1 DUP5 ADD SSTORE SWAP1 MLOAD PUSH1 0x2 SWAP1 SWAP3 ADD DUP1 SLOAD PUSH1 0xFF NOT AND SWAP3 ISZERO ISZERO SWAP3 SWAP1 SWAP3 OR SWAP1 SWAP2 SSTORE DUP2 MLOAD DUP4 DUP2 MSTORE CALLER SWAP2 DUP2 ADD SWAP2 SWAP1 SWAP2 MSTORE DUP4 SWAP2 PUSH32 0xD99EA162E2F693D07EB615544A07553554BAF290CE277FE70379DBBD1F1B2761 SWAP2 ADD PUSH2 0xCD6 JUMP JUMPDEST PUSH2 0xEED PUSH2 0x10AB JUMP JUMPDEST PUSH1 0x1 PUSH1 0x1 PUSH1 0xA0 SHL SUB DUP2 AND PUSH2 0xF17 JUMPI PUSH1 0x40 MLOAD PUSH4 0x1E4FBDF7 PUSH1 0xE0 SHL DUP2 MSTORE PUSH1 0x0 PUSH1 0x4 DUP3 ADD MSTORE PUSH1 0x24 ADD PUSH2 0x6A6 JUMP JUMPDEST PUSH2 0xF20 DUP2 PUSH2 0x10D8 JUMP JUMPDEST POP JUMP JUMPDEST DUP1 MLOAD PUSH1 0x0 SWAP1 DUP1 DUP3 SUB PUSH2 0xF38 JUMPI POP PUSH1 0x0 SWAP3 SWAP2 POP POP JUMP JUMPDEST DUP1 PUSH1 0x1 SUB PUSH2 0xF63 JUMPI DUP3 PUSH1 0x0 DUP2 MLOAD DUP2 LT PUSH2 0xF53 JUMPI PUSH2 0xF53 PUSH2 0x1288 JUMP JUMPDEST PUSH1 0x20 MUL PUSH1 0x20 ADD ADD MLOAD SWAP2 POP POP SWAP2 SWAP1 POP JUMP JUMPDEST PUSH1 0x1 DUP2 GT ISZERO PUSH2 0x1098 JUMPI PUSH1 0x0 DUP1 JUMPDEST PUSH2 0xF7B PUSH1 0x1 DUP5 PUSH2 0x129E JUMP JUMPDEST DUP2 LT ISZERO PUSH2 0x102F JUMPI DUP5 DUP2 DUP2 MLOAD DUP2 LT PUSH2 0xF94 JUMPI PUSH2 0xF94 PUSH2 0x1288 JUMP JUMPDEST PUSH1 0x20 MUL PUSH1 0x20 ADD ADD MLOAD DUP6 DUP3 PUSH1 0x1 PUSH2 0xFAA SWAP2 SWAP1 PUSH2 0x1259 JUMP JUMPDEST DUP2 MLOAD DUP2 LT PUSH2 0xFBA JUMPI PUSH2 0xFBA PUSH2 0x1288 JUMP JUMPDEST PUSH1 0x20 MUL PUSH1 0x20 ADD ADD MLOAD PUSH1 0x40 MLOAD PUSH1 0x20 ADD PUSH2 0xFDC SWAP3 SWAP2 SWAP1 SWAP2 DUP3 MSTORE PUSH1 0x20 DUP3 ADD MSTORE PUSH1 0x40 ADD SWAP1 JUMP JUMPDEST PUSH1 0x40 MLOAD PUSH1 0x20 DUP2 DUP4 SUB SUB DUP2 MSTORE SWAP1 PUSH1 0x40 MSTORE DUP1 MLOAD SWAP1 PUSH1 0x20 ADD KECCAK256 DUP6 DUP4 DUP2 MLOAD DUP2 LT PUSH2 0x1004 JUMPI PUSH2 0x1004 PUSH2 0x1288 JUMP JUMPDEST PUSH1 0x20 SWAP1 DUP2 MUL SWAP2 SWAP1 SWAP2 ADD ADD MSTORE DUP2 PUSH2 0x1019 DUP2 PUSH2 0x1329 JUMP JUMPDEST SWAP3 POP PUSH2 0x1028 SWAP1 POP PUSH1 0x2 DUP3 PUSH2 0x1259 JUMP JUMPDEST SWAP1 POP PUSH2 0xF70 JUMP JUMPDEST POP PUSH2 0x103B PUSH1 0x2 DUP4 PUSH2 0x1342 JUMP JUMPDEST PUSH1 0x1 SUB PUSH2 0x1091 JUMPI DUP4 PUSH2 0x104E PUSH1 0x1 DUP5 PUSH2 0x129E JUMP JUMPDEST DUP2 MLOAD DUP2 LT PUSH2 0x105E JUMPI PUSH2 0x105E PUSH2 0x1288 JUMP JUMPDEST PUSH1 0x20 MUL PUSH1 0x20 ADD ADD MLOAD DUP5 DUP3 DUP2 MLOAD DUP2 LT PUSH2 0x1078 JUMPI PUSH2 0x1078 PUSH2 0x1288 JUMP JUMPDEST PUSH1 0x20 SWAP1 DUP2 MUL SWAP2 SWAP1 SWAP2 ADD ADD MSTORE DUP1 PUSH2 0x108D DUP2 PUSH2 0x1329 JUMP JUMPDEST SWAP2 POP POP JUMPDEST SWAP1 POP PUSH2 0xF63 JUMP JUMPDEST DUP3 PUSH1 0x0 DUP2 MLOAD DUP2 LT PUSH2 0xF53 JUMPI PUSH2 0xF53 PUSH2 0x1288 JUMP JUMPDEST PUSH1 0x0 SLOAD PUSH1 0x1 PUSH1 0x1 PUSH1 0xA0 SHL SUB AND CALLER EQ PUSH2 0x7CB JUMPI PUSH1 0x40 MLOAD PUSH4 0x118CDAA7 PUSH1 0xE0 SHL DUP2 MSTORE CALLER PUSH1 0x4 DUP3 ADD MSTORE PUSH1 0x24 ADD PUSH2 0x6A6 JUMP JUMPDEST PUSH1 0x0 DUP1 SLOAD PUSH1 0x1 PUSH1 0x1 PUSH1 0xA0 SHL SUB DUP4 DUP2 AND PUSH1 0x1 PUSH1 0x1 PUSH1 0xA0 SHL SUB NOT DUP4 AND DUP2 OR DUP5 SSTORE PUSH1 0x40 MLOAD SWAP2 SWAP1 SWAP3 AND SWAP3 DUP4 SWAP2 PUSH32 0x8BE0079C531659141344CD1FD0A4F28419497F9722A3DAAFE3B4186F6B6457E0 SWAP2 SWAP1 LOG3 POP POP JUMP JUMPDEST PUSH1 0x0 DUP1 PUSH1 0x0 DUP1 PUSH1 0x80 DUP6 DUP8 SUB SLT ISZERO PUSH2 0x113E JUMPI PUSH1 0x0 DUP1 REVERT JUMPDEST POP POP DUP3 CALLDATALOAD SWAP5 PUSH1 0x20 DUP5 ADD CALLDATALOAD SWAP5 POP PUSH1 0x40 DUP5 ADD CALLDATALOAD SWAP4 PUSH1 0x60 ADD CALLDATALOAD SWAP3 POP SWAP1 POP JUMP JUMPDEST DUP1 CALLDATALOAD PUSH1 0x1 PUSH1 0x1 PUSH1 0xA0 SHL SUB DUP2 AND DUP2 EQ PUSH2 0x1171 JUMPI PUSH1 0x0 DUP1 REVERT JUMPDEST SWAP2 SWAP1 POP JUMP JUMPDEST PUSH1 0x0 PUSH1 0x20 DUP3 DUP5 SUB SLT ISZERO PUSH2 0x1188 JUMPI PUSH1 0x0 DUP1 REVERT JUMPDEST PUSH2 0x1191 DUP3 PUSH2 0x115A JUMP JUMPDEST SWAP4 SWAP3 POP POP POP JUMP JUMPDEST PUSH1 0x0 PUSH1 0x20 DUP3 DUP5 SUB SLT ISZERO PUSH2 0x11AA JUMPI PUSH1 0x0 DUP1 REVERT JUMPDEST POP CALLDATALOAD SWAP2 SWAP1 POP JUMP JUMPDEST PUSH1 0x0 DUP1 PUSH1 0x40 DUP4 DUP6 SUB SLT ISZERO PUSH2 0x11C4 JUMPI PUSH1 0x0 DUP1 REVERT JUMPDEST DUP3 CALLDATALOAD SWAP2 POP PUSH2 0x11D4 PUSH1 0x20 DUP5 ADD PUSH2 0x115A JUMP JUMPDEST SWAP1 POP SWAP3 POP SWAP3 SWAP1 POP JUMP JUMPDEST PUSH1 0x20 DUP1 DUP3 MSTORE DUP3 MLOAD DUP3 DUP3 ADD DUP2 SWAP1 MSTORE PUSH1 0x0 SWAP2 SWAP1 DUP5 DUP3 ADD SWAP1 PUSH1 0x40 DUP6 ADD SWAP1 DUP5 JUMPDEST DUP2 DUP2 LT ISZERO PUSH2 0x1215 JUMPI DUP4 MLOAD DUP4 MSTORE SWAP3 DUP5 ADD SWAP3 SWAP2 DUP5 ADD SWAP2 PUSH1 0x1 ADD PUSH2 0x11F9 JUMP JUMPDEST POP SWAP1 SWAP7 SWAP6 POP POP POP POP POP POP JUMP JUMPDEST PUSH1 0x0 DUP1 PUSH1 0x40 DUP4 DUP6 SUB SLT ISZERO PUSH2 0x1234 JUMPI PUSH1 0x0 DUP1 REVERT JUMPDEST POP POP DUP1 CALLDATALOAD SWAP3 PUSH1 0x20 SWAP1 SWAP2 ADD CALLDATALOAD SWAP2 POP JUMP JUMPDEST PUSH4 0x4E487B71 PUSH1 0xE0 SHL PUSH1 0x0 MSTORE PUSH1 0x11 PUSH1 0x4 MSTORE PUSH1 0x24 PUSH1 0x0 REVERT JUMPDEST DUP1 DUP3 ADD DUP1 DUP3 GT ISZERO PUSH2 0x126C JUMPI PUSH2 0x126C PUSH2 0x1243 JUMP JUMPDEST SWAP3 SWAP2 POP POP JUMP JUMPDEST PUSH4 0x4E487B71 PUSH1 0xE0 SHL PUSH1 0x0 MSTORE PUSH1 0x41 PUSH1 0x4 MSTORE PUSH1 0x24 PUSH1 0x0 REVERT JUMPDEST PUSH4 0x4E487B71 PUSH1 0xE0 SHL PUSH1 0x0 MSTORE PUSH1 0x32 PUSH1 0x4 MSTORE PUSH1 0x24 PUSH1 0x0 REVERT JUMPDEST DUP2 DUP2 SUB DUP2 DUP2 GT ISZERO PUSH2 0x126C JUMPI PUSH2 0x126C PUSH2 0x1243 JUMP JUMPDEST PUSH1 0x1 DUP1 PUSH1 0xA0 SHL SUB DUP4 AND DUP2 MSTORE PUSH1 0x0 PUSH1 0x20 PUSH1 0x40 PUSH1 0x20 DUP5 ADD MSTORE DUP4 MLOAD DUP1 PUSH1 0x40 DUP6 ADD MSTORE PUSH1 0x0 JUMPDEST DUP2 DUP2 LT ISZERO PUSH2 0x12EE JUMPI DUP6 DUP2 ADD DUP4 ADD MLOAD DUP6 DUP3 ADD PUSH1 0x60 ADD MSTORE DUP3 ADD PUSH2 0x12D2 JUMP JUMPDEST POP PUSH1 0x0 PUSH1 0x60 DUP3 DUP7 ADD ADD MSTORE PUSH1 0x60 PUSH1 0x1F NOT PUSH1 0x1F DUP4 ADD AND DUP6 ADD ADD SWAP3 POP POP POP SWAP4 SWAP3 POP POP POP JUMP JUMPDEST PUSH1 0x0 PUSH1 0x20 DUP3 DUP5 SUB SLT ISZERO PUSH2 0x1322 JUMPI PUSH1 0x0 DUP1 REVERT JUMPDEST POP MLOAD SWAP2 SWAP1 POP JUMP JUMPDEST PUSH1 0x0 PUSH1 0x1 DUP3 ADD PUSH2 0x133B JUMPI PUSH2 0x133B PUSH2 0x1243 JUMP JUMPDEST POP PUSH1 0x1 ADD SWAP1 JUMP JUMPDEST PUSH1 0x0 DUP3 PUSH2 0x135F JUMPI PUSH4 0x4E487B71 PUSH1 0xE0 SHL PUSH1 0x0 MSTORE PUSH1 0x12 PUSH1 0x4 MSTORE PUSH1 0x24 PUSH1 0x0 REVERT JUMPDEST POP MOD SWAP1 JUMP INVALID LOG2 PUSH5 0x6970667358 0x22 SLT KECCAK256 0xB1 0xB8 0xCA KECCAK256 SWAP1 JUMPDEST LT GAS PUSH14 0x1FE1465B23CAF97D7B7EDAEB8569 0xCB 0xF EQ 0xCD 0xFB 0xB2 0xFC 0xD5 0x49 PUSH5 0x736F6C6343 STOP ADDMOD AND STOP CALLER "},"methodIdentifiers":{"MIN_SUBMISSION_INTERVAL()":"bfefb795","authorizeModule(address)":"a30a8e71","authorizedModules(address)":"17f6fe5b","calculateStateRoot()":"0edae3cb","canSubmitToL1()":"9978bcfa","currentStateRoot()":"ac2eba98","deactivateModule(bytes32)":"a446f568","forceSubmitToL1()":"8ab94eaf","getAllModuleIds()":"cd869033","getModuleCount()":"57d56267","getModuleState(bytes32)":"8fe08c29","getStateHistoryLength()":"1a3472a9","getStateRootByIndex(uint256)":"3f06a302","getSystemState()":"28fa777f","l1StateRegistry()":"fbd824e7","lastSubmission()":"8f60482d","moduleIds(uint256)":"5eb66191","moduleStates(bytes32)":"6477768b","owner()":"8da5cb5b","registerModule(bytes32,address)":"a78e922b","renounceOwnership()":"715018a6","revokeModuleAuthorization(address)":"8e4df2f1","setL1StateRegistry(address)":"902e0dd5","stateHistory(uint256)":"90544984","stateRootToBlock(bytes32)":"c8e2469e","submitToL1()":"8c1799d1","systemState()":"991292e3","timeUntilNextSubmission()":"34624ca3","transferOwnership(address)":"f2fde38b","updateModuleState(bytes32,bytes32)":"d87c3376","updateSystemState(uint256,uint256,uint256,uint256)":"16a222e4"}}}}}