{"contracts/layer1/core/LoyaltyUSDL1.sol":{"LoyaltyUSDL1":{"abi":[{"inputs":[],"stateMutability":"nonpayable","type":"constructor"},{"inputs":[],"name":"AccessControlBadConfirmation","type":"error"},{"inputs":[{"internalType":"address","name":"account","type":"address"},{"internalType":"bytes32","name":"neededRole","type":"bytes32"}],"name":"AccessControlUnauthorizedAccount","type":"error"},{"inputs":[{"internalType":"address","name":"spender","type":"address"},{"internalType":"uint256","name":"allowance","type":"uint256"},{"internalType":"uint256","name":"needed","type":"uint256"}],"name":"ERC20InsufficientAllowance","type":"error"},{"inputs":[{"internalType":"address","name":"sender","type":"address"},{"internalType":"uint256","name":"balance","type":"uint256"},{"internalType":"uint256","name":"needed","type":"uint256"}],"name":"ERC20InsufficientBalance","type":"error"},{"inputs":[{"internalType":"address","name":"approver","type":"address"}],"name":"ERC20InvalidApprover","type":"error"},{"inputs":[{"internalType":"address","name":"receiver","type":"address"}],"name":"ERC20InvalidReceiver","type":"error"},{"inputs":[{"internalType":"address","name":"sender","type":"address"}],"name":"ERC20InvalidSender","type":"error"},{"inputs":[{"internalType":"address","name":"spender","type":"address"}],"name":"ERC20InvalidSpender","type":"error"},{"inputs":[],"name":"EnforcedPause","type":"error"},{"inputs":[],"name":"ExpectedPause","type":"error"},{"anonymous":false,"inputs":[{"indexed":true,"internalType":"address","name":"owner","type":"address"},{"indexed":true,"internalType":"address","name":"spender","type":"address"},{"indexed":false,"internalType":"uint256","name":"value","type":"uint256"}],"name":"Approval","type":"event"},{"anonymous":false,"inputs":[{"indexed":true,"internalType":"address","name":"from","type":"address"},{"indexed":false,"internalType":"uint256","name":"amount","type":"uint256"},{"indexed":true,"internalType":"bytes32","name":"l2TxHash","type":"bytes32"}],"name":"BridgeBurn","type":"event"},{"anonymous":false,"inputs":[{"indexed":true,"internalType":"address","name":"to","type":"address"},{"indexed":false,"internalType":"uint256","name":"amount","type":"uint256"},{"indexed":true,"internalType":"bytes32","name":"l2TxHash","type":"bytes32"}],"name":"BridgeMint","type":"event"},{"anonymous":false,"inputs":[{"indexed":true,"internalType":"address","name":"from","type":"address"},{"indexed":false,"internalType":"uint256","name":"amount","type":"uint256"},{"indexed":true,"internalType":"address","name":"burner","type":"address"}],"name":"Burned","type":"event"},{"anonymous":false,"inputs":[{"indexed":false,"internalType":"uint256","name":"oldLimit","type":"uint256"},{"indexed":false,"internalType":"uint256","name":"newLimit","type":"uint256"}],"name":"DailyMintLimitUpdated","type":"event"},{"anonymous":false,"inputs":[{"indexed":true,"internalType":"address","name":"pauser","type":"address"}],"name":"EmergencyPaused","type":"event"},{"anonymous":false,"inputs":[{"indexed":true,"internalType":"address","name":"unpauser","type":"address"}],"name":"EmergencyUnpaused","type":"event"},{"anonymous":false,"inputs":[{"indexed":true,"internalType":"address","name":"oldBridge","type":"address"},{"indexed":true,"internalType":"address","name":"newBridge","type":"address"}],"name":"L2BridgeUpdated","type":"event"},{"anonymous":false,"inputs":[{"indexed":true,"internalType":"address","name":"to","type":"address"},{"indexed":false,"internalType":"uint256","name":"amount","type":"uint256"},{"indexed":true,"internalType":"address","name":"minter","type":"address"}],"name":"Minted","type":"event"},{"anonymous":false,"inputs":[{"indexed":false,"internalType":"address","name":"account","type":"address"}],"name":"Paused","type":"event"},{"anonymous":false,"inputs":[{"indexed":true,"internalType":"bytes32","name":"role","type":"bytes32"},{"indexed":true,"internalType":"bytes32","name":"previousAdminRole","type":"bytes32"},{"indexed":true,"internalType":"bytes32","name":"newAdminRole","type":"bytes32"}],"name":"RoleAdminChanged","type":"event"},{"anonymous":false,"inputs":[{"indexed":true,"internalType":"bytes32","name":"role","type":"bytes32"},{"indexed":true,"internalType":"address","name":"account","type":"address"},{"indexed":true,"internalType":"address","name":"sender","type":"address"}],"name":"RoleGranted","type":"event"},{"anonymous":false,"inputs":[{"indexed":true,"internalType":"bytes32","name":"role","type":"bytes32"},{"indexed":true,"internalType":"address","name":"account","type":"address"},{"indexed":true,"internalType":"address","name":"sender","type":"address"}],"name":"RoleRevoked","type":"event"},{"anonymous":false,"inputs":[{"indexed":true,"internalType":"address","name":"from","type":"address"},{"indexed":true,"internalType":"address","name":"to","type":"address"},{"indexed":false,"internalType":"uint256","name":"value","type":"uint256"}],"name":"Transfer","type":"event"},{"anonymous":false,"inputs":[{"indexed":false,"internalType":"address","name":"account","type":"address"}],"name":"Unpaused","type":"event"},{"inputs":[],"name":"BRIDGE_ROLE","outputs":[{"internalType":"bytes32","name":"","type":"bytes32"}],"stateMutability":"view","type":"function"},{"inputs":[],"name":"BURNER_ROLE","outputs":[{"internalType":"bytes32","name":"","type":"bytes32"}],"stateMutability":"view","type":"function"},{"inputs":[],"name":"DEFAULT_ADMIN_ROLE","outputs":[{"internalType":"bytes32","name":"","type":"bytes32"}],"stateMutability":"view","type":"function"},{"inputs":[],"name":"MAX_MINT_PER_TX","outputs":[{"internalType":"uint256","name":"","type":"uint256"}],"stateMutability":"view","type":"function"},{"inputs":[],"name":"MINTER_ROLE","outputs":[{"internalType":"bytes32","name":"","type":"bytes32"}],"stateMutability":"view","type":"function"},{"inputs":[],"name":"PAUSER_ROLE","outputs":[{"internalType":"bytes32","name":"","type":"bytes32"}],"stateMutability":"view","type":"function"},{"inputs":[{"internalType":"address","name":"owner","type":"address"},{"internalType":"address","name":"spender","type":"address"}],"name":"allowance","outputs":[{"internalType":"uint256","name":"","type":"uint256"}],"stateMutability":"view","type":"function"},{"inputs":[{"internalType":"address","name":"spender","type":"address"},{"internalType":"uint256","name":"value","type":"uint256"}],"name":"approve","outputs":[{"internalType":"bool","name":"","type":"bool"}],"stateMutability":"nonpayable","type":"function"},{"inputs":[{"internalType":"address","name":"account","type":"address"}],"name":"balanceOf","outputs":[{"internalType":"uint256","name":"","type":"uint256"}],"stateMutability":"view","type":"function"},{"inputs":[{"internalType":"address","name":"from","type":"address"},{"internalType":"uint256","name":"amount","type":"uint256"},{"internalType":"bytes32","name":"l2TxHash","type":"bytes32"}],"name":"bridgeBurn","outputs":[],"stateMutability":"nonpayable","type":"function"},{"inputs":[{"internalType":"address","name":"to","type":"address"},{"internalType":"uint256","name":"amount","type":"uint256"},{"internalType":"bytes32","name":"l2TxHash","type":"bytes32"}],"name":"bridgeMint","outputs":[],"stateMutability":"nonpayable","type":"function"},{"inputs":[{"internalType":"uint256","name":"value","type":"uint256"}],"name":"burn","outputs":[],"stateMutability":"nonpayable","type":"function"},{"inputs":[{"internalType":"address","name":"from","type":"address"},{"internalType":"uint256","name":"amount","type":"uint256"}],"name":"burn","outputs":[],"stateMutability":"nonpayable","type":"function"},{"inputs":[{"internalType":"address","name":"account","type":"address"},{"internalType":"uint256","name":"value","type":"uint256"}],"name":"burnFrom","outputs":[],"stateMutability":"nonpayable","type":"function"},{"inputs":[{"internalType":"address","name":"account","type":"address"}],"name":"canBurn","outputs":[{"internalType":"bool","name":"","type":"bool"}],"stateMutability":"view","type":"function"},{"inputs":[{"internalType":"address","name":"account","type":"address"}],"name":"canMint","outputs":[{"internalType":"bool","name":"","type":"bool"}],"stateMutability":"view","type":"function"},{"inputs":[],"name":"dailyMintLimit","outputs":[{"internalType":"uint256","name":"","type":"uint256"}],"stateMutability":"view","type":"function"},{"inputs":[],"name":"dailyMintedAmount","outputs":[{"internalType":"uint256","name":"","type":"uint256"}],"stateMutability":"view","type":"function"},{"inputs":[],"name":"decimals","outputs":[{"internalType":"uint8","name":"","type":"uint8"}],"stateMutability":"pure","type":"function"},{"inputs":[],"name":"getRemainingDailyMintCapacity","outputs":[{"internalType":"uint256","name":"","type":"uint256"}],"stateMutability":"view","type":"function"},{"inputs":[{"internalType":"bytes32","name":"role","type":"bytes32"}],"name":"getRoleAdmin","outputs":[{"internalType":"bytes32","name":"","type":"bytes32"}],"stateMutability":"view","type":"function"},{"inputs":[],"name":"getTimeUntilLimitReset","outputs":[{"internalType":"uint256","name":"","type":"uint256"}],"stateMutability":"view","type":"function"},{"inputs":[{"internalType":"bytes32","name":"role","type":"bytes32"},{"internalType":"address","name":"account","type":"address"}],"name":"grantRole","outputs":[],"stateMutability":"nonpayable","type":"function"},{"inputs":[{"internalType":"bytes32","name":"role","type":"bytes32"},{"internalType":"address","name":"account","type":"address"}],"name":"hasRole","outputs":[{"internalType":"bool","name":"","type":"bool"}],"stateMutability":"view","type":"function"},{"inputs":[],"name":"l2Bridge","outputs":[{"internalType":"address","name":"","type":"address"}],"stateMutability":"view","type":"function"},{"inputs":[],"name":"lastMintResetTime","outputs":[{"internalType":"uint256","name":"","type":"uint256"}],"stateMutability":"view","type":"function"},{"inputs":[{"internalType":"address","name":"to","type":"address"},{"internalType":"uint256","name":"amount","type":"uint256"}],"name":"mint","outputs":[],"stateMutability":"nonpayable","type":"function"},{"inputs":[],"name":"name","outputs":[{"internalType":"string","name":"","type":"string"}],"stateMutability":"view","type":"function"},{"inputs":[],"name":"pause","outputs":[],"stateMutability":"nonpayable","type":"function"},{"inputs":[],"name":"paused","outputs":[{"internalType":"bool","name":"","type":"bool"}],"stateMutability":"view","type":"function"},{"inputs":[{"internalType":"bytes32","name":"role","type":"bytes32"},{"internalType":"address","name":"callerConfirmation","type":"address"}],"name":"renounceRole","outputs":[],"stateMutability":"nonpayable","type":"function"},{"inputs":[{"internalType":"bytes32","name":"role","type":"bytes32"},{"internalType":"address","name":"account","type":"address"}],"name":"revokeRole","outputs":[],"stateMutability":"nonpayable","type":"function"},{"inputs":[{"internalType":"uint256","name":"newLimit","type":"uint256"}],"name":"setDailyMintLimit","outputs":[],"stateMutability":"nonpayable","type":"function"},{"inputs":[{"internalType":"address","name":"_l2Bridge","type":"address"}],"name":"setL2Bridge","outputs":[],"stateMutability":"nonpayable","type":"function"},{"inputs":[{"internalType":"bytes4","name":"interfaceId","type":"bytes4"}],"name":"supportsInterface","outputs":[{"internalType":"bool","name":"","type":"bool"}],"stateMutability":"view","type":"function"},{"inputs":[],"name":"symbol","outputs":[{"internalType":"string","name":"","type":"string"}],"stateMutability":"view","type":"function"},{"inputs":[],"name":"totalSupply","outputs":[{"internalType":"uint256","name":"","type":"uint256"}],"stateMutability":"view","type":"function"},{"inputs":[],"name":"totalSupplyFormatted","outputs":[{"internalType":"uint256","name":"","type":"uint256"}],"stateMutability":"view","type":"function"},{"inputs":[{"internalType":"address","name":"to","type":"address"},{"internalType":"uint256","name":"value","type":"uint256"}],"name":"transfer","outputs":[{"internalType":"bool","name":"","type":"bool"}],"stateMutability":"nonpayable","type":"function"},{"inputs":[{"internalType":"address","name":"from","type":"address"},{"internalType":"address","name":"to","type":"address"},{"internalType":"uint256","name":"value","type":"uint256"}],"name":"transferFrom","outputs":[{"internalType":"bool","name":"","type":"bool"}],"stateMutability":"nonpayable","type":"function"},{"inputs":[],"name":"unpause","outputs":[],"stateMutability":"nonpayable","type":"function"}],"evm":{"bytecode":{"linkReferences":{},"object":"60806040526509184e72a0006007553480156200001b57600080fd5b506040518060400160405280600a815260200169131bde585b1d1e5554d160b21b81525060405180604001604052806004815260200163131554d160e21b81525081600390816200006d91906200027a565b5060046200007c82826200027a565b506200008e9150600090503362000120565b50620000bb7f65d7a28e3265b37a6474929f336521b332c1681b933f6cb9f3376673440d862a3362000120565b50620000e87f9f2df0fed2c77648de5860a4cc508cd0818c85b8b8a1ab4ceeef8d981c8956a63362000120565b50620001157f3c11d16cbaffd01df69ce1c404f6340ee057498f5f00246190ea54220576a8483362000120565b504260095562000346565b60008281526005602090815260408083206001600160a01b038516845290915281205460ff16620001c95760008381526005602090815260408083206001600160a01b03861684529091529020805460ff19166001179055620001803390565b6001600160a01b0316826001600160a01b0316847f2f8788117e7eff1d82e926ec794901d17c78024a50270940304540a733656f0d60405160405180910390a4506001620001cd565b5060005b92915050565b634e487b7160e01b600052604160045260246000fd5b600181811c90821680620001fe57607f821691505b6020821081036200021f57634e487b7160e01b600052602260045260246000fd5b50919050565b601f82111562000275576000816000526020600020601f850160051c81016020861015620002505750805b601f850160051c820191505b8181101562000271578281556001016200025c565b5050505b505050565b81516001600160401b03811115620002965762000296620001d3565b620002ae81620002a78454620001e9565b8462000225565b602080601f831160018114620002e65760008415620002cd5750858301515b600019600386901b1c1916600185901b17855562000271565b600085815260208120601f198616915b828110156200031757888601518255948401946001909101908401620002f6565b5085821015620003365787850151600019600388901b60f8161c191681555b5050505050600190811b01905550565b61195680620003566000396000f3fe608060405234801561001057600080fd5b50600436106102535760003560e01c80638456cb5911610146578063ae1f6aaf116100c3578063d539139311610087578063d5391393146104ef578063d547741f14610516578063d8fe4e9f14610529578063dd62ed3e14610531578063e63ab1e91461056a578063f661e6311461059157600080fd5b8063ae1f6aaf1461047c578063b2d52d27146104ac578063b3aac012146104bf578063b5bfddea146104c7578063c2ba4744146104dc57600080fd5b806395d89b411161010a57806395d89b411461043d5780639dc29fac146104455780639f2d8b8014610458578063a217fddf14610461578063a9059cbb1461046957600080fd5b80638456cb59146103fb57806387e04042146104035780638ecad7211461041657806391d1485414610422578063936aeef31461043557600080fd5b80633820a686116101d45780635c975abb116101985780635c975abb146103a257806362680e4b146103ad57806370a08231146103b657806371f110ff146103df57806379cc6790146103e857600080fd5b80633820a6861461034e5780633d36d971146103615780633f4ba83a1461037457806340c10f191461037c57806342966c681461038f57600080fd5b8063248a9ca31161021b578063248a9ca3146102cd578063282c51f3146102f05780632f2ff15d14610317578063313ce5671461032c57806336568abe1461033b57600080fd5b806301ffc9a71461025857806306fdde0314610280578063095ea7b31461029557806318160ddd146102a857806323b872dd146102ba575b600080fd5b61026b6102663660046115b6565b6105a4565b60405190151581526020015b60405180910390f35b6102886105db565b60405161027791906115e7565b61026b6102a3366004611652565b61066d565b6002545b604051908152602001610277565b61026b6102c836600461167c565b610685565b6102ac6102db3660046116b8565b60009081526005602052604090206001015490565b6102ac7f3c11d16cbaffd01df69ce1c404f6340ee057498f5f00246190ea54220576a84881565b61032a6103253660046116d1565b6106a9565b005b60405160068152602001610277565b61032a6103493660046116d1565b6106d4565b61026b61035c3660046116fd565b61070c565b61032a61036f3660046116fd565b610756565b61032a610865565b61032a61038a366004611652565b6108c5565b61032a61039d3660046116b8565b610a4e565b60065460ff1661026b565b6102ac60075481565b6102ac6103c43660046116fd565b6001600160a01b031660009081526020819052604090205490565b6102ac60085481565b61032a6103f6366004611652565b610a5b565b61032a610a74565b61032a610411366004611718565b610ad4565b6102ac64e8d4a5100081565b61026b6104303660046116d1565b610b90565b6102ac610bbb565b610288610bdb565b61032a610453366004611652565b610bea565b6102ac60095481565b6102ac600081565b61026b610477366004611652565b610d31565b6006546104949061010090046001600160a01b031681565b6040516001600160a01b039091168152602001610277565b61032a6104ba3660046116b8565b610d3f565b6102ac610d90565b6102ac60008051602061190183398151915281565b61026b6104ea3660046116fd565b610dc5565b6102ac7f9f2df0fed2c77648de5860a4cc508cd0818c85b8b8a1ab4ceeef8d981c8956a681565b61032a6105243660046116d1565b610df1565b6102ac610e16565b6102ac61053f36600461174b565b6001600160a01b03918216600090815260016020908152604080832093909416825291909152205490565b6102ac7f65d7a28e3265b37a6474929f336521b332c1681b933f6cb9f3376673440d862a81565b61032a61059f366004611718565b610e57565b60006001600160e01b03198216637965db0b60e01b14806105d557506301ffc9a760e01b6001600160e01b03198316145b92915050565b6060600380546105ea90611775565b80601f016020809104026020016040519081016040528092919081815260200182805461061690611775565b80156106635780601f1061063857610100808354040283529160200191610663565b820191906000526020600020905b81548152906001019060200180831161064657829003601f168201915b5050505050905090565b60003361067b818585610fb9565b5060019392505050565b600033610693858285610fc6565b61069e85858561103f565b506001949350505050565b6000828152600560205260409020600101546106c48161109e565b6106ce83836110a8565b50505050565b6001600160a01b03811633146106fd5760405163334bd91960e11b815260040160405180910390fd5b610707828261113c565b505050565b60006107387f3c11d16cbaffd01df69ce1c404f6340ee057498f5f00246190ea54220576a84883610b90565b806105d557506105d560008051602061190183398151915283610b90565b60006107618161109e565b6001600160a01b0382166107b55760405162461bcd60e51b8152602060048201526016602482015275496e76616c696420627269646765206164647265737360501b60448201526064015b60405180910390fd5b600680546001600160a01b03848116610100908102610100600160a81b0319841617909355919004166107f6600080516020611901833981519152846110a8565b506001600160a01b038116156108205761081e6000805160206119018339815191528261113c565b505b826001600160a01b0316816001600160a01b03167ffbeaf70015f6ad12833bc6726f03af9bb91a7ee52827c6413c6c250c77854c9560405160405180910390a3505050565b7f65d7a28e3265b37a6474929f336521b332c1681b933f6cb9f3376673440d862a61088f8161109e565b6108976111a9565b60405133907ff5cbf596165cc457b2cd92e8d8450827ee314968160a5696402d75766fc52caf90600090a250565b7f9f2df0fed2c77648de5860a4cc508cd0818c85b8b8a1ab4ceeef8d981c8956a66108ef8161109e565b6001600160a01b0383166109455760405162461bcd60e51b815260206004820152601a60248201527f4c5553443a206d696e7420746f207a65726f206164647265737300000000000060448201526064016107ac565b600082116109a05760405162461bcd60e51b815260206004820152602260248201527f4c5553443a206d696e7420616d6f756e74206d75737420626520706f73697469604482015261766560f01b60648201526084016107ac565b64e8d4a510008211156109f55760405162461bcd60e51b815260206004820152601d60248201527f4c5553443a2065786365656473206d6178206d696e742070657220747800000060448201526064016107ac565b6109fe826111fb565b610a088383611294565b60405182815233906001600160a01b038516907ffd1ba5519feb014ad2f631cbd516bd3cec96be935749391554d122972593e7bf906020015b60405180910390a3505050565b610a5833826112ca565b50565b610a66823383610fc6565b610a7082826112ca565b5050565b7f65d7a28e3265b37a6474929f336521b332c1681b933f6cb9f3376673440d862a610a9e8161109e565b610aa6611300565b60405133907fb8fad2fa0ed7a383e747c309ef2c4391d7b65592a48893e57ccc1fab7079145690600090a250565b600080516020611901833981519152610aec8161109e565b60008311610b3c5760405162461bcd60e51b815260206004820152601d60248201527f4c5553443a20616d6f756e74206d75737420626520706f73697469766500000060448201526064016107ac565b610b4684846112ca565b81846001600160a01b03167f7b7c7eab98a871dfe9496db9802be5d6175a2c454530fa7f467b98cc0689510185604051610b8291815260200190565b60405180910390a350505050565b60009182526005602090815260408084206001600160a01b0393909316845291905290205460ff1690565b6000610bc96006600a6118a9565b600254610bd691906118b8565b905090565b6060600480546105ea90611775565b336001600160a01b0383161480610c265750610c267f3c11d16cbaffd01df69ce1c404f6340ee057498f5f00246190ea54220576a84833610b90565b610c885760405162461bcd60e51b815260206004820152602d60248201527f4c5553443a206d7573742068617665204255524e45525f524f4c45206f72206260448201526c32903a37b5b2b71037bbb732b960991b60648201526084016107ac565b60008111610ce35760405162461bcd60e51b815260206004820152602260248201527f4c5553443a206275726e20616d6f756e74206d75737420626520706f73697469604482015261766560f01b60648201526084016107ac565b610ced82826112ca565b60405181815233906001600160a01b038416907f4bec313b95a1f7373890b5d9dce4c4737945f27093ca8f3e357bec1219299eaf9060200160405180910390a35050565b60003361067b81858561103f565b6000610d4a8161109e565b600780549083905560408051828152602081018590527f8cf975fdba36321e100760d71c0717a9286810fcc2b7b1154ee84ef8450444b3910160405180910390a1505050565b60008060095462015180610da491906118da565b9050804210610db557600091505090565b610dbf42826118ed565b91505090565b60006107387f9f2df0fed2c77648de5860a4cc508cd0818c85b8b8a1ab4ceeef8d981c8956a683610b90565b600082815260056020526040902060010154610e0c8161109e565b6106ce838361113c565b600060095462015180610e2991906118da565b4210610e36575060075490565b60075460085410610e475750600090565b600854600754610bd691906118ed565b600080516020611901833981519152610e6f8161109e565b6001600160a01b038416610ec55760405162461bcd60e51b815260206004820152601a60248201527f4c5553443a206d696e7420746f207a65726f206164647265737300000000000060448201526064016107ac565b60008311610f155760405162461bcd60e51b815260206004820152601d60248201527f4c5553443a20616d6f756e74206d75737420626520706f73697469766500000060448201526064016107ac565b64e8d4a51000831115610f6a5760405162461bcd60e51b815260206004820152601d60248201527f4c5553443a2065786365656473206d6178206d696e742070657220747800000060448201526064016107ac565b610f73836111fb565b610f7d8484611294565b81846001600160a01b03167f096d591342eea46377f5d86fed8a91ab1e9be20a7c3f5d698cecc1d4f698680a85604051610b8291815260200190565b610707838383600161133d565b6001600160a01b038381166000908152600160209081526040808320938616835292905220546000198110156106ce578181101561103057604051637dc7a0d960e11b81526001600160a01b038416600482015260248101829052604481018390526064016107ac565b6106ce8484848403600061133d565b6001600160a01b03831661106957604051634b637e8f60e11b8152600060048201526024016107ac565b6001600160a01b0382166110935760405163ec442f0560e01b8152600060048201526024016107ac565b610707838383611404565b610a588133611417565b60006110b48383610b90565b6111345760008381526005602090815260408083206001600160a01b03861684529091529020805460ff191660011790556110ec3390565b6001600160a01b0316826001600160a01b0316847f2f8788117e7eff1d82e926ec794901d17c78024a50270940304540a733656f0d60405160405180910390a45060016105d5565b5060006105d5565b60006111488383610b90565b156111345760008381526005602090815260408083206001600160a01b0386168085529252808320805460ff1916905551339286917ff6391f5c32d9c69d2a47ea670b442974b53935d1edc7fd64eb21e047a839171b9190a45060016105d5565b6111b1611450565b6006805460ff191690557f5db9ee0a495bf2e6ff9c91a7834c1ba4fdd244a5e8aa4e537bd38aeae4b073aa335b6040516001600160a01b03909116815260200160405180910390a1565b60095461120b90620151806118da565b421061121b576000600855426009555b6007548160085461122c91906118da565b111561127a5760405162461bcd60e51b815260206004820152601e60248201527f4c5553443a2065786365656473206461696c79206d696e74206c696d6974000060448201526064016107ac565b806008600082825461128c91906118da565b909155505050565b6001600160a01b0382166112be5760405163ec442f0560e01b8152600060048201526024016107ac565b610a7060008383611404565b6001600160a01b0382166112f457604051634b637e8f60e11b8152600060048201526024016107ac565b610a7082600083611404565b611308611475565b6006805460ff191660011790557f62e78cea01bee320cd4e420270b5ea74000d11b0c9f74754ebdbfc544b05a2586111de3390565b6001600160a01b0384166113675760405163e602df0560e01b8152600060048201526024016107ac565b6001600160a01b03831661139157604051634a1406b160e11b8152600060048201526024016107ac565b6001600160a01b03808516600090815260016020908152604080832093871683529290522082905580156106ce57826001600160a01b0316846001600160a01b03167f8c5be1e5ebec7d5bd14f71427d1e84f3dd0314c0f7b2291e5b200ac8c7c3b92584604051610b8291815260200190565b61140c611475565b610707838383611499565b6114218282610b90565b610a705760405163e2517d3f60e01b81526001600160a01b0382166004820152602481018390526044016107ac565b60065460ff1661147357604051638dfc202b60e01b815260040160405180910390fd5b565b60065460ff16156114735760405163d93c066560e01b815260040160405180910390fd5b6001600160a01b0383166114c45780600260008282546114b991906118da565b909155506115369050565b6001600160a01b038316600090815260208190526040902054818110156115175760405163391434e360e21b81526001600160a01b038516600482015260248101829052604481018390526064016107ac565b6001600160a01b03841660009081526020819052604090209082900390555b6001600160a01b03821661155257600280548290039055611571565b6001600160a01b03821660009081526020819052604090208054820190555b816001600160a01b0316836001600160a01b03167fddf252ad1be2c89b69c2b068fc378daa952ba7f163c4a11628f55a4df523b3ef83604051610a4191815260200190565b6000602082840312156115c857600080fd5b81356001600160e01b0319811681146115e057600080fd5b9392505050565b60006020808352835180602085015260005b81811015611615578581018301518582016040015282016115f9565b506000604082860101526040601f19601f8301168501019250505092915050565b80356001600160a01b038116811461164d57600080fd5b919050565b6000806040838503121561166557600080fd5b61166e83611636565b946020939093013593505050565b60008060006060848603121561169157600080fd5b61169a84611636565b92506116a860208501611636565b9150604084013590509250925092565b6000602082840312156116ca57600080fd5b5035919050565b600080604083850312156116e457600080fd5b823591506116f460208401611636565b90509250929050565b60006020828403121561170f57600080fd5b6115e082611636565b60008060006060848603121561172d57600080fd5b61173684611636565b95602085013595506040909401359392505050565b6000806040838503121561175e57600080fd5b61176783611636565b91506116f460208401611636565b600181811c9082168061178957607f821691505b6020821081036117a957634e487b7160e01b600052602260045260246000fd5b50919050565b634e487b7160e01b600052601160045260246000fd5b600181815b808511156118005781600019048211156117e6576117e66117af565b808516156117f357918102915b93841c93908002906117ca565b509250929050565b600082611817575060016105d5565b81611824575060006105d5565b816001811461183a576002811461184457611860565b60019150506105d5565b60ff841115611855576118556117af565b50506001821b6105d5565b5060208310610133831016604e8410600b8410161715611883575081810a6105d5565b61188d83836117c5565b80600019048211156118a1576118a16117af565b029392505050565b60006115e060ff841683611808565b6000826118d557634e487b7160e01b600052601260045260246000fd5b500490565b808201808211156105d5576105d56117af565b818103818111156105d5576105d56117af56fe52ba824bfabc2bcfcdf7f0edbb486ebb05e1836c90e78047efeb949990f72e5fa26469706673582212205d59861ad17e2794fa6626c752e7b3e68522c0e1a58fc60d075b5a34729d936d64736f6c63430008160033","opcodes":"PUSH1 0x80 PUSH1 0x40 MSTORE PUSH6 0x9184E72A000 PUSH1 0x7 SSTORE CALLVALUE DUP1 ISZERO PUSH3 0x1B JUMPI PUSH1 0x0 DUP1 REVERT JUMPDEST POP PUSH1 0x40 MLOAD DUP1 PUSH1 0x40 ADD PUSH1 0x40 MSTORE DUP1 PUSH1 0xA DUP2 MSTORE PUSH1 0x20 ADD PUSH10 0x131BDE585B1D1E5554D1 PUSH1 0xB2 SHL DUP2 MSTORE POP PUSH1 0x40 MLOAD DUP1 PUSH1 0x40 ADD PUSH1 0x40 MSTORE DUP1 PUSH1 0x4 DUP2 MSTORE PUSH1 0x20 ADD PUSH4 0x131554D1 PUSH1 0xE2 SHL DUP2 MSTORE POP DUP2 PUSH1 0x3 SWAP1 DUP2 PUSH3 0x6D SWAP2 SWAP1 PUSH3 0x27A JUMP JUMPDEST POP PUSH1 0x4 PUSH3 0x7C DUP3 DUP3 PUSH3 0x27A JUMP JUMPDEST POP PUSH3 0x8E SWAP2 POP PUSH1 0x0 SWAP1 POP CALLER PUSH3 0x120 JUMP JUMPDEST POP PUSH3 0xBB PUSH32 0x65D7A28E3265B37A6474929F336521B332C1681B933F6CB9F3376673440D862A CALLER PUSH3 0x120 JUMP JUMPDEST POP PUSH3 0xE8 PUSH32 0x9F2DF0FED2C77648DE5860A4CC508CD0818C85B8B8A1AB4CEEEF8D981C8956A6 CALLER PUSH3 0x120 JUMP JUMPDEST POP PUSH3 0x115 PUSH32 0x3C11D16CBAFFD01DF69CE1C404F6340EE057498F5F00246190EA54220576A848 CALLER PUSH3 0x120 JUMP JUMPDEST POP TIMESTAMP PUSH1 0x9 SSTORE PUSH3 0x346 JUMP JUMPDEST PUSH1 0x0 DUP3 DUP2 MSTORE PUSH1 0x5 PUSH1 0x20 SWAP1 DUP2 MSTORE PUSH1 0x40 DUP1 DUP4 KECCAK256 PUSH1 0x1 PUSH1 0x1 PUSH1 0xA0 SHL SUB DUP6 AND DUP5 MSTORE SWAP1 SWAP2 MSTORE DUP2 KECCAK256 SLOAD PUSH1 0xFF AND PUSH3 0x1C9 JUMPI PUSH1 0x0 DUP4 DUP2 MSTORE PUSH1 0x5 PUSH1 0x20 SWAP1 DUP2 MSTORE PUSH1 0x40 DUP1 DUP4 KECCAK256 PUSH1 0x1 PUSH1 0x1 PUSH1 0xA0 SHL SUB DUP7 AND DUP5 MSTORE SWAP1 SWAP2 MSTORE SWAP1 KECCAK256 DUP1 SLOAD PUSH1 0xFF NOT AND PUSH1 0x1 OR SWAP1 SSTORE PUSH3 0x180 CALLER SWAP1 JUMP JUMPDEST PUSH1 0x1 PUSH1 0x1 PUSH1 0xA0 SHL SUB AND DUP3 PUSH1 0x1 PUSH1 0x1 PUSH1 0xA0 SHL SUB AND DUP5 PUSH32 0x2F8788117E7EFF1D82E926EC794901D17C78024A50270940304540A733656F0D PUSH1 0x40 MLOAD PUSH1 0x40 MLOAD DUP1 SWAP2 SUB SWAP1 LOG4 POP PUSH1 0x1 PUSH3 0x1CD JUMP JUMPDEST POP PUSH1 0x0 JUMPDEST SWAP3 SWAP2 POP POP JUMP JUMPDEST PUSH4 0x4E487B71 PUSH1 0xE0 SHL PUSH1 0x0 MSTORE PUSH1 0x41 PUSH1 0x4 MSTORE PUSH1 0x24 PUSH1 0x0 REVERT JUMPDEST PUSH1 0x1 DUP2 DUP2 SHR SWAP1 DUP3 AND DUP1 PUSH3 0x1FE JUMPI PUSH1 0x7F DUP3 AND SWAP2 POP JUMPDEST PUSH1 0x20 DUP3 LT DUP2 SUB PUSH3 0x21F JUMPI PUSH4 0x4E487B71 PUSH1 0xE0 SHL PUSH1 0x0 MSTORE PUSH1 0x22 PUSH1 0x4 MSTORE PUSH1 0x24 PUSH1 0x0 REVERT JUMPDEST POP SWAP2 SWAP1 POP JUMP JUMPDEST PUSH1 0x1F DUP3 GT ISZERO PUSH3 0x275 JUMPI PUSH1 0x0 DUP2 PUSH1 0x0 MSTORE PUSH1 0x20 PUSH1 0x0 KECCAK256 PUSH1 0x1F DUP6 ADD PUSH1 0x5 SHR DUP2 ADD PUSH1 0x20 DUP7 LT ISZERO PUSH3 0x250 JUMPI POP DUP1 JUMPDEST PUSH1 0x1F DUP6 ADD PUSH1 0x5 SHR DUP3 ADD SWAP2 POP JUMPDEST DUP2 DUP2 LT ISZERO PUSH3 0x271 JUMPI DUP3 DUP2 SSTORE PUSH1 0x1 ADD PUSH3 0x25C JUMP JUMPDEST POP POP POP JUMPDEST POP POP POP JUMP JUMPDEST DUP2 MLOAD PUSH1 0x1 PUSH1 0x1 PUSH1 0x40 SHL SUB DUP2 GT ISZERO PUSH3 0x296 JUMPI PUSH3 0x296 PUSH3 0x1D3 JUMP JUMPDEST PUSH3 0x2AE DUP2 PUSH3 0x2A7 DUP5 SLOAD PUSH3 0x1E9 JUMP JUMPDEST DUP5 PUSH3 0x225 JUMP JUMPDEST PUSH1 0x20 DUP1 PUSH1 0x1F DUP4 GT PUSH1 0x1 DUP2 EQ PUSH3 0x2E6 JUMPI PUSH1 0x0 DUP5 ISZERO PUSH3 0x2CD JUMPI POP DUP6 DUP4 ADD MLOAD JUMPDEST PUSH1 0x0 NOT PUSH1 0x3 DUP7 SWAP1 SHL SHR NOT AND PUSH1 0x1 DUP6 SWAP1 SHL OR DUP6 SSTORE PUSH3 0x271 JUMP JUMPDEST PUSH1 0x0 DUP6 DUP2 MSTORE PUSH1 0x20 DUP2 KECCAK256 PUSH1 0x1F NOT DUP7 AND SWAP2 JUMPDEST DUP3 DUP2 LT ISZERO PUSH3 0x317 JUMPI DUP9 DUP7 ADD MLOAD DUP3 SSTORE SWAP5 DUP5 ADD SWAP5 PUSH1 0x1 SWAP1 SWAP2 ADD SWAP1 DUP5 ADD PUSH3 0x2F6 JUMP JUMPDEST POP DUP6 DUP3 LT ISZERO PUSH3 0x336 JUMPI DUP8 DUP6 ADD MLOAD PUSH1 0x0 NOT PUSH1 0x3 DUP9 SWAP1 SHL PUSH1 0xF8 AND SHR NOT AND DUP2 SSTORE JUMPDEST POP POP POP POP POP PUSH1 0x1 SWAP1 DUP2 SHL ADD SWAP1 SSTORE POP JUMP JUMPDEST PUSH2 0x1956 DUP1 PUSH3 0x356 PUSH1 0x0 CODECOPY PUSH1 0x0 RETURN INVALID PUSH1 0x80 PUSH1 0x40 MSTORE CALLVALUE DUP1 ISZERO PUSH2 0x10 JUMPI PUSH1 0x0 DUP1 REVERT JUMPDEST POP PUSH1 0x4 CALLDATASIZE LT PUSH2 0x253 JUMPI PUSH1 0x0 CALLDATALOAD PUSH1 0xE0 SHR DUP1 PUSH4 0x8456CB59 GT PUSH2 0x146 JUMPI DUP1 PUSH4 0xAE1F6AAF GT PUSH2 0xC3 JUMPI DUP1 PUSH4 0xD5391393 GT PUSH2 0x87 JUMPI DUP1 PUSH4 0xD5391393 EQ PUSH2 0x4EF JUMPI DUP1 PUSH4 0xD547741F EQ PUSH2 0x516 JUMPI DUP1 PUSH4 0xD8FE4E9F EQ PUSH2 0x529 JUMPI DUP1 PUSH4 0xDD62ED3E EQ PUSH2 0x531 JUMPI DUP1 PUSH4 0xE63AB1E9 EQ PUSH2 0x56A JUMPI DUP1 PUSH4 0xF661E631 EQ PUSH2 0x591 JUMPI PUSH1 0x0 DUP1 REVERT JUMPDEST DUP1 PUSH4 0xAE1F6AAF EQ PUSH2 0x47C JUMPI DUP1 PUSH4 0xB2D52D27 EQ PUSH2 0x4AC JUMPI DUP1 PUSH4 0xB3AAC012 EQ PUSH2 0x4BF JUMPI DUP1 PUSH4 0xB5BFDDEA EQ PUSH2 0x4C7 JUMPI DUP1 PUSH4 0xC2BA4744 EQ PUSH2 0x4DC JUMPI PUSH1 0x0 DUP1 REVERT JUMPDEST DUP1 PUSH4 0x95D89B41 GT PUSH2 0x10A JUMPI DUP1 PUSH4 0x95D89B41 EQ PUSH2 0x43D JUMPI DUP1 PUSH4 0x9DC29FAC EQ PUSH2 0x445 JUMPI DUP1 PUSH4 0x9F2D8B80 EQ PUSH2 0x458 JUMPI DUP1 PUSH4 0xA217FDDF EQ PUSH2 0x461 JUMPI DUP1 PUSH4 0xA9059CBB EQ PUSH2 0x469 JUMPI PUSH1 0x0 DUP1 REVERT JUMPDEST DUP1 PUSH4 0x8456CB59 EQ PUSH2 0x3FB JUMPI DUP1 PUSH4 0x87E04042 EQ PUSH2 0x403 JUMPI DUP1 PUSH4 0x8ECAD721 EQ PUSH2 0x416 JUMPI DUP1 PUSH4 0x91D14854 EQ PUSH2 0x422 JUMPI DUP1 PUSH4 0x936AEEF3 EQ PUSH2 0x435 JUMPI PUSH1 0x0 DUP1 REVERT JUMPDEST DUP1 PUSH4 0x3820A686 GT PUSH2 0x1D4 JUMPI DUP1 PUSH4 0x5C975ABB GT PUSH2 0x198 JUMPI DUP1 PUSH4 0x5C975ABB EQ PUSH2 0x3A2 JUMPI DUP1 PUSH4 0x62680E4B EQ PUSH2 0x3AD JUMPI DUP1 PUSH4 0x70A08231 EQ PUSH2 0x3B6 JUMPI DUP1 PUSH4 0x71F110FF EQ PUSH2 0x3DF JUMPI DUP1 PUSH4 0x79CC6790 EQ PUSH2 0x3E8 JUMPI PUSH1 0x0 DUP1 REVERT JUMPDEST DUP1 PUSH4 0x3820A686 EQ PUSH2 0x34E JUMPI DUP1 PUSH4 0x3D36D971 EQ PUSH2 0x361 JUMPI DUP1 PUSH4 0x3F4BA83A EQ PUSH2 0x374 JUMPI DUP1 PUSH4 0x40C10F19 EQ PUSH2 0x37C JUMPI DUP1 PUSH4 0x42966C68 EQ PUSH2 0x38F JUMPI PUSH1 0x0 DUP1 REVERT JUMPDEST DUP1 PUSH4 0x248A9CA3 GT PUSH2 0x21B JUMPI DUP1 PUSH4 0x248A9CA3 EQ PUSH2 0x2CD JUMPI DUP1 PUSH4 0x282C51F3 EQ PUSH2 0x2F0 JUMPI DUP1 PUSH4 0x2F2FF15D EQ PUSH2 0x317 JUMPI DUP1 PUSH4 0x313CE567 EQ PUSH2 0x32C JUMPI DUP1 PUSH4 0x36568ABE EQ PUSH2 0x33B JUMPI PUSH1 0x0 DUP1 REVERT JUMPDEST DUP1 PUSH4 0x1FFC9A7 EQ PUSH2 0x258 JUMPI DUP1 PUSH4 0x6FDDE03 EQ PUSH2 0x280 JUMPI DUP1 PUSH4 0x95EA7B3 EQ PUSH2 0x295 JUMPI DUP1 PUSH4 0x18160DDD EQ PUSH2 0x2A8 JUMPI DUP1 PUSH4 0x23B872DD EQ PUSH2 0x2BA JUMPI JUMPDEST PUSH1 0x0 DUP1 REVERT JUMPDEST PUSH2 0x26B PUSH2 0x266 CALLDATASIZE PUSH1 0x4 PUSH2 0x15B6 JUMP JUMPDEST PUSH2 0x5A4 JUMP JUMPDEST PUSH1 0x40 MLOAD SWAP1 ISZERO ISZERO DUP2 MSTORE PUSH1 0x20 ADD JUMPDEST PUSH1 0x40 MLOAD DUP1 SWAP2 SUB SWAP1 RETURN JUMPDEST PUSH2 0x288 PUSH2 0x5DB JUMP JUMPDEST PUSH1 0x40 MLOAD PUSH2 0x277 SWAP2 SWAP1 PUSH2 0x15E7 JUMP JUMPDEST PUSH2 0x26B PUSH2 0x2A3 CALLDATASIZE PUSH1 0x4 PUSH2 0x1652 JUMP JUMPDEST PUSH2 0x66D JUMP JUMPDEST PUSH1 0x2 SLOAD JUMPDEST PUSH1 0x40 MLOAD SWAP1 DUP2 MSTORE PUSH1 0x20 ADD PUSH2 0x277 JUMP JUMPDEST PUSH2 0x26B PUSH2 0x2C8 CALLDATASIZE PUSH1 0x4 PUSH2 0x167C JUMP JUMPDEST PUSH2 0x685 JUMP JUMPDEST PUSH2 0x2AC PUSH2 0x2DB CALLDATASIZE PUSH1 0x4 PUSH2 0x16B8 JUMP JUMPDEST PUSH1 0x0 SWAP1 DUP2 MSTORE PUSH1 0x5 PUSH1 0x20 MSTORE PUSH1 0x40 SWAP1 KECCAK256 PUSH1 0x1 ADD SLOAD SWAP1 JUMP JUMPDEST PUSH2 0x2AC PUSH32 0x3C11D16CBAFFD01DF69CE1C404F6340EE057498F5F00246190EA54220576A848 DUP2 JUMP JUMPDEST PUSH2 0x32A PUSH2 0x325 CALLDATASIZE PUSH1 0x4 PUSH2 0x16D1 JUMP JUMPDEST PUSH2 0x6A9 JUMP JUMPDEST STOP JUMPDEST PUSH1 0x40 MLOAD PUSH1 0x6 DUP2 MSTORE PUSH1 0x20 ADD PUSH2 0x277 JUMP JUMPDEST PUSH2 0x32A PUSH2 0x349 CALLDATASIZE PUSH1 0x4 PUSH2 0x16D1 JUMP JUMPDEST PUSH2 0x6D4 JUMP JUMPDEST PUSH2 0x26B PUSH2 0x35C CALLDATASIZE PUSH1 0x4 PUSH2 0x16FD JUMP JUMPDEST PUSH2 0x70C JUMP JUMPDEST PUSH2 0x32A PUSH2 0x36F CALLDATASIZE PUSH1 0x4 PUSH2 0x16FD JUMP JUMPDEST PUSH2 0x756 JUMP JUMPDEST PUSH2 0x32A PUSH2 0x865 JUMP JUMPDEST PUSH2 0x32A PUSH2 0x38A CALLDATASIZE PUSH1 0x4 PUSH2 0x1652 JUMP JUMPDEST PUSH2 0x8C5 JUMP JUMPDEST PUSH2 0x32A PUSH2 0x39D CALLDATASIZE PUSH1 0x4 PUSH2 0x16B8 JUMP JUMPDEST PUSH2 0xA4E JUMP JUMPDEST PUSH1 0x6 SLOAD PUSH1 0xFF AND PUSH2 0x26B JUMP JUMPDEST PUSH2 0x2AC PUSH1 0x7 SLOAD DUP2 JUMP JUMPDEST PUSH2 0x2AC PUSH2 0x3C4 CALLDATASIZE PUSH1 0x4 PUSH2 0x16FD JUMP JUMPDEST PUSH1 0x1 PUSH1 0x1 PUSH1 0xA0 SHL SUB AND PUSH1 0x0 SWAP1 DUP2 MSTORE PUSH1 0x20 DUP2 SWAP1 MSTORE PUSH1 0x40 SWAP1 KECCAK256 SLOAD SWAP1 JUMP JUMPDEST PUSH2 0x2AC PUSH1 0x8 SLOAD DUP2 JUMP JUMPDEST PUSH2 0x32A PUSH2 0x3F6 CALLDATASIZE PUSH1 0x4 PUSH2 0x1652 JUMP JUMPDEST PUSH2 0xA5B JUMP JUMPDEST PUSH2 0x32A PUSH2 0xA74 JUMP JUMPDEST PUSH2 0x32A PUSH2 0x411 CALLDATASIZE PUSH1 0x4 PUSH2 0x1718 JUMP JUMPDEST PUSH2 0xAD4 JUMP JUMPDEST PUSH2 0x2AC PUSH5 0xE8D4A51000 DUP2 JUMP JUMPDEST PUSH2 0x26B PUSH2 0x430 CALLDATASIZE PUSH1 0x4 PUSH2 0x16D1 JUMP JUMPDEST PUSH2 0xB90 JUMP JUMPDEST PUSH2 0x2AC PUSH2 0xBBB JUMP JUMPDEST PUSH2 0x288 PUSH2 0xBDB JUMP JUMPDEST PUSH2 0x32A PUSH2 0x453 CALLDATASIZE PUSH1 0x4 PUSH2 0x1652 JUMP JUMPDEST PUSH2 0xBEA JUMP JUMPDEST PUSH2 0x2AC PUSH1 0x9 SLOAD DUP2 JUMP JUMPDEST PUSH2 0x2AC PUSH1 0x0 DUP2 JUMP JUMPDEST PUSH2 0x26B PUSH2 0x477 CALLDATASIZE PUSH1 0x4 PUSH2 0x1652 JUMP JUMPDEST PUSH2 0xD31 JUMP JUMPDEST PUSH1 0x6 SLOAD PUSH2 0x494 SWAP1 PUSH2 0x100 SWAP1 DIV PUSH1 0x1 PUSH1 0x1 PUSH1 0xA0 SHL SUB AND DUP2 JUMP JUMPDEST PUSH1 0x40 MLOAD PUSH1 0x1 PUSH1 0x1 PUSH1 0xA0 SHL SUB SWAP1 SWAP2 AND DUP2 MSTORE PUSH1 0x20 ADD PUSH2 0x277 JUMP JUMPDEST PUSH2 0x32A PUSH2 0x4BA CALLDATASIZE PUSH1 0x4 PUSH2 0x16B8 JUMP JUMPDEST PUSH2 0xD3F JUMP JUMPDEST PUSH2 0x2AC PUSH2 0xD90 JUMP JUMPDEST PUSH2 0x2AC PUSH1 0x0 DUP1 MLOAD PUSH1 0x20 PUSH2 0x1901 DUP4 CODECOPY DUP2 MLOAD SWAP2 MSTORE DUP2 JUMP JUMPDEST PUSH2 0x26B PUSH2 0x4EA CALLDATASIZE PUSH1 0x4 PUSH2 0x16FD JUMP JUMPDEST PUSH2 0xDC5 JUMP JUMPDEST PUSH2 0x2AC PUSH32 0x9F2DF0FED2C77648DE5860A4CC508CD0818C85B8B8A1AB4CEEEF8D981C8956A6 DUP2 JUMP JUMPDEST PUSH2 0x32A PUSH2 0x524 CALLDATASIZE PUSH1 0x4 PUSH2 0x16D1 JUMP JUMPDEST PUSH2 0xDF1 JUMP JUMPDEST PUSH2 0x2AC PUSH2 0xE16 JUMP JUMPDEST PUSH2 0x2AC PUSH2 0x53F CALLDATASIZE PUSH1 0x4 PUSH2 0x174B JUMP JUMPDEST PUSH1 0x1 PUSH1 0x1 PUSH1 0xA0 SHL SUB SWAP2 DUP3 AND PUSH1 0x0 SWAP1 DUP2 MSTORE PUSH1 0x1 PUSH1 0x20 SWAP1 DUP2 MSTORE PUSH1 0x40 DUP1 DUP4 KECCAK256 SWAP4 SWAP1 SWAP5 AND DUP3 MSTORE SWAP2 SWAP1 SWAP2 MSTORE KECCAK256 SLOAD SWAP1 JUMP JUMPDEST PUSH2 0x2AC PUSH32 0x65D7A28E3265B37A6474929F336521B332C1681B933F6CB9F3376673440D862A DUP2 JUMP JUMPDEST PUSH2 0x32A PUSH2 0x59F CALLDATASIZE PUSH1 0x4 PUSH2 0x1718 JUMP JUMPDEST PUSH2 0xE57 JUMP JUMPDEST PUSH1 0x0 PUSH1 0x1 PUSH1 0x1 PUSH1 0xE0 SHL SUB NOT DUP3 AND PUSH4 0x7965DB0B PUSH1 0xE0 SHL EQ DUP1 PUSH2 0x5D5 JUMPI POP PUSH4 0x1FFC9A7 PUSH1 0xE0 SHL PUSH1 0x1 PUSH1 0x1 PUSH1 0xE0 SHL SUB NOT DUP4 AND EQ JUMPDEST SWAP3 SWAP2 POP POP JUMP JUMPDEST PUSH1 0x60 PUSH1 0x3 DUP1 SLOAD PUSH2 0x5EA SWAP1 PUSH2 0x1775 JUMP JUMPDEST DUP1 PUSH1 0x1F ADD PUSH1 0x20 DUP1 SWAP2 DIV MUL PUSH1 0x20 ADD PUSH1 0x40 MLOAD SWAP1 DUP2 ADD PUSH1 0x40 MSTORE DUP1 SWAP3 SWAP2 SWAP1 DUP2 DUP2 MSTORE PUSH1 0x20 ADD DUP3 DUP1 SLOAD PUSH2 0x616 SWAP1 PUSH2 0x1775 JUMP JUMPDEST DUP1 ISZERO PUSH2 0x663 JUMPI DUP1 PUSH1 0x1F LT PUSH2 0x638 JUMPI PUSH2 0x100 DUP1 DUP4 SLOAD DIV MUL DUP4 MSTORE SWAP2 PUSH1 0x20 ADD SWAP2 PUSH2 0x663 JUMP JUMPDEST DUP3 ADD SWAP2 SWAP1 PUSH1 0x0 MSTORE PUSH1 0x20 PUSH1 0x0 KECCAK256 SWAP1 JUMPDEST DUP2 SLOAD DUP2 MSTORE SWAP1 PUSH1 0x1 ADD SWAP1 PUSH1 0x20 ADD DUP1 DUP4 GT PUSH2 0x646 JUMPI DUP3 SWAP1 SUB PUSH1 0x1F AND DUP3 ADD SWAP2 JUMPDEST POP POP POP POP POP SWAP1 POP SWAP1 JUMP JUMPDEST PUSH1 0x0 CALLER PUSH2 0x67B DUP2 DUP6 DUP6 PUSH2 0xFB9 JUMP JUMPDEST POP PUSH1 0x1 SWAP4 SWAP3 POP POP POP JUMP JUMPDEST PUSH1 0x0 CALLER PUSH2 0x693 DUP6 DUP3 DUP6 PUSH2 0xFC6 JUMP JUMPDEST PUSH2 0x69E DUP6 DUP6 DUP6 PUSH2 0x103F JUMP JUMPDEST POP PUSH1 0x1 SWAP5 SWAP4 POP POP POP POP JUMP JUMPDEST PUSH1 0x0 DUP3 DUP2 MSTORE PUSH1 0x5 PUSH1 0x20 MSTORE PUSH1 0x40 SWAP1 KECCAK256 PUSH1 0x1 ADD SLOAD PUSH2 0x6C4 DUP2 PUSH2 0x109E JUMP JUMPDEST PUSH2 0x6CE DUP4 DUP4 PUSH2 0x10A8 JUMP JUMPDEST POP POP POP POP JUMP JUMPDEST PUSH1 0x1 PUSH1 0x1 PUSH1 0xA0 SHL SUB DUP2 AND CALLER EQ PUSH2 0x6FD JUMPI PUSH1 0x40 MLOAD PUSH4 0x334BD919 PUSH1 0xE1 SHL DUP2 MSTORE PUSH1 0x4 ADD PUSH1 0x40 MLOAD DUP1 SWAP2 SUB SWAP1 REVERT JUMPDEST PUSH2 0x707 DUP3 DUP3 PUSH2 0x113C JUMP JUMPDEST POP POP POP JUMP JUMPDEST PUSH1 0x0 PUSH2 0x738 PUSH32 0x3C11D16CBAFFD01DF69CE1C404F6340EE057498F5F00246190EA54220576A848 DUP4 PUSH2 0xB90 JUMP JUMPDEST DUP1 PUSH2 0x5D5 JUMPI POP PUSH2 0x5D5 PUSH1 0x0 DUP1 MLOAD PUSH1 0x20 PUSH2 0x1901 DUP4 CODECOPY DUP2 MLOAD SWAP2 MSTORE DUP4 PUSH2 0xB90 JUMP JUMPDEST PUSH1 0x0 PUSH2 0x761 DUP2 PUSH2 0x109E JUMP JUMPDEST PUSH1 0x1 PUSH1 0x1 PUSH1 0xA0 SHL SUB DUP3 AND PUSH2 0x7B5 JUMPI PUSH1 0x40 MLOAD PUSH3 0x461BCD PUSH1 0xE5 SHL DUP2 MSTORE PUSH1 0x20 PUSH1 0x4 DUP3 ADD MSTORE PUSH1 0x16 PUSH1 0x24 DUP3 ADD MSTORE PUSH22 0x496E76616C6964206272696467652061646472657373 PUSH1 0x50 SHL PUSH1 0x44 DUP3 ADD MSTORE PUSH1 0x64 ADD JUMPDEST PUSH1 0x40 MLOAD DUP1 SWAP2 SUB SWAP1 REVERT JUMPDEST PUSH1 0x6 DUP1 SLOAD PUSH1 0x1 PUSH1 0x1 PUSH1 0xA0 SHL SUB DUP5 DUP2 AND PUSH2 0x100 SWAP1 DUP2 MUL PUSH2 0x100 PUSH1 0x1 PUSH1 0xA8 SHL SUB NOT DUP5 AND OR SWAP1 SWAP4 SSTORE SWAP2 SWAP1 DIV AND PUSH2 0x7F6 PUSH1 0x0 DUP1 MLOAD PUSH1 0x20 PUSH2 0x1901 DUP4 CODECOPY DUP2 MLOAD SWAP2 MSTORE DUP5 PUSH2 0x10A8 JUMP JUMPDEST POP PUSH1 0x1 PUSH1 0x1 PUSH1 0xA0 SHL SUB DUP2 AND ISZERO PUSH2 0x820 JUMPI PUSH2 0x81E PUSH1 0x0 DUP1 MLOAD PUSH1 0x20 PUSH2 0x1901 DUP4 CODECOPY DUP2 MLOAD SWAP2 MSTORE DUP3 PUSH2 0x113C JUMP JUMPDEST POP JUMPDEST DUP3 PUSH1 0x1 PUSH1 0x1 PUSH1 0xA0 SHL SUB AND DUP2 PUSH1 0x1 PUSH1 0x1 PUSH1 0xA0 SHL SUB AND PUSH32 0xFBEAF70015F6AD12833BC6726F03AF9BB91A7EE52827C6413C6C250C77854C95 PUSH1 0x40 MLOAD PUSH1 0x40 MLOAD DUP1 SWAP2 SUB SWAP1 LOG3 POP POP POP JUMP JUMPDEST PUSH32 0x65D7A28E3265B37A6474929F336521B332C1681B933F6CB9F3376673440D862A PUSH2 0x88F DUP2 PUSH2 0x109E JUMP JUMPDEST PUSH2 0x897 PUSH2 0x11A9 JUMP JUMPDEST PUSH1 0x40 MLOAD CALLER SWAP1 PUSH32 0xF5CBF596165CC457B2CD92E8D8450827EE314968160A5696402D75766FC52CAF SWAP1 PUSH1 0x0 SWAP1 LOG2 POP JUMP JUMPDEST PUSH32 0x9F2DF0FED2C77648DE5860A4CC508CD0818C85B8B8A1AB4CEEEF8D981C8956A6 PUSH2 0x8EF DUP2 PUSH2 0x109E JUMP JUMPDEST PUSH1 0x1 PUSH1 0x1 PUSH1 0xA0 SHL SUB DUP4 AND PUSH2 0x945 JUMPI PUSH1 0x40 MLOAD PUSH3 0x461BCD PUSH1 0xE5 SHL DUP2 MSTORE PUSH1 0x20 PUSH1 0x4 DUP3 ADD MSTORE PUSH1 0x1A PUSH1 0x24 DUP3 ADD MSTORE PUSH32 0x4C5553443A206D696E7420746F207A65726F2061646472657373000000000000 PUSH1 0x44 DUP3 ADD MSTORE PUSH1 0x64 ADD PUSH2 0x7AC JUMP JUMPDEST PUSH1 0x0 DUP3 GT PUSH2 0x9A0 JUMPI PUSH1 0x40 MLOAD PUSH3 0x461BCD PUSH1 0xE5 SHL DUP2 MSTORE PUSH1 0x20 PUSH1 0x4 DUP3 ADD MSTORE PUSH1 0x22 PUSH1 0x24 DUP3 ADD MSTORE PUSH32 0x4C5553443A206D696E7420616D6F756E74206D75737420626520706F73697469 PUSH1 0x44 DUP3 ADD MSTORE PUSH2 0x7665 PUSH1 0xF0 SHL PUSH1 0x64 DUP3 ADD MSTORE PUSH1 0x84 ADD PUSH2 0x7AC JUMP JUMPDEST PUSH5 0xE8D4A51000 DUP3 GT ISZERO PUSH2 0x9F5 JUMPI PUSH1 0x40 MLOAD PUSH3 0x461BCD PUSH1 0xE5 SHL DUP2 MSTORE PUSH1 0x20 PUSH1 0x4 DUP3 ADD MSTORE PUSH1 0x1D PUSH1 0x24 DUP3 ADD MSTORE PUSH32 0x4C5553443A2065786365656473206D6178206D696E7420706572207478000000 PUSH1 0x44 DUP3 ADD MSTORE PUSH1 0x64 ADD PUSH2 0x7AC JUMP JUMPDEST PUSH2 0x9FE DUP3 PUSH2 0x11FB JUMP JUMPDEST PUSH2 0xA08 DUP4 DUP4 PUSH2 0x1294 JUMP JUMPDEST PUSH1 0x40 MLOAD DUP3 DUP2 MSTORE CALLER SWAP1 PUSH1 0x1 PUSH1 0x1 PUSH1 0xA0 SHL SUB DUP6 AND SWAP1 PUSH32 0xFD1BA5519FEB014AD2F631CBD516BD3CEC96BE935749391554D122972593E7BF SWAP1 PUSH1 0x20 ADD JUMPDEST PUSH1 0x40 MLOAD DUP1 SWAP2 SUB SWAP1 LOG3 POP POP POP JUMP JUMPDEST PUSH2 0xA58 CALLER DUP3 PUSH2 0x12CA JUMP JUMPDEST POP JUMP JUMPDEST PUSH2 0xA66 DUP3 CALLER DUP4 PUSH2 0xFC6 JUMP JUMPDEST PUSH2 0xA70 DUP3 DUP3 PUSH2 0x12CA JUMP JUMPDEST POP POP JUMP JUMPDEST PUSH32 0x65D7A28E3265B37A6474929F336521B332C1681B933F6CB9F3376673440D862A PUSH2 0xA9E DUP2 PUSH2 0x109E JUMP JUMPDEST PUSH2 0xAA6 PUSH2 0x1300 JUMP JUMPDEST PUSH1 0x40 MLOAD CALLER SWAP1 PUSH32 0xB8FAD2FA0ED7A383E747C309EF2C4391D7B65592A48893E57CCC1FAB70791456 SWAP1 PUSH1 0x0 SWAP1 LOG2 POP JUMP JUMPDEST PUSH1 0x0 DUP1 MLOAD PUSH1 0x20 PUSH2 0x1901 DUP4 CODECOPY DUP2 MLOAD SWAP2 MSTORE PUSH2 0xAEC DUP2 PUSH2 0x109E JUMP JUMPDEST PUSH1 0x0 DUP4 GT PUSH2 0xB3C JUMPI PUSH1 0x40 MLOAD PUSH3 0x461BCD PUSH1 0xE5 SHL DUP2 MSTORE PUSH1 0x20 PUSH1 0x4 DUP3 ADD MSTORE PUSH1 0x1D PUSH1 0x24 DUP3 ADD MSTORE PUSH32 0x4C5553443A20616D6F756E74206D75737420626520706F736974697665000000 PUSH1 0x44 DUP3 ADD MSTORE PUSH1 0x64 ADD PUSH2 0x7AC JUMP JUMPDEST PUSH2 0xB46 DUP5 DUP5 PUSH2 0x12CA JUMP JUMPDEST DUP2 DUP5 PUSH1 0x1 PUSH1 0x1 PUSH1 0xA0 SHL SUB AND PUSH32 0x7B7C7EAB98A871DFE9496DB9802BE5D6175A2C454530FA7F467B98CC06895101 DUP6 PUSH1 0x40 MLOAD PUSH2 0xB82 SWAP2 DUP2 MSTORE PUSH1 0x20 ADD SWAP1 JUMP JUMPDEST PUSH1 0x40 MLOAD DUP1 SWAP2 SUB SWAP1 LOG3 POP POP POP POP JUMP JUMPDEST PUSH1 0x0 SWAP2 DUP3 MSTORE PUSH1 0x5 PUSH1 0x20 SWAP1 DUP2 MSTORE PUSH1 0x40 DUP1 DUP5 KECCAK256 PUSH1 0x1 PUSH1 0x1 PUSH1 0xA0 SHL SUB SWAP4 SWAP1 SWAP4 AND DUP5 MSTORE SWAP2 SWAP1 MSTORE SWAP1 KECCAK256 SLOAD PUSH1 0xFF AND SWAP1 JUMP JUMPDEST PUSH1 0x0 PUSH2 0xBC9 PUSH1 0x6 PUSH1 0xA PUSH2 0x18A9 JUMP JUMPDEST PUSH1 0x2 SLOAD PUSH2 0xBD6 SWAP2 SWAP1 PUSH2 0x18B8 JUMP JUMPDEST SWAP1 POP SWAP1 JUMP JUMPDEST PUSH1 0x60 PUSH1 0x4 DUP1 SLOAD PUSH2 0x5EA SWAP1 PUSH2 0x1775 JUMP JUMPDEST CALLER PUSH1 0x1 PUSH1 0x1 PUSH1 0xA0 SHL SUB DUP4 AND EQ DUP1 PUSH2 0xC26 JUMPI POP PUSH2 0xC26 PUSH32 0x3C11D16CBAFFD01DF69CE1C404F6340EE057498F5F00246190EA54220576A848 CALLER PUSH2 0xB90 JUMP JUMPDEST PUSH2 0xC88 JUMPI PUSH1 0x40 MLOAD PUSH3 0x461BCD PUSH1 0xE5 SHL DUP2 MSTORE PUSH1 0x20 PUSH1 0x4 DUP3 ADD MSTORE PUSH1 0x2D PUSH1 0x24 DUP3 ADD MSTORE PUSH32 0x4C5553443A206D7573742068617665204255524E45525F524F4C45206F722062 PUSH1 0x44 DUP3 ADD MSTORE PUSH13 0x32903A37B5B2B71037BBB732B9 PUSH1 0x99 SHL PUSH1 0x64 DUP3 ADD MSTORE PUSH1 0x84 ADD PUSH2 0x7AC JUMP JUMPDEST PUSH1 0x0 DUP2 GT PUSH2 0xCE3 JUMPI PUSH1 0x40 MLOAD PUSH3 0x461BCD PUSH1 0xE5 SHL DUP2 MSTORE PUSH1 0x20 PUSH1 0x4 DUP3 ADD MSTORE PUSH1 0x22 PUSH1 0x24 DUP3 ADD MSTORE PUSH32 0x4C5553443A206275726E20616D6F756E74206D75737420626520706F73697469 PUSH1 0x44 DUP3 ADD MSTORE PUSH2 0x7665 PUSH1 0xF0 SHL PUSH1 0x64 DUP3 ADD MSTORE PUSH1 0x84 ADD PUSH2 0x7AC JUMP JUMPDEST PUSH2 0xCED DUP3 DUP3 PUSH2 0x12CA JUMP JUMPDEST PUSH1 0x40 MLOAD DUP2 DUP2 MSTORE CALLER SWAP1 PUSH1 0x1 PUSH1 0x1 PUSH1 0xA0 SHL SUB DUP5 AND SWAP1 PUSH32 0x4BEC313B95A1F7373890B5D9DCE4C4737945F27093CA8F3E357BEC1219299EAF SWAP1 PUSH1 0x20 ADD PUSH1 0x40 MLOAD DUP1 SWAP2 SUB SWAP1 LOG3 POP POP JUMP JUMPDEST PUSH1 0x0 CALLER PUSH2 0x67B DUP2 DUP6 DUP6 PUSH2 0x103F JUMP JUMPDEST PUSH1 0x0 PUSH2 0xD4A DUP2 PUSH2 0x109E JUMP JUMPDEST PUSH1 0x7 DUP1 SLOAD SWAP1 DUP4 SWAP1 SSTORE PUSH1 0x40 DUP1 MLOAD DUP3 DUP2 MSTORE PUSH1 0x20 DUP2 ADD DUP6 SWAP1 MSTORE PUSH32 0x8CF975FDBA36321E100760D71C0717A9286810FCC2B7B1154EE84EF8450444B3 SWAP2 ADD PUSH1 0x40 MLOAD DUP1 SWAP2 SUB SWAP1 LOG1 POP POP POP JUMP JUMPDEST PUSH1 0x0 DUP1 PUSH1 0x9 SLOAD PUSH3 0x15180 PUSH2 0xDA4 SWAP2 SWAP1 PUSH2 0x18DA JUMP JUMPDEST SWAP1 POP DUP1 TIMESTAMP LT PUSH2 0xDB5 JUMPI PUSH1 0x0 SWAP2 POP POP SWAP1 JUMP JUMPDEST PUSH2 0xDBF TIMESTAMP DUP3 PUSH2 0x18ED JUMP JUMPDEST SWAP2 POP POP SWAP1 JUMP JUMPDEST PUSH1 0x0 PUSH2 0x738 PUSH32 0x9F2DF0FED2C77648DE5860A4CC508CD0818C85B8B8A1AB4CEEEF8D981C8956A6 DUP4 PUSH2 0xB90 JUMP JUMPDEST PUSH1 0x0 DUP3 DUP2 MSTORE PUSH1 0x5 PUSH1 0x20 MSTORE PUSH1 0x40 SWAP1 KECCAK256 PUSH1 0x1 ADD SLOAD PUSH2 0xE0C DUP2 PUSH2 0x109E JUMP JUMPDEST PUSH2 0x6CE DUP4 DUP4 PUSH2 0x113C JUMP JUMPDEST PUSH1 0x0 PUSH1 0x9 SLOAD PUSH3 0x15180 PUSH2 0xE29 SWAP2 SWAP1 PUSH2 0x18DA JUMP JUMPDEST TIMESTAMP LT PUSH2 0xE36 JUMPI POP PUSH1 0x7 SLOAD SWAP1 JUMP JUMPDEST PUSH1 0x7 SLOAD PUSH1 0x8 SLOAD LT PUSH2 0xE47 JUMPI POP PUSH1 0x0 SWAP1 JUMP JUMPDEST PUSH1 0x8 SLOAD PUSH1 0x7 SLOAD PUSH2 0xBD6 SWAP2 SWAP1 PUSH2 0x18ED JUMP JUMPDEST PUSH1 0x0 DUP1 MLOAD PUSH1 0x20 PUSH2 0x1901 DUP4 CODECOPY DUP2 MLOAD SWAP2 MSTORE PUSH2 0xE6F DUP2 PUSH2 0x109E JUMP JUMPDEST PUSH1 0x1 PUSH1 0x1 PUSH1 0xA0 SHL SUB DUP5 AND PUSH2 0xEC5 JUMPI PUSH1 0x40 MLOAD PUSH3 0x461BCD PUSH1 0xE5 SHL DUP2 MSTORE PUSH1 0x20 PUSH1 0x4 DUP3 ADD MSTORE PUSH1 0x1A PUSH1 0x24 DUP3 ADD MSTORE PUSH32 0x4C5553443A206D696E7420746F207A65726F2061646472657373000000000000 PUSH1 0x44 DUP3 ADD MSTORE PUSH1 0x64 ADD PUSH2 0x7AC JUMP JUMPDEST PUSH1 0x0 DUP4 GT PUSH2 0xF15 JUMPI PUSH1 0x40 MLOAD PUSH3 0x461BCD PUSH1 0xE5 SHL DUP2 MSTORE PUSH1 0x20 PUSH1 0x4 DUP3 ADD MSTORE PUSH1 0x1D PUSH1 0x24 DUP3 ADD MSTORE PUSH32 0x4C5553443A20616D6F756E74206D75737420626520706F736974697665000000 PUSH1 0x44 DUP3 ADD MSTORE PUSH1 0x64 ADD PUSH2 0x7AC JUMP JUMPDEST PUSH5 0xE8D4A51000 DUP4 GT ISZERO PUSH2 0xF6A JUMPI PUSH1 0x40 MLOAD PUSH3 0x461BCD PUSH1 0xE5 SHL DUP2 MSTORE PUSH1 0x20 PUSH1 0x4 DUP3 ADD MSTORE PUSH1 0x1D PUSH1 0x24 DUP3 ADD MSTORE PUSH32 0x4C5553443A2065786365656473206D6178206D696E7420706572207478000000 PUSH1 0x44 DUP3 ADD MSTORE PUSH1 0x64 ADD PUSH2 0x7AC JUMP JUMPDEST PUSH2 0xF73 DUP4 PUSH2 0x11FB JUMP JUMPDEST PUSH2 0xF7D DUP5 DUP5 PUSH2 0x1294 JUMP JUMPDEST DUP2 DUP5 PUSH1 0x1 PUSH1 0x1 PUSH1 0xA0 SHL SUB AND PUSH32 0x96D591342EEA46377F5D86FED8A91AB1E9BE20A7C3F5D698CECC1D4F698680A DUP6 PUSH1 0x40 MLOAD PUSH2 0xB82 SWAP2 DUP2 MSTORE PUSH1 0x20 ADD SWAP1 JUMP JUMPDEST PUSH2 0x707 DUP4 DUP4 DUP4 PUSH1 0x1 PUSH2 0x133D JUMP JUMPDEST PUSH1 0x1 PUSH1 0x1 PUSH1 0xA0 SHL SUB DUP4 DUP2 AND PUSH1 0x0 SWAP1 DUP2 MSTORE PUSH1 0x1 PUSH1 0x20 SWAP1 DUP2 MSTORE PUSH1 0x40 DUP1 DUP4 KECCAK256 SWAP4 DUP7 AND DUP4 MSTORE SWAP3 SWAP1 MSTORE KECCAK256 SLOAD PUSH1 0x0 NOT DUP2 LT ISZERO PUSH2 0x6CE JUMPI DUP2 DUP2 LT ISZERO PUSH2 0x1030 JUMPI PUSH1 0x40 MLOAD PUSH4 0x7DC7A0D9 PUSH1 0xE1 SHL DUP2 MSTORE PUSH1 0x1 PUSH1 0x1 PUSH1 0xA0 SHL SUB DUP5 AND PUSH1 0x4 DUP3 ADD MSTORE PUSH1 0x24 DUP2 ADD DUP3 SWAP1 MSTORE PUSH1 0x44 DUP2 ADD DUP4 SWAP1 MSTORE PUSH1 0x64 ADD PUSH2 0x7AC JUMP JUMPDEST PUSH2 0x6CE DUP5 DUP5 DUP5 DUP5 SUB PUSH1 0x0 PUSH2 0x133D JUMP JUMPDEST PUSH1 0x1 PUSH1 0x1 PUSH1 0xA0 SHL SUB DUP4 AND PUSH2 0x1069 JUMPI PUSH1 0x40 MLOAD PUSH4 0x4B637E8F PUSH1 0xE1 SHL DUP2 MSTORE PUSH1 0x0 PUSH1 0x4 DUP3 ADD MSTORE PUSH1 0x24 ADD PUSH2 0x7AC JUMP JUMPDEST PUSH1 0x1 PUSH1 0x1 PUSH1 0xA0 SHL SUB DUP3 AND PUSH2 0x1093 JUMPI PUSH1 0x40 MLOAD PUSH4 0xEC442F05 PUSH1 0xE0 SHL DUP2 MSTORE PUSH1 0x0 PUSH1 0x4 DUP3 ADD MSTORE PUSH1 0x24 ADD PUSH2 0x7AC JUMP JUMPDEST PUSH2 0x707 DUP4 DUP4 DUP4 PUSH2 0x1404 JUMP JUMPDEST PUSH2 0xA58 DUP2 CALLER PUSH2 0x1417 JUMP JUMPDEST PUSH1 0x0 PUSH2 0x10B4 DUP4 DUP4 PUSH2 0xB90 JUMP JUMPDEST PUSH2 0x1134 JUMPI PUSH1 0x0 DUP4 DUP2 MSTORE PUSH1 0x5 PUSH1 0x20 SWAP1 DUP2 MSTORE PUSH1 0x40 DUP1 DUP4 KECCAK256 PUSH1 0x1 PUSH1 0x1 PUSH1 0xA0 SHL SUB DUP7 AND DUP5 MSTORE SWAP1 SWAP2 MSTORE SWAP1 KECCAK256 DUP1 SLOAD PUSH1 0xFF NOT AND PUSH1 0x1 OR SWAP1 SSTORE PUSH2 0x10EC CALLER SWAP1 JUMP JUMPDEST PUSH1 0x1 PUSH1 0x1 PUSH1 0xA0 SHL SUB AND DUP3 PUSH1 0x1 PUSH1 0x1 PUSH1 0xA0 SHL SUB AND DUP5 PUSH32 0x2F8788117E7EFF1D82E926EC794901D17C78024A50270940304540A733656F0D PUSH1 0x40 MLOAD PUSH1 0x40 MLOAD DUP1 SWAP2 SUB SWAP1 LOG4 POP PUSH1 0x1 PUSH2 0x5D5 JUMP JUMPDEST POP PUSH1 0x0 PUSH2 0x5D5 JUMP JUMPDEST PUSH1 0x0 PUSH2 0x1148 DUP4 DUP4 PUSH2 0xB90 JUMP JUMPDEST ISZERO PUSH2 0x1134 JUMPI PUSH1 0x0 DUP4 DUP2 MSTORE PUSH1 0x5 PUSH1 0x20 SWAP1 DUP2 MSTORE PUSH1 0x40 DUP1 DUP4 KECCAK256 PUSH1 0x1 PUSH1 0x1 PUSH1 0xA0 SHL SUB DUP7 AND DUP1 DUP6 MSTORE SWAP3 MSTORE DUP1 DUP4 KECCAK256 DUP1 SLOAD PUSH1 0xFF NOT AND SWAP1 SSTORE MLOAD CALLER SWAP3 DUP7 SWAP2 PUSH32 0xF6391F5C32D9C69D2A47EA670B442974B53935D1EDC7FD64EB21E047A839171B SWAP2 SWAP1 LOG4 POP PUSH1 0x1 PUSH2 0x5D5 JUMP JUMPDEST PUSH2 0x11B1 PUSH2 0x1450 JUMP JUMPDEST PUSH1 0x6 DUP1 SLOAD PUSH1 0xFF NOT AND SWAP1 SSTORE PUSH32 0x5DB9EE0A495BF2E6FF9C91A7834C1BA4FDD244A5E8AA4E537BD38AEAE4B073AA CALLER JUMPDEST PUSH1 0x40 MLOAD PUSH1 0x1 PUSH1 0x1 PUSH1 0xA0 SHL SUB SWAP1 SWAP2 AND DUP2 MSTORE PUSH1 0x20 ADD PUSH1 0x40 MLOAD DUP1 SWAP2 SUB SWAP1 LOG1 JUMP JUMPDEST PUSH1 0x9 SLOAD PUSH2 0x120B SWAP1 PUSH3 0x15180 PUSH2 0x18DA JUMP JUMPDEST TIMESTAMP LT PUSH2 0x121B JUMPI PUSH1 0x0 PUSH1 0x8 SSTORE TIMESTAMP PUSH1 0x9 SSTORE JUMPDEST PUSH1 0x7 SLOAD DUP2 PUSH1 0x8 SLOAD PUSH2 0x122C SWAP2 SWAP1 PUSH2 0x18DA JUMP JUMPDEST GT ISZERO PUSH2 0x127A JUMPI PUSH1 0x40 MLOAD PUSH3 0x461BCD PUSH1 0xE5 SHL DUP2 MSTORE PUSH1 0x20 PUSH1 0x4 DUP3 ADD MSTORE PUSH1 0x1E PUSH1 0x24 DUP3 ADD MSTORE PUSH32 0x4C5553443A2065786365656473206461696C79206D696E74206C696D69740000 PUSH1 0x44 DUP3 ADD MSTORE PUSH1 0x64 ADD PUSH2 0x7AC JUMP JUMPDEST DUP1 PUSH1 0x8 PUSH1 0x0 DUP3 DUP3 SLOAD PUSH2 0x128C SWAP2 SWAP1 PUSH2 0x18DA JUMP JUMPDEST SWAP1 SWAP2 SSTORE POP POP POP JUMP JUMPDEST PUSH1 0x1 PUSH1 0x1 PUSH1 0xA0 SHL SUB DUP3 AND PUSH2 0x12BE JUMPI PUSH1 0x40 MLOAD PUSH4 0xEC442F05 PUSH1 0xE0 SHL DUP2 MSTORE PUSH1 0x0 PUSH1 0x4 DUP3 ADD MSTORE PUSH1 0x24 ADD PUSH2 0x7AC JUMP JUMPDEST PUSH2 0xA70 PUSH1 0x0 DUP4 DUP4 PUSH2 0x1404 JUMP JUMPDEST PUSH1 0x1 PUSH1 0x1 PUSH1 0xA0 SHL SUB DUP3 AND PUSH2 0x12F4 JUMPI PUSH1 0x40 MLOAD PUSH4 0x4B637E8F PUSH1 0xE1 SHL DUP2 MSTORE PUSH1 0x0 PUSH1 0x4 DUP3 ADD MSTORE PUSH1 0x24 ADD PUSH2 0x7AC JUMP JUMPDEST PUSH2 0xA70 DUP3 PUSH1 0x0 DUP4 PUSH2 0x1404 JUMP JUMPDEST PUSH2 0x1308 PUSH2 0x1475 JUMP JUMPDEST PUSH1 0x6 DUP1 SLOAD PUSH1 0xFF NOT AND PUSH1 0x1 OR SWAP1 SSTORE PUSH32 0x62E78CEA01BEE320CD4E420270B5EA74000D11B0C9F74754EBDBFC544B05A258 PUSH2 0x11DE CALLER SWAP1 JUMP JUMPDEST PUSH1 0x1 PUSH1 0x1 PUSH1 0xA0 SHL SUB DUP5 AND PUSH2 0x1367 JUMPI PUSH1 0x40 MLOAD PUSH4 0xE602DF05 PUSH1 0xE0 SHL DUP2 MSTORE PUSH1 0x0 PUSH1 0x4 DUP3 ADD MSTORE PUSH1 0x24 ADD PUSH2 0x7AC JUMP JUMPDEST PUSH1 0x1 PUSH1 0x1 PUSH1 0xA0 SHL SUB DUP4 AND PUSH2 0x1391 JUMPI PUSH1 0x40 MLOAD PUSH4 0x4A1406B1 PUSH1 0xE1 SHL DUP2 MSTORE PUSH1 0x0 PUSH1 0x4 DUP3 ADD MSTORE PUSH1 0x24 ADD PUSH2 0x7AC JUMP JUMPDEST PUSH1 0x1 PUSH1 0x1 PUSH1 0xA0 SHL SUB DUP1 DUP6 AND PUSH1 0x0 SWAP1 DUP2 MSTORE PUSH1 0x1 PUSH1 0x20 SWAP1 DUP2 MSTORE PUSH1 0x40 DUP1 DUP4 KECCAK256 SWAP4 DUP8 AND DUP4 MSTORE SWAP3 SWAP1 MSTORE KECCAK256 DUP3 SWAP1 SSTORE DUP1 ISZERO PUSH2 0x6CE JUMPI DUP3 PUSH1 0x1 PUSH1 0x1 PUSH1 0xA0 SHL SUB AND DUP5 PUSH1 0x1 PUSH1 0x1 PUSH1 0xA0 SHL SUB AND PUSH32 0x8C5BE1E5EBEC7D5BD14F71427D1E84F3DD0314C0F7B2291E5B200AC8C7C3B925 DUP5 PUSH1 0x40 MLOAD PUSH2 0xB82 SWAP2 DUP2 MSTORE PUSH1 0x20 ADD SWAP1 JUMP JUMPDEST PUSH2 0x140C PUSH2 0x1475 JUMP JUMPDEST PUSH2 0x707 DUP4 DUP4 DUP4 PUSH2 0x1499 JUMP JUMPDEST PUSH2 0x1421 DUP3 DUP3 PUSH2 0xB90 JUMP JUMPDEST PUSH2 0xA70 JUMPI PUSH1 0x40 MLOAD PUSH4 0xE2517D3F PUSH1 0xE0 SHL DUP2 MSTORE PUSH1 0x1 PUSH1 0x1 PUSH1 0xA0 SHL SUB DUP3 AND PUSH1 0x4 DUP3 ADD MSTORE PUSH1 0x24 DUP2 ADD DUP4 SWAP1 MSTORE PUSH1 0x44 ADD PUSH2 0x7AC JUMP JUMPDEST PUSH1 0x6 SLOAD PUSH1 0xFF AND PUSH2 0x1473 JUMPI PUSH1 0x40 MLOAD PUSH4 0x8DFC202B PUSH1 0xE0 SHL DUP2 MSTORE PUSH1 0x4 ADD PUSH1 0x40 MLOAD DUP1 SWAP2 SUB SWAP1 REVERT JUMPDEST JUMP JUMPDEST PUSH1 0x6 SLOAD PUSH1 0xFF AND ISZERO PUSH2 0x1473 JUMPI PUSH1 0x40 MLOAD PUSH4 0xD93C0665 PUSH1 0xE0 SHL DUP2 MSTORE PUSH1 0x4 ADD PUSH1 0x40 MLOAD DUP1 SWAP2 SUB SWAP1 REVERT JUMPDEST PUSH1 0x1 PUSH1 0x1 PUSH1 0xA0 SHL SUB DUP4 AND PUSH2 0x14C4 JUMPI DUP1 PUSH1 0x2 PUSH1 0x0 DUP3 DUP3 SLOAD PUSH2 0x14B9 SWAP2 SWAP1 PUSH2 0x18DA JUMP JUMPDEST SWAP1 SWAP2 SSTORE POP PUSH2 0x1536 SWAP1 POP JUMP JUMPDEST PUSH1 0x1 PUSH1 0x1 PUSH1 0xA0 SHL SUB DUP4 AND PUSH1 0x0 SWAP1 DUP2 MSTORE PUSH1 0x20 DUP2 SWAP1 MSTORE PUSH1 0x40 SWAP1 KECCAK256 SLOAD DUP2 DUP2 LT ISZERO PUSH2 0x1517 JUMPI PUSH1 0x40 MLOAD PUSH4 0x391434E3 PUSH1 0xE2 SHL DUP2 MSTORE PUSH1 0x1 PUSH1 0x1 PUSH1 0xA0 SHL SUB DUP6 AND PUSH1 0x4 DUP3 ADD MSTORE PUSH1 0x24 DUP2 ADD DUP3 SWAP1 MSTORE PUSH1 0x44 DUP2 ADD DUP4 SWAP1 MSTORE PUSH1 0x64 ADD PUSH2 0x7AC JUMP JUMPDEST PUSH1 0x1 PUSH1 0x1 PUSH1 0xA0 SHL SUB DUP5 AND PUSH1 0x0 SWAP1 DUP2 MSTORE PUSH1 0x20 DUP2 SWAP1 MSTORE PUSH1 0x40 SWAP1 KECCAK256 SWAP1 DUP3 SWAP1 SUB SWAP1 SSTORE JUMPDEST PUSH1 0x1 PUSH1 0x1 PUSH1 0xA0 SHL SUB DUP3 AND PUSH2 0x1552 JUMPI PUSH1 0x2 DUP1 SLOAD DUP3 SWAP1 SUB SWAP1 SSTORE PUSH2 0x1571 JUMP JUMPDEST PUSH1 0x1 PUSH1 0x1 PUSH1 0xA0 SHL SUB DUP3 AND PUSH1 0x0 SWAP1 DUP2 MSTORE PUSH1 0x20 DUP2 SWAP1 MSTORE PUSH1 0x40 SWAP1 KECCAK256 DUP1 SLOAD DUP3 ADD SWAP1 SSTORE JUMPDEST DUP2 PUSH1 0x1 PUSH1 0x1 PUSH1 0xA0 SHL SUB AND DUP4 PUSH1 0x1 PUSH1 0x1 PUSH1 0xA0 SHL SUB AND PUSH32 0xDDF252AD1BE2C89B69C2B068FC378DAA952BA7F163C4A11628F55A4DF523B3EF DUP4 PUSH1 0x40 MLOAD PUSH2 0xA41 SWAP2 DUP2 MSTORE PUSH1 0x20 ADD SWAP1 JUMP JUMPDEST PUSH1 0x0 PUSH1 0x20 DUP3 DUP5 SUB SLT ISZERO PUSH2 0x15C8 JUMPI PUSH1 0x0 DUP1 REVERT JUMPDEST DUP2 CALLDATALOAD PUSH1 0x1 PUSH1 0x1 PUSH1 0xE0 SHL SUB NOT DUP2 AND DUP2 EQ PUSH2 0x15E0 JUMPI PUSH1 0x0 DUP1 REVERT JUMPDEST SWAP4 SWAP3 POP POP POP JUMP JUMPDEST PUSH1 0x0 PUSH1 0x20 DUP1 DUP4 MSTORE DUP4 MLOAD DUP1 PUSH1 0x20 DUP6 ADD MSTORE PUSH1 0x0 JUMPDEST DUP2 DUP2 LT ISZERO PUSH2 0x1615 JUMPI DUP6 DUP2 ADD DUP4 ADD MLOAD DUP6 DUP3 ADD PUSH1 0x40 ADD MSTORE DUP3 ADD PUSH2 0x15F9 JUMP JUMPDEST POP PUSH1 0x0 PUSH1 0x40 DUP3 DUP7 ADD ADD MSTORE PUSH1 0x40 PUSH1 0x1F NOT PUSH1 0x1F DUP4 ADD AND DUP6 ADD ADD SWAP3 POP POP POP SWAP3 SWAP2 POP POP JUMP JUMPDEST DUP1 CALLDATALOAD PUSH1 0x1 PUSH1 0x1 PUSH1 0xA0 SHL SUB DUP2 AND DUP2 EQ PUSH2 0x164D JUMPI PUSH1 0x0 DUP1 REVERT JUMPDEST SWAP2 SWAP1 POP JUMP JUMPDEST PUSH1 0x0 DUP1 PUSH1 0x40 DUP4 DUP6 SUB SLT ISZERO PUSH2 0x1665 JUMPI PUSH1 0x0 DUP1 REVERT JUMPDEST PUSH2 0x166E DUP4 PUSH2 0x1636 JUMP JUMPDEST SWAP5 PUSH1 0x20 SWAP4 SWAP1 SWAP4 ADD CALLDATALOAD SWAP4 POP POP POP JUMP JUMPDEST PUSH1 0x0 DUP1 PUSH1 0x0 PUSH1 0x60 DUP5 DUP7 SUB SLT ISZERO PUSH2 0x1691 JUMPI PUSH1 0x0 DUP1 REVERT JUMPDEST PUSH2 0x169A DUP5 PUSH2 0x1636 JUMP JUMPDEST SWAP3 POP PUSH2 0x16A8 PUSH1 0x20 DUP6 ADD PUSH2 0x1636 JUMP JUMPDEST SWAP2 POP PUSH1 0x40 DUP5 ADD CALLDATALOAD SWAP1 POP SWAP3 POP SWAP3 POP SWAP3 JUMP JUMPDEST PUSH1 0x0 PUSH1 0x20 DUP3 DUP5 SUB SLT ISZERO PUSH2 0x16CA JUMPI PUSH1 0x0 DUP1 REVERT JUMPDEST POP CALLDATALOAD SWAP2 SWAP1 POP JUMP JUMPDEST PUSH1 0x0 DUP1 PUSH1 0x40 DUP4 DUP6 SUB SLT ISZERO PUSH2 0x16E4 JUMPI PUSH1 0x0 DUP1 REVERT JUMPDEST DUP3 CALLDATALOAD SWAP2 POP PUSH2 0x16F4 PUSH1 0x20 DUP5 ADD PUSH2 0x1636 JUMP JUMPDEST SWAP1 POP SWAP3 POP SWAP3 SWAP1 POP JUMP JUMPDEST PUSH1 0x0 PUSH1 0x20 DUP3 DUP5 SUB SLT ISZERO PUSH2 0x170F JUMPI PUSH1 0x0 DUP1 REVERT JUMPDEST PUSH2 0x15E0 DUP3 PUSH2 0x1636 JUMP JUMPDEST PUSH1 0x0 DUP1 PUSH1 0x0 PUSH1 0x60 DUP5 DUP7 SUB SLT ISZERO PUSH2 0x172D JUMPI PUSH1 0x0 DUP1 REVERT JUMPDEST PUSH2 0x1736 DUP5 PUSH2 0x1636 JUMP JUMPDEST SWAP6 PUSH1 0x20 DUP6 ADD CALLDATALOAD SWAP6 POP PUSH1 0x40 SWAP1 SWAP5 ADD CALLDATALOAD SWAP4 SWAP3 POP POP POP JUMP JUMPDEST PUSH1 0x0 DUP1 PUSH1 0x40 DUP4 DUP6 SUB SLT ISZERO PUSH2 0x175E JUMPI PUSH1 0x0 DUP1 REVERT JUMPDEST PUSH2 0x1767 DUP4 PUSH2 0x1636 JUMP JUMPDEST SWAP2 POP PUSH2 0x16F4 PUSH1 0x20 DUP5 ADD PUSH2 0x1636 JUMP JUMPDEST PUSH1 0x1 DUP2 DUP2 SHR SWAP1 DUP3 AND DUP1 PUSH2 0x1789 JUMPI PUSH1 0x7F DUP3 AND SWAP2 POP JUMPDEST PUSH1 0x20 DUP3 LT DUP2 SUB PUSH2 0x17A9 JUMPI PUSH4 0x4E487B71 PUSH1 0xE0 SHL PUSH1 0x0 MSTORE PUSH1 0x22 PUSH1 0x4 MSTORE PUSH1 0x24 PUSH1 0x0 REVERT JUMPDEST POP SWAP2 SWAP1 POP JUMP JUMPDEST PUSH4 0x4E487B71 PUSH1 0xE0 SHL PUSH1 0x0 MSTORE PUSH1 0x11 PUSH1 0x4 MSTORE PUSH1 0x24 PUSH1 0x0 REVERT JUMPDEST PUSH1 0x1 DUP2 DUP2 JUMPDEST DUP1 DUP6 GT ISZERO PUSH2 0x1800 JUMPI DUP2 PUSH1 0x0 NOT DIV DUP3 GT ISZERO PUSH2 0x17E6 JUMPI PUSH2 0x17E6 PUSH2 0x17AF JUMP JUMPDEST DUP1 DUP6 AND ISZERO PUSH2 0x17F3 JUMPI SWAP2 DUP2 MUL SWAP2 JUMPDEST SWAP4 DUP5 SHR SWAP4 SWAP1 DUP1 MUL SWAP1 PUSH2 0x17CA JUMP JUMPDEST POP SWAP3 POP SWAP3 SWAP1 POP JUMP JUMPDEST PUSH1 0x0 DUP3 PUSH2 0x1817 JUMPI POP PUSH1 0x1 PUSH2 0x5D5 JUMP JUMPDEST DUP2 PUSH2 0x1824 JUMPI POP PUSH1 0x0 PUSH2 0x5D5 JUMP JUMPDEST DUP2 PUSH1 0x1 DUP2 EQ PUSH2 0x183A JUMPI PUSH1 0x2 DUP2 EQ PUSH2 0x1844 JUMPI PUSH2 0x1860 JUMP JUMPDEST PUSH1 0x1 SWAP2 POP POP PUSH2 0x5D5 JUMP JUMPDEST PUSH1 0xFF DUP5 GT ISZERO PUSH2 0x1855 JUMPI PUSH2 0x1855 PUSH2 0x17AF JUMP JUMPDEST POP POP PUSH1 0x1 DUP3 SHL PUSH2 0x5D5 JUMP JUMPDEST POP PUSH1 0x20 DUP4 LT PUSH2 0x133 DUP4 LT AND PUSH1 0x4E DUP5 LT PUSH1 0xB DUP5 LT AND OR ISZERO PUSH2 0x1883 JUMPI POP DUP2 DUP2 EXP PUSH2 0x5D5 JUMP JUMPDEST PUSH2 0x188D DUP4 DUP4 PUSH2 0x17C5 JUMP JUMPDEST DUP1 PUSH1 0x0 NOT DIV DUP3 GT ISZERO PUSH2 0x18A1 JUMPI PUSH2 0x18A1 PUSH2 0x17AF JUMP JUMPDEST MUL SWAP4 SWAP3 POP POP POP JUMP JUMPDEST PUSH1 0x0 PUSH2 0x15E0 PUSH1 0xFF DUP5 AND DUP4 PUSH2 0x1808 JUMP JUMPDEST PUSH1 0x0 DUP3 PUSH2 0x18D5 JUMPI PUSH4 0x4E487B71 PUSH1 0xE0 SHL PUSH1 0x0 MSTORE PUSH1 0x12 PUSH1 0x4 MSTORE PUSH1 0x24 PUSH1 0x0 REVERT JUMPDEST POP DIV SWAP1 JUMP JUMPDEST DUP1 DUP3 ADD DUP1 DUP3 GT ISZERO PUSH2 0x5D5 JUMPI PUSH2 0x5D5 PUSH2 0x17AF JUMP JUMPDEST DUP2 DUP2 SUB DUP2 DUP2 GT ISZERO PUSH2 0x5D5 JUMPI PUSH2 0x5D5 PUSH2 0x17AF JUMP INVALID MSTORE 0xBA DUP3 0x4B STATICCALL 0xBC 0x2B 0xCF 0xCD 0xF7 CREATE 0xED 0xBB BASEFEE PUSH15 0xBB05E1836C90E78047EFEB949990F7 0x2E PUSH0 LOG2 PUSH5 0x6970667358 0x22 SLT KECCAK256 0x5D MSIZE DUP7 BYTE 0xD1 PUSH31 0x2794FA6626C752E7B3E68522C0E1A58FC60D075B5A34729D936D64736F6C63 NUMBER STOP ADDMOD AND STOP CALLER "},"methodIdentifiers":{"BRIDGE_ROLE()":"b5bfddea","BURNER_ROLE()":"282c51f3","DEFAULT_ADMIN_ROLE()":"a217fddf","MAX_MINT_PER_TX()":"8ecad721","MINTER_ROLE()":"d5391393","PAUSER_ROLE()":"e63ab1e9","allowance(address,address)":"dd62ed3e","approve(address,uint256)":"095ea7b3","balanceOf(address)":"70a08231","bridgeBurn(address,uint256,bytes32)":"87e04042","bridgeMint(address,uint256,bytes32)":"f661e631","burn(address,uint256)":"9dc29fac","burn(uint256)":"42966c68","burnFrom(address,uint256)":"79cc6790","canBurn(address)":"3820a686","canMint(address)":"c2ba4744","dailyMintLimit()":"62680e4b","dailyMintedAmount()":"71f110ff","decimals()":"313ce567","getRemainingDailyMintCapacity()":"d8fe4e9f","getRoleAdmin(bytes32)":"248a9ca3","getTimeUntilLimitReset()":"b3aac012","grantRole(bytes32,address)":"2f2ff15d","hasRole(bytes32,address)":"91d14854","l2Bridge()":"ae1f6aaf","lastMintResetTime()":"9f2d8b80","mint(address,uint256)":"40c10f19","name()":"06fdde03","pause()":"8456cb59","paused()":"5c975abb","renounceRole(bytes32,address)":"36568abe","revokeRole(bytes32,address)":"d547741f","setDailyMintLimit(uint256)":"b2d52d27","setL2Bridge(address)":"3d36d971","supportsInterface(bytes4)":"01ffc9a7","symbol()":"95d89b41","totalSupply()":"18160ddd","totalSupplyFormatted()":"936aeef3","transfer(address,uint256)":"a9059cbb","transferFrom(address,address,uint256)":"23b872dd","unpause()":"3f4ba83a"}}}}}