{
  "_format": "hh-sol-artifact-1",
  "contractName": "MockComet",
  "sourceName": "contracts/mocks/MockCompoundV3.sol",
  "abi": [
    {
      "inputs": [
        {
          "internalType": "address",
          "name": "_baseToken",
          "type": "address"
        }
      ],
      "stateMutability": "nonpayable",
      "type": "constructor"
    },
    {
      "inputs": [
        {
          "internalType": "address",
          "name": "token",
          "type": "address"
        }
      ],
      "name": "SafeERC20FailedOperation",
      "type": "error"
    },
    {
      "anonymous": false,
      "inputs": [
        {
          "indexed": true,
          "internalType": "address",
          "name": "from",
          "type": "address"
        },
        {
          "indexed": true,
          "internalType": "address",
          "name": "dst",
          "type": "address"
        },
        {
          "indexed": true,
          "internalType": "address",
          "name": "asset",
          "type": "address"
        },
        {
          "indexed": false,
          "internalType": "uint256",
          "name": "amount",
          "type": "uint256"
        }
      ],
      "name": "Supply",
      "type": "event"
    },
    {
      "anonymous": false,
      "inputs": [
        {
          "indexed": true,
          "internalType": "address",
          "name": "src",
          "type": "address"
        },
        {
          "indexed": true,
          "internalType": "address",
          "name": "to",
          "type": "address"
        },
        {
          "indexed": true,
          "internalType": "address",
          "name": "asset",
          "type": "address"
        },
        {
          "indexed": false,
          "internalType": "uint256",
          "name": "amount",
          "type": "uint256"
        }
      ],
      "name": "Withdraw",
      "type": "event"
    },
    {
      "inputs": [
        {
          "internalType": "address",
          "name": "",
          "type": "address"
        },
        {
          "internalType": "address[]",
          "name": "",
          "type": "address[]"
        }
      ],
      "name": "absorb",
      "outputs": [],
      "stateMutability": "pure",
      "type": "function"
    },
    {
      "inputs": [
        {
          "internalType": "address",
          "name": "",
          "type": "address"
        }
      ],
      "name": "accrueAccount",
      "outputs": [],
      "stateMutability": "pure",
      "type": "function"
    },
    {
      "inputs": [
        {
          "internalType": "address",
          "name": "account",
          "type": "address"
        }
      ],
      "name": "balanceOf",
      "outputs": [
        {
          "internalType": "uint256",
          "name": "",
          "type": "uint256"
        }
      ],
      "stateMutability": "view",
      "type": "function"
    },
    {
      "inputs": [
        {
          "internalType": "address",
          "name": "",
          "type": "address"
        }
      ],
      "name": "baseBalances",
      "outputs": [
        {
          "internalType": "uint256",
          "name": "",
          "type": "uint256"
        }
      ],
      "stateMutability": "view",
      "type": "function"
    },
    {
      "inputs": [],
      "name": "baseToken",
      "outputs": [
        {
          "internalType": "address",
          "name": "",
          "type": "address"
        }
      ],
      "stateMutability": "view",
      "type": "function"
    },
    {
      "inputs": [
        {
          "internalType": "address",
          "name": "account",
          "type": "address"
        }
      ],
      "name": "borrowBalanceOf",
      "outputs": [
        {
          "internalType": "uint256",
          "name": "",
          "type": "uint256"
        }
      ],
      "stateMutability": "view",
      "type": "function"
    },
    {
      "inputs": [
        {
          "internalType": "address",
          "name": "",
          "type": "address"
        }
      ],
      "name": "borrowBalances",
      "outputs": [
        {
          "internalType": "uint256",
          "name": "",
          "type": "uint256"
        }
      ],
      "stateMutability": "view",
      "type": "function"
    },
    {
      "inputs": [],
      "name": "borrowRate",
      "outputs": [
        {
          "internalType": "uint64",
          "name": "",
          "type": "uint64"
        }
      ],
      "stateMutability": "view",
      "type": "function"
    },
    {
      "inputs": [
        {
          "internalType": "address",
          "name": "account",
          "type": "address"
        },
        {
          "internalType": "address",
          "name": "asset",
          "type": "address"
        }
      ],
      "name": "collateralBalanceOf",
      "outputs": [
        {
          "internalType": "uint128",
          "name": "",
          "type": "uint128"
        }
      ],
      "stateMutability": "view",
      "type": "function"
    },
    {
      "inputs": [
        {
          "internalType": "address",
          "name": "",
          "type": "address"
        },
        {
          "internalType": "address",
          "name": "",
          "type": "address"
        }
      ],
      "name": "collateralBalances",
      "outputs": [
        {
          "internalType": "uint128",
          "name": "",
          "type": "uint128"
        }
      ],
      "stateMutability": "view",
      "type": "function"
    },
    {
      "inputs": [
        {
          "internalType": "uint8",
          "name": "",
          "type": "uint8"
        }
      ],
      "name": "getAssetInfo",
      "outputs": [
        {
          "internalType": "uint8",
          "name": "",
          "type": "uint8"
        },
        {
          "internalType": "address",
          "name": "asset",
          "type": "address"
        },
        {
          "internalType": "address",
          "name": "priceFeed",
          "type": "address"
        },
        {
          "internalType": "uint64",
          "name": "scale",
          "type": "uint64"
        },
        {
          "internalType": "uint64",
          "name": "borrowCollateralFactor",
          "type": "uint64"
        },
        {
          "internalType": "uint64",
          "name": "liquidateCollateralFactor",
          "type": "uint64"
        },
        {
          "internalType": "uint64",
          "name": "liquidationFactor",
          "type": "uint64"
        },
        {
          "internalType": "uint128",
          "name": "supplyCap",
          "type": "uint128"
        }
      ],
      "stateMutability": "view",
      "type": "function"
    },
    {
      "inputs": [
        {
          "internalType": "uint256",
          "name": "",
          "type": "uint256"
        }
      ],
      "name": "getBorrowRate",
      "outputs": [
        {
          "internalType": "uint64",
          "name": "",
          "type": "uint64"
        }
      ],
      "stateMutability": "view",
      "type": "function"
    },
    {
      "inputs": [
        {
          "internalType": "uint256",
          "name": "",
          "type": "uint256"
        }
      ],
      "name": "getSupplyRate",
      "outputs": [
        {
          "internalType": "uint64",
          "name": "",
          "type": "uint64"
        }
      ],
      "stateMutability": "view",
      "type": "function"
    },
    {
      "inputs": [],
      "name": "getUtilization",
      "outputs": [
        {
          "internalType": "uint256",
          "name": "",
          "type": "uint256"
        }
      ],
      "stateMutability": "view",
      "type": "function"
    },
    {
      "inputs": [
        {
          "internalType": "address",
          "name": "account",
          "type": "address"
        }
      ],
      "name": "isLiquidatable",
      "outputs": [
        {
          "internalType": "bool",
          "name": "",
          "type": "bool"
        }
      ],
      "stateMutability": "view",
      "type": "function"
    },
    {
      "inputs": [
        {
          "internalType": "uint64",
          "name": "rate",
          "type": "uint64"
        }
      ],
      "name": "setBorrowRate",
      "outputs": [],
      "stateMutability": "nonpayable",
      "type": "function"
    },
    {
      "inputs": [
        {
          "internalType": "uint64",
          "name": "rate",
          "type": "uint64"
        }
      ],
      "name": "setSupplyRate",
      "outputs": [],
      "stateMutability": "nonpayable",
      "type": "function"
    },
    {
      "inputs": [
        {
          "internalType": "uint256",
          "name": "util",
          "type": "uint256"
        }
      ],
      "name": "setUtilization",
      "outputs": [],
      "stateMutability": "nonpayable",
      "type": "function"
    },
    {
      "inputs": [
        {
          "internalType": "address",
          "name": "asset",
          "type": "address"
        },
        {
          "internalType": "uint256",
          "name": "amount",
          "type": "uint256"
        }
      ],
      "name": "supply",
      "outputs": [],
      "stateMutability": "nonpayable",
      "type": "function"
    },
    {
      "inputs": [],
      "name": "supplyRate",
      "outputs": [
        {
          "internalType": "uint64",
          "name": "",
          "type": "uint64"
        }
      ],
      "stateMutability": "view",
      "type": "function"
    },
    {
      "inputs": [
        {
          "internalType": "address",
          "name": "from",
          "type": "address"
        },
        {
          "internalType": "address",
          "name": "dst",
          "type": "address"
        },
        {
          "internalType": "address",
          "name": "asset",
          "type": "address"
        },
        {
          "internalType": "uint256",
          "name": "amount",
          "type": "uint256"
        }
      ],
      "name": "supplyTo",
      "outputs": [],
      "stateMutability": "nonpayable",
      "type": "function"
    },
    {
      "inputs": [],
      "name": "utilization",
      "outputs": [
        {
          "internalType": "uint256",
          "name": "",
          "type": "uint256"
        }
      ],
      "stateMutability": "view",
      "type": "function"
    },
    {
      "inputs": [
        {
          "internalType": "address",
          "name": "asset",
          "type": "address"
        },
        {
          "internalType": "uint256",
          "name": "amount",
          "type": "uint256"
        }
      ],
      "name": "withdraw",
      "outputs": [],
      "stateMutability": "nonpayable",
      "type": "function"
    },
    {
      "inputs": [
        {
          "internalType": "address",
          "name": "to",
          "type": "address"
        },
        {
          "internalType": "address",
          "name": "asset",
          "type": "address"
        },
        {
          "internalType": "uint256",
          "name": "amount",
          "type": "uint256"
        }
      ],
      "name": "withdrawTo",
      "outputs": [],
      "stateMutability": "nonpayable",
      "type": "function"
    }
  ],
  "bytecode": "0x60a0604052600380546001600160801b0319166eb1a2bc2ec5000000470de4df8200001790556709b6e64a8ec6000060045534801561003d57600080fd5b50604051610fcb380380610fcb83398101604081905261005c916100bc565b6001600160a01b0381166100ab5760405162461bcd60e51b815260206004820152601260248201527124b73b30b634b2103130b9b2903a37b5b2b760711b604482015260640160405180910390fd5b6001600160a01b03166080526100ec565b6000602082840312156100ce57600080fd5b81516001600160a01b03811681146100e557600080fd5b9392505050565b608051610e9a610131600039600081816103c401528181610561015281816105e0015281816107a3015281816107e70152818161093b015261097f0152610e9a6000f3fe608060405234801561001057600080fd5b50600436106101585760003560e01c8063bfe69c8d116100c3578063c914b4371161007c578063c914b43714610484578063d955759d1461049f578063ea21cd92146104be578063f1afb11f146104c7578063f2b9fdb8146104da578063f3fef3a3146104ed57600080fd5b8063bfe69c8d14610368578063c3b35a7e14610379578063c3cecfd21461038c578063c3e2921c1461039f578063c55dae63146103bf578063c8c7fe6b146103fe57600080fd5b80637eb71131116101155780637eb71131146102a857806394e1373c146102b05780639d4c2147146102d05780639fa83b5a146102e3578063ad2961a314610322578063b9a202ad1461033657600080fd5b8063042e02cf1461015d57806326ed410d146101a6578063374c49b4146101e957806339ecf9ba146102205780635c2549ee1461026c57806370a082311461027f575b600080fd5b61019161016b366004610bc7565b6001600160a01b0316600090815260208181526040808320546001909252909120541190565b60405190151581526020015b60405180910390f35b6101e76101b4366004610be9565b6003805467ffffffffffffffff909216600160401b026fffffffffffffffff000000000000000019909216919091179055565b005b6102126101f7366004610bc7565b6001600160a01b031660009081526001602052604090205490565b60405190815260200161019d565b61025461022e366004610c13565b60026020908152600092835260408084209091529082529020546001600160801b031681565b6040516001600160801b03909116815260200161019d565b61025461027a366004610c13565b610500565b61021261028d366004610bc7565b6001600160a01b031660009081526020819052604090205490565b600454610212565b6102126102be366004610bc7565b60016020526000908152604090205481565b6101e76102de366004610c46565b600455565b6103096102f1366004610c46565b50600354600160401b900467ffffffffffffffff1690565b60405167ffffffffffffffff909116815260200161019d565b6003546103099067ffffffffffffffff1681565b6101e7610344366004610be9565b6003805467ffffffffffffffff191667ffffffffffffffff92909216919091179055565b6101e7610376366004610bc7565b50565b6101e7610387366004610c5f565b610536565b6101e761039a366004610c9b565b505050565b6102126103ad366004610bc7565b60006020819052908152604090205481565b6103e67f000000000000000000000000000000000000000000000000000000000000000081565b6040516001600160a01b03909116815260200161019d565b61042061040c366004610d21565b600080808080808080919395975091939597565b6040805160ff9990991689526001600160a01b0397881660208a0152959096169487019490945267ffffffffffffffff92831660608701529082166080860152811660a08501521660c08301526001600160801b031660e08201526101000161019d565b60035461030990600160401b900467ffffffffffffffff1681565b6103096104ad366004610c46565b5060035467ffffffffffffffff1690565b61021260045481565b6101e76104d5366004610d44565b610781565b6101e76104e8366004610d8f565b610919565b6101e76104fb366004610d8f565b610a8d565b6001600160a01b038083166000908152600260209081526040808320938516835292905220546001600160801b03165b92915050565b6000811161055f5760405162461bcd60e51b815260040161055690610db9565b60405180910390fd5b7f00000000000000000000000000000000000000000000000000000000000000006001600160a01b0316826001600160a01b03160361062b5733600090815260208190526040902054811161060c5733600090815260208190526040812080548392906105cd908490610df7565b9091555061060790506001600160a01b037f0000000000000000000000000000000000000000000000000000000000000000168483610a9c565b610725565b33600090815260016020526040812080548392906105cd908490610e0a565b3360009081526002602090815260408083206001600160a01b03861684529091529020546001600160801b03168111156106a75760405162461bcd60e51b815260206004820152601760248201527f496e73756666696369656e7420636f6c6c61746572616c0000000000000000006044820152606401610556565b3360009081526002602090815260408083206001600160a01b0386168452909152812080548392906106e39084906001600160801b0316610e1d565b92506101000a8154816001600160801b0302191690836001600160801b031602179055506107258382846001600160a01b0316610a9c9092919063ffffffff16565b816001600160a01b0316836001600160a01b0316336001600160a01b03167f3115d1449a7b732c986cba18244e897a450f61e1bb8d589cd2e69e6c8924f9f78460405161077491815260200190565b60405180910390a4505050565b600081116107a15760405162461bcd60e51b815260040161055690610db9565b7f00000000000000000000000000000000000000000000000000000000000000006001600160a01b0316826001600160a01b0316036108425761080f6001600160a01b037f000000000000000000000000000000000000000000000000000000000000000016853084610afb565b6001600160a01b03831660009081526020819052604081208054839290610837908490610e0a565b909155506108bc9050565b6108576001600160a01b038316853084610afb565b6001600160a01b038084166000908152600260209081526040808320938616835292905290812080548392906108979084906001600160801b0316610e44565b92506101000a8154816001600160801b0302191690836001600160801b031602179055505b816001600160a01b0316836001600160a01b0316856001600160a01b03167f4f7857497e115bb4e8acd8d9f7382eb4c159d874838d6368099523ab6ef9f6318460405161090b91815260200190565b60405180910390a450505050565b600081116109395760405162461bcd60e51b815260040161055690610db9565b7f00000000000000000000000000000000000000000000000000000000000000006001600160a01b0316826001600160a01b0316036109d1576109a76001600160a01b037f000000000000000000000000000000000000000000000000000000000000000016333084610afb565b33600090815260208190526040812080548392906109c6908490610e0a565b90915550610a479050565b6109e66001600160a01b038316333084610afb565b3360009081526002602090815260408083206001600160a01b038616845290915281208054839290610a229084906001600160801b0316610e44565b92506101000a8154816001600160801b0302191690836001600160801b031602179055505b6040518181526001600160a01b03831690339081907f4f7857497e115bb4e8acd8d9f7382eb4c159d874838d6368099523ab6ef9f6319060200160405180910390a45050565b610a98338383610536565b5050565b6040516001600160a01b0383811660248301526044820183905261039a91859182169063a9059cbb906064015b604051602081830303815290604052915060e01b6020820180516001600160e01b038381831617835250505050610b3a565b6040516001600160a01b038481166024830152838116604483015260648201839052610b349186918216906323b872dd90608401610ac9565b50505050565b600080602060008451602086016000885af180610b5d576040513d6000823e3d81fd5b50506000513d91508115610b75578060011415610b82565b6001600160a01b0384163b155b15610b3457604051635274afe760e01b81526001600160a01b0385166004820152602401610556565b80356001600160a01b0381168114610bc257600080fd5b919050565b600060208284031215610bd957600080fd5b610be282610bab565b9392505050565b600060208284031215610bfb57600080fd5b813567ffffffffffffffff81168114610be257600080fd5b60008060408385031215610c2657600080fd5b610c2f83610bab565b9150610c3d60208401610bab565b90509250929050565b600060208284031215610c5857600080fd5b5035919050565b600080600060608486031215610c7457600080fd5b610c7d84610bab565b9250610c8b60208501610bab565b9150604084013590509250925092565b600080600060408486031215610cb057600080fd5b610cb984610bab565b9250602084013567ffffffffffffffff80821115610cd657600080fd5b818601915086601f830112610cea57600080fd5b813581811115610cf957600080fd5b8760208260051b8501011115610d0e57600080fd5b6020830194508093505050509250925092565b600060208284031215610d3357600080fd5b813560ff81168114610be257600080fd5b60008060008060808587031215610d5a57600080fd5b610d6385610bab565b9350610d7160208601610bab565b9250610d7f60408601610bab565b9396929550929360600135925050565b60008060408385031215610da257600080fd5b610dab83610bab565b946020939093013593505050565b6020808252600e908201526d125b9d985b1a5908185b5bdd5b9d60921b604082015260600190565b634e487b7160e01b600052601160045260246000fd5b8181038181111561053057610530610de1565b8082018082111561053057610530610de1565b6001600160801b03828116828216039080821115610e3d57610e3d610de1565b5092915050565b6001600160801b03818116838216019080821115610e3d57610e3d610de156fea264697066735822122075e4d7071dbdd3cf899658f1e3e0e30ad907e70f908b8ea56723275847797ebd64736f6c63430008160033",
  "linkReferences": {},
  "deployedLinkReferences": {}
}