{
  "_format": "hh-sol-artifact-1",
  "contractName": "MockCometRewards",
  "sourceName": "contracts/mocks/MockCompoundV3.sol",
  "abi": [
    {
      "inputs": [
        {
          "internalType": "address",
          "name": "_rewardToken",
          "type": "address"
        }
      ],
      "stateMutability": "nonpayable",
      "type": "constructor"
    },
    {
      "anonymous": false,
      "inputs": [
        {
          "indexed": true,
          "internalType": "address",
          "name": "src",
          "type": "address"
        },
        {
          "indexed": true,
          "internalType": "address",
          "name": "recipient",
          "type": "address"
        },
        {
          "indexed": true,
          "internalType": "address",
          "name": "token",
          "type": "address"
        },
        {
          "indexed": false,
          "internalType": "uint256",
          "name": "amount",
          "type": "uint256"
        }
      ],
      "name": "RewardClaimed",
      "type": "event"
    },
    {
      "inputs": [
        {
          "internalType": "address",
          "name": "",
          "type": "address"
        },
        {
          "internalType": "address",
          "name": "src",
          "type": "address"
        },
        {
          "internalType": "bool",
          "name": "",
          "type": "bool"
        }
      ],
      "name": "claim",
      "outputs": [],
      "stateMutability": "nonpayable",
      "type": "function"
    },
    {
      "inputs": [
        {
          "internalType": "address",
          "name": "comet",
          "type": "address"
        },
        {
          "internalType": "address",
          "name": "account",
          "type": "address"
        }
      ],
      "name": "getRewardOwed",
      "outputs": [
        {
          "internalType": "address",
          "name": "token",
          "type": "address"
        },
        {
          "internalType": "uint256",
          "name": "owed",
          "type": "uint256"
        }
      ],
      "stateMutability": "view",
      "type": "function"
    },
    {
      "inputs": [],
      "name": "rewardToken",
      "outputs": [
        {
          "internalType": "address",
          "name": "",
          "type": "address"
        }
      ],
      "stateMutability": "view",
      "type": "function"
    },
    {
      "inputs": [
        {
          "internalType": "address",
          "name": "",
          "type": "address"
        },
        {
          "internalType": "address",
          "name": "",
          "type": "address"
        }
      ],
      "name": "rewardsOwed",
      "outputs": [
        {
          "internalType": "uint256",
          "name": "",
          "type": "uint256"
        }
      ],
      "stateMutability": "view",
      "type": "function"
    },
    {
      "inputs": [
        {
          "internalType": "address",
          "name": "comet",
          "type": "address"
        },
        {
          "internalType": "address",
          "name": "account",
          "type": "address"
        },
        {
          "internalType": "uint256",
          "name": "amount",
          "type": "uint256"
        }
      ],
      "name": "setRewardsOwed",
      "outputs": [],
      "stateMutability": "nonpayable",
      "type": "function"
    }
  ],
  "bytecode": "0x60a060405234801561001057600080fd5b506040516104cf3803806104cf83398101604081905261002f91610040565b6001600160a01b0316608052610070565b60006020828403121561005257600080fd5b81516001600160a01b038116811461006957600080fd5b9392505050565b60805161043061009f6000396000818160920152818161016001528181610207015261027701526104306000f3fe608060405234801561001057600080fd5b50600436106100575760003560e01c806341e0cad61461005c57806378f9ba4b146100d8578063b7034f7e1461010e578063bb30ad0814610123578063f7c618c11461015b575b600080fd5b6100b461006a36600461030f565b6001600160a01b039182166000908152602081815260408083209390941682529190915220547f000000000000000000000000000000000000000000000000000000000000000091565b604080516001600160a01b0390931683526020830191909152015b60405180910390f35b6101006100e636600461030f565b600060208181529281526040808220909352908152205481565b6040519081526020016100cf565b61012161011c366004610353565b61019a565b005b61012161013136600461039a565b6001600160a01b039283166000908152602081815260408083209490951682529290925291902055565b6101827f000000000000000000000000000000000000000000000000000000000000000081565b6040516001600160a01b0390911681526020016100cf565b336000908152602081815260408083206001600160a01b038616845290915290205480156102ed57336000908152602081815260408083206001600160a01b0387811680865291909352818420939093555163a9059cbb60e01b81526004810192909252602482018390527f0000000000000000000000000000000000000000000000000000000000000000169063a9059cbb906044016020604051808303816000875af1158015610250573d6000803e3d6000fd5b505050506040513d601f19601f8201168201806040525081019061027491906103d6565b507f00000000000000000000000000000000000000000000000000000000000000006001600160a01b0316836001600160a01b0316846001600160a01b03167f2422cac5e23c46c890fdcf42d0c64757409df6832174df639337558f09d99c68846040516102e491815260200190565b60405180910390a45b50505050565b80356001600160a01b038116811461030a57600080fd5b919050565b6000806040838503121561032257600080fd5b61032b836102f3565b9150610339602084016102f3565b90509250929050565b801515811461035057600080fd5b50565b60008060006060848603121561036857600080fd5b610371846102f3565b925061037f602085016102f3565b9150604084013561038f81610342565b809150509250925092565b6000806000606084860312156103af57600080fd5b6103b8846102f3565b92506103c6602085016102f3565b9150604084013590509250925092565b6000602082840312156103e857600080fd5b81516103f381610342565b939250505056fea2646970667358221220de819b0c3fbe14f2665c8ec623b6b426f6a1211631cd9c4c7385e97b4f401e7f64736f6c63430008160033",
  "linkReferences": {},
  "deployedLinkReferences": {}
}