{
  "_format": "hh-sol-artifact-1",
  "contractName": "MockAToken",
  "sourceName": "contracts/mocks/MockAaveV3.sol",
  "abi": [
    {
      "inputs": [
        {
          "internalType": "string",
          "name": "name",
          "type": "string"
        },
        {
          "internalType": "string",
          "name": "symbol",
          "type": "string"
        }
      ],
      "stateMutability": "nonpayable",
      "type": "constructor"
    },
    {
      "inputs": [
        {
          "internalType": "address",
          "name": "spender",
          "type": "address"
        },
        {
          "internalType": "uint256",
          "name": "allowance",
          "type": "uint256"
        },
        {
          "internalType": "uint256",
          "name": "needed",
          "type": "uint256"
        }
      ],
      "name": "ERC20InsufficientAllowance",
      "type": "error"
    },
    {
      "inputs": [
        {
          "internalType": "address",
          "name": "sender",
          "type": "address"
        },
        {
          "internalType": "uint256",
          "name": "balance",
          "type": "uint256"
        },
        {
          "internalType": "uint256",
          "name": "needed",
          "type": "uint256"
        }
      ],
      "name": "ERC20InsufficientBalance",
      "type": "error"
    },
    {
      "inputs": [
        {
          "internalType": "address",
          "name": "approver",
          "type": "address"
        }
      ],
      "name": "ERC20InvalidApprover",
      "type": "error"
    },
    {
      "inputs": [
        {
          "internalType": "address",
          "name": "receiver",
          "type": "address"
        }
      ],
      "name": "ERC20InvalidReceiver",
      "type": "error"
    },
    {
      "inputs": [
        {
          "internalType": "address",
          "name": "sender",
          "type": "address"
        }
      ],
      "name": "ERC20InvalidSender",
      "type": "error"
    },
    {
      "inputs": [
        {
          "internalType": "address",
          "name": "spender",
          "type": "address"
        }
      ],
      "name": "ERC20InvalidSpender",
      "type": "error"
    },
    {
      "anonymous": false,
      "inputs": [
        {
          "indexed": true,
          "internalType": "address",
          "name": "owner",
          "type": "address"
        },
        {
          "indexed": true,
          "internalType": "address",
          "name": "spender",
          "type": "address"
        },
        {
          "indexed": false,
          "internalType": "uint256",
          "name": "value",
          "type": "uint256"
        }
      ],
      "name": "Approval",
      "type": "event"
    },
    {
      "anonymous": false,
      "inputs": [
        {
          "indexed": true,
          "internalType": "address",
          "name": "from",
          "type": "address"
        },
        {
          "indexed": true,
          "internalType": "address",
          "name": "to",
          "type": "address"
        },
        {
          "indexed": false,
          "internalType": "uint256",
          "name": "value",
          "type": "uint256"
        }
      ],
      "name": "Transfer",
      "type": "event"
    },
    {
      "inputs": [
        {
          "internalType": "address",
          "name": "owner",
          "type": "address"
        },
        {
          "internalType": "address",
          "name": "spender",
          "type": "address"
        }
      ],
      "name": "allowance",
      "outputs": [
        {
          "internalType": "uint256",
          "name": "",
          "type": "uint256"
        }
      ],
      "stateMutability": "view",
      "type": "function"
    },
    {
      "inputs": [
        {
          "internalType": "address",
          "name": "spender",
          "type": "address"
        },
        {
          "internalType": "uint256",
          "name": "value",
          "type": "uint256"
        }
      ],
      "name": "approve",
      "outputs": [
        {
          "internalType": "bool",
          "name": "",
          "type": "bool"
        }
      ],
      "stateMutability": "nonpayable",
      "type": "function"
    },
    {
      "inputs": [
        {
          "internalType": "address",
          "name": "account",
          "type": "address"
        }
      ],
      "name": "balanceOf",
      "outputs": [
        {
          "internalType": "uint256",
          "name": "",
          "type": "uint256"
        }
      ],
      "stateMutability": "view",
      "type": "function"
    },
    {
      "inputs": [
        {
          "internalType": "address",
          "name": "from",
          "type": "address"
        },
        {
          "internalType": "uint256",
          "name": "amount",
          "type": "uint256"
        }
      ],
      "name": "burn",
      "outputs": [],
      "stateMutability": "nonpayable",
      "type": "function"
    },
    {
      "inputs": [],
      "name": "decimals",
      "outputs": [
        {
          "internalType": "uint8",
          "name": "",
          "type": "uint8"
        }
      ],
      "stateMutability": "view",
      "type": "function"
    },
    {
      "inputs": [
        {
          "internalType": "address",
          "name": "to",
          "type": "address"
        },
        {
          "internalType": "uint256",
          "name": "amount",
          "type": "uint256"
        }
      ],
      "name": "mint",
      "outputs": [],
      "stateMutability": "nonpayable",
      "type": "function"
    },
    {
      "inputs": [],
      "name": "name",
      "outputs": [
        {
          "internalType": "string",
          "name": "",
          "type": "string"
        }
      ],
      "stateMutability": "view",
      "type": "function"
    },
    {
      "inputs": [],
      "name": "pool",
      "outputs": [
        {
          "internalType": "address",
          "name": "",
          "type": "address"
        }
      ],
      "stateMutability": "view",
      "type": "function"
    },
    {
      "inputs": [
        {
          "internalType": "address",
          "name": "_pool",
          "type": "address"
        }
      ],
      "name": "setPool",
      "outputs": [],
      "stateMutability": "nonpayable",
      "type": "function"
    },
    {
      "inputs": [],
      "name": "symbol",
      "outputs": [
        {
          "internalType": "string",
          "name": "",
          "type": "string"
        }
      ],
      "stateMutability": "view",
      "type": "function"
    },
    {
      "inputs": [],
      "name": "totalSupply",
      "outputs": [
        {
          "internalType": "uint256",
          "name": "",
          "type": "uint256"
        }
      ],
      "stateMutability": "view",
      "type": "function"
    },
    {
      "inputs": [
        {
          "internalType": "address",
          "name": "to",
          "type": "address"
        },
        {
          "internalType": "uint256",
          "name": "value",
          "type": "uint256"
        }
      ],
      "name": "transfer",
      "outputs": [
        {
          "internalType": "bool",
          "name": "",
          "type": "bool"
        }
      ],
      "stateMutability": "nonpayable",
      "type": "function"
    },
    {
      "inputs": [
        {
          "internalType": "address",
          "name": "from",
          "type": "address"
        },
        {
          "internalType": "address",
          "name": "to",
          "type": "address"
        },
        {
          "internalType": "uint256",
          "name": "value",
          "type": "uint256"
        }
      ],
      "name": "transferFrom",
      "outputs": [
        {
          "internalType": "bool",
          "name": "",
          "type": "bool"
        }
      ],
      "stateMutability": "nonpayable",
      "type": "function"
    }
  ],
  "bytecode": "0x60806040523480156200001157600080fd5b5060405162000c5138038062000c51833981016040819052620000349162000126565b8181600362000044838262000221565b50600462000053828262000221565b5050505050620002ed565b634e487b7160e01b600052604160045260246000fd5b600082601f8301126200008657600080fd5b81516001600160401b0380821115620000a357620000a36200005e565b604051601f8301601f19908116603f01168101908282118183101715620000ce57620000ce6200005e565b8160405283815260209250866020858801011115620000ec57600080fd5b600091505b83821015620001105785820183015181830184015290820190620000f1565b6000602085830101528094505050505092915050565b600080604083850312156200013a57600080fd5b82516001600160401b03808211156200015257600080fd5b620001608683870162000074565b935060208501519150808211156200017757600080fd5b50620001868582860162000074565b9150509250929050565b600181811c90821680620001a557607f821691505b602082108103620001c657634e487b7160e01b600052602260045260246000fd5b50919050565b601f8211156200021c576000816000526020600020601f850160051c81016020861015620001f75750805b601f850160051c820191505b81811015620002185782815560010162000203565b5050505b505050565b81516001600160401b038111156200023d576200023d6200005e565b62000255816200024e845462000190565b84620001cc565b602080601f8311600181146200028d5760008415620002745750858301515b600019600386901b1c1916600185901b17855562000218565b600085815260208120601f198616915b82811015620002be578886015182559484019460019091019084016200029d565b5085821015620002dd5787850151600019600388901b60f8161c191681555b5050505050600190811b01905550565b61095480620002fd6000396000f3fe608060405234801561001057600080fd5b50600436106100cf5760003560e01c806340c10f191161008c57806395d89b411161006657806395d89b41146101c55780639dc29fac146101cd578063a9059cbb146101e0578063dd62ed3e146101f357600080fd5b806340c10f19146101745780634437152a1461018957806370a082311461019c57600080fd5b806306fdde03146100d4578063095ea7b3146100f257806316f0115b1461011557806318160ddd1461014057806323b872dd14610152578063313ce56714610165575b600080fd5b6100dc61022c565b6040516100e9919061079d565b60405180910390f35b610105610100366004610808565b6102be565b60405190151581526020016100e9565b600554610128906001600160a01b031681565b6040516001600160a01b0390911681526020016100e9565b6002545b6040519081526020016100e9565b610105610160366004610832565b6102d8565b604051601281526020016100e9565b610187610182366004610808565b6102fc565b005b61018761019736600461086e565b61035e565b6101446101aa36600461086e565b6001600160a01b031660009081526020819052604090205490565b6100dc6103cc565b6101876101db366004610808565b6103db565b6101056101ee366004610808565b610434565b610144610201366004610890565b6001600160a01b03918216600090815260016020908152604080832093909416825291909152205490565b60606003805461023b906108c3565b80601f0160208091040260200160405190810160405280929190818152602001828054610267906108c3565b80156102b45780601f10610289576101008083540402835291602001916102b4565b820191906000526020600020905b81548152906001019060200180831161029757829003601f168201915b5050505050905090565b6000336102cc818585610442565b60019150505b92915050565b6000336102e6858285610454565b6102f18585856104d3565b506001949350505050565b6005546001600160a01b031633146103505760405162461bcd60e51b815260206004820152601260248201527113db9b1e481c1bdbdb0818d85b881b5a5b9d60721b60448201526064015b60405180910390fd5b61035a8282610532565b5050565b6005546001600160a01b0316156103aa5760405162461bcd60e51b815260206004820152601060248201526f141bdbdb08185b1c9958591e481cd95d60821b6044820152606401610347565b600580546001600160a01b0319166001600160a01b0392909216919091179055565b60606004805461023b906108c3565b6005546001600160a01b0316331461042a5760405162461bcd60e51b815260206004820152601260248201527127b7363c903837b7b61031b0b710313ab93760711b6044820152606401610347565b61035a8282610568565b6000336102cc8185856104d3565b61044f838383600161059e565b505050565b6001600160a01b038381166000908152600160209081526040808320938616835292905220546000198110156104cd57818110156104be57604051637dc7a0d960e11b81526001600160a01b03841660048201526024810182905260448101839052606401610347565b6104cd8484848403600061059e565b50505050565b6001600160a01b0383166104fd57604051634b637e8f60e11b815260006004820152602401610347565b6001600160a01b0382166105275760405163ec442f0560e01b815260006004820152602401610347565b61044f838383610673565b6001600160a01b03821661055c5760405163ec442f0560e01b815260006004820152602401610347565b61035a60008383610673565b6001600160a01b03821661059257604051634b637e8f60e11b815260006004820152602401610347565b61035a82600083610673565b6001600160a01b0384166105c85760405163e602df0560e01b815260006004820152602401610347565b6001600160a01b0383166105f257604051634a1406b160e11b815260006004820152602401610347565b6001600160a01b03808516600090815260016020908152604080832093871683529290522082905580156104cd57826001600160a01b0316846001600160a01b03167f8c5be1e5ebec7d5bd14f71427d1e84f3dd0314c0f7b2291e5b200ac8c7c3b9258460405161066591815260200190565b60405180910390a350505050565b6001600160a01b03831661069e57806002600082825461069391906108fd565b909155506107109050565b6001600160a01b038316600090815260208190526040902054818110156106f15760405163391434e360e21b81526001600160a01b03851660048201526024810182905260448101839052606401610347565b6001600160a01b03841660009081526020819052604090209082900390555b6001600160a01b03821661072c5760028054829003905561074b565b6001600160a01b03821660009081526020819052604090208054820190555b816001600160a01b0316836001600160a01b03167fddf252ad1be2c89b69c2b068fc378daa952ba7f163c4a11628f55a4df523b3ef8360405161079091815260200190565b60405180910390a3505050565b60006020808352835180602085015260005b818110156107cb578581018301518582016040015282016107af565b506000604082860101526040601f19601f8301168501019250505092915050565b80356001600160a01b038116811461080357600080fd5b919050565b6000806040838503121561081b57600080fd5b610824836107ec565b946020939093013593505050565b60008060006060848603121561084757600080fd5b610850846107ec565b925061085e602085016107ec565b9150604084013590509250925092565b60006020828403121561088057600080fd5b610889826107ec565b9392505050565b600080604083850312156108a357600080fd5b6108ac836107ec565b91506108ba602084016107ec565b90509250929050565b600181811c908216806108d757607f821691505b6020821081036108f757634e487b7160e01b600052602260045260246000fd5b50919050565b808201808211156102d257634e487b7160e01b600052601160045260246000fdfea26469706673582212209aa3c4cc689ba2f7f537a9e2a37315e6da55c44e91540d7b2ce62a28fe9ced7964736f6c63430008160033",
  "linkReferences": {},
  "deployedLinkReferences": {}
}