{
  "_format": "hh-sol-artifact-1",
  "contractName": "MockAaveV3Pool",
  "sourceName": "contracts/mocks/MockAaveV3.sol",
  "abi": [
    {
      "anonymous": false,
      "inputs": [
        {
          "indexed": true,
          "internalType": "address",
          "name": "user",
          "type": "address"
        },
        {
          "indexed": true,
          "internalType": "address",
          "name": "asset",
          "type": "address"
        },
        {
          "indexed": false,
          "internalType": "uint256",
          "name": "amount",
          "type": "uint256"
        },
        {
          "indexed": false,
          "internalType": "uint256",
          "name": "rateMode",
          "type": "uint256"
        }
      ],
      "name": "BorrowExecuted",
      "type": "event"
    },
    {
      "anonymous": false,
      "inputs": [
        {
          "indexed": true,
          "internalType": "address",
          "name": "user",
          "type": "address"
        },
        {
          "indexed": true,
          "internalType": "address",
          "name": "asset",
          "type": "address"
        },
        {
          "indexed": false,
          "internalType": "uint256",
          "name": "amount",
          "type": "uint256"
        },
        {
          "indexed": false,
          "internalType": "uint256",
          "name": "rateMode",
          "type": "uint256"
        }
      ],
      "name": "RepayExecuted",
      "type": "event"
    },
    {
      "anonymous": false,
      "inputs": [
        {
          "indexed": true,
          "internalType": "address",
          "name": "user",
          "type": "address"
        },
        {
          "indexed": true,
          "internalType": "address",
          "name": "asset",
          "type": "address"
        },
        {
          "indexed": false,
          "internalType": "uint256",
          "name": "amount",
          "type": "uint256"
        }
      ],
      "name": "SupplyExecuted",
      "type": "event"
    },
    {
      "anonymous": false,
      "inputs": [
        {
          "indexed": true,
          "internalType": "address",
          "name": "user",
          "type": "address"
        },
        {
          "indexed": true,
          "internalType": "address",
          "name": "asset",
          "type": "address"
        },
        {
          "indexed": false,
          "internalType": "uint256",
          "name": "amount",
          "type": "uint256"
        }
      ],
      "name": "WithdrawExecuted",
      "type": "event"
    },
    {
      "inputs": [],
      "name": "DEFAULT_LIQUIDITY_RATE",
      "outputs": [
        {
          "internalType": "uint128",
          "name": "",
          "type": "uint128"
        }
      ],
      "stateMutability": "view",
      "type": "function"
    },
    {
      "inputs": [],
      "name": "DEFAULT_STABLE_BORROW_RATE",
      "outputs": [
        {
          "internalType": "uint128",
          "name": "",
          "type": "uint128"
        }
      ],
      "stateMutability": "view",
      "type": "function"
    },
    {
      "inputs": [],
      "name": "DEFAULT_VARIABLE_BORROW_RATE",
      "outputs": [
        {
          "internalType": "uint128",
          "name": "",
          "type": "uint128"
        }
      ],
      "stateMutability": "view",
      "type": "function"
    },
    {
      "inputs": [],
      "name": "FLASHLOAN_PREMIUM_TOTAL",
      "outputs": [
        {
          "internalType": "uint256",
          "name": "",
          "type": "uint256"
        }
      ],
      "stateMutability": "view",
      "type": "function"
    },
    {
      "inputs": [
        {
          "internalType": "address",
          "name": "",
          "type": "address"
        }
      ],
      "name": "aTokens",
      "outputs": [
        {
          "internalType": "address",
          "name": "",
          "type": "address"
        }
      ],
      "stateMutability": "view",
      "type": "function"
    },
    {
      "inputs": [
        {
          "internalType": "address",
          "name": "asset",
          "type": "address"
        },
        {
          "internalType": "uint256",
          "name": "amount",
          "type": "uint256"
        },
        {
          "internalType": "uint256",
          "name": "interestRateMode",
          "type": "uint256"
        },
        {
          "internalType": "uint16",
          "name": "",
          "type": "uint16"
        },
        {
          "internalType": "address",
          "name": "onBehalfOf",
          "type": "address"
        }
      ],
      "name": "borrow",
      "outputs": [],
      "stateMutability": "nonpayable",
      "type": "function"
    },
    {
      "inputs": [
        {
          "internalType": "address",
          "name": "receiverAddress",
          "type": "address"
        },
        {
          "internalType": "address[]",
          "name": "assets",
          "type": "address[]"
        },
        {
          "internalType": "uint256[]",
          "name": "amounts",
          "type": "uint256[]"
        },
        {
          "internalType": "uint256[]",
          "name": "interestRateModes",
          "type": "uint256[]"
        },
        {
          "internalType": "address",
          "name": "",
          "type": "address"
        },
        {
          "internalType": "bytes",
          "name": "params",
          "type": "bytes"
        },
        {
          "internalType": "uint16",
          "name": "",
          "type": "uint16"
        }
      ],
      "name": "flashLoan",
      "outputs": [],
      "stateMutability": "nonpayable",
      "type": "function"
    },
    {
      "inputs": [
        {
          "internalType": "address",
          "name": "receiverAddress",
          "type": "address"
        },
        {
          "internalType": "address",
          "name": "asset",
          "type": "address"
        },
        {
          "internalType": "uint256",
          "name": "amount",
          "type": "uint256"
        },
        {
          "internalType": "bytes",
          "name": "params",
          "type": "bytes"
        },
        {
          "internalType": "uint16",
          "name": "",
          "type": "uint16"
        }
      ],
      "name": "flashLoanSimple",
      "outputs": [],
      "stateMutability": "nonpayable",
      "type": "function"
    },
    {
      "inputs": [
        {
          "internalType": "address",
          "name": "asset",
          "type": "address"
        }
      ],
      "name": "getReserveData",
      "outputs": [
        {
          "components": [
            {
              "components": [
                {
                  "internalType": "uint256",
                  "name": "data",
                  "type": "uint256"
                }
              ],
              "internalType": "struct IAaveV3Pool.ReserveConfigurationMap",
              "name": "configuration",
              "type": "tuple"
            },
            {
              "internalType": "uint128",
              "name": "liquidityIndex",
              "type": "uint128"
            },
            {
              "internalType": "uint128",
              "name": "currentLiquidityRate",
              "type": "uint128"
            },
            {
              "internalType": "uint128",
              "name": "variableBorrowIndex",
              "type": "uint128"
            },
            {
              "internalType": "uint128",
              "name": "currentVariableBorrowRate",
              "type": "uint128"
            },
            {
              "internalType": "uint128",
              "name": "currentStableBorrowRate",
              "type": "uint128"
            },
            {
              "internalType": "uint40",
              "name": "lastUpdateTimestamp",
              "type": "uint40"
            },
            {
              "internalType": "uint16",
              "name": "id",
              "type": "uint16"
            },
            {
              "internalType": "address",
              "name": "aTokenAddress",
              "type": "address"
            },
            {
              "internalType": "address",
              "name": "stableDebtTokenAddress",
              "type": "address"
            },
            {
              "internalType": "address",
              "name": "variableDebtTokenAddress",
              "type": "address"
            },
            {
              "internalType": "address",
              "name": "interestRateStrategyAddress",
              "type": "address"
            },
            {
              "internalType": "uint128",
              "name": "accruedToTreasury",
              "type": "uint128"
            },
            {
              "internalType": "uint128",
              "name": "unbacked",
              "type": "uint128"
            },
            {
              "internalType": "uint128",
              "name": "isolationModeTotalDebt",
              "type": "uint128"
            }
          ],
          "internalType": "struct IAaveV3Pool.ReserveData",
          "name": "",
          "type": "tuple"
        }
      ],
      "stateMutability": "view",
      "type": "function"
    },
    {
      "inputs": [
        {
          "internalType": "address",
          "name": "",
          "type": "address"
        }
      ],
      "name": "getUserAccountData",
      "outputs": [
        {
          "internalType": "uint256",
          "name": "totalCollateralBase",
          "type": "uint256"
        },
        {
          "internalType": "uint256",
          "name": "totalDebtBase",
          "type": "uint256"
        },
        {
          "internalType": "uint256",
          "name": "availableBorrowsBase",
          "type": "uint256"
        },
        {
          "internalType": "uint256",
          "name": "currentLiquidationThreshold",
          "type": "uint256"
        },
        {
          "internalType": "uint256",
          "name": "ltv",
          "type": "uint256"
        },
        {
          "internalType": "uint256",
          "name": "healthFactor",
          "type": "uint256"
        }
      ],
      "stateMutability": "pure",
      "type": "function"
    },
    {
      "inputs": [
        {
          "internalType": "address",
          "name": "user",
          "type": "address"
        },
        {
          "internalType": "address",
          "name": "asset",
          "type": "address"
        }
      ],
      "name": "getUserBorrow",
      "outputs": [
        {
          "internalType": "uint256",
          "name": "",
          "type": "uint256"
        }
      ],
      "stateMutability": "view",
      "type": "function"
    },
    {
      "inputs": [
        {
          "internalType": "address",
          "name": "user",
          "type": "address"
        },
        {
          "internalType": "address",
          "name": "asset",
          "type": "address"
        }
      ],
      "name": "getUserSupply",
      "outputs": [
        {
          "internalType": "uint256",
          "name": "",
          "type": "uint256"
        }
      ],
      "stateMutability": "view",
      "type": "function"
    },
    {
      "inputs": [
        {
          "internalType": "address",
          "name": "asset",
          "type": "address"
        },
        {
          "internalType": "uint256",
          "name": "amount",
          "type": "uint256"
        },
        {
          "internalType": "uint256",
          "name": "interestRateMode",
          "type": "uint256"
        },
        {
          "internalType": "address",
          "name": "onBehalfOf",
          "type": "address"
        }
      ],
      "name": "repay",
      "outputs": [
        {
          "internalType": "uint256",
          "name": "",
          "type": "uint256"
        }
      ],
      "stateMutability": "nonpayable",
      "type": "function"
    },
    {
      "inputs": [
        {
          "internalType": "address",
          "name": "asset",
          "type": "address"
        },
        {
          "internalType": "address",
          "name": "aToken",
          "type": "address"
        }
      ],
      "name": "setAToken",
      "outputs": [],
      "stateMutability": "nonpayable",
      "type": "function"
    },
    {
      "inputs": [
        {
          "internalType": "address",
          "name": "asset",
          "type": "address"
        },
        {
          "internalType": "bool",
          "name": "useAsCollateral",
          "type": "bool"
        }
      ],
      "name": "setUserUseReserveAsCollateral",
      "outputs": [],
      "stateMutability": "nonpayable",
      "type": "function"
    },
    {
      "inputs": [
        {
          "internalType": "address",
          "name": "asset",
          "type": "address"
        },
        {
          "internalType": "uint256",
          "name": "amount",
          "type": "uint256"
        },
        {
          "internalType": "address",
          "name": "onBehalfOf",
          "type": "address"
        },
        {
          "internalType": "uint16",
          "name": "",
          "type": "uint16"
        }
      ],
      "name": "supply",
      "outputs": [],
      "stateMutability": "nonpayable",
      "type": "function"
    },
    {
      "inputs": [
        {
          "internalType": "address",
          "name": "",
          "type": "address"
        },
        {
          "internalType": "uint256",
          "name": "",
          "type": "uint256"
        }
      ],
      "name": "swapBorrowRateMode",
      "outputs": [],
      "stateMutability": "nonpayable",
      "type": "function"
    },
    {
      "inputs": [
        {
          "internalType": "address",
          "name": "",
          "type": "address"
        },
        {
          "internalType": "address",
          "name": "",
          "type": "address"
        }
      ],
      "name": "userBorrows",
      "outputs": [
        {
          "internalType": "uint256",
          "name": "",
          "type": "uint256"
        }
      ],
      "stateMutability": "view",
      "type": "function"
    },
    {
      "inputs": [
        {
          "internalType": "address",
          "name": "",
          "type": "address"
        },
        {
          "internalType": "address",
          "name": "",
          "type": "address"
        }
      ],
      "name": "userSupplies",
      "outputs": [
        {
          "internalType": "uint256",
          "name": "",
          "type": "uint256"
        }
      ],
      "stateMutability": "view",
      "type": "function"
    },
    {
      "inputs": [
        {
          "internalType": "address",
          "name": "",
          "type": "address"
        },
        {
          "internalType": "address",
          "name": "",
          "type": "address"
        }
      ],
      "name": "userUseAsCollateral",
      "outputs": [
        {
          "internalType": "bool",
          "name": "",
          "type": "bool"
        }
      ],
      "stateMutability": "view",
      "type": "function"
    },
    {
      "inputs": [
        {
          "internalType": "address",
          "name": "asset",
          "type": "address"
        },
        {
          "internalType": "uint256",
          "name": "amount",
          "type": "uint256"
        },
        {
          "internalType": "address",
          "name": "to",
          "type": "address"
        }
      ],
      "name": "withdraw",
      "outputs": [
        {
          "internalType": "uint256",
          "name": "",
          "type": "uint256"
        }
      ],
      "stateMutability": "nonpayable",
      "type": "function"
    }
  ],
  "bytecode": "0x608060405234801561001057600080fd5b50611bf7806100206000396000f3fe608060405234801561001057600080fd5b50600436106101375760003560e01c8063617ba037116100b8578063a3f64ff01161007c578063a3f64ff01461048a578063a415bcad146104c8578063ab9c4b5d146104db578063bf92857c146104ee578063cdb5964414610553578063ee9e836d1461056657600080fd5b8063617ba0371461042d57806369328dec1461044057806374c6b8b91461045357806394ba89a214610465578063a1e26f4b1461047757600080fd5b806335ea6a75116100ff57806335ea6a75146101e65780633e108ad91461037e57806342b0b77c146103bf578063573ade81146103d45780635a3b74b9146103e757600080fd5b8063028cc6511461013c578063074b2e43146101775780630bb13ade1461017f578063234a14f9146101a9578063309d4d73146101d4575b600080fd5b61016461014a3660046113ff565b600060208181529281526040808220909352908152205481565b6040519081526020015b60405180910390f35b610164600981565b6101916a18d0bf423c03d8de00000081565b6040516001600160801b03909116815260200161016e565b6101646101b73660046113ff565b600160209081526000928352604080842090915290825290205481565b6101916a31a17e847807b1bc00000081565b6103716101f4366004611432565b604080516102008101825260006101e08201818152825260208201819052918101829052606081018290526080810182905260a0810182905260c0810182905260e08101829052610100810182905261012081018290526101408101829052610160810182905261018081018290526101a081018290526101c0810191909152506001600160a01b0390811660009081526003602081815260409283902083516102008101855281546101e08201908152815260018201546001600160801b0380821694830194909452600160801b9081900484169582019590955260028201548084166060830152859004831660808201529281015480831660a085015284810464ffffffffff1660c0850152600160a81b900461ffff1660e0840152600481015485166101008401526005810154851661012084015260068101548516610140840152600781015490941661016083015260088401548082166101808401529290920482166101a0820152600990920154166101c082015290565b60405161016e9190611454565b6103a761038c366004611432565b6004602052600090815260409020546001600160a01b031681565b6040516001600160a01b03909116815260200161016e565b6103d26103cd3660046115e9565b61059d565b005b6101646103e2366004611667565b6107aa565b6103d26103f53660046116be565b3360009081526002602090815260408083206001600160a01b0395909516835293905291909120805460ff1916911515919091179055565b6103d261043b3660046116f5565b610918565b61016461044e366004611737565b610ad3565b6101916a295be96e6406697200000081565b6103d2610473366004611773565b5050565b6103d26104853660046113ff565b610dba565b6104b86104983660046113ff565b600260209081526000928352604080842090915290825290205460ff1681565b604051901515815260200161016e565b6103d26104d636600461179d565b610e7b565b6103d26104e9366004611839565b610ff7565b6105266104fc366004611432565b5064174876e80090640ba43b7400906406fc23ac0090611f4090611d4c90671bc16d674ec8000090565b604080519687526020870195909552938501929092526060840152608083015260a082015260c00161016e565b6101646105613660046113ff565b6113b6565b6101646105743660046113ff565b6001600160a01b0391821660009081526020818152604080832093909416825291909152205490565b600084116105c65760405162461bcd60e51b81526004016105bd90611933565b60405180910390fd5b60006127106105d6600987611975565b6105e0919061198c565b60405163a9059cbb60e01b81526001600160a01b038981166004830152602482018890529192509087169063a9059cbb906044016020604051808303816000875af1158015610633573d6000803e3d6000fd5b505050506040513d601f19601f8201168201806040525081019061065791906119ae565b50604051631b11d0ff60e01b81526001600160a01b03881690631b11d0ff9061068e9089908990869033908b908b906004016119f4565b6020604051808303816000875af11580156106ad573d6000803e3d6000fd5b505050506040513d601f19601f820116820180604052508101906106d191906119ae565b61071d5760405162461bcd60e51b815260206004820152601b60248201527f466c617368206c6f616e20657865637574696f6e206661696c6564000000000060448201526064016105bd565b60006107298287611a3b565b6040516323b872dd60e01b81529091506001600160a01b038816906323b872dd9061075c908b9030908690600401611a4e565b6020604051808303816000875af115801561077b573d6000803e3d6000fd5b505050506040513d601f19601f8201168201806040525081019061079f91906119ae565b505050505050505050565b60008084116107cb5760405162461bcd60e51b81526004016105bd90611933565b6001600160a01b038083166000908152600160209081526040808320938916835292905290812054908186116108015785610803565b815b6001600160a01b038086166000908152600160209081526040808320938c1683529290529081208054929350839290919061083f908490611a72565b90915550506040516323b872dd60e01b81526001600160a01b038816906323b872dd9061087490339030908690600401611a4e565b6020604051808303816000875af1158015610893573d6000803e3d6000fd5b505050506040513d601f19601f820116820180604052508101906108b791906119ae565b50866001600160a01b0316846001600160a01b03167f4ec341b3fcf16e8aca3d090c9bd18215f4c080d092967f29cb4b08ef42cc81758388604051610906929190918252602082015260400190565b60405180910390a39695505050505050565b600083116109385760405162461bcd60e51b81526004016105bd90611933565b6040516323b872dd60e01b81526001600160a01b038516906323b872dd9061096890339030908890600401611a4e565b6020604051808303816000875af1158015610987573d6000803e3d6000fd5b505050506040513d601f19601f820116820180604052508101906109ab91906119ae565b506001600160a01b03808316600090815260208181526040808320938816835292905290812080548592906109e1908490611a3b565b90915550506001600160a01b038481166000908152600460205260409020541615610a80576001600160a01b038481166000908152600460208190526040918290205491516340c10f1960e01b815285841691810191909152602481018690529116906340c10f1990604401600060405180830381600087803b158015610a6757600080fd5b505af1158015610a7b573d6000803e3d6000fd5b505050505b836001600160a01b0316826001600160a01b03167fd57ed5cc6af579b81291dbee417894e7ec5328993849ee614e19bffea58f861485604051610ac591815260200190565b60405180910390a350505050565b6000808311610af45760405162461bcd60e51b81526004016105bd90611933565b6001600160a01b03848116600090815260046020526040812054909116610b3e576001600160a01b0380841660009081526020818152604080832093891683529290522054610bbf565b6001600160a01b038581166000908152600460208190526040918290205491516370a0823160e01b8152868416918101919091529116906370a0823190602401602060405180830381865afa158015610b9b573d6000803e3d6000fd5b505050506040513d601f19601f82011682018060405250810190610bbf9190611a85565b905060006000198514610bd25784610bd4565b815b905081811115610c1c5760405162461bcd60e51b8152602060048201526013602482015272496e73756666696369656e7420737570706c7960681b60448201526064016105bd565b6001600160a01b03808516600090815260208181526040808320938a1683529290529081208054839290610c51908490611a72565b90915550506001600160a01b038681166000908152600460205260409020541615610cf0576001600160a01b03868116600090815260046020819052604091829020549151632770a7eb60e21b81528784169181019190915260248101849052911690639dc29fac90604401600060405180830381600087803b158015610cd757600080fd5b505af1158015610ceb573d6000803e3d6000fd5b505050505b60405163a9059cbb60e01b81526001600160a01b0385811660048301526024820183905287169063a9059cbb906044016020604051808303816000875af1158015610d3f573d6000803e3d6000fd5b505050506040513d601f19601f82011682018060405250810190610d6391906119ae565b50856001600160a01b0316846001600160a01b03167f29a0bcf57d42cd9503e61240cef8d4ae3c5982196af8c0f63b0585b3a3e87f3983604051610da991815260200190565b60405180910390a395945050505050565b6001600160a01b03828116600090815260046020818152604080842080546001600160a01b03199081168888161782556003808552929095207a18d0bf423c03d8de00000000000000033b2e3c9fd0803ce800000060018201557a295be96e6406697200000000000000033b2e3c9fd0803ce8000000600282015591820180546a31a17e847807b1bc0000006001600160a81b0319909116600160801b4264ffffffffff160217179055918390529054910180549190931691161790555050565b60008411610e9b5760405162461bcd60e51b81526004016105bd90611933565b8260011480610eaa5750826002145b610eea5760405162461bcd60e51b8152602060048201526011602482015270496e76616c69642072617465206d6f646560781b60448201526064016105bd565b6001600160a01b03808216600090815260016020908152604080832093891683529290529081208054869290610f21908490611a3b565b909155505060405163a9059cbb60e01b81526001600160a01b0382811660048301526024820186905286169063a9059cbb906044016020604051808303816000875af1158015610f75573d6000803e3d6000fd5b505050506040513d601f19601f82011682018060405250810190610f9991906119ae565b50846001600160a01b0316816001600160a01b03167f051f9db9364815fab12e703f9947c24b6f3341255ebc3c5f731b6834ba6d5d538686604051610fe8929190918252602082015260400190565b60405180910390a35050505050565b886110335760405162461bcd60e51b815260206004820152600c60248201526b456d7074792061727261797360a01b60448201526064016105bd565b888714801561104157508885145b6110835760405162461bcd60e51b8152602060048201526013602482015272496e636f6e73697374656e742061727261797360681b60448201526064016105bd565b60008967ffffffffffffffff81111561109e5761109e611a9e565b6040519080825280602002602001820160405280156110c7578160200160208202803683370190505b50905060005b8a8110156111ee5761271060098b8b848181106110ec576110ec611ab4565b905060200201356110fd9190611975565b611107919061198c565b82828151811061111957611119611ab4565b6020026020010181815250508b8b8281811061113757611137611ab4565b905060200201602081019061114c9190611432565b6001600160a01b031663a9059cbb8e8c8c8581811061116d5761116d611ab4565b6040516001600160e01b031960e087901b1681526001600160a01b03909416600485015260200291909101356024830152506044016020604051808303816000875af11580156111c1573d6000803e3d6000fd5b505050506040513d601f19601f820116820180604052508101906111e591906119ae565b506001016110cd565b50604051632483d72160e21b81526001600160a01b038d169063920f5c8490611229908e908e908e908e90889033908d908d90600401611b06565b6020604051808303816000875af1158015611248573d6000803e3d6000fd5b505050506040513d601f19601f8201168201806040525081019061126c91906119ae565b6112b85760405162461bcd60e51b815260206004820152601b60248201527f466c617368206c6f616e20657865637574696f6e206661696c6564000000000060448201526064016105bd565b60005b8a8110156113a75760008282815181106112d7576112d7611ab4565b60200260200101518b8b848181106112f1576112f1611ab4565b905060200201356113029190611a3b565b90508c8c8381811061131657611316611ab4565b905060200201602081019061132b9190611432565b6001600160a01b03166323b872dd8f30846040518463ffffffff1660e01b815260040161135a93929190611a4e565b6020604051808303816000875af1158015611379573d6000803e3d6000fd5b505050506040513d601f19601f8201168201806040525081019061139d91906119ae565b50506001016112bb565b50505050505050505050505050565b6001600160a01b038083166000908152600160209081526040808320938516835292905220545b92915050565b80356001600160a01b03811681146113fa57600080fd5b919050565b6000806040838503121561141257600080fd5b61141b836113e3565b9150611429602084016113e3565b90509250929050565b60006020828403121561144457600080fd5b61144d826113e3565b9392505050565b81515181526101e08101602083015161147860208401826001600160801b03169052565b50604083015161149360408401826001600160801b03169052565b5060608301516114ae60608401826001600160801b03169052565b5060808301516114c960808401826001600160801b03169052565b5060a08301516114e460a08401826001600160801b03169052565b5060c08301516114fd60c084018264ffffffffff169052565b5060e083015161151360e084018261ffff169052565b50610100838101516001600160a01b039081169184019190915261012080850151821690840152610140808501518216908401526101608085015190911690830152610180808401516001600160801b03908116918401919091526101a0808501518216908401526101c09384015116929091019190915290565b60008083601f8401126115a057600080fd5b50813567ffffffffffffffff8111156115b857600080fd5b6020830191508360208285010111156115d057600080fd5b9250929050565b803561ffff811681146113fa57600080fd5b60008060008060008060a0878903121561160257600080fd5b61160b876113e3565b9550611619602088016113e3565b945060408701359350606087013567ffffffffffffffff81111561163c57600080fd5b61164889828a0161158e565b909450925061165b9050608088016115d7565b90509295509295509295565b6000806000806080858703121561167d57600080fd5b611686856113e3565b935060208501359250604085013591506116a2606086016113e3565b905092959194509250565b80151581146116bb57600080fd5b50565b600080604083850312156116d157600080fd5b6116da836113e3565b915060208301356116ea816116ad565b809150509250929050565b6000806000806080858703121561170b57600080fd5b611714856113e3565b935060208501359250611729604086016113e3565b91506116a2606086016115d7565b60008060006060848603121561174c57600080fd5b611755846113e3565b92506020840135915061176a604085016113e3565b90509250925092565b6000806040838503121561178657600080fd5b61178f836113e3565b946020939093013593505050565b600080600080600060a086880312156117b557600080fd5b6117be866113e3565b945060208601359350604086013592506117da606087016115d7565b91506117e8608087016113e3565b90509295509295909350565b60008083601f84011261180657600080fd5b50813567ffffffffffffffff81111561181e57600080fd5b6020830191508360208260051b85010111156115d057600080fd5b600080600080600080600080600080600060e08c8e03121561185a57600080fd5b6118638c6113e3565b9a5067ffffffffffffffff8060208e0135111561187f57600080fd5b61188f8e60208f01358f016117f4565b909b50995060408d01358110156118a557600080fd5b6118b58e60408f01358f016117f4565b909950975060608d01358110156118cb57600080fd5b6118db8e60608f01358f016117f4565b90975095506118ec60808e016113e3565b94508060a08e013511156118ff57600080fd5b506119108d60a08e01358e0161158e565b909350915061192160c08d016115d7565b90509295989b509295989b9093969950565b6020808252601290820152710416d6f756e74206d757374206265203e20360741b604082015260600190565b634e487b7160e01b600052601160045260246000fd5b80820281158282048414176113dd576113dd61195f565b6000826119a957634e487b7160e01b600052601260045260246000fd5b500490565b6000602082840312156119c057600080fd5b815161144d816116ad565b81835281816020850137506000828201602090810191909152601f909101601f19169091010190565b6001600160a01b03878116825260208201879052604082018690528416606082015260a060808201819052600090611a2f90830184866119cb565b98975050505050505050565b808201808211156113dd576113dd61195f565b6001600160a01b039384168152919092166020820152604081019190915260600190565b818103818111156113dd576113dd61195f565b600060208284031215611a9757600080fd5b5051919050565b634e487b7160e01b600052604160045260246000fd5b634e487b7160e01b600052603260045260246000fd5b60008151808452602080850194506020840160005b83811015611afb57815187529582019590820190600101611adf565b509495945050505050565b60a0808252810188905260008960c08301825b8b811015611b47576001600160a01b03611b32846113e3565b16825260209283019290910190600101611b19565b5083810360208501528881526001600160fb1b03891115611b6757600080fd5b8860051b9150818a60208301370182810360209081016040850152611b8e90820188611aca565b6001600160a01b038716606085015290508281036080840152611bb28185876119cb565b9b9a505050505050505050505056fea264697066735822122042a2796caf36a0b1a9b0f2dc8733b17d4608ef43798714d36f5b738d04780c0b64736f6c63430008160033",
  "linkReferences": {},
  "deployedLinkReferences": {}
}