{
  "_format": "hh-sol-artifact-1",
  "contractName": "MockFlashLoanReceiver",
  "sourceName": "contracts/mocks/MockAaveV3.sol",
  "abi": [
    {
      "inputs": [
        {
          "internalType": "address",
          "name": "_adapter",
          "type": "address"
        }
      ],
      "stateMutability": "nonpayable",
      "type": "constructor"
    },
    {
      "anonymous": false,
      "inputs": [
        {
          "indexed": false,
          "internalType": "address[]",
          "name": "assets",
          "type": "address[]"
        },
        {
          "indexed": false,
          "internalType": "uint256[]",
          "name": "amounts",
          "type": "uint256[]"
        },
        {
          "indexed": false,
          "internalType": "uint256[]",
          "name": "premiums",
          "type": "uint256[]"
        }
      ],
      "name": "FlashLoanReceived",
      "type": "event"
    },
    {
      "anonymous": false,
      "inputs": [
        {
          "indexed": false,
          "internalType": "address",
          "name": "asset",
          "type": "address"
        },
        {
          "indexed": false,
          "internalType": "uint256",
          "name": "amount",
          "type": "uint256"
        },
        {
          "indexed": false,
          "internalType": "uint256",
          "name": "premium",
          "type": "uint256"
        }
      ],
      "name": "SimpleFlashLoanReceived",
      "type": "event"
    },
    {
      "inputs": [],
      "name": "adapter",
      "outputs": [
        {
          "internalType": "address",
          "name": "",
          "type": "address"
        }
      ],
      "stateMutability": "view",
      "type": "function"
    },
    {
      "inputs": [
        {
          "internalType": "address",
          "name": "asset",
          "type": "address"
        },
        {
          "internalType": "uint256",
          "name": "amount",
          "type": "uint256"
        },
        {
          "internalType": "uint256",
          "name": "premium",
          "type": "uint256"
        },
        {
          "internalType": "address",
          "name": "",
          "type": "address"
        },
        {
          "internalType": "bytes",
          "name": "",
          "type": "bytes"
        }
      ],
      "name": "executeOperation",
      "outputs": [
        {
          "internalType": "bool",
          "name": "",
          "type": "bool"
        }
      ],
      "stateMutability": "nonpayable",
      "type": "function"
    },
    {
      "inputs": [
        {
          "internalType": "address[]",
          "name": "assets",
          "type": "address[]"
        },
        {
          "internalType": "uint256[]",
          "name": "amounts",
          "type": "uint256[]"
        },
        {
          "internalType": "uint256[]",
          "name": "premiums",
          "type": "uint256[]"
        },
        {
          "internalType": "address",
          "name": "",
          "type": "address"
        },
        {
          "internalType": "bytes",
          "name": "",
          "type": "bytes"
        }
      ],
      "name": "executeOperation",
      "outputs": [
        {
          "internalType": "bool",
          "name": "",
          "type": "bool"
        }
      ],
      "stateMutability": "nonpayable",
      "type": "function"
    },
    {
      "inputs": [
        {
          "internalType": "address",
          "name": "token",
          "type": "address"
        },
        {
          "internalType": "uint256",
          "name": "amount",
          "type": "uint256"
        }
      ],
      "name": "fundReceiver",
      "outputs": [],
      "stateMutability": "nonpayable",
      "type": "function"
    },
    {
      "inputs": [
        {
          "internalType": "bool",
          "name": "_shouldFail",
          "type": "bool"
        }
      ],
      "name": "setShouldFail",
      "outputs": [],
      "stateMutability": "nonpayable",
      "type": "function"
    },
    {
      "inputs": [
        {
          "internalType": "bool",
          "name": "_shouldNotRepay",
          "type": "bool"
        }
      ],
      "name": "setShouldNotRepay",
      "outputs": [],
      "stateMutability": "nonpayable",
      "type": "function"
    },
    {
      "inputs": [],
      "name": "shouldFail",
      "outputs": [
        {
          "internalType": "bool",
          "name": "",
          "type": "bool"
        }
      ],
      "stateMutability": "view",
      "type": "function"
    },
    {
      "inputs": [],
      "name": "shouldNotRepay",
      "outputs": [
        {
          "internalType": "bool",
          "name": "",
          "type": "bool"
        }
      ],
      "stateMutability": "view",
      "type": "function"
    }
  ],
  "bytecode": "0x608060405234801561001057600080fd5b5060405161094038038061094083398101604081905261002f91610054565b600080546001600160a01b0319166001600160a01b0392909216919091179055610084565b60006020828403121561006657600080fd5b81516001600160a01b038116811461007d57600080fd5b9392505050565b6108ad806100936000396000f3fe608060405234801561001057600080fd5b50600436106100885760003560e01c8063678d22041161005b578063678d220414610121578063920f5c8414610135578063a5aa5c1214610148578063afefcaf81461017457600080fd5b806303eadcfc1461008d5780630a2864db146100bd57806318d2022b146100d25780631b11d0ff146100fe575b600080fd5b6000546100a0906001600160a01b031681565b6040516001600160a01b0390911681526020015b60405180910390f35b6100d06100cb366004610519565b610188565b005b6100d06100e0366004610554565b60008054911515600160a81b0260ff60a81b19909216919091179055565b61011161010c3660046105c1565b610204565b60405190151581526020016100b4565b60005461011190600160a01b900460ff1681565b61011161014336600461067e565b61034f565b6100d0610156366004610554565b60008054911515600160a01b0260ff60a01b19909216919091179055565b60005461011190600160a81b900460ff1681565b6040516323b872dd60e01b8152336004820152306024820152604481018290526001600160a01b038316906323b872dd906064016020604051808303816000875af11580156101db573d6000803e3d6000fd5b505050506040513d601f19601f820116820180604052508101906101ff9190610758565b505050565b60008054600160a01b900460ff16156102645760405162461bcd60e51b815260206004820152601f60248201527f466c617368206c6f616e206661696c656420696e74656e74696f6e616c6c790060448201526064015b60405180910390fd5b604080516001600160a01b0389168152602081018890529081018690527fbca00f00882cd0ac9781410ddc4471d4637c365d522aa82e077565370569e4359060600160405180910390a1600054600160a81b900460ff166103425760006102cb8688610775565b60405163a9059cbb60e01b8152336004820152602481018290529091506001600160a01b0389169063a9059cbb906044016020604051808303816000875af115801561031b573d6000803e3d6000fd5b505050506040513d601f19601f8201168201806040525081019061033f9190610758565b50505b5060019695505050505050565b60008054600160a01b900460ff16156103aa5760405162461bcd60e51b815260206004820152601f60248201527f466c617368206c6f616e206661696c656420696e74656e74696f6e616c6c7900604482015260640161025b565b7f8bbae415a80ff1c56b5199fd8b3bd7c5974c39e28f8d88c41d55f5e366ab0ea78a8a8a8a8a8a6040516103e3969594939291906107ce565b60405180910390a1600054600160a81b900460ff166104ed5760005b898110156104eb57600087878381811061041b5761041b610846565b905060200201358a8a8481811061043457610434610846565b905060200201356104459190610775565b90508b8b8381811061045957610459610846565b905060200201602081019061046e919061085c565b60405163a9059cbb60e01b8152336004820152602481018390526001600160a01b03919091169063a9059cbb906044016020604051808303816000875af11580156104bd573d6000803e3d6000fd5b505050506040513d601f19601f820116820180604052508101906104e19190610758565b50506001016103ff565b505b5060019998505050505050505050565b80356001600160a01b038116811461051457600080fd5b919050565b6000806040838503121561052c57600080fd5b610535836104fd565b946020939093013593505050565b801515811461055157600080fd5b50565b60006020828403121561056657600080fd5b813561057181610543565b9392505050565b60008083601f84011261058a57600080fd5b50813567ffffffffffffffff8111156105a257600080fd5b6020830191508360208285010111156105ba57600080fd5b9250929050565b60008060008060008060a087890312156105da57600080fd5b6105e3876104fd565b955060208701359450604087013593506105ff606088016104fd565b9250608087013567ffffffffffffffff81111561061b57600080fd5b61062789828a01610578565b979a9699509497509295939492505050565b60008083601f84011261064b57600080fd5b50813567ffffffffffffffff81111561066357600080fd5b6020830191508360208260051b85010111156105ba57600080fd5b600080600080600080600080600060a08a8c03121561069c57600080fd5b893567ffffffffffffffff808211156106b457600080fd5b6106c08d838e01610639565b909b50995060208c01359150808211156106d957600080fd5b6106e58d838e01610639565b909950975060408c01359150808211156106fe57600080fd5b61070a8d838e01610639565b909750955085915061071e60608d016104fd565b945060808c013591508082111561073457600080fd5b506107418c828d01610578565b915080935050809150509295985092959850929598565b60006020828403121561076a57600080fd5b815161057181610543565b8082018082111561079657634e487b7160e01b600052601160045260246000fd5b92915050565b81835260006001600160fb1b038311156107b557600080fd5b8260051b80836020870137939093016020019392505050565b6060808252810186905260008760808301825b8981101561080f576001600160a01b036107fa846104fd565b168252602092830192909101906001016107e1565b50838103602085015261082381888a61079c565b915050828103604084015261083981858761079c565b9998505050505050505050565b634e487b7160e01b600052603260045260246000fd5b60006020828403121561086e57600080fd5b610571826104fd56fea2646970667358221220668f2dff4c76e74112d29f2294e97eabaa860714243f80851f8753dc8bcebef264736f6c63430008160033",
  "linkReferences": {},
  "deployedLinkReferences": {}
}