{
  "_format": "hh-sol-artifact-1",
  "contractName": "MockUniswapV3Factory",
  "sourceName": "contracts/mocks/MockUniswapV3.sol",
  "abi": [
    {
      "anonymous": false,
      "inputs": [
        {
          "indexed": true,
          "internalType": "address",
          "name": "token0",
          "type": "address"
        },
        {
          "indexed": true,
          "internalType": "address",
          "name": "token1",
          "type": "address"
        },
        {
          "indexed": true,
          "internalType": "uint24",
          "name": "fee",
          "type": "uint24"
        },
        {
          "indexed": false,
          "internalType": "address",
          "name": "pool",
          "type": "address"
        }
      ],
      "name": "PoolCreated",
      "type": "event"
    },
    {
      "inputs": [
        {
          "internalType": "address",
          "name": "tokenA",
          "type": "address"
        },
        {
          "internalType": "address",
          "name": "tokenB",
          "type": "address"
        },
        {
          "internalType": "uint24",
          "name": "fee",
          "type": "uint24"
        }
      ],
      "name": "createPool",
      "outputs": [
        {
          "internalType": "address",
          "name": "pool",
          "type": "address"
        }
      ],
      "stateMutability": "nonpayable",
      "type": "function"
    },
    {
      "inputs": [
        {
          "internalType": "address",
          "name": "tokenA",
          "type": "address"
        },
        {
          "internalType": "address",
          "name": "tokenB",
          "type": "address"
        },
        {
          "internalType": "uint24",
          "name": "fee",
          "type": "uint24"
        }
      ],
      "name": "getPool",
      "outputs": [
        {
          "internalType": "address",
          "name": "pool",
          "type": "address"
        }
      ],
      "stateMutability": "view",
      "type": "function"
    },
    {
      "inputs": [
        {
          "internalType": "address",
          "name": "",
          "type": "address"
        },
        {
          "internalType": "address",
          "name": "",
          "type": "address"
        },
        {
          "internalType": "uint24",
          "name": "",
          "type": "uint24"
        }
      ],
      "name": "pools",
      "outputs": [
        {
          "internalType": "address",
          "name": "",
          "type": "address"
        }
      ],
      "stateMutability": "view",
      "type": "function"
    },
    {
      "inputs": [
        {
          "internalType": "address",
          "name": "tokenA",
          "type": "address"
        },
        {
          "internalType": "address",
          "name": "tokenB",
          "type": "address"
        },
        {
          "internalType": "uint24",
          "name": "fee",
          "type": "uint24"
        },
        {
          "internalType": "address",
          "name": "pool",
          "type": "address"
        }
      ],
      "name": "setPool",
      "outputs": [],
      "stateMutability": "nonpayable",
      "type": "function"
    }
  ],
  "bytecode": "0x608060405234801561001057600080fd5b50610434806100206000396000f3fe608060405234801561001057600080fd5b506004361061004c5760003560e01c80631698ee8214610051578063a167129514610080578063bae0d91814610093578063e9321d15146100cc575b600080fd5b61006461005f366004610367565b6100e1565b6040516001600160a01b03909116815260200160405180910390f35b61006461008e366004610367565b610146565b6100646100a1366004610367565b600060208181529381526040808220855292815282812090935282529020546001600160a01b031681565b6100df6100da3660046103aa565b6102bf565b005b6000806000846001600160a01b0316866001600160a01b031610610106578486610109565b85855b6001600160a01b03918216600090815260208181526040808320938516835292815282822062ffffff891683529052205416925050509392505050565b6000806000846001600160a01b0316866001600160a01b03161061016b57848661016e565b85855b6001600160a01b038083166000908152602081815260408083208486168452825280832062ffffff8b16845290915290205492945090925016156101e65760405162461bcd60e51b815260206004820152600b60248201526a506f6f6c2065786973747360a81b604482015260640160405180910390fd5b6040516bffffffffffffffffffffffff19606084811b8216602084015283901b1660348201526001600160e81b031960e886901b166048820152604b0160408051808303601f1901815282825280516020918201206001600160a01b03868116600081815280855285812088841680835290865286822062ffffff8d168084529087529690912080546001600160a01b0319169385169384179055918652919750929390917f97d23878912fda7f82bd5a8502f2c6e9086f5a4728f9054627788b3162f86ced910160405180910390a450509392505050565b600080846001600160a01b0316866001600160a01b0316106102e25784866102e5565b85855b6001600160a01b03918216600090815260208181526040808320938516835292815282822062ffffff9890981682529690965290942080546001600160a01b031916939094169290921790925550505050565b80356001600160a01b038116811461034f57600080fd5b919050565b803562ffffff8116811461034f57600080fd5b60008060006060848603121561037c57600080fd5b61038584610338565b925061039360208501610338565b91506103a160408501610354565b90509250925092565b600080600080608085870312156103c057600080fd5b6103c985610338565b93506103d760208601610338565b92506103e560408601610354565b91506103f360608601610338565b90509295919450925056fea26469706673582212207875ecc5f3f3c8ed04d7adc935daf56ca22c096f953f48a7eed9248dd442418a64736f6c63430008160033",
  "linkReferences": {},
  "deployedLinkReferences": {}
}