{
  "_format": "hh-sol-artifact-1",
  "contractName": "MockSwapRouter",
  "sourceName": "contracts/mocks/MockUniswapV3.sol",
  "abi": [
    {
      "inputs": [
        {
          "internalType": "address",
          "name": "token",
          "type": "address"
        }
      ],
      "name": "SafeERC20FailedOperation",
      "type": "error"
    },
    {
      "anonymous": false,
      "inputs": [
        {
          "indexed": true,
          "internalType": "address",
          "name": "tokenIn",
          "type": "address"
        },
        {
          "indexed": true,
          "internalType": "address",
          "name": "tokenOut",
          "type": "address"
        },
        {
          "indexed": false,
          "internalType": "uint256",
          "name": "amountIn",
          "type": "uint256"
        },
        {
          "indexed": false,
          "internalType": "uint256",
          "name": "amountOut",
          "type": "uint256"
        }
      ],
      "name": "SwapExecuted",
      "type": "event"
    },
    {
      "inputs": [
        {
          "components": [
            {
              "internalType": "bytes",
              "name": "path",
              "type": "bytes"
            },
            {
              "internalType": "address",
              "name": "recipient",
              "type": "address"
            },
            {
              "internalType": "uint256",
              "name": "deadline",
              "type": "uint256"
            },
            {
              "internalType": "uint256",
              "name": "amountIn",
              "type": "uint256"
            },
            {
              "internalType": "uint256",
              "name": "amountOutMinimum",
              "type": "uint256"
            }
          ],
          "internalType": "struct MockSwapRouter.ExactInputParams",
          "name": "params",
          "type": "tuple"
        }
      ],
      "name": "exactInput",
      "outputs": [
        {
          "internalType": "uint256",
          "name": "amountOut",
          "type": "uint256"
        }
      ],
      "stateMutability": "payable",
      "type": "function"
    },
    {
      "inputs": [
        {
          "components": [
            {
              "internalType": "address",
              "name": "tokenIn",
              "type": "address"
            },
            {
              "internalType": "address",
              "name": "tokenOut",
              "type": "address"
            },
            {
              "internalType": "uint24",
              "name": "fee",
              "type": "uint24"
            },
            {
              "internalType": "address",
              "name": "recipient",
              "type": "address"
            },
            {
              "internalType": "uint256",
              "name": "deadline",
              "type": "uint256"
            },
            {
              "internalType": "uint256",
              "name": "amountIn",
              "type": "uint256"
            },
            {
              "internalType": "uint256",
              "name": "amountOutMinimum",
              "type": "uint256"
            },
            {
              "internalType": "uint160",
              "name": "sqrtPriceLimitX96",
              "type": "uint160"
            }
          ],
          "internalType": "struct MockSwapRouter.ExactInputSingleParams",
          "name": "params",
          "type": "tuple"
        }
      ],
      "name": "exactInputSingle",
      "outputs": [
        {
          "internalType": "uint256",
          "name": "amountOut",
          "type": "uint256"
        }
      ],
      "stateMutability": "payable",
      "type": "function"
    },
    {
      "inputs": [
        {
          "components": [
            {
              "internalType": "address",
              "name": "tokenIn",
              "type": "address"
            },
            {
              "internalType": "address",
              "name": "tokenOut",
              "type": "address"
            },
            {
              "internalType": "uint24",
              "name": "fee",
              "type": "uint24"
            },
            {
              "internalType": "address",
              "name": "recipient",
              "type": "address"
            },
            {
              "internalType": "uint256",
              "name": "deadline",
              "type": "uint256"
            },
            {
              "internalType": "uint256",
              "name": "amountOut",
              "type": "uint256"
            },
            {
              "internalType": "uint256",
              "name": "amountInMaximum",
              "type": "uint256"
            },
            {
              "internalType": "uint160",
              "name": "sqrtPriceLimitX96",
              "type": "uint160"
            }
          ],
          "internalType": "struct MockSwapRouter.ExactOutputSingleParams",
          "name": "params",
          "type": "tuple"
        }
      ],
      "name": "exactOutputSingle",
      "outputs": [
        {
          "internalType": "uint256",
          "name": "amountIn",
          "type": "uint256"
        }
      ],
      "stateMutability": "payable",
      "type": "function"
    },
    {
      "inputs": [
        {
          "internalType": "address",
          "name": "",
          "type": "address"
        },
        {
          "internalType": "address",
          "name": "",
          "type": "address"
        }
      ],
      "name": "exchangeRates",
      "outputs": [
        {
          "internalType": "uint256",
          "name": "",
          "type": "uint256"
        }
      ],
      "stateMutability": "view",
      "type": "function"
    },
    {
      "inputs": [
        {
          "internalType": "address",
          "name": "tokenIn",
          "type": "address"
        },
        {
          "internalType": "address",
          "name": "tokenOut",
          "type": "address"
        },
        {
          "internalType": "uint256",
          "name": "rate",
          "type": "uint256"
        }
      ],
      "name": "setExchangeRate",
      "outputs": [],
      "stateMutability": "nonpayable",
      "type": "function"
    },
    {
      "inputs": [],
      "name": "totalSwaps",
      "outputs": [
        {
          "internalType": "uint256",
          "name": "",
          "type": "uint256"
        }
      ],
      "stateMutability": "view",
      "type": "function"
    }
  ],
  "bytecode": "0x608060405234801561001057600080fd5b50610ad9806100206000396000f3fe6080604052600436106100555760003560e01c8063414bf3891461005a578063503fa44f1461007f578063782aaeea146100b4578063b4a800ce146100fb578063c04b8d5914610111578063db3e219814610124575b600080fd5b61006d6100683660046108b3565b610137565b60405190815260200160405180910390f35b34801561008b57600080fd5b5061006d61009a3660046108f3565b600060208181529281526040808220909352908152205481565b3480156100c057600080fd5b506100f96100cf366004610926565b6001600160a01b039283166000908152602081815260408083209490951682529290925291902055565b005b34801561010757600080fd5b5061006d60015481565b61006d61011f366004610962565b610365565b61006d6101323660046108b3565b610517565b6000808260a00135116101825760405162461bcd60e51b815260206004820152600e60248201526d125b9d985b1a5908185b5bdd5b9d60921b60448201526064015b60405180910390fd5b60008080610193602086018661099d565b6001600160a01b03166001600160a01b0316815260200190815260200160002060008460200160208101906101c8919061099d565b6001600160a01b03166001600160a01b031681526020019081526020016000205490506000811161020b5760405162461bcd60e51b8152600401610179906109b8565b670de0b6b3a76400006102228260a08601356109fd565b61022c9190610a1a565b91508260c001358210156102785760405162461bcd60e51b8152602060048201526013602482015272125b9cdd59999a58da595b9d081bdd5d1c1d5d606a1b6044820152606401610179565b6102a0333060a086013561028f602088018861099d565b6001600160a01b031692919061071b565b6102d46102b3608085016060860161099d565b836102c4604087016020880161099d565b6001600160a01b03169190610788565b600180549060006102e483610a3c565b909155506102fa9050604084016020850161099d565b6001600160a01b0316610310602085018561099d565b6001600160a01b03167fdd36740e2a012d93061a0d99eaa9107860955de4e90027d3cf465a055026c4078560a0013585604051610357929190918252602082015260400190565b60405180910390a350919050565b600080806103b06103768580610a55565b8080601f0160208091040260200160405190810160405280939291908181526020018383808284376000920191909152506107be92505050565b6001600160a01b03808316600090815260208181526040808320938516835292905220549193509150806103f65760405162461bcd60e51b8152600401610179906109b8565b670de0b6b3a764000061040d8260608801356109fd565b6104179190610a1a565b935084608001358410156104635760405162461bcd60e51b8152602060048201526013602482015272125b9cdd59999a58da595b9d081bdd5d1c1d5d606a1b6044820152606401610179565b61047c6001600160a01b0384163330606089013561071b565b6104a061048f604087016020880161099d565b6001600160a01b0384169086610788565b600180549060006104b083610a3c565b9190505550816001600160a01b0316836001600160a01b03167fdd36740e2a012d93061a0d99eaa9107860955de4e90027d3cf465a055026c407876060013587604051610507929190918252602082015260400190565b60405180910390a3505050919050565b6000808260a001351161055d5760405162461bcd60e51b815260206004820152600e60248201526d125b9d985b1a5908185b5bdd5b9d60921b6044820152606401610179565b6000808061056e602086018661099d565b6001600160a01b03166001600160a01b0316815260200190815260200160002060008460200160208101906105a3919061099d565b6001600160a01b03166001600160a01b03168152602001908152602001600020549050600081116105e65760405162461bcd60e51b8152600401610179906109b8565b806105fd60a0850135670de0b6b3a76400006109fd565b6106079190610a1a565b91508260c0013582111561065d5760405162461bcd60e51b815260206004820152601860248201527f45786365737369766520696e70757420726571756972656400000000000000006044820152606401610179565b61067033308461028f602088018861099d565b610698610683608085016060860161099d565b60a08501356102c4604087016020880161099d565b600180549060006106a883610a3c565b909155506106be9050604084016020850161099d565b6001600160a01b03166106d4602085018561099d565b6001600160a01b03167fdd36740e2a012d93061a0d99eaa9107860955de4e90027d3cf465a055026c407848660a00135604051610357929190918252602082015260400190565b6040516001600160a01b0384811660248301528381166044830152606482018390526107829186918216906323b872dd906084015b604051602081830303815290604052915060e01b6020820180516001600160e01b038381831617835250505050610829565b50505050565b6040516001600160a01b038381166024830152604482018390526107b991859182169063a9059cbb90606401610750565b505050565b600080602b835110156108025760405162461bcd60e51b815260206004820152600c60248201526b092dcecc2d8d2c840e0c2e8d60a31b6044820152606401610179565b600160601b602084015104915060148351036020840101600160601b815104915050915091565b600080602060008451602086016000885af18061084c576040513d6000823e3d81fd5b50506000513d91508115610864578060011415610871565b6001600160a01b0384163b155b1561078257604051635274afe760e01b81526001600160a01b0385166004820152602401610179565b600061010082840312156108ad57600080fd5b50919050565b600061010082840312156108c657600080fd5b6108d0838361089a565b9392505050565b80356001600160a01b03811681146108ee57600080fd5b919050565b6000806040838503121561090657600080fd5b61090f836108d7565b915061091d602084016108d7565b90509250929050565b60008060006060848603121561093b57600080fd5b610944846108d7565b9250610952602085016108d7565b9150604084013590509250925092565b60006020828403121561097457600080fd5b813567ffffffffffffffff81111561098b57600080fd5b820160a081850312156108d057600080fd5b6000602082840312156109af57600080fd5b6108d0826108d7565b602080825260159082015274115e18da185b99d9481c985d19481b9bdd081cd95d605a1b604082015260600190565b634e487b7160e01b600052601160045260246000fd5b8082028115828204841417610a1457610a146109e7565b92915050565b600082610a3757634e487b7160e01b600052601260045260246000fd5b500490565b600060018201610a4e57610a4e6109e7565b5060010190565b6000808335601e19843603018112610a6c57600080fd5b83018035915067ffffffffffffffff821115610a8757600080fd5b602001915036819003821315610a9c57600080fd5b925092905056fea2646970667358221220737bdd263d546f3b271d017d3916f24e7d622e9fbc93ec99edb4e97b934b2d8a64736f6c63430008160033",
  "linkReferences": {},
  "deployedLinkReferences": {}
}