{
  "_format": "hh-sol-artifact-1",
  "contractName": "L1StateRegistry",
  "sourceName": "contracts/layer1/core/L1StateRegistry.sol",
  "abi": [
    {
      "inputs": [
        {
          "internalType": "address",
          "name": "_l2StateAggregator",
          "type": "address"
        }
      ],
      "stateMutability": "nonpayable",
      "type": "constructor"
    },
    {
      "inputs": [
        {
          "internalType": "address",
          "name": "owner",
          "type": "address"
        }
      ],
      "name": "OwnableInvalidOwner",
      "type": "error"
    },
    {
      "inputs": [
        {
          "internalType": "address",
          "name": "account",
          "type": "address"
        }
      ],
      "name": "OwnableUnauthorizedAccount",
      "type": "error"
    },
    {
      "inputs": [],
      "name": "ReentrancyGuardReentrantCall",
      "type": "error"
    },
    {
      "anonymous": false,
      "inputs": [
        {
          "indexed": false,
          "internalType": "bytes32",
          "name": "stateRoot",
          "type": "bytes32"
        },
        {
          "indexed": false,
          "internalType": "uint256",
          "name": "totalCollateral",
          "type": "uint256"
        },
        {
          "indexed": false,
          "internalType": "uint256",
          "name": "totalDebt",
          "type": "uint256"
        },
        {
          "indexed": false,
          "internalType": "uint256",
          "name": "ratio",
          "type": "uint256"
        }
      ],
      "name": "CriticalConditionDetected",
      "type": "event"
    },
    {
      "anonymous": false,
      "inputs": [
        {
          "indexed": true,
          "internalType": "address",
          "name": "user",
          "type": "address"
        },
        {
          "indexed": false,
          "internalType": "uint256",
          "name": "amount",
          "type": "uint256"
        },
        {
          "indexed": false,
          "internalType": "uint256",
          "name": "blockNumber",
          "type": "uint256"
        }
      ],
      "name": "EmergencyExitInitiated",
      "type": "event"
    },
    {
      "anonymous": false,
      "inputs": [
        {
          "indexed": true,
          "internalType": "address",
          "name": "triggeredBy",
          "type": "address"
        },
        {
          "indexed": false,
          "internalType": "string",
          "name": "reason",
          "type": "string"
        }
      ],
      "name": "EmergencyPauseTriggered",
      "type": "event"
    },
    {
      "anonymous": false,
      "inputs": [
        {
          "indexed": true,
          "internalType": "address",
          "name": "oldAggregator",
          "type": "address"
        },
        {
          "indexed": true,
          "internalType": "address",
          "name": "newAggregator",
          "type": "address"
        }
      ],
      "name": "L2AggregatorUpdated",
      "type": "event"
    },
    {
      "anonymous": false,
      "inputs": [
        {
          "indexed": true,
          "internalType": "address",
          "name": "previousOwner",
          "type": "address"
        },
        {
          "indexed": true,
          "internalType": "address",
          "name": "newOwner",
          "type": "address"
        }
      ],
      "name": "OwnershipTransferred",
      "type": "event"
    },
    {
      "anonymous": false,
      "inputs": [
        {
          "indexed": true,
          "internalType": "bytes32",
          "name": "stateRoot",
          "type": "bytes32"
        },
        {
          "indexed": true,
          "internalType": "uint256",
          "name": "l2Block",
          "type": "uint256"
        },
        {
          "indexed": false,
          "internalType": "uint256",
          "name": "timestamp",
          "type": "uint256"
        }
      ],
      "name": "StateRootReceived",
      "type": "event"
    },
    {
      "anonymous": false,
      "inputs": [
        {
          "indexed": false,
          "internalType": "uint256",
          "name": "minCollateralRatio",
          "type": "uint256"
        },
        {
          "indexed": false,
          "internalType": "uint256",
          "name": "liquidationThreshold",
          "type": "uint256"
        },
        {
          "indexed": false,
          "internalType": "uint256",
          "name": "maxDebtCeiling",
          "type": "uint256"
        }
      ],
      "name": "ThresholdsUpdated",
      "type": "event"
    },
    {
      "inputs": [],
      "name": "MIN_SUBMISSION_INTERVAL",
      "outputs": [
        {
          "internalType": "uint256",
          "name": "",
          "type": "uint256"
        }
      ],
      "stateMutability": "view",
      "type": "function"
    },
    {
      "inputs": [],
      "name": "canSubmit",
      "outputs": [
        {
          "internalType": "bool",
          "name": "",
          "type": "bool"
        }
      ],
      "stateMutability": "view",
      "type": "function"
    },
    {
      "inputs": [
        {
          "internalType": "address",
          "name": "",
          "type": "address"
        }
      ],
      "name": "emergencyExitAmount",
      "outputs": [
        {
          "internalType": "uint256",
          "name": "",
          "type": "uint256"
        }
      ],
      "stateMutability": "view",
      "type": "function"
    },
    {
      "inputs": [
        {
          "internalType": "address",
          "name": "",
          "type": "address"
        }
      ],
      "name": "emergencyExitClaimed",
      "outputs": [
        {
          "internalType": "bool",
          "name": "",
          "type": "bool"
        }
      ],
      "stateMutability": "view",
      "type": "function"
    },
    {
      "inputs": [],
      "name": "emergencyPaused",
      "outputs": [
        {
          "internalType": "bool",
          "name": "",
          "type": "bool"
        }
      ],
      "stateMutability": "view",
      "type": "function"
    },
    {
      "inputs": [],
      "name": "getLatestState",
      "outputs": [
        {
          "internalType": "bytes32",
          "name": "stateRoot",
          "type": "bytes32"
        },
        {
          "internalType": "uint256",
          "name": "l2Block",
          "type": "uint256"
        },
        {
          "internalType": "uint256",
          "name": "timestamp",
          "type": "uint256"
        }
      ],
      "stateMutability": "view",
      "type": "function"
    },
    {
      "inputs": [
        {
          "internalType": "uint256",
          "name": "index",
          "type": "uint256"
        }
      ],
      "name": "getSnapshot",
      "outputs": [
        {
          "components": [
            {
              "internalType": "bytes32",
              "name": "stateRoot",
              "type": "bytes32"
            },
            {
              "internalType": "uint256",
              "name": "l2BlockNumber",
              "type": "uint256"
            },
            {
              "internalType": "uint256",
              "name": "timestamp",
              "type": "uint256"
            },
            {
              "internalType": "uint256",
              "name": "totalCollateral",
              "type": "uint256"
            },
            {
              "internalType": "uint256",
              "name": "totalDebt",
              "type": "uint256"
            },
            {
              "internalType": "bool",
              "name": "criticalCondition",
              "type": "bool"
            }
          ],
          "internalType": "struct L1StateRegistry.StateSnapshot",
          "name": "",
          "type": "tuple"
        }
      ],
      "stateMutability": "view",
      "type": "function"
    },
    {
      "inputs": [],
      "name": "getSnapshotCount",
      "outputs": [
        {
          "internalType": "uint256",
          "name": "",
          "type": "uint256"
        }
      ],
      "stateMutability": "view",
      "type": "function"
    },
    {
      "inputs": [
        {
          "internalType": "uint256",
          "name": "l2Block",
          "type": "uint256"
        }
      ],
      "name": "getStateRoot",
      "outputs": [
        {
          "internalType": "bytes32",
          "name": "",
          "type": "bytes32"
        }
      ],
      "stateMutability": "view",
      "type": "function"
    },
    {
      "inputs": [
        {
          "internalType": "address",
          "name": "user",
          "type": "address"
        },
        {
          "internalType": "uint256",
          "name": "amount",
          "type": "uint256"
        }
      ],
      "name": "initiateEmergencyExit",
      "outputs": [],
      "stateMutability": "nonpayable",
      "type": "function"
    },
    {
      "inputs": [],
      "name": "isStateFresh",
      "outputs": [
        {
          "internalType": "bool",
          "name": "",
          "type": "bool"
        }
      ],
      "stateMutability": "view",
      "type": "function"
    },
    {
      "inputs": [],
      "name": "l2StateAggregator",
      "outputs": [
        {
          "internalType": "address",
          "name": "",
          "type": "address"
        }
      ],
      "stateMutability": "view",
      "type": "function"
    },
    {
      "inputs": [],
      "name": "lastSubmissionTime",
      "outputs": [
        {
          "internalType": "uint256",
          "name": "",
          "type": "uint256"
        }
      ],
      "stateMutability": "view",
      "type": "function"
    },
    {
      "inputs": [],
      "name": "latestL2Block",
      "outputs": [
        {
          "internalType": "uint256",
          "name": "",
          "type": "uint256"
        }
      ],
      "stateMutability": "view",
      "type": "function"
    },
    {
      "inputs": [],
      "name": "owner",
      "outputs": [
        {
          "internalType": "address",
          "name": "",
          "type": "address"
        }
      ],
      "stateMutability": "view",
      "type": "function"
    },
    {
      "inputs": [
        {
          "internalType": "bytes32",
          "name": "stateRoot",
          "type": "bytes32"
        },
        {
          "internalType": "uint256",
          "name": "l2Block",
          "type": "uint256"
        },
        {
          "internalType": "uint256",
          "name": "totalCollateral",
          "type": "uint256"
        },
        {
          "internalType": "uint256",
          "name": "totalDebt",
          "type": "uint256"
        }
      ],
      "name": "receiveStateRoot",
      "outputs": [],
      "stateMutability": "nonpayable",
      "type": "function"
    },
    {
      "inputs": [],
      "name": "renounceOwnership",
      "outputs": [],
      "stateMutability": "nonpayable",
      "type": "function"
    },
    {
      "inputs": [],
      "name": "resumeFromEmergency",
      "outputs": [],
      "stateMutability": "nonpayable",
      "type": "function"
    },
    {
      "inputs": [
        {
          "internalType": "address",
          "name": "newAggregator",
          "type": "address"
        }
      ],
      "name": "setL2Aggregator",
      "outputs": [],
      "stateMutability": "nonpayable",
      "type": "function"
    },
    {
      "inputs": [
        {
          "internalType": "uint256",
          "name": "",
          "type": "uint256"
        }
      ],
      "name": "snapshots",
      "outputs": [
        {
          "internalType": "bytes32",
          "name": "stateRoot",
          "type": "bytes32"
        },
        {
          "internalType": "uint256",
          "name": "l2BlockNumber",
          "type": "uint256"
        },
        {
          "internalType": "uint256",
          "name": "timestamp",
          "type": "uint256"
        },
        {
          "internalType": "uint256",
          "name": "totalCollateral",
          "type": "uint256"
        },
        {
          "internalType": "uint256",
          "name": "totalDebt",
          "type": "uint256"
        },
        {
          "internalType": "bool",
          "name": "criticalCondition",
          "type": "bool"
        }
      ],
      "stateMutability": "view",
      "type": "function"
    },
    {
      "inputs": [
        {
          "internalType": "uint256",
          "name": "",
          "type": "uint256"
        }
      ],
      "name": "stateRoots",
      "outputs": [
        {
          "internalType": "bytes32",
          "name": "",
          "type": "bytes32"
        }
      ],
      "stateMutability": "view",
      "type": "function"
    },
    {
      "inputs": [
        {
          "internalType": "uint256",
          "name": "",
          "type": "uint256"
        }
      ],
      "name": "stateTimestamps",
      "outputs": [
        {
          "internalType": "uint256",
          "name": "",
          "type": "uint256"
        }
      ],
      "stateMutability": "view",
      "type": "function"
    },
    {
      "inputs": [],
      "name": "thresholds",
      "outputs": [
        {
          "internalType": "uint256",
          "name": "minCollateralRatio",
          "type": "uint256"
        },
        {
          "internalType": "uint256",
          "name": "liquidationThreshold",
          "type": "uint256"
        },
        {
          "internalType": "uint256",
          "name": "maxDebtCeiling",
          "type": "uint256"
        }
      ],
      "stateMutability": "view",
      "type": "function"
    },
    {
      "inputs": [],
      "name": "timeSinceLastSubmission",
      "outputs": [
        {
          "internalType": "uint256",
          "name": "",
          "type": "uint256"
        }
      ],
      "stateMutability": "view",
      "type": "function"
    },
    {
      "inputs": [
        {
          "internalType": "address",
          "name": "newOwner",
          "type": "address"
        }
      ],
      "name": "transferOwnership",
      "outputs": [],
      "stateMutability": "nonpayable",
      "type": "function"
    },
    {
      "inputs": [
        {
          "internalType": "string",
          "name": "reason",
          "type": "string"
        }
      ],
      "name": "triggerEmergencyPause",
      "outputs": [],
      "stateMutability": "nonpayable",
      "type": "function"
    },
    {
      "inputs": [
        {
          "internalType": "uint256",
          "name": "_minCollateralRatio",
          "type": "uint256"
        },
        {
          "internalType": "uint256",
          "name": "_liquidationThreshold",
          "type": "uint256"
        },
        {
          "internalType": "uint256",
          "name": "_maxDebtCeiling",
          "type": "uint256"
        }
      ],
      "name": "updateThresholds",
      "outputs": [],
      "stateMutability": "nonpayable",
      "type": "function"
    },
    {
      "inputs": [
        {
          "internalType": "uint256",
          "name": "l2Block",
          "type": "uint256"
        },
        {
          "internalType": "bytes32",
          "name": "expectedRoot",
          "type": "bytes32"
        }
      ],
      "name": "verifyStateRoot",
      "outputs": [
        {
          "internalType": "bool",
          "name": "",
          "type": "bool"
        }
      ],
      "stateMutability": "view",
      "type": "function"
    }
  ],
  "bytecode": "0x608060405234801561001057600080fd5b5060405161126838038061126883398101604081905261002f91610165565b338061005657604051631e4fbdf760e01b8152600060048201526024015b60405180910390fd5b61005f81610115565b50600180556001600160a01b0381166100ba5760405162461bcd60e51b815260206004820152601560248201527f496e76616c6964204c322061676772656761746f720000000000000000000000604482015260640161004d565b600680546001600160a01b0319166001600160a01b03929092169190911790556040805160608101825260968082526078602083018190526509184e72a0009290930182905260075560089190915560095542600555610195565b600080546001600160a01b038381166001600160a01b0319831681178455604051919092169283917f8be0079c531659141344cd1fd0a4f28419497f9722a3daafe3b4186f6b6457e09190a35050565b60006020828403121561017757600080fd5b81516001600160a01b038116811461018e57600080fd5b9392505050565b6110c4806101a46000396000f3fe608060405234801561001057600080fd5b50600436106101c45760003560e01c8063bc4afd37116100f9578063d676c06211610097578063f2fde38b11610071578063f2fde38b14610454578063f4cac30d14610467578063fd19e10c14610487578063ffbc9bd01461049a57600080fd5b8063d676c06214610426578063debe7b281461042e578063f23ae8a11461044157600080fd5b8063c3801938116100d3578063c3801938146103aa578063cda43b3a146103ca578063ce727c43146103dc578063d6565a2d146103e457600080fd5b8063bc4afd3714610386578063bcbcf14814610399578063bfefb795146103a157600080fd5b80634f70104e11610166578063715018a611610140578063715018a6146102e557806374394df7146102ed57806376f10ad0146103005780638da5cb5b1461036157600080fd5b80634f70104e146102c0578063615c765a146102c9578063651c11a5146102dc57600080fd5b806327c830a9116101a257806327c830a9146102425780632d904eb81461025657806332edf24e146102965780634f206d7f146102b657600080fd5b806301bcc117146101c95780630590b966146101f157806306e01a421461021f575b600080fd5b6101dc6101d7366004610e68565b6104a2565b60405190151581526020015b60405180910390f35b6102116101ff366004610ea6565b600c6020526000908152604090205481565b6040519081526020016101e8565b6101dc61022d366004610ea6565b600b6020526000908152604090205460ff1681565b6006546101dc90600160a01b900460ff1681565b61027b6004546000818152600260209081526040808320546003909252909120549092565b604080519384526020840192909252908201526060016101e8565b6102116102a4366004610ec1565b60036020526000908152604090205481565b6102be6104c7565b005b61021160055481565b6102be6102d7366004610ea6565b6104de565b61021160045481565b6102be610585565b6102be6102fb366004610eda565b610599565b61031361030e366004610ec1565b6108f1565b6040516101e89190600060c082019050825182526020830151602083015260408301516040830152606083015160608301526080830151608083015260a0830151151560a083015292915050565b6000546001600160a01b03165b6040516001600160a01b0390911681526020016101e8565b6102be610394366004610f0c565b6109e3565b600a54610211565b610211610e1081565b6102116103b8366004610ec1565b60009081526002602052604090205490565b60075460085460095461027b92919083565b6101dc610a3e565b6103f76103f2366004610ec1565b610a77565b6040805196875260208701959095529385019290925260608401526080830152151560a082015260c0016101e8565b610211610ac0565b60065461036e906001600160a01b031681565b6102be61044f366004610f7e565b610ad5565b6102be610462366004610ea6565b610bd7565b610211610475366004610ec1565b60026020526000908152604090205481565b6102be610495366004610fa8565b610c15565b6101dc610cf6565b600082815260026020526040812054821480156104be57508115155b90505b92915050565b6104cf610d10565b6006805460ff60a01b19169055565b6104e6610d10565b6001600160a01b0381166105335760405162461bcd60e51b815260206004820152600f60248201526e496e76616c6964206164647265737360881b60448201526064015b60405180910390fd5b600680546001600160a01b038381166001600160a01b0319831681179093556040519116919082907f6ef6075bc0848b3988d8dc62c5c46c42343ba651284ae88c91f181d57478a1cb90600090a35050565b61058d610d10565b6105976000610d3d565b565b6006546001600160a01b031633146105f35760405162461bcd60e51b815260206004820152601e60248201527f4c3152656769737472793a204f6e6c79204c322061676772656761746f720000604482015260640161052a565b600654600160a01b900460ff161561064d5760405162461bcd60e51b815260206004820152601c60248201527f4c3152656769737472793a20456d657267656e63792070617573656400000000604482015260640161052a565b610655610d8d565b836106975760405162461bcd60e51b8152602060048201526012602482015271125b9d985b1a59081cdd185d19481c9bdbdd60721b604482015260640161052a565b60045483116106dd5760405162461bcd60e51b8152602060048201526012602482015271261910313637b1b5903737ba103732bbb2b960711b604482015260640161052a565b610e106005546106ed9190610fea565b42101561073c5760405162461bcd60e51b815260206004820152601760248201527f5375626d697373696f6e20746f6f206672657175656e74000000000000000000604482015260640161052a565b6000838152600260209081526040808320879055600390915281204290819055600485905560055561076e8383610db7565b6040805160c081018252878152602080820188815242838501818152606085018a8152608086018a815288151560a08801908152600a805460018101825560009190915297517fc65a7bb8d6351c1cf70c95a316cc6a92839c986682d98bc35f958f4883f9d2a860069099029889015594517fc65a7bb8d6351c1cf70c95a316cc6a92839c986682d98bc35f958f4883f9d2a988015591517fc65a7bb8d6351c1cf70c95a316cc6a92839c986682d98bc35f958f4883f9d2aa870155517fc65a7bb8d6351c1cf70c95a316cc6a92839c986682d98bc35f958f4883f9d2ab860155517fc65a7bb8d6351c1cf70c95a316cc6a92839c986682d98bc35f958f4883f9d2ac85015590517fc65a7bb8d6351c1cf70c95a316cc6a92839c986682d98bc35f958f4883f9d2ad909301805460ff1916931515939093179092559151908152919250859187917fcaa33a8c8a0a8bad27ea33f2c94181fe631de8b420f54a94615f5f822ed0f461910160405180910390a3506108eb60018055565b50505050565b61092f6040518060c0016040528060008019168152602001600081526020016000815260200160008152602001600081526020016000151581525090565b600a5482106109705760405162461bcd60e51b815260206004820152600d60248201526c092dcecc2d8d2c840d2dcc8caf609b1b604482015260640161052a565b600a828154811061098357610983610ffd565b60009182526020918290206040805160c081018252600690930290910180548352600181015493830193909352600283015490820152600382015460608201526004820154608082015260059091015460ff16151560a082015292915050565b6109eb610d10565b6006805460ff60a01b1916600160a01b17905560405133907f0d5facded7fa89357ce603b9b1f5da16956ec198bd324b4b40594541b3d7945d90610a329085908590611013565b60405180910390a25050565b6000600454600003610a505750600090565b600454600090815260036020526040902054611c2090610a709042611042565b1115905090565b600a8181548110610a8757600080fd5b60009182526020909120600690910201805460018201546002830154600384015460048501546005909501549395509193909260ff1686565b600060055442610ad09190611042565b905090565b610add610d10565b600654600160a01b900460ff16610b295760405162461bcd60e51b815260206004820152601060248201526f4e6f7420696e20656d657267656e637960801b604482015260640161052a565b6001600160a01b0382166000908152600b602052604090205460ff1615610b845760405162461bcd60e51b815260206004820152600f60248201526e105b1c9958591e4818db185a5b5959608a1b604482015260640161052a565b6001600160a01b0382166000818152600c60209081526040918290208490556004548251858152918201527fe8d4f864bd0e9c4978f9c4e397acbebf923f90abbb7c142e650b5e4639e97c699101610a32565b610bdf610d10565b6001600160a01b038116610c0957604051631e4fbdf760e01b81526000600482015260240161052a565b610c1281610d3d565b50565b610c1d610d10565b818311610c5d5760405162461bcd60e51b815260206004820152600e60248201526d496e76616c696420726174696f7360901b604482015260640161052a565b60648211610ca15760405162461bcd60e51b81526020600482015260116024820152705468726573686f6c6420746f6f206c6f7760781b604482015260640161052a565b60078390556008829055600981905560408051848152602081018490529081018290527f5c18dc8d95da80ea715f2473abe6f01199d4bfa87d2ed1ef051058a60dcce2589060600160405180910390a1505050565b6000610e10600554610d089190610fea565b421015905090565b6000546001600160a01b031633146105975760405163118cdaa760e01b815233600482015260240161052a565b600080546001600160a01b038381166001600160a01b0319831681178455604051919092169283917f8be0079c531659141344cd1fd0a4f28419497f9722a3daafe3b4186f6b6457e09190a35050565b600260015403610db057604051633ee5aeb560e01b815260040160405180910390fd5b6002600155565b600081600003610dc9575060006104c1565b600082610dd7856064611055565b610de1919061106c565b90506000600760000154821015610e525750600454600090815260026020908152604091829020548251908152908101869052908101849052606081018290526001907ff44c388b67f9789716cda6ea316b888f14bf9b794fbe1c885a856db83e4a2d5e9060800160405180910390a15b600954841115610e60575060015b949350505050565b60008060408385031215610e7b57600080fd5b50508035926020909101359150565b80356001600160a01b0381168114610ea157600080fd5b919050565b600060208284031215610eb857600080fd5b6104be82610e8a565b600060208284031215610ed357600080fd5b5035919050565b60008060008060808587031215610ef057600080fd5b5050823594602084013594506040840135936060013592509050565b60008060208385031215610f1f57600080fd5b823567ffffffffffffffff80821115610f3757600080fd5b818501915085601f830112610f4b57600080fd5b813581811115610f5a57600080fd5b866020828501011115610f6c57600080fd5b60209290920196919550909350505050565b60008060408385031215610f9157600080fd5b610f9a83610e8a565b946020939093013593505050565b600080600060608486031215610fbd57600080fd5b505081359360208301359350604090920135919050565b634e487b7160e01b600052601160045260246000fd5b808201808211156104c1576104c1610fd4565b634e487b7160e01b600052603260045260246000fd5b60208152816020820152818360408301376000818301604090810191909152601f909201601f19160101919050565b818103818111156104c1576104c1610fd4565b80820281158282048414176104c1576104c1610fd4565b60008261108957634e487b7160e01b600052601260045260246000fd5b50049056fea2646970667358221220b207b95685070ab6396cca88702dd39017f6aa4fae101738846027e8304a9be164736f6c63430008160033",
  "linkReferences": {},
  "deployedLinkReferences": {}
}