{
  "_format": "hh-sol-artifact-1",
  "contractName": "UniswapV3Adapter",
  "sourceName": "contracts/layer2/adapters/UniswapV3Adapter.sol",
  "abi": [
    {
      "inputs": [
        {
          "internalType": "address",
          "name": "_swapRouter",
          "type": "address"
        },
        {
          "internalType": "address",
          "name": "_factory",
          "type": "address"
        },
        {
          "internalType": "address",
          "name": "_admin",
          "type": "address"
        }
      ],
      "stateMutability": "nonpayable",
      "type": "constructor"
    },
    {
      "inputs": [],
      "name": "AccessControlBadConfirmation",
      "type": "error"
    },
    {
      "inputs": [
        {
          "internalType": "address",
          "name": "account",
          "type": "address"
        },
        {
          "internalType": "bytes32",
          "name": "neededRole",
          "type": "bytes32"
        }
      ],
      "name": "AccessControlUnauthorizedAccount",
      "type": "error"
    },
    {
      "inputs": [],
      "name": "EnforcedPause",
      "type": "error"
    },
    {
      "inputs": [],
      "name": "ExpectedPause",
      "type": "error"
    },
    {
      "inputs": [],
      "name": "ReentrancyGuardReentrantCall",
      "type": "error"
    },
    {
      "inputs": [
        {
          "internalType": "address",
          "name": "token",
          "type": "address"
        }
      ],
      "name": "SafeERC20FailedOperation",
      "type": "error"
    },
    {
      "anonymous": false,
      "inputs": [
        {
          "indexed": true,
          "internalType": "address",
          "name": "user",
          "type": "address"
        },
        {
          "indexed": false,
          "internalType": "uint256",
          "name": "amountIn",
          "type": "uint256"
        },
        {
          "indexed": false,
          "internalType": "uint256",
          "name": "amountOut",
          "type": "uint256"
        }
      ],
      "name": "MultiHopSwap",
      "type": "event"
    },
    {
      "anonymous": false,
      "inputs": [
        {
          "indexed": false,
          "internalType": "address",
          "name": "account",
          "type": "address"
        }
      ],
      "name": "Paused",
      "type": "event"
    },
    {
      "anonymous": false,
      "inputs": [
        {
          "indexed": true,
          "internalType": "bytes32",
          "name": "role",
          "type": "bytes32"
        },
        {
          "indexed": true,
          "internalType": "bytes32",
          "name": "previousAdminRole",
          "type": "bytes32"
        },
        {
          "indexed": true,
          "internalType": "bytes32",
          "name": "newAdminRole",
          "type": "bytes32"
        }
      ],
      "name": "RoleAdminChanged",
      "type": "event"
    },
    {
      "anonymous": false,
      "inputs": [
        {
          "indexed": true,
          "internalType": "bytes32",
          "name": "role",
          "type": "bytes32"
        },
        {
          "indexed": true,
          "internalType": "address",
          "name": "account",
          "type": "address"
        },
        {
          "indexed": true,
          "internalType": "address",
          "name": "sender",
          "type": "address"
        }
      ],
      "name": "RoleGranted",
      "type": "event"
    },
    {
      "anonymous": false,
      "inputs": [
        {
          "indexed": true,
          "internalType": "bytes32",
          "name": "role",
          "type": "bytes32"
        },
        {
          "indexed": true,
          "internalType": "address",
          "name": "account",
          "type": "address"
        },
        {
          "indexed": true,
          "internalType": "address",
          "name": "sender",
          "type": "address"
        }
      ],
      "name": "RoleRevoked",
      "type": "event"
    },
    {
      "anonymous": false,
      "inputs": [
        {
          "indexed": true,
          "internalType": "address",
          "name": "user",
          "type": "address"
        },
        {
          "indexed": true,
          "internalType": "address",
          "name": "tokenIn",
          "type": "address"
        },
        {
          "indexed": true,
          "internalType": "address",
          "name": "tokenOut",
          "type": "address"
        },
        {
          "indexed": false,
          "internalType": "uint256",
          "name": "amountIn",
          "type": "uint256"
        },
        {
          "indexed": false,
          "internalType": "uint256",
          "name": "amountOut",
          "type": "uint256"
        },
        {
          "indexed": false,
          "internalType": "uint24",
          "name": "fee",
          "type": "uint24"
        }
      ],
      "name": "Swapped",
      "type": "event"
    },
    {
      "anonymous": false,
      "inputs": [
        {
          "indexed": false,
          "internalType": "address",
          "name": "account",
          "type": "address"
        }
      ],
      "name": "Unpaused",
      "type": "event"
    },
    {
      "inputs": [],
      "name": "DEFAULT_ADMIN_ROLE",
      "outputs": [
        {
          "internalType": "bytes32",
          "name": "",
          "type": "bytes32"
        }
      ],
      "stateMutability": "view",
      "type": "function"
    },
    {
      "inputs": [],
      "name": "FEE_HIGH",
      "outputs": [
        {
          "internalType": "uint24",
          "name": "",
          "type": "uint24"
        }
      ],
      "stateMutability": "view",
      "type": "function"
    },
    {
      "inputs": [],
      "name": "FEE_LOW",
      "outputs": [
        {
          "internalType": "uint24",
          "name": "",
          "type": "uint24"
        }
      ],
      "stateMutability": "view",
      "type": "function"
    },
    {
      "inputs": [],
      "name": "FEE_LOWEST",
      "outputs": [
        {
          "internalType": "uint24",
          "name": "",
          "type": "uint24"
        }
      ],
      "stateMutability": "view",
      "type": "function"
    },
    {
      "inputs": [],
      "name": "FEE_MEDIUM",
      "outputs": [
        {
          "internalType": "uint24",
          "name": "",
          "type": "uint24"
        }
      ],
      "stateMutability": "view",
      "type": "function"
    },
    {
      "inputs": [],
      "name": "MANAGER_ROLE",
      "outputs": [
        {
          "internalType": "bytes32",
          "name": "",
          "type": "bytes32"
        }
      ],
      "stateMutability": "view",
      "type": "function"
    },
    {
      "inputs": [
        {
          "internalType": "address",
          "name": "token",
          "type": "address"
        },
        {
          "internalType": "uint256",
          "name": "amount",
          "type": "uint256"
        }
      ],
      "name": "emergencyWithdraw",
      "outputs": [],
      "stateMutability": "nonpayable",
      "type": "function"
    },
    {
      "inputs": [],
      "name": "factory",
      "outputs": [
        {
          "internalType": "contract IUniswapV3Factory",
          "name": "",
          "type": "address"
        }
      ],
      "stateMutability": "view",
      "type": "function"
    },
    {
      "inputs": [
        {
          "internalType": "address",
          "name": "tokenA",
          "type": "address"
        },
        {
          "internalType": "address",
          "name": "tokenB",
          "type": "address"
        },
        {
          "internalType": "uint24",
          "name": "fee",
          "type": "uint24"
        }
      ],
      "name": "getPool",
      "outputs": [
        {
          "internalType": "address",
          "name": "pool",
          "type": "address"
        }
      ],
      "stateMutability": "view",
      "type": "function"
    },
    {
      "inputs": [
        {
          "internalType": "bytes32",
          "name": "role",
          "type": "bytes32"
        }
      ],
      "name": "getRoleAdmin",
      "outputs": [
        {
          "internalType": "bytes32",
          "name": "",
          "type": "bytes32"
        }
      ],
      "stateMutability": "view",
      "type": "function"
    },
    {
      "inputs": [
        {
          "internalType": "bytes32",
          "name": "role",
          "type": "bytes32"
        },
        {
          "internalType": "address",
          "name": "account",
          "type": "address"
        }
      ],
      "name": "grantRole",
      "outputs": [],
      "stateMutability": "nonpayable",
      "type": "function"
    },
    {
      "inputs": [
        {
          "internalType": "bytes32",
          "name": "role",
          "type": "bytes32"
        },
        {
          "internalType": "address",
          "name": "account",
          "type": "address"
        }
      ],
      "name": "hasRole",
      "outputs": [
        {
          "internalType": "bool",
          "name": "",
          "type": "bool"
        }
      ],
      "stateMutability": "view",
      "type": "function"
    },
    {
      "inputs": [],
      "name": "pause",
      "outputs": [],
      "stateMutability": "nonpayable",
      "type": "function"
    },
    {
      "inputs": [],
      "name": "paused",
      "outputs": [
        {
          "internalType": "bool",
          "name": "",
          "type": "bool"
        }
      ],
      "stateMutability": "view",
      "type": "function"
    },
    {
      "inputs": [
        {
          "internalType": "address",
          "name": "tokenA",
          "type": "address"
        },
        {
          "internalType": "address",
          "name": "tokenB",
          "type": "address"
        },
        {
          "internalType": "uint24",
          "name": "fee",
          "type": "uint24"
        }
      ],
      "name": "poolExists",
      "outputs": [
        {
          "internalType": "bool",
          "name": "exists",
          "type": "bool"
        }
      ],
      "stateMutability": "view",
      "type": "function"
    },
    {
      "inputs": [
        {
          "internalType": "bytes32",
          "name": "role",
          "type": "bytes32"
        },
        {
          "internalType": "address",
          "name": "callerConfirmation",
          "type": "address"
        }
      ],
      "name": "renounceRole",
      "outputs": [],
      "stateMutability": "nonpayable",
      "type": "function"
    },
    {
      "inputs": [
        {
          "internalType": "bytes32",
          "name": "role",
          "type": "bytes32"
        },
        {
          "internalType": "address",
          "name": "account",
          "type": "address"
        }
      ],
      "name": "revokeRole",
      "outputs": [],
      "stateMutability": "nonpayable",
      "type": "function"
    },
    {
      "inputs": [
        {
          "internalType": "address",
          "name": "_stateAggregator",
          "type": "address"
        }
      ],
      "name": "setStateAggregator",
      "outputs": [],
      "stateMutability": "nonpayable",
      "type": "function"
    },
    {
      "inputs": [],
      "name": "stateAggregator",
      "outputs": [
        {
          "internalType": "contract L2StateAggregator",
          "name": "",
          "type": "address"
        }
      ],
      "stateMutability": "view",
      "type": "function"
    },
    {
      "inputs": [
        {
          "internalType": "bytes4",
          "name": "interfaceId",
          "type": "bytes4"
        }
      ],
      "name": "supportsInterface",
      "outputs": [
        {
          "internalType": "bool",
          "name": "",
          "type": "bool"
        }
      ],
      "stateMutability": "view",
      "type": "function"
    },
    {
      "inputs": [
        {
          "internalType": "bytes",
          "name": "path",
          "type": "bytes"
        },
        {
          "internalType": "uint256",
          "name": "amountIn",
          "type": "uint256"
        },
        {
          "internalType": "uint256",
          "name": "amountOutMinimum",
          "type": "uint256"
        },
        {
          "internalType": "uint256",
          "name": "deadline",
          "type": "uint256"
        }
      ],
      "name": "swapExactInput",
      "outputs": [
        {
          "internalType": "uint256",
          "name": "amountOut",
          "type": "uint256"
        }
      ],
      "stateMutability": "nonpayable",
      "type": "function"
    },
    {
      "inputs": [
        {
          "internalType": "address",
          "name": "tokenIn",
          "type": "address"
        },
        {
          "internalType": "address",
          "name": "tokenOut",
          "type": "address"
        },
        {
          "internalType": "uint24",
          "name": "fee",
          "type": "uint24"
        },
        {
          "internalType": "uint256",
          "name": "amountIn",
          "type": "uint256"
        },
        {
          "internalType": "uint256",
          "name": "amountOutMinimum",
          "type": "uint256"
        },
        {
          "internalType": "uint256",
          "name": "deadline",
          "type": "uint256"
        }
      ],
      "name": "swapExactInputSingle",
      "outputs": [
        {
          "internalType": "uint256",
          "name": "amountOut",
          "type": "uint256"
        }
      ],
      "stateMutability": "nonpayable",
      "type": "function"
    },
    {
      "inputs": [
        {
          "internalType": "address",
          "name": "tokenIn",
          "type": "address"
        },
        {
          "internalType": "address",
          "name": "tokenOut",
          "type": "address"
        },
        {
          "internalType": "uint24",
          "name": "fee",
          "type": "uint24"
        },
        {
          "internalType": "uint256",
          "name": "amountOut",
          "type": "uint256"
        },
        {
          "internalType": "uint256",
          "name": "amountInMaximum",
          "type": "uint256"
        },
        {
          "internalType": "uint256",
          "name": "deadline",
          "type": "uint256"
        }
      ],
      "name": "swapExactOutputSingle",
      "outputs": [
        {
          "internalType": "uint256",
          "name": "amountIn",
          "type": "uint256"
        }
      ],
      "stateMutability": "nonpayable",
      "type": "function"
    },
    {
      "inputs": [],
      "name": "swapRouter",
      "outputs": [
        {
          "internalType": "contract ISwapRouter",
          "name": "",
          "type": "address"
        }
      ],
      "stateMutability": "view",
      "type": "function"
    },
    {
      "inputs": [],
      "name": "totalSwapVolume",
      "outputs": [
        {
          "internalType": "uint256",
          "name": "",
          "type": "uint256"
        }
      ],
      "stateMutability": "view",
      "type": "function"
    },
    {
      "inputs": [],
      "name": "totalSwaps",
      "outputs": [
        {
          "internalType": "uint256",
          "name": "",
          "type": "uint256"
        }
      ],
      "stateMutability": "view",
      "type": "function"
    },
    {
      "inputs": [],
      "name": "unpause",
      "outputs": [],
      "stateMutability": "nonpayable",
      "type": "function"
    },
    {
      "stateMutability": "payable",
      "type": "receive"
    }
  ],
  "bytecode": "0x60c06040523480156200001157600080fd5b5060405162001b2138038062001b21833981016040819052620000349162000249565b600180556001600160a01b038316620000945760405162461bcd60e51b815260206004820152601360248201527f496e76616c6964207377617020726f757465720000000000000000000000000060448201526064015b60405180910390fd5b6001600160a01b038216620000de5760405162461bcd60e51b815260206004820152600f60248201526e496e76616c696420666163746f727960881b60448201526064016200008b565b6001600160a01b038116620001265760405162461bcd60e51b815260206004820152600d60248201526c24b73b30b634b21030b236b4b760991b60448201526064016200008b565b6001600160a01b03808416608052821660a052620001466000826200017d565b50620001737f241ecf16d79d0f8dbfb92cbc07fe17840425976cf0667f022fe9877caa831b08826200017d565b5050505062000293565b6000828152602081815260408083206001600160a01b038516845290915281205460ff1662000222576000838152602081815260408083206001600160a01b03861684529091529020805460ff19166001179055620001d93390565b6001600160a01b0316826001600160a01b0316847f2f8788117e7eff1d82e926ec794901d17c78024a50270940304540a733656f0d60405160405180910390a450600162000226565b5060005b92915050565b80516001600160a01b03811681146200024457600080fd5b919050565b6000806000606084860312156200025f57600080fd5b6200026a846200022c565b92506200027a602085016200022c565b91506200028a604085016200022c565b90509250925092565b60805160a051611830620002f1600039600081816104bc0152818161081c0152610d8301526000818161048801528181610622015281816106a30152818161093b0152818161099501528181610bc60152610c4701526118306000f3fe6080604052600436106101a05760003560e01c806363075eb9116100ec578063b4a800ce1161008a578063c45a015511610064578063c45a0155146104aa578063ca216247146104de578063d547741f146104f4578063ec87621c1461051457600080fd5b8063b4a800ce14610440578063c0804b4614610456578063c31c9c071461047657600080fd5b80638456cb59116100c65780638456cb59146103d657806391d14854146103eb57806395ccea671461040b578063a217fddf1461042b57600080fd5b806363075eb91461038b57806379dc9b32146103a1578063806eacf8146103b657600080fd5b80632f2ff15d116101595780633f4ba83a116101335780633f4ba83a1461031957806351e820e71461032e57806354ef29201461034e5780635c975abb1461037357600080fd5b80632f2ff15d146102ad57806336568abe146102cf5780633add5c05146102ef57600080fd5b806301b84065146101ac57806301ffc9a7146101d5578063023884b7146102055780631698ee82146102255780631d56ec331461025d578063248a9ca31461027d57600080fd5b366101a757005b600080fd5b3480156101b857600080fd5b506101c260035481565b6040519081526020015b60405180910390f35b3480156101e157600080fd5b506101f56101f03660046113da565b610548565b60405190151581526020016101cc565b34801561021157600080fd5b506101c2610220366004611438565b61057f565b34801561023157600080fd5b5061024561024036600461149b565b6107e7565b6040516001600160a01b0390911681526020016101cc565b34801561026957600080fd5b506101c26102783660046114f8565b610891565b34801561028957600080fd5b506101c26102983660046115bd565b60009081526020819052604090206001015490565b3480156102b957600080fd5b506102cd6102c83660046115d6565b610a91565b005b3480156102db57600080fd5b506102cd6102ea3660046115d6565b610abc565b3480156102fb57600080fd5b506103056101f481565b60405162ffffff90911681526020016101cc565b34801561032557600080fd5b506102cd610af4565b34801561033a57600080fd5b506101c2610349366004611438565b610b29565b34801561035a57600080fd5b506002546102459061010090046001600160a01b031681565b34801561037f57600080fd5b5060025460ff166101f5565b34801561039757600080fd5b5061030561271081565b3480156103ad57600080fd5b50610305606481565b3480156103c257600080fd5b506101f56103d136600461149b565b610d4c565b3480156103e257600080fd5b506102cd610e02565b3480156103f757600080fd5b506101f56104063660046115d6565b610e34565b34801561041757600080fd5b506102cd610426366004611606565b610e5d565b34801561043757600080fd5b506101c2600081565b34801561044c57600080fd5b506101c260045481565b34801561046257600080fd5b506102cd610471366004611632565b610e7c565b34801561048257600080fd5b506102457f000000000000000000000000000000000000000000000000000000000000000081565b3480156104b657600080fd5b506102457f000000000000000000000000000000000000000000000000000000000000000081565b3480156104ea57600080fd5b50610305610bb881565b34801561050057600080fd5b506102cd61050f3660046115d6565b610eb0565b34801561052057600080fd5b506101c27f241ecf16d79d0f8dbfb92cbc07fe17840425976cf0667f022fe9877caa831b0881565b60006001600160e01b03198216637965db0b60e01b148061057957506301ffc9a760e01b6001600160e01b03198316145b92915050565b6000610589610ed5565b610591610eff565b600084116105de5760405162461bcd60e51b8152602060048201526015602482015274125b9d985b1a59081bdd5d1c1d5d08185b5bdd5b9d605a1b60448201526064015b60405180910390fd5b428210156105fe5760405162461bcd60e51b81526004016105d59061164f565b6106136001600160a01b038816333086610f25565b6106476001600160a01b0388167f000000000000000000000000000000000000000000000000000000000000000085610f8c565b60408051610100810182526001600160a01b03808a168252888116602083015262ffffff8816828401523360608301526080820185905260a0820187905260c08201869052600060e08301529151631b67c43360e31b815290917f0000000000000000000000000000000000000000000000000000000000000000169063db3e2198906106d8908490600401611678565b6020604051808303816000875af11580156106f7573d6000803e3d6000fd5b505050506040513d601f19601f8201168201806040525081019061071b91906116e2565b91508184111561074457610744336107338487611711565b6001600160a01b038b16919061101c565b81600360008282546107569190611724565b90915550506004805490600061076b83611737565b919050555061077861104d565b604080518381526020810187905262ffffff8816918101919091526001600160a01b0380891691908a169033907f62a422cc36234492f287aeb712657b805d79c0ae49f3c5f2d23570342854656a906060015b60405180910390a4506107dd60018055565b9695505050505050565b604051630b4c774160e11b81526001600160a01b038481166004830152838116602483015262ffffff831660448301526000917f000000000000000000000000000000000000000000000000000000000000000090911690631698ee8290606401602060405180830381865afa158015610865573d6000803e3d6000fd5b505050506040513d601f19601f820116820180604052508101906108899190611750565b949350505050565b600061089b610ed5565b6108a3610eff565b600084116108ea5760405162461bcd60e51b8152602060048201526014602482015273125b9d985b1a59081a5b9c1d5d08185b5bdd5b9d60621b60448201526064016105d5565b4282101561090a5760405162461bcd60e51b81526004016105d59061164f565b6000610915866110de565b905061092c6001600160a01b038216333088610f25565b6109606001600160a01b0382167f000000000000000000000000000000000000000000000000000000000000000087610f8c565b6040805160a0810182528781523360208201528082018590526060810187905260808101869052905163c04b8d5960e01b81527f00000000000000000000000000000000000000000000000000000000000000006001600160a01b03169063c04b8d59906109d290849060040161176d565b6020604051808303816000875af11580156109f1573d6000803e3d6000fd5b505050506040513d601f19601f82011682018060405250810190610a1591906116e2565b92508560036000828254610a299190611724565b909155505060048054906000610a3e83611737565b9190505550610a4b61104d565b604080518781526020810185905233917f785d843068b6b9579cfe6da7d04a95c5ee9543c8adc6dcf0fd7c8bc6841686a8910160405180910390a2505061088960018055565b600082815260208190526040902060010154610aac81611129565b610ab68383611133565b50505050565b6001600160a01b0381163314610ae55760405163334bd91960e11b815260040160405180910390fd5b610aef82826111c5565b505050565b7f241ecf16d79d0f8dbfb92cbc07fe17840425976cf0667f022fe9877caa831b08610b1e81611129565b610b26611230565b50565b6000610b33610ed5565b610b3b610eff565b60008411610b825760405162461bcd60e51b8152602060048201526014602482015273125b9d985b1a59081a5b9c1d5d08185b5bdd5b9d60621b60448201526064016105d5565b42821015610ba25760405162461bcd60e51b81526004016105d59061164f565b610bb76001600160a01b038816333087610f25565b610beb6001600160a01b0388167f000000000000000000000000000000000000000000000000000000000000000086610f8c565b60408051610100810182526001600160a01b03808a168252888116602083015262ffffff8816828401523360608301526080820185905260a0820187905260c08201869052600060e0830152915163414bf38960e01b815290917f0000000000000000000000000000000000000000000000000000000000000000169063414bf38990610c7c908490600401611678565b6020604051808303816000875af1158015610c9b573d6000803e3d6000fd5b505050506040513d601f19601f82011682018060405250810190610cbf91906116e2565b91508460036000828254610cd39190611724565b909155505060048054906000610ce883611737565b9190505550610cf561104d565b604080518681526020810184905262ffffff8816918101919091526001600160a01b0380891691908a169033907f62a422cc36234492f287aeb712657b805d79c0ae49f3c5f2d23570342854656a906060016107cb565b604051630b4c774160e11b81526001600160a01b038481166004830152838116602483015262ffffff8316604483015260009182917f00000000000000000000000000000000000000000000000000000000000000001690631698ee8290606401602060405180830381865afa158015610dca573d6000803e3d6000fd5b505050506040513d601f19601f82011682018060405250810190610dee9190611750565b6001600160a01b0316151595945050505050565b7f241ecf16d79d0f8dbfb92cbc07fe17840425976cf0667f022fe9877caa831b08610e2c81611129565b610b26611282565b6000918252602082815260408084206001600160a01b0393909316845291905290205460ff1690565b6000610e6881611129565b610aef6001600160a01b038416338461101c565b6000610e8781611129565b50600280546001600160a01b0390921661010002610100600160a81b0319909216919091179055565b600082815260208190526040902060010154610ecb81611129565b610ab683836111c5565b600260015403610ef857604051633ee5aeb560e01b815260040160405180910390fd5b6002600155565b60025460ff1615610f235760405163d93c066560e01b815260040160405180910390fd5b565b6040516001600160a01b038481166024830152838116604483015260648201839052610ab69186918216906323b872dd906084015b604051602081830303815290604052915060e01b6020820180516001600160e01b0383818316178352505050506112bf565b604080516001600160a01b038416602482015260448082018490528251808303909101815260649091019091526020810180516001600160e01b031663095ea7b360e01b179052610fdd8482611330565b610ab6576040516001600160a01b0384811660248301526000604483015261101291869182169063095ea7b390606401610f5a565b610ab684826112bf565b6040516001600160a01b03838116602483015260448201839052610aef91859182169063a9059cbb90606401610f5a565b60025461010090046001600160a01b031615610f2357600254600480546003546040516305a888b960e21b815260009381018490526024810193909352604483019190915260648201526101009091046001600160a01b0316906316a222e490608401600060405180830381600087803b1580156110ca57600080fd5b505af1158015610ab6573d6000803e3d6000fd5b60006014825110156111215760405162461bcd60e51b815260206004820152600c60248201526b092dcecc2d8d2c840e0c2e8d60a31b60448201526064016105d5565b506014015190565b610b26813361137a565b600061113f8383610e34565b6111bd576000838152602081815260408083206001600160a01b03861684529091529020805460ff191660011790556111753390565b6001600160a01b0316826001600160a01b0316847f2f8788117e7eff1d82e926ec794901d17c78024a50270940304540a733656f0d60405160405180910390a4506001610579565b506000610579565b60006111d18383610e34565b156111bd576000838152602081815260408083206001600160a01b0386168085529252808320805460ff1916905551339286917ff6391f5c32d9c69d2a47ea670b442974b53935d1edc7fd64eb21e047a839171b9190a4506001610579565b6112386113b7565b6002805460ff191690557f5db9ee0a495bf2e6ff9c91a7834c1ba4fdd244a5e8aa4e537bd38aeae4b073aa335b6040516001600160a01b03909116815260200160405180910390a1565b61128a610eff565b6002805460ff191660011790557f62e78cea01bee320cd4e420270b5ea74000d11b0c9f74754ebdbfc544b05a2586112653390565b600080602060008451602086016000885af1806112e2576040513d6000823e3d81fd5b50506000513d915081156112fa578060011415611307565b6001600160a01b0384163b155b15610ab657604051635274afe760e01b81526001600160a01b03851660048201526024016105d5565b6000806000806020600086516020880160008a5af192503d915060005190508280156107dd5750811561136657806001146107dd565b50505050506001600160a01b03163b151590565b6113848282610e34565b6113b35760405163e2517d3f60e01b81526001600160a01b0382166004820152602481018390526044016105d5565b5050565b60025460ff16610f2357604051638dfc202b60e01b815260040160405180910390fd5b6000602082840312156113ec57600080fd5b81356001600160e01b03198116811461140457600080fd5b9392505050565b6001600160a01b0381168114610b2657600080fd5b803562ffffff8116811461143357600080fd5b919050565b60008060008060008060c0878903121561145157600080fd5b863561145c8161140b565b9550602087013561146c8161140b565b945061147a60408801611420565b9350606087013592506080870135915060a087013590509295509295509295565b6000806000606084860312156114b057600080fd5b83356114bb8161140b565b925060208401356114cb8161140b565b91506114d960408501611420565b90509250925092565b634e487b7160e01b600052604160045260246000fd5b6000806000806080858703121561150e57600080fd5b843567ffffffffffffffff8082111561152657600080fd5b818701915087601f83011261153a57600080fd5b81358181111561154c5761154c6114e2565b604051601f8201601f19908116603f01168101908382118183101715611574576115746114e2565b816040528281528a602084870101111561158d57600080fd5b82602086016020830137600060209382018401529a91890135995050604088013597606001359650945050505050565b6000602082840312156115cf57600080fd5b5035919050565b600080604083850312156115e957600080fd5b8235915060208301356115fb8161140b565b809150509250929050565b6000806040838503121561161957600080fd5b82356116248161140b565b946020939093013593505050565b60006020828403121561164457600080fd5b81356114048161140b565b6020808252600f908201526e111958591b1a5b99481c185cdcd959608a1b604082015260600190565b6101008101610579828480516001600160a01b03908116835260208083015182169084015260408083015162ffffff16908401526060808301518216908401526080808301519084015260a0828101519084015260c0808301519084015260e09182015116910152565b6000602082840312156116f457600080fd5b5051919050565b634e487b7160e01b600052601160045260246000fd5b81810381811115610579576105796116fb565b80820180821115610579576105796116fb565b600060018201611749576117496116fb565b5060010190565b60006020828403121561176257600080fd5b81516114048161140b565b60006020808352835160a0602085015280518060c086015260005b818110156117a45782810184015186820160e001528301611788565b50600085820160e0015260208601516001600160a01b038116604087015292506040860151606086015260608601516080860152608086015160a086015260e0601f19601f83011686010193505050509291505056fea2646970667358221220212a23d740d2ca720305efb6b13d36865183360e5d730e181d94c55118cede9e64736f6c63430008160033",
  "linkReferences": {},
  "deployedLinkReferences": {}
}