{
  "_format": "hh-sol-artifact-1",
  "contractName": "TreasuryPriceOracle",
  "sourceName": "contracts/layer2/treasury/TreasuryPriceOracle.sol",
  "abi": [
    {
      "inputs": [
        {
          "internalType": "address",
          "name": "admin",
          "type": "address"
        },
        {
          "internalType": "address",
          "name": "factory",
          "type": "address"
        }
      ],
      "stateMutability": "nonpayable",
      "type": "constructor"
    },
    {
      "inputs": [],
      "name": "AccessControlBadConfirmation",
      "type": "error"
    },
    {
      "inputs": [
        {
          "internalType": "address",
          "name": "account",
          "type": "address"
        },
        {
          "internalType": "bytes32",
          "name": "neededRole",
          "type": "bytes32"
        }
      ],
      "name": "AccessControlUnauthorizedAccount",
      "type": "error"
    },
    {
      "inputs": [],
      "name": "EnforcedPause",
      "type": "error"
    },
    {
      "inputs": [],
      "name": "ExpectedPause",
      "type": "error"
    },
    {
      "anonymous": false,
      "inputs": [
        {
          "indexed": false,
          "internalType": "address",
          "name": "account",
          "type": "address"
        }
      ],
      "name": "Paused",
      "type": "event"
    },
    {
      "anonymous": false,
      "inputs": [
        {
          "indexed": true,
          "internalType": "uint256",
          "name": "assetId",
          "type": "uint256"
        },
        {
          "indexed": false,
          "internalType": "uint256",
          "name": "price",
          "type": "uint256"
        },
        {
          "indexed": false,
          "internalType": "uint256",
          "name": "yield",
          "type": "uint256"
        },
        {
          "indexed": false,
          "internalType": "uint256",
          "name": "timestamp",
          "type": "uint256"
        }
      ],
      "name": "PriceHistoryRecorded",
      "type": "event"
    },
    {
      "anonymous": false,
      "inputs": [
        {
          "indexed": true,
          "internalType": "uint256",
          "name": "assetId",
          "type": "uint256"
        },
        {
          "indexed": false,
          "internalType": "string",
          "name": "oldSource",
          "type": "string"
        },
        {
          "indexed": false,
          "internalType": "string",
          "name": "newSource",
          "type": "string"
        }
      ],
      "name": "PriceSourceChanged",
      "type": "event"
    },
    {
      "anonymous": false,
      "inputs": [
        {
          "indexed": true,
          "internalType": "uint256",
          "name": "assetId",
          "type": "uint256"
        },
        {
          "indexed": false,
          "internalType": "uint256",
          "name": "price",
          "type": "uint256"
        },
        {
          "indexed": false,
          "internalType": "uint256",
          "name": "yield",
          "type": "uint256"
        },
        {
          "indexed": false,
          "internalType": "uint256",
          "name": "timestamp",
          "type": "uint256"
        },
        {
          "indexed": false,
          "internalType": "string",
          "name": "source",
          "type": "string"
        }
      ],
      "name": "PriceUpdated",
      "type": "event"
    },
    {
      "anonymous": false,
      "inputs": [
        {
          "indexed": true,
          "internalType": "bytes32",
          "name": "role",
          "type": "bytes32"
        },
        {
          "indexed": true,
          "internalType": "bytes32",
          "name": "previousAdminRole",
          "type": "bytes32"
        },
        {
          "indexed": true,
          "internalType": "bytes32",
          "name": "newAdminRole",
          "type": "bytes32"
        }
      ],
      "name": "RoleAdminChanged",
      "type": "event"
    },
    {
      "anonymous": false,
      "inputs": [
        {
          "indexed": true,
          "internalType": "bytes32",
          "name": "role",
          "type": "bytes32"
        },
        {
          "indexed": true,
          "internalType": "address",
          "name": "account",
          "type": "address"
        },
        {
          "indexed": true,
          "internalType": "address",
          "name": "sender",
          "type": "address"
        }
      ],
      "name": "RoleGranted",
      "type": "event"
    },
    {
      "anonymous": false,
      "inputs": [
        {
          "indexed": true,
          "internalType": "bytes32",
          "name": "role",
          "type": "bytes32"
        },
        {
          "indexed": true,
          "internalType": "address",
          "name": "account",
          "type": "address"
        },
        {
          "indexed": true,
          "internalType": "address",
          "name": "sender",
          "type": "address"
        }
      ],
      "name": "RoleRevoked",
      "type": "event"
    },
    {
      "anonymous": false,
      "inputs": [
        {
          "indexed": false,
          "internalType": "address",
          "name": "account",
          "type": "address"
        }
      ],
      "name": "Unpaused",
      "type": "event"
    },
    {
      "inputs": [],
      "name": "DEFAULT_ADMIN_ROLE",
      "outputs": [
        {
          "internalType": "bytes32",
          "name": "",
          "type": "bytes32"
        }
      ],
      "stateMutability": "view",
      "type": "function"
    },
    {
      "inputs": [],
      "name": "MAX_PRICE_DEVIATION",
      "outputs": [
        {
          "internalType": "uint256",
          "name": "",
          "type": "uint256"
        }
      ],
      "stateMutability": "view",
      "type": "function"
    },
    {
      "inputs": [],
      "name": "MAX_YIELD",
      "outputs": [
        {
          "internalType": "uint256",
          "name": "",
          "type": "uint256"
        }
      ],
      "stateMutability": "view",
      "type": "function"
    },
    {
      "inputs": [],
      "name": "ORACLE_ROLE",
      "outputs": [
        {
          "internalType": "bytes32",
          "name": "",
          "type": "bytes32"
        }
      ],
      "stateMutability": "view",
      "type": "function"
    },
    {
      "inputs": [],
      "name": "PRICE_FRESHNESS",
      "outputs": [
        {
          "internalType": "uint256",
          "name": "",
          "type": "uint256"
        }
      ],
      "stateMutability": "view",
      "type": "function"
    },
    {
      "inputs": [],
      "name": "PRICE_UPDATER_ROLE",
      "outputs": [
        {
          "internalType": "bytes32",
          "name": "",
          "type": "bytes32"
        }
      ],
      "stateMutability": "view",
      "type": "function"
    },
    {
      "inputs": [],
      "name": "assetFactory",
      "outputs": [
        {
          "internalType": "contract ITreasuryAsset",
          "name": "",
          "type": "address"
        }
      ],
      "stateMutability": "view",
      "type": "function"
    },
    {
      "inputs": [
        {
          "internalType": "uint256",
          "name": "",
          "type": "uint256"
        }
      ],
      "name": "assetPrices",
      "outputs": [
        {
          "internalType": "uint256",
          "name": "price",
          "type": "uint256"
        },
        {
          "internalType": "uint256",
          "name": "yield",
          "type": "uint256"
        },
        {
          "internalType": "uint256",
          "name": "timestamp",
          "type": "uint256"
        },
        {
          "internalType": "uint256",
          "name": "updateCount",
          "type": "uint256"
        },
        {
          "internalType": "string",
          "name": "source",
          "type": "string"
        }
      ],
      "stateMutability": "view",
      "type": "function"
    },
    {
      "inputs": [
        {
          "internalType": "uint256[]",
          "name": "assetIds",
          "type": "uint256[]"
        },
        {
          "internalType": "uint256[]",
          "name": "prices",
          "type": "uint256[]"
        },
        {
          "internalType": "uint256[]",
          "name": "yields",
          "type": "uint256[]"
        },
        {
          "internalType": "string",
          "name": "source",
          "type": "string"
        }
      ],
      "name": "batchUpdatePrices",
      "outputs": [],
      "stateMutability": "nonpayable",
      "type": "function"
    },
    {
      "inputs": [
        {
          "internalType": "uint256",
          "name": "assetId",
          "type": "uint256"
        },
        {
          "internalType": "uint256",
          "name": "tokenAmount",
          "type": "uint256"
        }
      ],
      "name": "calculateMarketValue",
      "outputs": [
        {
          "internalType": "uint256",
          "name": "",
          "type": "uint256"
        }
      ],
      "stateMutability": "view",
      "type": "function"
    },
    {
      "inputs": [
        {
          "internalType": "uint256",
          "name": "assetId",
          "type": "uint256"
        },
        {
          "internalType": "uint256",
          "name": "price",
          "type": "uint256"
        },
        {
          "internalType": "uint256",
          "name": "yield",
          "type": "uint256"
        }
      ],
      "name": "emergencyPriceUpdate",
      "outputs": [],
      "stateMutability": "nonpayable",
      "type": "function"
    },
    {
      "inputs": [
        {
          "internalType": "uint256[]",
          "name": "assetIds",
          "type": "uint256[]"
        }
      ],
      "name": "getBatchPrices",
      "outputs": [
        {
          "internalType": "uint256[]",
          "name": "prices",
          "type": "uint256[]"
        },
        {
          "internalType": "uint256[]",
          "name": "yields",
          "type": "uint256[]"
        },
        {
          "internalType": "uint256[]",
          "name": "timestamps",
          "type": "uint256[]"
        }
      ],
      "stateMutability": "view",
      "type": "function"
    },
    {
      "inputs": [
        {
          "internalType": "uint256",
          "name": "assetId",
          "type": "uint256"
        }
      ],
      "name": "getLatestPrice",
      "outputs": [
        {
          "internalType": "uint256",
          "name": "price",
          "type": "uint256"
        },
        {
          "internalType": "uint256",
          "name": "yield",
          "type": "uint256"
        },
        {
          "internalType": "uint256",
          "name": "timestamp",
          "type": "uint256"
        }
      ],
      "stateMutability": "view",
      "type": "function"
    },
    {
      "inputs": [
        {
          "internalType": "uint256",
          "name": "assetId",
          "type": "uint256"
        }
      ],
      "name": "getPriceAge",
      "outputs": [
        {
          "internalType": "uint256",
          "name": "",
          "type": "uint256"
        }
      ],
      "stateMutability": "view",
      "type": "function"
    },
    {
      "inputs": [
        {
          "internalType": "uint256",
          "name": "assetId",
          "type": "uint256"
        }
      ],
      "name": "getPriceData",
      "outputs": [
        {
          "components": [
            {
              "internalType": "uint256",
              "name": "price",
              "type": "uint256"
            },
            {
              "internalType": "uint256",
              "name": "yield",
              "type": "uint256"
            },
            {
              "internalType": "uint256",
              "name": "timestamp",
              "type": "uint256"
            },
            {
              "internalType": "uint256",
              "name": "updateCount",
              "type": "uint256"
            },
            {
              "internalType": "string",
              "name": "source",
              "type": "string"
            }
          ],
          "internalType": "struct TreasuryPriceOracle.PriceData",
          "name": "",
          "type": "tuple"
        }
      ],
      "stateMutability": "view",
      "type": "function"
    },
    {
      "inputs": [
        {
          "internalType": "uint256",
          "name": "assetId",
          "type": "uint256"
        },
        {
          "internalType": "uint256",
          "name": "count",
          "type": "uint256"
        }
      ],
      "name": "getPriceHistory",
      "outputs": [
        {
          "components": [
            {
              "internalType": "uint256",
              "name": "price",
              "type": "uint256"
            },
            {
              "internalType": "uint256",
              "name": "yield",
              "type": "uint256"
            },
            {
              "internalType": "uint256",
              "name": "timestamp",
              "type": "uint256"
            },
            {
              "internalType": "string",
              "name": "source",
              "type": "string"
            }
          ],
          "internalType": "struct TreasuryPriceOracle.PriceHistory[]",
          "name": "",
          "type": "tuple[]"
        }
      ],
      "stateMutability": "view",
      "type": "function"
    },
    {
      "inputs": [
        {
          "internalType": "bytes32",
          "name": "role",
          "type": "bytes32"
        }
      ],
      "name": "getRoleAdmin",
      "outputs": [
        {
          "internalType": "bytes32",
          "name": "",
          "type": "bytes32"
        }
      ],
      "stateMutability": "view",
      "type": "function"
    },
    {
      "inputs": [
        {
          "internalType": "bytes32",
          "name": "role",
          "type": "bytes32"
        },
        {
          "internalType": "address",
          "name": "account",
          "type": "address"
        }
      ],
      "name": "grantRole",
      "outputs": [],
      "stateMutability": "nonpayable",
      "type": "function"
    },
    {
      "inputs": [
        {
          "internalType": "bytes32",
          "name": "role",
          "type": "bytes32"
        },
        {
          "internalType": "address",
          "name": "account",
          "type": "address"
        }
      ],
      "name": "hasRole",
      "outputs": [
        {
          "internalType": "bool",
          "name": "",
          "type": "bool"
        }
      ],
      "stateMutability": "view",
      "type": "function"
    },
    {
      "inputs": [
        {
          "internalType": "uint256",
          "name": "assetId",
          "type": "uint256"
        }
      ],
      "name": "isPriceFresh",
      "outputs": [
        {
          "internalType": "bool",
          "name": "",
          "type": "bool"
        }
      ],
      "stateMutability": "view",
      "type": "function"
    },
    {
      "inputs": [
        {
          "internalType": "uint256",
          "name": "",
          "type": "uint256"
        }
      ],
      "name": "lastPriceUpdate",
      "outputs": [
        {
          "internalType": "uint256",
          "name": "",
          "type": "uint256"
        }
      ],
      "stateMutability": "view",
      "type": "function"
    },
    {
      "inputs": [],
      "name": "pause",
      "outputs": [],
      "stateMutability": "nonpayable",
      "type": "function"
    },
    {
      "inputs": [],
      "name": "paused",
      "outputs": [
        {
          "internalType": "bool",
          "name": "",
          "type": "bool"
        }
      ],
      "stateMutability": "view",
      "type": "function"
    },
    {
      "inputs": [
        {
          "internalType": "uint256",
          "name": "",
          "type": "uint256"
        },
        {
          "internalType": "uint256",
          "name": "",
          "type": "uint256"
        }
      ],
      "name": "priceHistory",
      "outputs": [
        {
          "internalType": "uint256",
          "name": "price",
          "type": "uint256"
        },
        {
          "internalType": "uint256",
          "name": "yield",
          "type": "uint256"
        },
        {
          "internalType": "uint256",
          "name": "timestamp",
          "type": "uint256"
        },
        {
          "internalType": "string",
          "name": "source",
          "type": "string"
        }
      ],
      "stateMutability": "view",
      "type": "function"
    },
    {
      "inputs": [
        {
          "internalType": "bytes32",
          "name": "role",
          "type": "bytes32"
        },
        {
          "internalType": "address",
          "name": "callerConfirmation",
          "type": "address"
        }
      ],
      "name": "renounceRole",
      "outputs": [],
      "stateMutability": "nonpayable",
      "type": "function"
    },
    {
      "inputs": [
        {
          "internalType": "bytes32",
          "name": "role",
          "type": "bytes32"
        },
        {
          "internalType": "address",
          "name": "account",
          "type": "address"
        }
      ],
      "name": "revokeRole",
      "outputs": [],
      "stateMutability": "nonpayable",
      "type": "function"
    },
    {
      "inputs": [
        {
          "internalType": "bytes4",
          "name": "interfaceId",
          "type": "bytes4"
        }
      ],
      "name": "supportsInterface",
      "outputs": [
        {
          "internalType": "bool",
          "name": "",
          "type": "bool"
        }
      ],
      "stateMutability": "view",
      "type": "function"
    },
    {
      "inputs": [],
      "name": "totalPriceUpdates",
      "outputs": [
        {
          "internalType": "uint256",
          "name": "",
          "type": "uint256"
        }
      ],
      "stateMutability": "view",
      "type": "function"
    },
    {
      "inputs": [],
      "name": "unpause",
      "outputs": [],
      "stateMutability": "nonpayable",
      "type": "function"
    },
    {
      "inputs": [
        {
          "internalType": "uint256",
          "name": "assetId",
          "type": "uint256"
        },
        {
          "internalType": "uint256",
          "name": "newPrice",
          "type": "uint256"
        },
        {
          "internalType": "uint256",
          "name": "newYield",
          "type": "uint256"
        },
        {
          "internalType": "string",
          "name": "source",
          "type": "string"
        }
      ],
      "name": "updatePrice",
      "outputs": [],
      "stateMutability": "nonpayable",
      "type": "function"
    }
  ],
  "bytecode": "0x60a06040523480156200001157600080fd5b506040516200204738038062002047833981016040819052620000349162000213565b6001600160a01b038216620000805760405162461bcd60e51b815260206004820152600d60248201526c24b73b30b634b21030b236b4b760991b60448201526064015b60405180910390fd5b6001600160a01b038116620000ca5760405162461bcd60e51b815260206004820152600f60248201526e496e76616c696420666163746f727960881b604482015260640162000077565b6001600160a01b038116608052620000e460008362000147565b50620001117f68e79a7bf1e0bc45d0a330c573bc367f9cf464fd326078812f301165fbda4ef18362000147565b506200013e7fd96ba01d6560c2ab35f2940dd8d70c5f5fe06236c72674237120515918198fb08362000147565b5050506200024b565b6000828152602081815260408083206001600160a01b038516845290915281205460ff16620001ec576000838152602081815260408083206001600160a01b03861684529091529020805460ff19166001179055620001a33390565b6001600160a01b0316826001600160a01b0316847f2f8788117e7eff1d82e926ec794901d17c78024a50270940304540a733656f0d60405160405180910390a4506001620001f0565b5060005b92915050565b80516001600160a01b03811681146200020e57600080fd5b919050565b600080604083850312156200022757600080fd5b6200023283620001f6565b91506200024260208401620001f6565b90509250929050565b608051611dd96200026e6000396000818161044601526107120152611dd96000f3fe608060405234801561001057600080fd5b50600436106101da5760003560e01c806387ba555711610104578063aaec4c01116100a2578063d547741f11610071578063d547741f14610480578063de4ef81514610493578063e3c8f127146104b3578063fb8d8101146104bc57600080fd5b8063aaec4c01146103bf578063b94fe917146103e1578063bf59bbc11461042e578063c3acb4d11461044157600080fd5b806396f277b7116100de57806396f277b71461037b5780639f42fb4b14610384578063a217fddf14610397578063a45009411461039f57600080fd5b806387ba55571461034b57806391d148541461035557806395a7deaf1461036857600080fd5b80633f4ba83a1161017c57806352728c431161014b57806352728c4314610305578063563ad15c146103185780635c975abb146103385780638456cb591461034357600080fd5b80633f4ba83a146102a35780634191c45b146102ab57806344f3d590146102cf578063482f20a6146102e257600080fd5b806317ab65a9116101b857806317ab65a91461024f578063248a9ca3146102585780632f2ff15d1461027b57806336568abe1461029057600080fd5b806301ffc9a7146101df57806307e2cea5146102075780630e700b6f1461023c575b600080fd5b6101f26101ed36600461163e565b6104e3565b60405190151581526020015b60405180910390f35b61022e7f68e79a7bf1e0bc45d0a330c573bc367f9cf464fd326078812f301165fbda4ef181565b6040519081526020016101fe565b61022e61024a366004611668565b61051a565b61022e60055481565b61022e61026636600461168a565b60009081526020819052604090206001015490565b61028e6102893660046116a3565b610593565b005b61028e61029e3660046116a3565b6105be565b61028e6105f6565b6102be6102b936600461168a565b61060c565b6040516101fe959493929190611725565b61028e6102dd3660046117fe565b6106ca565b6102f56102f0366004611668565b610a50565b6040516101fe9493929190611858565b6101f261031336600461168a565b610b25565b61022e61032636600461168a565b60046020526000908152604090205481565b60015460ff166101f2565b61028e610b65565b61022e6201518081565b6101f26103633660046116a3565b610b78565b61028e6103763660046118d3565b610ba1565b61022e6103e881565b61028e610392366004611991565b610cc7565b61022e600081565b6103b26103ad366004611668565b610e17565b6040516101fe91906119bd565b6103d26103cd366004611a4a565b610fe4565b6040516101fe93929190611ac8565b6104136103ef36600461168a565b60008181526002602081905260409091208054600182015491909201549193909250565b604080519384526020840192909252908201526060016101fe565b61022e61043c36600461168a565b61116a565b6104687f000000000000000000000000000000000000000000000000000000000000000081565b6040516001600160a01b0390911681526020016101fe565b61028e61048e3660046116a3565b6111a4565b6104a66104a136600461168a565b6111c9565b6040516101fe9190611b01565b61022e61271081565b61022e7fd96ba01d6560c2ab35f2940dd8d70c5f5fe06236c72674237120515918198fb081565b60006001600160e01b03198216637965db0b60e01b148061051457506301ffc9a760e01b6001600160e01b03198316145b92915050565b6000828152600260205260408120805461056b5760405162461bcd60e51b815260206004820152600d60248201526c141c9a58d9481b9bdd081cd95d609a1b60448201526064015b60405180910390fd5b8054670de0b6b3a7640000906105819085611b5a565b61058b9190611b71565b949350505050565b6000828152602081905260409020600101546105ae816112da565b6105b883836112e4565b50505050565b6001600160a01b03811633146105e75760405163334bd91960e11b815260040160405180910390fd5b6105f18282611376565b505050565b6000610601816112da565b6106096113e1565b50565b600260205280600052604060002060009150905080600001549080600101549080600201549080600301549080600401805461064790611b93565b80601f016020809104026020016040519081016040528092919081815260200182805461067390611b93565b80156106c05780601f10610695576101008083540402835291602001916106c0565b820191906000526020600020905b8154815290600101906020018083116106a357829003601f168201915b5050505050905085565b7fd96ba01d6560c2ab35f2940dd8d70c5f5fe06236c72674237120515918198fb06106f4816112da565b6106fc611433565b604051631174806160e11b8152600481018690527f00000000000000000000000000000000000000000000000000000000000000006001600160a01b0316906322e900c290602401602060405180830381865afa158015610761573d6000803e3d6000fd5b505050506040513d601f19601f820116820180604052508101906107859190611bcd565b6107c45760405162461bcd60e51b815260206004820152601060248201526f4173736574206e6f742061637469766560801b6044820152606401610562565b600084116107e45760405162461bcd60e51b815260040161056290611bef565b6127108311156108065760405162461bcd60e51b815260040161056290611c16565b60008251116108485760405162461bcd60e51b815260206004820152600e60248201526d496e76616c696420736f7572636560901b6044820152606401610562565b60008581526002602081905260409091209081015415610900578054600090861161087f57815461087a908790611c3e565b61088b565b815461088b9087611c3e565b825490915060009061089f83612710611b5a565b6108a99190611b71565b90506103e88111156108fd5760405162461bcd60e51b815260206004820152601860248201527f507269636520646576696174696f6e20746f6f206869676800000000000000006044820152606401610562565b50505b600086815260036020818152604080842081516080810183528a81528084018a815242938201938452606082018a81528354600181810186559489529590972082516004909602019485555191840191909155905160028301559251909182019061096b9082611ca1565b5050508481556001810184905542600282015560038101805490600061099083611d61565b9091555050600481016109a38482611ca1565b50600086815260046020526040812042905560058054916109c383611d61565b9190505550857fd569e93635a1943b28241d4d5a0e06e5291d0bb2154011aaf43991b2efc14ad1868642876040516109fe9493929190611858565b60405180910390a260408051868152602081018690524281830152905187917f277a94fd8fcbcc00e06bca3dee9c3c831043f6e7d08c34edebe1055265192ae9919081900360600190a2505050505050565b60036020528160005260406000208181548110610a6c57600080fd5b906000526020600020906004020160009150915050806000015490806001015490806002015490806003018054610aa290611b93565b80601f0160208091040260200160405190810160405280929190818152602001828054610ace90611b93565b8015610b1b5780601f10610af057610100808354040283529160200191610b1b565b820191906000526020600020905b815481529060010190602001808311610afe57829003601f168201915b5050505050905084565b60008181526002602081905260408220908101548203610b485750600092915050565b62015180816002015442610b5c9190611c3e565b11159392505050565b6000610b70816112da565b610609611459565b6000918252602082815260408084206001600160a01b0393909316845291905290205460ff1690565b7fd96ba01d6560c2ab35f2940dd8d70c5f5fe06236c72674237120515918198fb0610bcb816112da565b610bd3611433565b868514610c145760405162461bcd60e51b815260206004820152600f60248201526e098cadccee8d040dad2e6dac2e8c6d608b1b6044820152606401610562565b868314610c555760405162461bcd60e51b815260206004820152600f60248201526e098cadccee8d040dad2e6dac2e8c6d608b1b6044820152606401610562565b60005b87811015610cbc57610cb4898983818110610c7557610c75611d7a565b90506020020135888884818110610c8e57610c8e611d7a565b90506020020135878785818110610ca757610ca7611d7a565b9050602002013586611494565b600101610c58565b505050505050505050565b7f68e79a7bf1e0bc45d0a330c573bc367f9cf464fd326078812f301165fbda4ef1610cf1816112da565b60008311610d115760405162461bcd60e51b815260040161056290611bef565b612710821115610d335760405162461bcd60e51b815260040161056290611c16565b600084815260026020819052604082208581556001810185905542918101919091556003810180549192610d6683611d61565b909155505060408051808201909152601081526f454d455247454e43595f55504441544560801b60208201526004820190610da19082611ca1565b50604080518581526020810185905242918101919091526080606082018190526010908201526f454d455247454e43595f55504441544560801b60a082015285907fd569e93635a1943b28241d4d5a0e06e5291d0bb2154011aaf43991b2efc14ad19060c0015b60405180910390a25050505050565b60008281526003602052604081208054606092908411610e375783610e3a565b81545b905060008167ffffffffffffffff811115610e5757610e5761175b565b604051908082528060200260200182016040528015610eb357816020015b610ea06040518060800160405280600081526020016000815260200160008152602001606081525090565b815260200190600190039081610e755790505b50905060005b82811015610fda57835484908290610ed2908690611c3e565b610edc9190611d90565b81548110610eec57610eec611d7a565b9060005260206000209060040201604051806080016040529081600082015481526020016001820154815260200160028201548152602001600382018054610f3390611b93565b80601f0160208091040260200160405190810160405280929190818152602001828054610f5f90611b93565b8015610fac5780601f10610f8157610100808354040283529160200191610fac565b820191906000526020600020905b815481529060010190602001808311610f8f57829003601f168201915b505050505081525050828281518110610fc757610fc7611d7a565b6020908102919091010152600101610eb9565b5095945050505050565b606080808367ffffffffffffffff8111156110015761100161175b565b60405190808252806020026020018201604052801561102a578160200160208202803683370190505b5092508367ffffffffffffffff8111156110465761104661175b565b60405190808252806020026020018201604052801561106f578160200160208202803683370190505b5091508367ffffffffffffffff81111561108b5761108b61175b565b6040519080825280602002602001820160405280156110b4578160200160208202803683370190505b50905060005b84811015611162576000600260008888858181106110da576110da611d7a565b9050602002013581526020019081526020016000209050806000015485838151811061110857611108611d7a565b602002602001018181525050806001015484838151811061112b5761112b611d7a565b602002602001018181525050806002015483838151811061114e5761114e611d7a565b6020908102919091010152506001016110ba565b509250925092565b6000818152600260208190526040822090810154820361118e575060001992915050565b600281015461119d9042611c3e565b9392505050565b6000828152602081905260409020600101546111bf816112da565b6105b88383611376565b6111fb6040518060a0016040528060008152602001600081526020016000815260200160008152602001606081525090565b600260008381526020019081526020016000206040518060a00160405290816000820154815260200160018201548152602001600282015481526020016003820154815260200160048201805461125190611b93565b80601f016020809104026020016040519081016040528092919081815260200182805461127d90611b93565b80156112ca5780601f1061129f576101008083540402835291602001916112ca565b820191906000526020600020905b8154815290600101906020018083116112ad57829003601f168201915b5050505050815250509050919050565b61060981336115de565b60006112f08383610b78565b61136e576000838152602081815260408083206001600160a01b03861684529091529020805460ff191660011790556113263390565b6001600160a01b0316826001600160a01b0316847f2f8788117e7eff1d82e926ec794901d17c78024a50270940304540a733656f0d60405160405180910390a4506001610514565b506000610514565b60006113828383610b78565b1561136e576000838152602081815260408083206001600160a01b0386168085529252808320805460ff1916905551339286917ff6391f5c32d9c69d2a47ea670b442974b53935d1edc7fd64eb21e047a839171b9190a4506001610514565b6113e961161b565b6001805460ff191690557f5db9ee0a495bf2e6ff9c91a7834c1ba4fdd244a5e8aa4e537bd38aeae4b073aa335b6040516001600160a01b03909116815260200160405180910390a1565b60015460ff16156114575760405163d93c066560e01b815260040160405180910390fd5b565b611461611433565b6001805460ff1916811790557f62e78cea01bee320cd4e420270b5ea74000d11b0c9f74754ebdbfc544b05a25833611416565b600083116114b45760405162461bcd60e51b815260040161056290611bef565b6127108211156114d65760405162461bcd60e51b815260040161056290611c16565b6000848152600260208181526040808420600380845282862083516080810185528a81528086018a815242958201958652606082018a8152835460018181018655948b5297909920825160049098020196875551918601919091559251948401949094559351909282019061154b9082611ca1565b5050508381556001810183905542600282015560038101805490600061157083611d61565b9091555050600481016115838382611ca1565b50600085815260046020526040812042905560058054916115a383611d61565b9190505550847fd569e93635a1943b28241d4d5a0e06e5291d0bb2154011aaf43991b2efc14ad185854286604051610e089493929190611858565b6115e88282610b78565b6116175760405163e2517d3f60e01b81526001600160a01b038216600482015260248101839052604401610562565b5050565b60015460ff1661145757604051638dfc202b60e01b815260040160405180910390fd5b60006020828403121561165057600080fd5b81356001600160e01b03198116811461119d57600080fd5b6000806040838503121561167b57600080fd5b50508035926020909101359150565b60006020828403121561169c57600080fd5b5035919050565b600080604083850312156116b657600080fd5b8235915060208301356001600160a01b03811681146116d457600080fd5b809150509250929050565b6000815180845260005b81811015611705576020818501810151868301820152016116e9565b506000602082860101526020601f19601f83011685010191505092915050565b85815284602082015283604082015282606082015260a06080820152600061175060a08301846116df565b979650505050505050565b634e487b7160e01b600052604160045260246000fd5b600082601f83011261178257600080fd5b813567ffffffffffffffff8082111561179d5761179d61175b565b604051601f8301601f19908116603f011681019082821181831017156117c5576117c561175b565b816040528381528660208588010111156117de57600080fd5b836020870160208301376000602085830101528094505050505092915050565b6000806000806080858703121561181457600080fd5b843593506020850135925060408501359150606085013567ffffffffffffffff81111561184057600080fd5b61184c87828801611771565b91505092959194509250565b84815283602082015282604082015260806060820152600061187d60808301846116df565b9695505050505050565b60008083601f84011261189957600080fd5b50813567ffffffffffffffff8111156118b157600080fd5b6020830191508360208260051b85010111156118cc57600080fd5b9250929050565b60008060008060008060006080888a0312156118ee57600080fd5b873567ffffffffffffffff8082111561190657600080fd5b6119128b838c01611887565b909950975060208a013591508082111561192b57600080fd5b6119378b838c01611887565b909750955060408a013591508082111561195057600080fd5b61195c8b838c01611887565b909550935060608a013591508082111561197557600080fd5b506119828a828b01611771565b91505092959891949750929550565b6000806000606084860312156119a657600080fd5b505081359360208301359350604090920135919050565b600060208083018184528085518083526040925060408601915060408160051b87010184880160005b83811015611a3c57888303603f1901855281518051845287810151888501528681015187850152606090810151608091850182905290611a28818601836116df565b9689019694505050908601906001016119e6565b509098975050505050505050565b60008060208385031215611a5d57600080fd5b823567ffffffffffffffff811115611a7457600080fd5b611a8085828601611887565b90969095509350505050565b60008151808452602080850194506020840160005b83811015611abd57815187529582019590820190600101611aa1565b509495945050505050565b606081526000611adb6060830186611a8c565b8281036020840152611aed8186611a8c565b9050828103604084015261187d8185611a8c565b60208152815160208201526020820151604082015260408201516060820152606082015160808201526000608083015160a08084015261058b60c08401826116df565b634e487b7160e01b600052601160045260246000fd5b808202811582820484141761051457610514611b44565b600082611b8e57634e487b7160e01b600052601260045260246000fd5b500490565b600181811c90821680611ba757607f821691505b602082108103611bc757634e487b7160e01b600052602260045260246000fd5b50919050565b600060208284031215611bdf57600080fd5b8151801515811461119d57600080fd5b6020808252600d908201526c496e76616c696420707269636560981b604082015260600190565b6020808252600e908201526d0b2d2cad8c840e8dede40d0d2ced60931b604082015260600190565b8181038181111561051457610514611b44565b601f8211156105f1576000816000526020600020601f850160051c81016020861015611c7a5750805b601f850160051c820191505b81811015611c9957828155600101611c86565b505050505050565b815167ffffffffffffffff811115611cbb57611cbb61175b565b611ccf81611cc98454611b93565b84611c51565b602080601f831160018114611d045760008415611cec5750858301515b600019600386901b1c1916600185901b178555611c99565b600085815260208120601f198616915b82811015611d3357888601518255948401946001909101908401611d14565b5085821015611d515787850151600019600388901b60f8161c191681555b5050505050600190811b01905550565b600060018201611d7357611d73611b44565b5060010190565b634e487b7160e01b600052603260045260246000fd5b8082018082111561051457610514611b4456fea264697066735822122091f990f7bd3382ded71abde80b1127ea91a81a809458a7c6adeac6c8570ab52664736f6c63430008160033",
  "linkReferences": {},
  "deployedLinkReferences": {}
}