{
  "_format": "hh-sol-artifact-1",
  "contractName": "L2StateAggregator",
  "sourceName": "contracts/layer2/aggregator/L2StateAggregator.sol",
  "abi": [
    {
      "inputs": [
        {
          "internalType": "address",
          "name": "_l1StateRegistry",
          "type": "address"
        }
      ],
      "stateMutability": "nonpayable",
      "type": "constructor"
    },
    {
      "inputs": [
        {
          "internalType": "address",
          "name": "owner",
          "type": "address"
        }
      ],
      "name": "OwnableInvalidOwner",
      "type": "error"
    },
    {
      "inputs": [
        {
          "internalType": "address",
          "name": "account",
          "type": "address"
        }
      ],
      "name": "OwnableUnauthorizedAccount",
      "type": "error"
    },
    {
      "anonymous": false,
      "inputs": [
        {
          "indexed": true,
          "internalType": "address",
          "name": "oldRegistry",
          "type": "address"
        },
        {
          "indexed": true,
          "internalType": "address",
          "name": "newRegistry",
          "type": "address"
        }
      ],
      "name": "L1RegistryUpdated",
      "type": "event"
    },
    {
      "anonymous": false,
      "inputs": [
        {
          "indexed": true,
          "internalType": "bytes32",
          "name": "moduleId",
          "type": "bytes32"
        }
      ],
      "name": "ModuleDeactivated",
      "type": "event"
    },
    {
      "anonymous": false,
      "inputs": [
        {
          "indexed": true,
          "internalType": "bytes32",
          "name": "moduleId",
          "type": "bytes32"
        },
        {
          "indexed": false,
          "internalType": "address",
          "name": "moduleAddress",
          "type": "address"
        }
      ],
      "name": "ModuleRegistered",
      "type": "event"
    },
    {
      "anonymous": false,
      "inputs": [
        {
          "indexed": true,
          "internalType": "bytes32",
          "name": "moduleId",
          "type": "bytes32"
        },
        {
          "indexed": false,
          "internalType": "bytes32",
          "name": "stateHash",
          "type": "bytes32"
        },
        {
          "indexed": false,
          "internalType": "address",
          "name": "updatedBy",
          "type": "address"
        }
      ],
      "name": "ModuleStateUpdated",
      "type": "event"
    },
    {
      "anonymous": false,
      "inputs": [
        {
          "indexed": true,
          "internalType": "address",
          "name": "previousOwner",
          "type": "address"
        },
        {
          "indexed": true,
          "internalType": "address",
          "name": "newOwner",
          "type": "address"
        }
      ],
      "name": "OwnershipTransferred",
      "type": "event"
    },
    {
      "anonymous": false,
      "inputs": [
        {
          "indexed": true,
          "internalType": "bytes32",
          "name": "stateRoot",
          "type": "bytes32"
        },
        {
          "indexed": false,
          "internalType": "uint256",
          "name": "blockNumber",
          "type": "uint256"
        },
        {
          "indexed": false,
          "internalType": "uint256",
          "name": "timestamp",
          "type": "uint256"
        }
      ],
      "name": "StateRootComputed",
      "type": "event"
    },
    {
      "anonymous": false,
      "inputs": [
        {
          "indexed": true,
          "internalType": "bytes32",
          "name": "stateRoot",
          "type": "bytes32"
        },
        {
          "indexed": true,
          "internalType": "uint256",
          "name": "l2Block",
          "type": "uint256"
        },
        {
          "indexed": true,
          "internalType": "uint256",
          "name": "l1TxId",
          "type": "uint256"
        },
        {
          "indexed": false,
          "internalType": "uint256",
          "name": "totalCollateral",
          "type": "uint256"
        },
        {
          "indexed": false,
          "internalType": "uint256",
          "name": "totalDebt",
          "type": "uint256"
        }
      ],
      "name": "StateSubmittedToL1",
      "type": "event"
    },
    {
      "inputs": [],
      "name": "MIN_SUBMISSION_INTERVAL",
      "outputs": [
        {
          "internalType": "uint256",
          "name": "",
          "type": "uint256"
        }
      ],
      "stateMutability": "view",
      "type": "function"
    },
    {
      "inputs": [
        {
          "internalType": "address",
          "name": "moduleAddress",
          "type": "address"
        }
      ],
      "name": "authorizeModule",
      "outputs": [],
      "stateMutability": "nonpayable",
      "type": "function"
    },
    {
      "inputs": [
        {
          "internalType": "address",
          "name": "",
          "type": "address"
        }
      ],
      "name": "authorizedModules",
      "outputs": [
        {
          "internalType": "bool",
          "name": "",
          "type": "bool"
        }
      ],
      "stateMutability": "view",
      "type": "function"
    },
    {
      "inputs": [],
      "name": "calculateStateRoot",
      "outputs": [
        {
          "internalType": "bytes32",
          "name": "",
          "type": "bytes32"
        }
      ],
      "stateMutability": "view",
      "type": "function"
    },
    {
      "inputs": [],
      "name": "canSubmitToL1",
      "outputs": [
        {
          "internalType": "bool",
          "name": "",
          "type": "bool"
        }
      ],
      "stateMutability": "view",
      "type": "function"
    },
    {
      "inputs": [],
      "name": "currentStateRoot",
      "outputs": [
        {
          "internalType": "bytes32",
          "name": "",
          "type": "bytes32"
        }
      ],
      "stateMutability": "view",
      "type": "function"
    },
    {
      "inputs": [
        {
          "internalType": "bytes32",
          "name": "moduleId",
          "type": "bytes32"
        }
      ],
      "name": "deactivateModule",
      "outputs": [],
      "stateMutability": "nonpayable",
      "type": "function"
    },
    {
      "inputs": [],
      "name": "forceSubmitToL1",
      "outputs": [],
      "stateMutability": "nonpayable",
      "type": "function"
    },
    {
      "inputs": [],
      "name": "getAllModuleIds",
      "outputs": [
        {
          "internalType": "bytes32[]",
          "name": "",
          "type": "bytes32[]"
        }
      ],
      "stateMutability": "view",
      "type": "function"
    },
    {
      "inputs": [],
      "name": "getModuleCount",
      "outputs": [
        {
          "internalType": "uint256",
          "name": "",
          "type": "uint256"
        }
      ],
      "stateMutability": "view",
      "type": "function"
    },
    {
      "inputs": [
        {
          "internalType": "bytes32",
          "name": "moduleId",
          "type": "bytes32"
        }
      ],
      "name": "getModuleState",
      "outputs": [
        {
          "internalType": "bytes32",
          "name": "stateHash",
          "type": "bytes32"
        },
        {
          "internalType": "uint256",
          "name": "lastUpdate",
          "type": "uint256"
        },
        {
          "internalType": "bool",
          "name": "active",
          "type": "bool"
        }
      ],
      "stateMutability": "view",
      "type": "function"
    },
    {
      "inputs": [],
      "name": "getStateHistoryLength",
      "outputs": [
        {
          "internalType": "uint256",
          "name": "",
          "type": "uint256"
        }
      ],
      "stateMutability": "view",
      "type": "function"
    },
    {
      "inputs": [
        {
          "internalType": "uint256",
          "name": "index",
          "type": "uint256"
        }
      ],
      "name": "getStateRootByIndex",
      "outputs": [
        {
          "internalType": "bytes32",
          "name": "",
          "type": "bytes32"
        }
      ],
      "stateMutability": "view",
      "type": "function"
    },
    {
      "inputs": [],
      "name": "getSystemState",
      "outputs": [
        {
          "internalType": "uint256",
          "name": "totalCollateral",
          "type": "uint256"
        },
        {
          "internalType": "uint256",
          "name": "totalDebt",
          "type": "uint256"
        },
        {
          "internalType": "uint256",
          "name": "activePositions",
          "type": "uint256"
        },
        {
          "internalType": "uint256",
          "name": "totalOrders",
          "type": "uint256"
        },
        {
          "internalType": "uint256",
          "name": "blockNumber",
          "type": "uint256"
        },
        {
          "internalType": "uint256",
          "name": "timestamp",
          "type": "uint256"
        }
      ],
      "stateMutability": "view",
      "type": "function"
    },
    {
      "inputs": [],
      "name": "l1StateRegistry",
      "outputs": [
        {
          "internalType": "address",
          "name": "",
          "type": "address"
        }
      ],
      "stateMutability": "view",
      "type": "function"
    },
    {
      "inputs": [],
      "name": "lastSubmission",
      "outputs": [
        {
          "internalType": "uint256",
          "name": "",
          "type": "uint256"
        }
      ],
      "stateMutability": "view",
      "type": "function"
    },
    {
      "inputs": [
        {
          "internalType": "uint256",
          "name": "",
          "type": "uint256"
        }
      ],
      "name": "moduleIds",
      "outputs": [
        {
          "internalType": "bytes32",
          "name": "",
          "type": "bytes32"
        }
      ],
      "stateMutability": "view",
      "type": "function"
    },
    {
      "inputs": [
        {
          "internalType": "bytes32",
          "name": "",
          "type": "bytes32"
        }
      ],
      "name": "moduleStates",
      "outputs": [
        {
          "internalType": "bytes32",
          "name": "stateHash",
          "type": "bytes32"
        },
        {
          "internalType": "uint256",
          "name": "lastUpdate",
          "type": "uint256"
        },
        {
          "internalType": "bool",
          "name": "active",
          "type": "bool"
        }
      ],
      "stateMutability": "view",
      "type": "function"
    },
    {
      "inputs": [],
      "name": "owner",
      "outputs": [
        {
          "internalType": "address",
          "name": "",
          "type": "address"
        }
      ],
      "stateMutability": "view",
      "type": "function"
    },
    {
      "inputs": [
        {
          "internalType": "bytes32",
          "name": "moduleId",
          "type": "bytes32"
        },
        {
          "internalType": "address",
          "name": "moduleAddress",
          "type": "address"
        }
      ],
      "name": "registerModule",
      "outputs": [],
      "stateMutability": "nonpayable",
      "type": "function"
    },
    {
      "inputs": [],
      "name": "renounceOwnership",
      "outputs": [],
      "stateMutability": "nonpayable",
      "type": "function"
    },
    {
      "inputs": [
        {
          "internalType": "address",
          "name": "moduleAddress",
          "type": "address"
        }
      ],
      "name": "revokeModuleAuthorization",
      "outputs": [],
      "stateMutability": "nonpayable",
      "type": "function"
    },
    {
      "inputs": [
        {
          "internalType": "address",
          "name": "_l1StateRegistry",
          "type": "address"
        }
      ],
      "name": "setL1StateRegistry",
      "outputs": [],
      "stateMutability": "nonpayable",
      "type": "function"
    },
    {
      "inputs": [
        {
          "internalType": "uint256",
          "name": "",
          "type": "uint256"
        }
      ],
      "name": "stateHistory",
      "outputs": [
        {
          "internalType": "bytes32",
          "name": "",
          "type": "bytes32"
        }
      ],
      "stateMutability": "view",
      "type": "function"
    },
    {
      "inputs": [
        {
          "internalType": "bytes32",
          "name": "",
          "type": "bytes32"
        }
      ],
      "name": "stateRootToBlock",
      "outputs": [
        {
          "internalType": "uint256",
          "name": "",
          "type": "uint256"
        }
      ],
      "stateMutability": "view",
      "type": "function"
    },
    {
      "inputs": [],
      "name": "submitToL1",
      "outputs": [],
      "stateMutability": "nonpayable",
      "type": "function"
    },
    {
      "inputs": [],
      "name": "systemState",
      "outputs": [
        {
          "internalType": "uint256",
          "name": "totalCollateral",
          "type": "uint256"
        },
        {
          "internalType": "uint256",
          "name": "totalDebt",
          "type": "uint256"
        },
        {
          "internalType": "uint256",
          "name": "activePositions",
          "type": "uint256"
        },
        {
          "internalType": "uint256",
          "name": "totalOrders",
          "type": "uint256"
        },
        {
          "internalType": "uint256",
          "name": "blockNumber",
          "type": "uint256"
        },
        {
          "internalType": "uint256",
          "name": "timestamp",
          "type": "uint256"
        }
      ],
      "stateMutability": "view",
      "type": "function"
    },
    {
      "inputs": [],
      "name": "timeUntilNextSubmission",
      "outputs": [
        {
          "internalType": "uint256",
          "name": "",
          "type": "uint256"
        }
      ],
      "stateMutability": "view",
      "type": "function"
    },
    {
      "inputs": [
        {
          "internalType": "address",
          "name": "newOwner",
          "type": "address"
        }
      ],
      "name": "transferOwnership",
      "outputs": [],
      "stateMutability": "nonpayable",
      "type": "function"
    },
    {
      "inputs": [
        {
          "internalType": "bytes32",
          "name": "moduleId",
          "type": "bytes32"
        },
        {
          "internalType": "bytes32",
          "name": "stateHash",
          "type": "bytes32"
        }
      ],
      "name": "updateModuleState",
      "outputs": [],
      "stateMutability": "nonpayable",
      "type": "function"
    },
    {
      "inputs": [
        {
          "internalType": "uint256",
          "name": "totalCollateral",
          "type": "uint256"
        },
        {
          "internalType": "uint256",
          "name": "totalDebt",
          "type": "uint256"
        },
        {
          "internalType": "uint256",
          "name": "activePositions",
          "type": "uint256"
        },
        {
          "internalType": "uint256",
          "name": "totalOrders",
          "type": "uint256"
        }
      ],
      "name": "updateSystemState",
      "outputs": [],
      "stateMutability": "nonpayable",
      "type": "function"
    }
  ],
  "bytecode": "0x608060405234801561001057600080fd5b5060405161150838038061150883398101604081905261002f9161012f565b338061005657604051631e4fbdf760e01b8152600060048201526024015b60405180910390fd5b61005f816100df565b506001600160a01b0381166100b65760405162461bcd60e51b815260206004820152601360248201527f496e76616c6964204c3120726567697374727900000000000000000000000000604482015260640161004d565b600380546001600160a01b0319166001600160a01b03929092169190911790554260025561015f565b600080546001600160a01b038381166001600160a01b0319831681178455604051919092169283917f8be0079c531659141344cd1fd0a4f28419497f9722a3daafe3b4186f6b6457e09190a35050565b60006020828403121561014157600080fd5b81516001600160a01b038116811461015857600080fd5b9392505050565b61139a8061016e6000396000f3fe608060405234801561001057600080fd5b50600436106101e55760003560e01c80638f60482d1161010f578063a78e922b116100a2578063cd86903311610071578063cd86903314610478578063d87c33761461048d578063f2fde38b146104a0578063fbd824e7146104b357600080fd5b8063a78e922b14610433578063ac2eba9814610446578063bfefb7951461044f578063c8e2469e1461045857600080fd5b8063991292e3116100de578063991292e3146103e75780639978bcfa14610405578063a30a8e711461040d578063a446f5681461042057600080fd5b80638f60482d1461036a5780638fe08c2914610373578063902e0dd5146103c157806390544984146103d457600080fd5b806357d56267116101875780638ab94eaf116101565780638ab94eaf146103225780638c1799d11461032a5780638da5cb5b146103325780638e4df2f11461035757600080fd5b806357d56267146102b05780635eb66191146102b85780636477768b146102cb578063715018a61461031a57600080fd5b80631a3472a9116101c35780631a3472a91461024d57806328fa777f1461025557806334624ca3146102955780633f06a3021461029d57600080fd5b80630edae3cb146101ea57806316a222e41461020557806317f6fe5b1461021a575b600080fd5b6101f26104c6565b6040519081526020015b60405180910390f35b610218610213366004611128565b610653565b005b61023d610228366004611176565b600e6020526000908152604090205460ff1681565b60405190151581526020016101fc565b600c546101f2565b600654600754600854600954600a54600b545b604080519687526020870195909552938501929092526060840152608083015260a082015260c0016101fc565b6101f2610701565b6101f26102ab366004611198565b61072f565b6005546101f2565b6101f26102c6366004611198565b610798565b6102fd6102d9366004611198565b60046020526000908152604090208054600182015460029092015490919060ff1683565b6040805193845260208401929092521515908201526060016101fc565b6102186107b9565b6102186107cd565b610218610984565b6000546001600160a01b03165b6040516001600160a01b0390911681526020016101fc565b610218610365366004611176565b6109e3565b6101f260025481565b6102fd610381366004611198565b60008181526004602090815260409182902082516060810184528154808252600183015493820184905260029092015460ff161515930183905293909250565b6102186103cf366004611176565b610a0c565b6101f26103e2366004611198565b610aae565b600654600754600854600954600a54600b5461026895949392919086565b61023d610abe565b61021861041b366004611176565b610ad8565b61021861042e366004611198565b610b4c565b6102186104413660046111b1565b610bec565b6101f260015481565b6101f2610e1081565b6101f2610466366004611198565b600d6020526000908152604090205481565b610480610ce2565b6040516101fc91906111dd565b61021861049b366004611221565b610d3a565b6102186104ae366004611176565b610ee5565b60035461033f906001600160a01b031681565b60055460009081906104d9906001611259565b67ffffffffffffffff8111156104f1576104f1611272565b60405190808252806020026020018201604052801561051a578160200160208202803683370190505b50905060005b6005548110156105cc5760006005828154811061053f5761053f611288565b6000918252602080832090910154808352600490915260409091206002015490915060ff16156105c35760008181526004602090815260409182902054825191820184905291810191909152606001604051602081830303815290604052805190602001208383815181106105b6576105b6611288565b6020026020010181815250505b50600101610520565b50600654600754600854600954600a54600b546040805160208101979097528601949094526060850192909252608084015260a083015260c082015260e00160405160208183030381529060405280519060200120816005805490508151811061063857610638611288565b60200260200101818152505061064d81610f23565b91505090565b336000908152600e602052604090205460ff166106af5760405162461bcd60e51b81526020600482015260156024820152744e6f7420617574686f72697a6564206d6f64756c6560581b60448201526064015b60405180910390fd5b6040805160c081018252858152602081018590529081018390526060810182905243608082018190524260a0909201829052600695909555600793909355600891909155600955600a91909155600b55565b600080610e106002546107149190611259565b905080421061072557600091505090565b61064d428261129e565b600c5460009082106107735760405162461bcd60e51b815260206004820152600d60248201526c092dcecc2d8d2c840d2dcc8caf609b1b60448201526064016106a6565b600c828154811061078657610786611288565b90600052602060002001549050919050565b600581815481106107a857600080fd5b600091825260209091200154905081565b6107c16110ab565b6107cb60006110d8565b565b6107d56110ab565b60006107df6104c6565b6001818155600c805491820190557fdf6966c971051c3d54ec59162606531493a51404a002842f56009d7e5cf4a8c7018190556000818152600d602052604080822043908190556006546007549251602481018690526044810192909252606482015260848101919091529192509060a40160408051601f198184030181529181526020820180516001600160e01b03166374394df760e01b17905260035490516349460b4d60e11b815291925060009160649163928c169a916108b1916001600160a01b03169086906004016112b1565b6020604051808303816000875af11580156108d0573d6000803e3d6000fd5b505050506040513d601f19601f820116820180604052508101906108f49190611310565b42600281905560408051438152602081019290925291925084917fa938aa98582150744c56367318d3a5f5cd92bde822f25ff5a31eeb88e36b4121910160405180910390a26006546007546040805192835260208301919091528291439186917fc8281a000eab8bc6f4321b42029109cbb1e783ff071b93128f7a2407727bc466910160405180910390a4505050565b610e106002546109949190611259565b4210156107d55760405162461bcd60e51b815260206004820152601760248201527f5375626d697373696f6e20746f6f206672657175656e7400000000000000000060448201526064016106a6565b6109eb6110ab565b6001600160a01b03166000908152600e60205260409020805460ff19169055565b610a146110ab565b6001600160a01b038116610a5c5760405162461bcd60e51b815260206004820152600f60248201526e496e76616c6964206164647265737360881b60448201526064016106a6565b600380546001600160a01b038381166001600160a01b0319831681179093556040519116919082907f452f789ea74007bd52f942eca0f35f65ac2366985a059a268cab05aa3b4ecbf690600090a35050565b600c81815481106107a857600080fd5b6000610e10600254610ad09190611259565b421015905090565b610ae06110ab565b6001600160a01b038116610b285760405162461bcd60e51b815260206004820152600f60248201526e496e76616c6964206164647265737360881b60448201526064016106a6565b6001600160a01b03166000908152600e60205260409020805460ff19166001179055565b610b546110ab565b60008181526004602052604090206002015460ff16610ba95760405162461bcd60e51b81526020600482015260116024820152704d6f64756c65206e6f742061637469766560781b60448201526064016106a6565b600081815260046020526040808220600201805460ff191690555182917f1b3395b7c125da23d86f4eeff6f9e82c3e1e159933a183b553fb0ceca0bd0be591a250565b610bf46110ab565b81610c355760405162461bcd60e51b8152602060048201526011602482015270125b9d985b1a59081b5bd91d5b19481251607a1b60448201526064016106a6565b6001600160a01b038116610c845760405162461bcd60e51b8152602060048201526016602482015275496e76616c6964206d6f64756c65206164647265737360501b60448201526064016106a6565b6001600160a01b0381166000818152600e6020908152604091829020805460ff19166001179055905191825283917fd63be02155b46636309fb0a4a79647c60971aecaad53cbc83aad90cd75fd9d5491015b60405180910390a25050565b60606005805480602002602001604051908101604052809291908181526020018280548015610d3057602002820191906000526020600020905b815481526020019060010190808311610d1c575b5050505050905090565b336000908152600e602052604090205460ff16610d915760405162461bcd60e51b81526020600482015260156024820152744e6f7420617574686f72697a6564206d6f64756c6560581b60448201526064016106a6565b81610dd25760405162461bcd60e51b8152602060048201526011602482015270125b9d985b1a59081b5bd91d5b19481251607a1b60448201526064016106a6565b80610e145760405162461bcd60e51b8152602060048201526012602482015271092dcecc2d8d2c840e6e8c2e8ca40d0c2e6d60731b60448201526064016106a6565b60008281526004602052604090206002015460ff16610e6357600580546001810182556000919091527f036b6384b5eca791c62761152d0c79bb0604c104a5fb6f4eb0703f3154bb3db0018290555b6040805160608101825282815242602080830191825260018385018181526000888152600484528690209451855592519084015590516002909201805460ff1916921515929092179091558151838152339181019190915283917fd99ea162e2f693d07eb615544a07553554baf290ce277fe70379dbbd1f1b27619101610cd6565b610eed6110ab565b6001600160a01b038116610f1757604051631e4fbdf760e01b8152600060048201526024016106a6565b610f20816110d8565b50565b8051600090808203610f385750600092915050565b80600103610f635782600081518110610f5357610f53611288565b6020026020010151915050919050565b6001811115611098576000805b610f7b60018461129e565b81101561102f57848181518110610f9457610f94611288565b602002602001015185826001610faa9190611259565b81518110610fba57610fba611288565b6020026020010151604051602001610fdc929190918252602082015260400190565b6040516020818303038152906040528051906020012085838151811061100457611004611288565b60209081029190910101528161101981611329565b92506110289050600282611259565b9050610f70565b5061103b600283611342565b600103611091578361104e60018461129e565b8151811061105e5761105e611288565b602002602001015184828151811061107857611078611288565b60209081029190910101528061108d81611329565b9150505b9050610f63565b82600081518110610f5357610f53611288565b6000546001600160a01b031633146107cb5760405163118cdaa760e01b81523360048201526024016106a6565b600080546001600160a01b038381166001600160a01b0319831681178455604051919092169283917f8be0079c531659141344cd1fd0a4f28419497f9722a3daafe3b4186f6b6457e09190a35050565b6000806000806080858703121561113e57600080fd5b5050823594602084013594506040840135936060013592509050565b80356001600160a01b038116811461117157600080fd5b919050565b60006020828403121561118857600080fd5b6111918261115a565b9392505050565b6000602082840312156111aa57600080fd5b5035919050565b600080604083850312156111c457600080fd5b823591506111d46020840161115a565b90509250929050565b6020808252825182820181905260009190848201906040850190845b81811015611215578351835292840192918401916001016111f9565b50909695505050505050565b6000806040838503121561123457600080fd5b50508035926020909101359150565b634e487b7160e01b600052601160045260246000fd5b8082018082111561126c5761126c611243565b92915050565b634e487b7160e01b600052604160045260246000fd5b634e487b7160e01b600052603260045260246000fd5b8181038181111561126c5761126c611243565b60018060a01b03831681526000602060406020840152835180604085015260005b818110156112ee578581018301518582016060015282016112d2565b506000606082860101526060601f19601f830116850101925050509392505050565b60006020828403121561132257600080fd5b5051919050565b60006001820161133b5761133b611243565b5060010190565b60008261135f57634e487b7160e01b600052601260045260246000fd5b50069056fea2646970667358221220b1b8ca20905b105a6d1fe1465b23caf97d7b7edaeb8569cb0f14cdfbb2fcd54964736f6c63430008160033",
  "linkReferences": {},
  "deployedLinkReferences": {}
}