{
  "_format": "hh-sol-artifact-1",
  "contractName": "CompoundV3Adapter",
  "sourceName": "contracts/layer2/adapters/CompoundV3Adapter.sol",
  "abi": [
    {
      "inputs": [
        {
          "internalType": "address",
          "name": "_comet",
          "type": "address"
        },
        {
          "internalType": "address",
          "name": "_cometRewards",
          "type": "address"
        },
        {
          "internalType": "address",
          "name": "_admin",
          "type": "address"
        }
      ],
      "stateMutability": "nonpayable",
      "type": "constructor"
    },
    {
      "inputs": [],
      "name": "AccessControlBadConfirmation",
      "type": "error"
    },
    {
      "inputs": [
        {
          "internalType": "address",
          "name": "account",
          "type": "address"
        },
        {
          "internalType": "bytes32",
          "name": "neededRole",
          "type": "bytes32"
        }
      ],
      "name": "AccessControlUnauthorizedAccount",
      "type": "error"
    },
    {
      "inputs": [],
      "name": "EnforcedPause",
      "type": "error"
    },
    {
      "inputs": [],
      "name": "ExpectedPause",
      "type": "error"
    },
    {
      "inputs": [],
      "name": "ReentrancyGuardReentrantCall",
      "type": "error"
    },
    {
      "inputs": [
        {
          "internalType": "address",
          "name": "token",
          "type": "address"
        }
      ],
      "name": "SafeERC20FailedOperation",
      "type": "error"
    },
    {
      "anonymous": false,
      "inputs": [
        {
          "indexed": true,
          "internalType": "address",
          "name": "user",
          "type": "address"
        },
        {
          "indexed": false,
          "internalType": "uint256",
          "name": "amount",
          "type": "uint256"
        }
      ],
      "name": "BaseSupplied",
      "type": "event"
    },
    {
      "anonymous": false,
      "inputs": [
        {
          "indexed": true,
          "internalType": "address",
          "name": "user",
          "type": "address"
        },
        {
          "indexed": false,
          "internalType": "uint256",
          "name": "amount",
          "type": "uint256"
        }
      ],
      "name": "BaseWithdrawn",
      "type": "event"
    },
    {
      "anonymous": false,
      "inputs": [
        {
          "indexed": true,
          "internalType": "address",
          "name": "user",
          "type": "address"
        },
        {
          "indexed": false,
          "internalType": "uint256",
          "name": "amount",
          "type": "uint256"
        }
      ],
      "name": "Borrowed",
      "type": "event"
    },
    {
      "anonymous": false,
      "inputs": [
        {
          "indexed": true,
          "internalType": "address",
          "name": "user",
          "type": "address"
        },
        {
          "indexed": true,
          "internalType": "address",
          "name": "asset",
          "type": "address"
        },
        {
          "indexed": false,
          "internalType": "uint256",
          "name": "amount",
          "type": "uint256"
        }
      ],
      "name": "CollateralSupplied",
      "type": "event"
    },
    {
      "anonymous": false,
      "inputs": [
        {
          "indexed": true,
          "internalType": "address",
          "name": "user",
          "type": "address"
        },
        {
          "indexed": true,
          "internalType": "address",
          "name": "asset",
          "type": "address"
        },
        {
          "indexed": false,
          "internalType": "uint256",
          "name": "amount",
          "type": "uint256"
        }
      ],
      "name": "CollateralWithdrawn",
      "type": "event"
    },
    {
      "anonymous": false,
      "inputs": [
        {
          "indexed": false,
          "internalType": "address",
          "name": "account",
          "type": "address"
        }
      ],
      "name": "Paused",
      "type": "event"
    },
    {
      "anonymous": false,
      "inputs": [
        {
          "indexed": true,
          "internalType": "address",
          "name": "user",
          "type": "address"
        },
        {
          "indexed": false,
          "internalType": "uint256",
          "name": "amount",
          "type": "uint256"
        }
      ],
      "name": "Repaid",
      "type": "event"
    },
    {
      "anonymous": false,
      "inputs": [
        {
          "indexed": true,
          "internalType": "address",
          "name": "user",
          "type": "address"
        },
        {
          "indexed": false,
          "internalType": "uint256",
          "name": "amount",
          "type": "uint256"
        }
      ],
      "name": "RewardsClaimed",
      "type": "event"
    },
    {
      "anonymous": false,
      "inputs": [
        {
          "indexed": true,
          "internalType": "bytes32",
          "name": "role",
          "type": "bytes32"
        },
        {
          "indexed": true,
          "internalType": "bytes32",
          "name": "previousAdminRole",
          "type": "bytes32"
        },
        {
          "indexed": true,
          "internalType": "bytes32",
          "name": "newAdminRole",
          "type": "bytes32"
        }
      ],
      "name": "RoleAdminChanged",
      "type": "event"
    },
    {
      "anonymous": false,
      "inputs": [
        {
          "indexed": true,
          "internalType": "bytes32",
          "name": "role",
          "type": "bytes32"
        },
        {
          "indexed": true,
          "internalType": "address",
          "name": "account",
          "type": "address"
        },
        {
          "indexed": true,
          "internalType": "address",
          "name": "sender",
          "type": "address"
        }
      ],
      "name": "RoleGranted",
      "type": "event"
    },
    {
      "anonymous": false,
      "inputs": [
        {
          "indexed": true,
          "internalType": "bytes32",
          "name": "role",
          "type": "bytes32"
        },
        {
          "indexed": true,
          "internalType": "address",
          "name": "account",
          "type": "address"
        },
        {
          "indexed": true,
          "internalType": "address",
          "name": "sender",
          "type": "address"
        }
      ],
      "name": "RoleRevoked",
      "type": "event"
    },
    {
      "anonymous": false,
      "inputs": [
        {
          "indexed": false,
          "internalType": "address",
          "name": "account",
          "type": "address"
        }
      ],
      "name": "Unpaused",
      "type": "event"
    },
    {
      "inputs": [],
      "name": "DEFAULT_ADMIN_ROLE",
      "outputs": [
        {
          "internalType": "bytes32",
          "name": "",
          "type": "bytes32"
        }
      ],
      "stateMutability": "view",
      "type": "function"
    },
    {
      "inputs": [],
      "name": "MANAGER_ROLE",
      "outputs": [
        {
          "internalType": "bytes32",
          "name": "",
          "type": "bytes32"
        }
      ],
      "stateMutability": "view",
      "type": "function"
    },
    {
      "inputs": [],
      "name": "activePositions",
      "outputs": [
        {
          "internalType": "uint256",
          "name": "",
          "type": "uint256"
        }
      ],
      "stateMutability": "view",
      "type": "function"
    },
    {
      "inputs": [],
      "name": "baseAsset",
      "outputs": [
        {
          "internalType": "address",
          "name": "",
          "type": "address"
        }
      ],
      "stateMutability": "view",
      "type": "function"
    },
    {
      "inputs": [
        {
          "internalType": "uint256",
          "name": "amount",
          "type": "uint256"
        }
      ],
      "name": "borrow",
      "outputs": [],
      "stateMutability": "nonpayable",
      "type": "function"
    },
    {
      "inputs": [
        {
          "internalType": "bool",
          "name": "shouldAccrue",
          "type": "bool"
        }
      ],
      "name": "claimRewards",
      "outputs": [],
      "stateMutability": "nonpayable",
      "type": "function"
    },
    {
      "inputs": [],
      "name": "comet",
      "outputs": [
        {
          "internalType": "contract IComet",
          "name": "",
          "type": "address"
        }
      ],
      "stateMutability": "view",
      "type": "function"
    },
    {
      "inputs": [],
      "name": "cometRewards",
      "outputs": [
        {
          "internalType": "contract ICometRewards",
          "name": "",
          "type": "address"
        }
      ],
      "stateMutability": "view",
      "type": "function"
    },
    {
      "inputs": [
        {
          "internalType": "address",
          "name": "token",
          "type": "address"
        },
        {
          "internalType": "uint256",
          "name": "amount",
          "type": "uint256"
        }
      ],
      "name": "emergencyWithdraw",
      "outputs": [],
      "stateMutability": "nonpayable",
      "type": "function"
    },
    {
      "inputs": [
        {
          "internalType": "address",
          "name": "user",
          "type": "address"
        }
      ],
      "name": "getPosition",
      "outputs": [
        {
          "internalType": "uint256",
          "name": "baseSupplied",
          "type": "uint256"
        },
        {
          "internalType": "uint256",
          "name": "baseBorrowed",
          "type": "uint256"
        },
        {
          "internalType": "uint256",
          "name": "collateralValue",
          "type": "uint256"
        },
        {
          "internalType": "uint256",
          "name": "lastUpdate",
          "type": "uint256"
        }
      ],
      "stateMutability": "view",
      "type": "function"
    },
    {
      "inputs": [],
      "name": "getRates",
      "outputs": [
        {
          "internalType": "uint256",
          "name": "supplyRate",
          "type": "uint256"
        },
        {
          "internalType": "uint256",
          "name": "borrowRate",
          "type": "uint256"
        }
      ],
      "stateMutability": "view",
      "type": "function"
    },
    {
      "inputs": [
        {
          "internalType": "bytes32",
          "name": "role",
          "type": "bytes32"
        }
      ],
      "name": "getRoleAdmin",
      "outputs": [
        {
          "internalType": "bytes32",
          "name": "",
          "type": "bytes32"
        }
      ],
      "stateMutability": "view",
      "type": "function"
    },
    {
      "inputs": [
        {
          "internalType": "bytes32",
          "name": "role",
          "type": "bytes32"
        },
        {
          "internalType": "address",
          "name": "account",
          "type": "address"
        }
      ],
      "name": "grantRole",
      "outputs": [],
      "stateMutability": "nonpayable",
      "type": "function"
    },
    {
      "inputs": [
        {
          "internalType": "bytes32",
          "name": "role",
          "type": "bytes32"
        },
        {
          "internalType": "address",
          "name": "account",
          "type": "address"
        }
      ],
      "name": "hasRole",
      "outputs": [
        {
          "internalType": "bool",
          "name": "",
          "type": "bool"
        }
      ],
      "stateMutability": "view",
      "type": "function"
    },
    {
      "inputs": [
        {
          "internalType": "address",
          "name": "user",
          "type": "address"
        }
      ],
      "name": "isPositionHealthy",
      "outputs": [
        {
          "internalType": "bool",
          "name": "",
          "type": "bool"
        }
      ],
      "stateMutability": "view",
      "type": "function"
    },
    {
      "inputs": [],
      "name": "pause",
      "outputs": [],
      "stateMutability": "nonpayable",
      "type": "function"
    },
    {
      "inputs": [],
      "name": "paused",
      "outputs": [
        {
          "internalType": "bool",
          "name": "",
          "type": "bool"
        }
      ],
      "stateMutability": "view",
      "type": "function"
    },
    {
      "inputs": [
        {
          "internalType": "address",
          "name": "",
          "type": "address"
        }
      ],
      "name": "positions",
      "outputs": [
        {
          "internalType": "uint256",
          "name": "baseSupplied",
          "type": "uint256"
        },
        {
          "internalType": "uint256",
          "name": "baseBorrowed",
          "type": "uint256"
        },
        {
          "internalType": "uint256",
          "name": "lastUpdate",
          "type": "uint256"
        },
        {
          "internalType": "bool",
          "name": "active",
          "type": "bool"
        }
      ],
      "stateMutability": "view",
      "type": "function"
    },
    {
      "inputs": [
        {
          "internalType": "bytes32",
          "name": "role",
          "type": "bytes32"
        },
        {
          "internalType": "address",
          "name": "callerConfirmation",
          "type": "address"
        }
      ],
      "name": "renounceRole",
      "outputs": [],
      "stateMutability": "nonpayable",
      "type": "function"
    },
    {
      "inputs": [
        {
          "internalType": "uint256",
          "name": "amount",
          "type": "uint256"
        }
      ],
      "name": "repay",
      "outputs": [],
      "stateMutability": "nonpayable",
      "type": "function"
    },
    {
      "inputs": [
        {
          "internalType": "bytes32",
          "name": "role",
          "type": "bytes32"
        },
        {
          "internalType": "address",
          "name": "account",
          "type": "address"
        }
      ],
      "name": "revokeRole",
      "outputs": [],
      "stateMutability": "nonpayable",
      "type": "function"
    },
    {
      "inputs": [
        {
          "internalType": "address",
          "name": "_stateAggregator",
          "type": "address"
        }
      ],
      "name": "setStateAggregator",
      "outputs": [],
      "stateMutability": "nonpayable",
      "type": "function"
    },
    {
      "inputs": [],
      "name": "stateAggregator",
      "outputs": [
        {
          "internalType": "contract L2StateAggregator",
          "name": "",
          "type": "address"
        }
      ],
      "stateMutability": "view",
      "type": "function"
    },
    {
      "inputs": [
        {
          "internalType": "uint256",
          "name": "amount",
          "type": "uint256"
        }
      ],
      "name": "supplyBase",
      "outputs": [],
      "stateMutability": "nonpayable",
      "type": "function"
    },
    {
      "inputs": [
        {
          "internalType": "address",
          "name": "asset",
          "type": "address"
        },
        {
          "internalType": "uint256",
          "name": "amount",
          "type": "uint256"
        }
      ],
      "name": "supplyCollateral",
      "outputs": [],
      "stateMutability": "nonpayable",
      "type": "function"
    },
    {
      "inputs": [
        {
          "internalType": "bytes4",
          "name": "interfaceId",
          "type": "bytes4"
        }
      ],
      "name": "supportsInterface",
      "outputs": [
        {
          "internalType": "bool",
          "name": "",
          "type": "bool"
        }
      ],
      "stateMutability": "view",
      "type": "function"
    },
    {
      "inputs": [],
      "name": "totalBorrowed",
      "outputs": [
        {
          "internalType": "uint256",
          "name": "",
          "type": "uint256"
        }
      ],
      "stateMutability": "view",
      "type": "function"
    },
    {
      "inputs": [],
      "name": "totalCollateral",
      "outputs": [
        {
          "internalType": "uint256",
          "name": "",
          "type": "uint256"
        }
      ],
      "stateMutability": "view",
      "type": "function"
    },
    {
      "inputs": [],
      "name": "totalSupplied",
      "outputs": [
        {
          "internalType": "uint256",
          "name": "",
          "type": "uint256"
        }
      ],
      "stateMutability": "view",
      "type": "function"
    },
    {
      "inputs": [],
      "name": "unpause",
      "outputs": [],
      "stateMutability": "nonpayable",
      "type": "function"
    },
    {
      "inputs": [
        {
          "internalType": "uint256",
          "name": "amount",
          "type": "uint256"
        }
      ],
      "name": "withdrawBase",
      "outputs": [],
      "stateMutability": "nonpayable",
      "type": "function"
    },
    {
      "inputs": [
        {
          "internalType": "address",
          "name": "asset",
          "type": "address"
        },
        {
          "internalType": "uint256",
          "name": "amount",
          "type": "uint256"
        }
      ],
      "name": "withdrawCollateral",
      "outputs": [],
      "stateMutability": "nonpayable",
      "type": "function"
    },
    {
      "stateMutability": "payable",
      "type": "receive"
    }
  ],
  "bytecode": "0x60e06040523480156200001157600080fd5b50604051620022d3380380620022d3833981016040819052620000349162000260565b600180556001600160a01b038316620000845760405162461bcd60e51b815260206004820152600d60248201526c125b9d985b1a590818dbdb595d609a1b60448201526064015b60405180910390fd5b6001600160a01b038116620000cc5760405162461bcd60e51b815260206004820152600d60248201526c24b73b30b634b21030b236b4b760991b60448201526064016200007b565b6001600160a01b03808416608081905290831660a0526040805163c55dae6360e01b8152905163c55dae63916004808201926020929091908290030181865afa1580156200011e573d6000803e3d6000fd5b505050506040513d601f19601f82011682018060405250810190620001449190620002aa565b6001600160a01b031660c0526200015d60008262000194565b506200018a7f241ecf16d79d0f8dbfb92cbc07fe17840425976cf0667f022fe9877caa831b088262000194565b50505050620002cf565b6000828152602081815260408083206001600160a01b038516845290915281205460ff1662000239576000838152602081815260408083206001600160a01b03861684529091529020805460ff19166001179055620001f03390565b6001600160a01b0316826001600160a01b0316847f2f8788117e7eff1d82e926ec794901d17c78024a50270940304540a733656f0d60405160405180910390a45060016200023d565b5060005b92915050565b80516001600160a01b03811681146200025b57600080fd5b919050565b6000806000606084860312156200027657600080fd5b620002818462000243565b9250620002916020850162000243565b9150620002a16040850162000243565b90509250925092565b600060208284031215620002bd57600080fd5b620002c88262000243565b9392505050565b60805160a05160c051611f1e620003b56000396000818161064e015281816108ff01528181610b5101528181610b8601528181610be401528181610d9501528181610dca01528181610e28015281816112f101528181611436015261170901526000818161035f0152818161074501526108040152600081816105ba015281816107ce0152818161099501528181610ba801528181610c1301528181610dec01528181610e5701528181610ff90152818161109201528181611113015281816111d3015281816112c2015281816114d90152818161152401526116da0152611f1e6000f3fe6080604052600436106101e75760003560e01c80635c975abb11610102578063bafca75e11610095578063d2a8607b11610064578063d2a8607b14610670578063d547741f14610690578063ec87621c146106b0578063f98bea15146106e457600080fd5b8063bafca75e146105dc578063c0804b46146105fc578063c5ebeaec1461061c578063cdf456e11461063c57600080fd5b806395ccea67116100d157806395ccea67146105495780639accab5514610569578063a217fddf14610593578063ba3e9c12146105a857600080fd5b80635c975abb146104e6578063630fd0ac146104fe5780638456cb591461051457806391d148541461052957600080fd5b806336568abe1161017a5780634c19386c116101495780634c19386c1461042457806354ef29201461043a57806355f575101461045f5780635993a8b3146104c657600080fd5b806336568abe146103b9578063371fd8e6146103d95780633f4ba83a146103f95780634ac8eb5f1461040e57600080fd5b8063297add9d116101b6578063297add9d146103175780632f2ff15d1461032d578063323159721461034d578063350c35e91461039957600080fd5b806301ffc9a7146101f35780630e6878a31461022857806316c197391461024a578063248a9ca3146102d957600080fd5b366101ee57005b600080fd5b3480156101ff57600080fd5b5061021361020e366004611cc1565b610704565b60405190151581526020015b60405180910390f35b34801561023457600080fd5b50610248610243366004611d00565b61073b565b005b34801561025657600080fd5b506102b9610265366004611d39565b6001600160a01b03166000908152600760209081526040808320815160808101835281548082526001830154948201859052600283015493820184905260039092015460ff16151560609091015293919291565b60408051948552602085019390935291830152606082015260800161021f565b3480156102e557600080fd5b506103096102f4366004611d54565b60009081526020819052604090206001015490565b60405190815260200161021f565b34801561032357600080fd5b5061030960065481565b34801561033957600080fd5b50610248610348366004611d6d565b6108a2565b34801561035957600080fd5b506103817f000000000000000000000000000000000000000000000000000000000000000081565b6040516001600160a01b03909116815260200161021f565b3480156103a557600080fd5b506102486103b4366004611d99565b6108cd565b3480156103c557600080fd5b506102486103d4366004611d6d565b610a6e565b3480156103e557600080fd5b506102486103f4366004611d54565b610aa6565b34801561040557600080fd5b50610248610d26565b34801561041a57600080fd5b5061030960055481565b34801561043057600080fd5b5061030960045481565b34801561044657600080fd5b506002546103819061010090046001600160a01b031681565b34801561046b57600080fd5b506104a461047a366004611d39565b60076020526000908152604090208054600182015460028301546003909301549192909160ff1684565b604080519485526020850193909352918301521515606082015260800161021f565b3480156104d257600080fd5b506102486104e1366004611d54565b610d58565b3480156104f257600080fd5b5060025460ff16610213565b34801561050a57600080fd5b5061030960035481565b34801561052057600080fd5b50610248610f78565b34801561053557600080fd5b50610213610544366004611d6d565b610faa565b34801561055557600080fd5b50610248610564366004611d99565b610fd3565b34801561057557600080fd5b5061057e610ff2565b6040805192835260208301919091520161021f565b34801561059f57600080fd5b50610309600081565b3480156105b457600080fd5b506103817f000000000000000000000000000000000000000000000000000000000000000081565b3480156105e857600080fd5b506102136105f7366004611d39565b6111b1565b34801561060857600080fd5b50610248610617366004611d39565b611247565b34801561062857600080fd5b50610248610637366004611d54565b61127b565b34801561064857600080fd5b506103817f000000000000000000000000000000000000000000000000000000000000000081565b34801561067c57600080fd5b5061024861068b366004611d99565b611404565b34801561069c57600080fd5b506102486106ab366004611d6d565b61160e565b3480156106bc57600080fd5b506103097f241ecf16d79d0f8dbfb92cbc07fe17840425976cf0667f022fe9877caa831b0881565b3480156106f057600080fd5b506102486106ff366004611d54565b611633565b60006001600160e01b03198216637965db0b60e01b148061073557506301ffc9a760e01b6001600160e01b03198316145b92915050565b61074361180e565b7f00000000000000000000000000000000000000000000000000000000000000006001600160a01b03166107b75760405162461bcd60e51b815260206004820152601660248201527514995dd85c991cc81b9bdd0818dbdb999a59dd5c995960521b60448201526064015b60405180910390fd5b604051635b81a7bf60e11b81526001600160a01b037f00000000000000000000000000000000000000000000000000000000000000008116600483015233602483015282151560448301527f0000000000000000000000000000000000000000000000000000000000000000169063b7034f7e90606401600060405180830381600087803b15801561084857600080fd5b505af115801561085c573d6000803e3d6000fd5b5050604051600081523392507ffc30cddea38e2bf4d6ea7d3f9ed3b6ad7f176419f4963bd81318067a4aee73fe915060200160405180910390a261089f60018055565b50565b6000828152602081905260409020600101546108bd81611838565b6108c78383611842565b50505050565b6108d561180e565b6108dd6118d4565b600081116108fd5760405162461bcd60e51b81526004016107ae90611dc3565b7f00000000000000000000000000000000000000000000000000000000000000006001600160a01b0316826001600160a01b03160361097e5760405162461bcd60e51b815260206004820152601f60248201527f5573652077697468647261774261736520666f7220626173652061737365740060448201526064016107ae565b6040516361d9ad3f60e11b81526001600160a01b037f0000000000000000000000000000000000000000000000000000000000000000169063c3b35a7e906109ce90339086908690600401611df8565b600060405180830381600087803b1580156109e857600080fd5b505af11580156109fc573d6000803e3d6000fd5b50503360009081526007602052604090204260028201559150610a1f90506118fa565b6040518281526001600160a01b0384169033907f45892a46e6cef329bb642da6d69846d324db43d19008edc141ed82382eda1bee906020015b60405180910390a350610a6a60018055565b5050565b6001600160a01b0381163314610a975760405163334bd91960e11b815260040160405180910390fd5b610aa18282611990565b505050565b610aae61180e565b610ab66118d4565b60008111610ad65760405162461bcd60e51b81526004016107ae90611dc3565b3360009081526007602052604090206001810154610b295760405162461bcd60e51b815260206004820152601060248201526f4e6f206465627420746f20726570617960801b60448201526064016107ae565b600081600101548311610b3c5782610b42565b81600101545b9050610b796001600160a01b037f0000000000000000000000000000000000000000000000000000000000000000163330846119fb565b610bcd6001600160a01b037f0000000000000000000000000000000000000000000000000000000000000000167f000000000000000000000000000000000000000000000000000000000000000083611a55565b604051631e573fb760e31b81526001600160a01b037f000000000000000000000000000000000000000000000000000000000000000081166004830152602482018390527f0000000000000000000000000000000000000000000000000000000000000000169063f2b9fdb890604401600060405180830381600087803b158015610c5757600080fd5b505af1158015610c6b573d6000803e3d6000fd5b5050505080826001016000828254610c839190611e32565b90915550504260028301558154158015610c9f57506001820154155b15610cc65760038201805460ff1916905560068054906000610cc083611e45565b91905055505b8060046000828254610cd89190611e32565b90915550610ce690506118fa565b60405181815233907f0516911bcc3a0a7412a44601057c0a0a1ec628bde049a84284bc4288665344889060200160405180910390a2505061089f60018055565b7f241ecf16d79d0f8dbfb92cbc07fe17840425976cf0667f022fe9877caa831b08610d5081611838565b61089f611ae5565b610d6061180e565b610d686118d4565b60008111610d885760405162461bcd60e51b81526004016107ae90611dc3565b610dbd6001600160a01b037f0000000000000000000000000000000000000000000000000000000000000000163330846119fb565b610e116001600160a01b037f0000000000000000000000000000000000000000000000000000000000000000167f000000000000000000000000000000000000000000000000000000000000000083611a55565b604051631e573fb760e31b81526001600160a01b037f000000000000000000000000000000000000000000000000000000000000000081166004830152602482018390527f0000000000000000000000000000000000000000000000000000000000000000169063f2b9fdb890604401600060405180830381600087803b158015610e9b57600080fd5b505af1158015610eaf573d6000803e3d6000fd5b5050336000908152600760205260409020600381015490925060ff169050610ef65760038101805460ff1916600117905560068054906000610ef083611e5c565b91905055505b81816000016000828254610f0a9190611e75565b909155505042600282015560038054839190600090610f2a908490611e75565b90915550610f3890506118fa565b60405182815233907f404c0cabb6935529d6ab61c3b44d8100ead2c25cfcfe1c3bcff4f39b9b90c207906020015b60405180910390a25061089f60018055565b7f241ecf16d79d0f8dbfb92cbc07fe17840425976cf0667f022fe9877caa831b08610fa281611838565b61089f611b37565b6000918252602082815260408084206001600160a01b0393909316845291905290205460ff1690565b6000610fde81611838565b610aa16001600160a01b0384163384611b74565b60008060007f00000000000000000000000000000000000000000000000000000000000000006001600160a01b0316637eb711316040518163ffffffff1660e01b8152600401602060405180830381865afa158015611055573d6000803e3d6000fd5b505050506040513d601f19601f820116820180604052508101906110799190611e88565b60405163d955759d60e01b8152600481018290529091507f00000000000000000000000000000000000000000000000000000000000000006001600160a01b03169063d955759d90602401602060405180830381865afa1580156110e1573d6000803e3d6000fd5b505050506040513d601f19601f820116820180604052508101906111059190611ea1565b67ffffffffffffffff1692507f00000000000000000000000000000000000000000000000000000000000000006001600160a01b0316639fa83b5a826040518263ffffffff1660e01b815260040161115f91815260200190565b602060405180830381865afa15801561117c573d6000803e3d6000fd5b505050506040513d601f19601f820116820180604052508101906111a09190611ea1565b67ffffffffffffffff169150509091565b60405163042e02cf60e01b81526001600160a01b0382811660048301526000917f00000000000000000000000000000000000000000000000000000000000000009091169063042e02cf90602401602060405180830381865afa15801561121c573d6000803e3d6000fd5b505050506040513d601f19601f820116820180604052508101906112409190611ecb565b1592915050565b600061125281611838565b50600280546001600160a01b0390921661010002610100600160a81b0319909216919091179055565b61128361180e565b61128b6118d4565b600081116112ab5760405162461bcd60e51b81526004016107ae90611dc3565b6040516361d9ad3f60e11b81526001600160a01b037f0000000000000000000000000000000000000000000000000000000000000000169063c3b35a7e9061131b9033907f0000000000000000000000000000000000000000000000000000000000000000908690600401611df8565b600060405180830381600087803b15801561133557600080fd5b505af1158015611349573d6000803e3d6000fd5b5050336000908152600760205260409020600381015490925060ff1690506113905760038101805460ff191660011790556006805490600061138a83611e5c565b91905055505b818160010160008282546113a49190611e75565b9091555050426002820155600480548391906000906113c4908490611e75565b909155506113d290506118fa565b60405182815233907fac59582e5396aca512fa873a2047e7f4c80f8f55d4a06cb34a78a0187f62719f90602001610f66565b61140c61180e565b6114146118d4565b600081116114345760405162461bcd60e51b81526004016107ae90611dc3565b7f00000000000000000000000000000000000000000000000000000000000000006001600160a01b0316826001600160a01b0316036114b55760405162461bcd60e51b815260206004820152601d60248201527f55736520737570706c794261736520666f72206261736520617373657400000060448201526064016107ae565b6114ca6001600160a01b0383163330846119fb565b6114fe6001600160a01b0383167f000000000000000000000000000000000000000000000000000000000000000083611a55565b604051631e573fb760e31b81526001600160a01b038381166004830152602482018390527f0000000000000000000000000000000000000000000000000000000000000000169063f2b9fdb890604401600060405180830381600087803b15801561156857600080fd5b505af115801561157c573d6000803e3d6000fd5b5050336000908152600760205260409020600381015490925060ff1690506115c35760038101805460ff19166001179055600680549060006115bd83611e5c565b91905055505b4260028201556115d16118fa565b6040518281526001600160a01b0384169033907fa1d3b269caaa0f650745881dd7077600f8c21e0f1ee4c7292c13543f4d89c7b190602001610a58565b60008281526020819052604090206001015461162981611838565b6108c78383611990565b61163b61180e565b6116436118d4565b600081116116635760405162461bcd60e51b81526004016107ae90611dc3565b33600090815260076020526040902080548211156116c35760405162461bcd60e51b815260206004820152601d60248201527f496e73756666696369656e7420737570706c6965642062616c616e636500000060448201526064016107ae565b6040516361d9ad3f60e11b81526001600160a01b037f0000000000000000000000000000000000000000000000000000000000000000169063c3b35a7e906117339033907f0000000000000000000000000000000000000000000000000000000000000000908790600401611df8565b600060405180830381600087803b15801561174d57600080fd5b505af1158015611761573d6000803e3d6000fd5b50505050818160000160008282546117799190611e32565b9091555050426002820155805415801561179557506001810154155b156117bc5760038101805460ff19169055600680549060006117b683611e45565b91905055505b81600360008282546117ce9190611e32565b909155506117dc90506118fa565b60405182815233907f24bf52d87309c5594d8e64b5b23596bffbe07396bec5b6b60aabd458a248062c90602001610f66565b60026001540361183157604051633ee5aeb560e01b815260040160405180910390fd5b6002600155565b61089f8133611ba5565b600061184e8383610faa565b6118cc576000838152602081815260408083206001600160a01b03861684529091529020805460ff191660011790556118843390565b6001600160a01b0316826001600160a01b0316847f2f8788117e7eff1d82e926ec794901d17c78024a50270940304540a733656f0d60405160405180910390a4506001610735565b506000610735565b60025460ff16156118f85760405163d93c066560e01b815260040160405180910390fd5b565b60025461010090046001600160a01b0316156118f857600254600554600480546006546003546040516305a888b960e21b8152938401949094526024830191909152604482015260648101919091526101009091046001600160a01b0316906316a222e490608401600060405180830381600087803b15801561197c57600080fd5b505af11580156108c7573d6000803e3d6000fd5b600061199c8383610faa565b156118cc576000838152602081815260408083206001600160a01b0386168085529252808320805460ff1916905551339286917ff6391f5c32d9c69d2a47ea670b442974b53935d1edc7fd64eb21e047a839171b9190a4506001610735565b6108c784856001600160a01b03166323b872dd868686604051602401611a2393929190611df8565b604051602081830303815290604052915060e01b6020820180516001600160e01b038381831617835250505050611bde565b604080516001600160a01b038416602482015260448082018490528251808303909101815260649091019091526020810180516001600160e01b031663095ea7b360e01b179052611aa68482611c4f565b6108c7576040516001600160a01b03848116602483015260006044830152611adb91869182169063095ea7b390606401611a23565b6108c78482611bde565b611aed611c9e565b6002805460ff191690557f5db9ee0a495bf2e6ff9c91a7834c1ba4fdd244a5e8aa4e537bd38aeae4b073aa335b6040516001600160a01b03909116815260200160405180910390a1565b611b3f6118d4565b6002805460ff191660011790557f62e78cea01bee320cd4e420270b5ea74000d11b0c9f74754ebdbfc544b05a258611b1a3390565b6040516001600160a01b03838116602483015260448201839052610aa191859182169063a9059cbb90606401611a23565b611baf8282610faa565b610a6a5760405163e2517d3f60e01b81526001600160a01b0382166004820152602481018390526044016107ae565b600080602060008451602086016000885af180611c01576040513d6000823e3d81fd5b50506000513d91508115611c19578060011415611c26565b6001600160a01b0384163b155b156108c757604051635274afe760e01b81526001600160a01b03851660048201526024016107ae565b6000806000806020600086516020880160008a5af192503d91506000519050828015611c9457508115611c855780600114611c94565b6000866001600160a01b03163b115b9695505050505050565b60025460ff166118f857604051638dfc202b60e01b815260040160405180910390fd5b600060208284031215611cd357600080fd5b81356001600160e01b031981168114611ceb57600080fd5b9392505050565b801515811461089f57600080fd5b600060208284031215611d1257600080fd5b8135611ceb81611cf2565b80356001600160a01b0381168114611d3457600080fd5b919050565b600060208284031215611d4b57600080fd5b611ceb82611d1d565b600060208284031215611d6657600080fd5b5035919050565b60008060408385031215611d8057600080fd5b82359150611d9060208401611d1d565b90509250929050565b60008060408385031215611dac57600080fd5b611db583611d1d565b946020939093013593505050565b6020808252818101527f416d6f756e74206d7573742062652067726561746572207468616e207a65726f604082015260600190565b6001600160a01b039384168152919092166020820152604081019190915260600190565b634e487b7160e01b600052601160045260246000fd5b8181038181111561073557610735611e1c565b600081611e5457611e54611e1c565b506000190190565b600060018201611e6e57611e6e611e1c565b5060010190565b8082018082111561073557610735611e1c565b600060208284031215611e9a57600080fd5b5051919050565b600060208284031215611eb357600080fd5b815167ffffffffffffffff81168114611ceb57600080fd5b600060208284031215611edd57600080fd5b8151611ceb81611cf256fea2646970667358221220a6ab316bcecf9e39a69dcf8b0e8c22adf09a741eb6c5030711adfbe2d77cac5864736f6c63430008160033",
  "linkReferences": {},
  "deployedLinkReferences": {}
}