{
  "_format": "hh-sol-artifact-1",
  "contractName": "MockPriceOracle",
  "sourceName": "contracts/mocks/MockPriceOracle.sol",
  "abi": [
    {
      "inputs": [],
      "name": "decimals",
      "outputs": [
        {
          "internalType": "uint8",
          "name": "",
          "type": "uint8"
        }
      ],
      "stateMutability": "pure",
      "type": "function"
    },
    {
      "inputs": [
        {
          "internalType": "address",
          "name": "asset",
          "type": "address"
        }
      ],
      "name": "getAssetPrice",
      "outputs": [
        {
          "internalType": "uint256",
          "name": "",
          "type": "uint256"
        }
      ],
      "stateMutability": "view",
      "type": "function"
    },
    {
      "inputs": [
        {
          "internalType": "address",
          "name": "",
          "type": "address"
        }
      ],
      "name": "prices",
      "outputs": [
        {
          "internalType": "uint256",
          "name": "",
          "type": "uint256"
        }
      ],
      "stateMutability": "view",
      "type": "function"
    },
    {
      "inputs": [
        {
          "internalType": "address",
          "name": "asset",
          "type": "address"
        },
        {
          "internalType": "uint256",
          "name": "price",
          "type": "uint256"
        }
      ],
      "name": "setAssetPrice",
      "outputs": [],
      "stateMutability": "nonpayable",
      "type": "function"
    }
  ],
  "bytecode": "0x608060405234801561001057600080fd5b506101d0806100206000396000f3fe608060405234801561001057600080fd5b506004361061004c5760003560e01c8063313ce5671461005157806351323f7214610065578063b3596f0714610091578063cfed246b146100b2575b600080fd5b604051600881526020015b60405180910390f35b61008f61007336600461014e565b6001600160a01b03909116600090815260208190526040902055565b005b6100a461009f366004610178565b6100d2565b60405190815260200161005c565b6100a46100c0366004610178565b60006020819052908152604090205481565b6001600160a01b0381166000908152602081905260408120548061012c5760405162461bcd60e51b815260206004820152600d60248201526c141c9a58d9481b9bdd081cd95d609a1b604482015260640160405180910390fd5b92915050565b80356001600160a01b038116811461014957600080fd5b919050565b6000806040838503121561016157600080fd5b61016a83610132565b946020939093013593505050565b60006020828403121561018a57600080fd5b61019382610132565b939250505056fea264697066735822122087cc002f75fa36902a44b5565260c6e7794ccd5dc5b476bc4dde6937decdb05b64736f6c63430008160033",
  "linkReferences": {},
  "deployedLinkReferences": {}
}