{
  "_format": "hh-sol-artifact-1",
  "contractName": "FlashLoanArbitrage",
  "sourceName": "contracts/layer2/adapters/examples/FlashLoanArbitrage.sol",
  "abi": [
    {
      "inputs": [
        {
          "internalType": "address",
          "name": "_aaveAdapter",
          "type": "address"
        }
      ],
      "stateMutability": "nonpayable",
      "type": "constructor"
    },
    {
      "inputs": [
        {
          "internalType": "address",
          "name": "token",
          "type": "address"
        }
      ],
      "name": "SafeERC20FailedOperation",
      "type": "error"
    },
    {
      "anonymous": false,
      "inputs": [
        {
          "indexed": true,
          "internalType": "address",
          "name": "asset",
          "type": "address"
        },
        {
          "indexed": false,
          "internalType": "uint256",
          "name": "borrowed",
          "type": "uint256"
        },
        {
          "indexed": false,
          "internalType": "uint256",
          "name": "profit",
          "type": "uint256"
        },
        {
          "indexed": false,
          "internalType": "uint256",
          "name": "timestamp",
          "type": "uint256"
        }
      ],
      "name": "ArbitrageExecuted",
      "type": "event"
    },
    {
      "anonymous": false,
      "inputs": [
        {
          "indexed": true,
          "internalType": "address",
          "name": "asset",
          "type": "address"
        },
        {
          "indexed": false,
          "internalType": "uint256",
          "name": "amount",
          "type": "uint256"
        },
        {
          "indexed": false,
          "internalType": "uint256",
          "name": "premium",
          "type": "uint256"
        }
      ],
      "name": "FlashLoanReceived",
      "type": "event"
    },
    {
      "inputs": [],
      "name": "aaveAdapter",
      "outputs": [
        {
          "internalType": "address",
          "name": "",
          "type": "address"
        }
      ],
      "stateMutability": "view",
      "type": "function"
    },
    {
      "inputs": [
        {
          "internalType": "address",
          "name": "token",
          "type": "address"
        }
      ],
      "name": "emergencyWithdraw",
      "outputs": [],
      "stateMutability": "nonpayable",
      "type": "function"
    },
    {
      "inputs": [
        {
          "internalType": "address",
          "name": "asset",
          "type": "address"
        },
        {
          "internalType": "uint256",
          "name": "amount",
          "type": "uint256"
        },
        {
          "internalType": "uint256",
          "name": "premium",
          "type": "uint256"
        },
        {
          "internalType": "address",
          "name": "initiator",
          "type": "address"
        },
        {
          "internalType": "bytes",
          "name": "params",
          "type": "bytes"
        }
      ],
      "name": "executeOperation",
      "outputs": [
        {
          "internalType": "bool",
          "name": "",
          "type": "bool"
        }
      ],
      "stateMutability": "nonpayable",
      "type": "function"
    },
    {
      "inputs": [
        {
          "internalType": "address[]",
          "name": "assets",
          "type": "address[]"
        },
        {
          "internalType": "uint256[]",
          "name": "amounts",
          "type": "uint256[]"
        },
        {
          "internalType": "uint256[]",
          "name": "premiums",
          "type": "uint256[]"
        },
        {
          "internalType": "address",
          "name": "initiator",
          "type": "address"
        },
        {
          "internalType": "bytes",
          "name": "params",
          "type": "bytes"
        }
      ],
      "name": "executeOperationMulti",
      "outputs": [
        {
          "internalType": "bool",
          "name": "",
          "type": "bool"
        }
      ],
      "stateMutability": "nonpayable",
      "type": "function"
    },
    {
      "inputs": [
        {
          "internalType": "address",
          "name": "token",
          "type": "address"
        }
      ],
      "name": "getBalance",
      "outputs": [
        {
          "internalType": "uint256",
          "name": "",
          "type": "uint256"
        }
      ],
      "stateMutability": "view",
      "type": "function"
    },
    {
      "inputs": [],
      "name": "owner",
      "outputs": [
        {
          "internalType": "address",
          "name": "",
          "type": "address"
        }
      ],
      "stateMutability": "view",
      "type": "function"
    },
    {
      "inputs": [
        {
          "internalType": "address",
          "name": "_newAdapter",
          "type": "address"
        }
      ],
      "name": "updateAaveAdapter",
      "outputs": [],
      "stateMutability": "nonpayable",
      "type": "function"
    },
    {
      "inputs": [
        {
          "internalType": "address",
          "name": "token",
          "type": "address"
        },
        {
          "internalType": "uint256",
          "name": "amount",
          "type": "uint256"
        }
      ],
      "name": "withdrawProfits",
      "outputs": [],
      "stateMutability": "nonpayable",
      "type": "function"
    }
  ],
  "bytecode": "0x608060405234801561001057600080fd5b50604051610cc6380380610cc683398101604081905261002f91610062565b60008054336001600160a01b031991821617909155600180549091166001600160a01b0392909216919091179055610092565b60006020828403121561007457600080fd5b81516001600160a01b038116811461008b57600080fd5b9392505050565b610c25806100a16000396000f3fe608060405234801561001057600080fd5b50600436106100885760003560e01c80638da5cb5b1161005b5780638da5cb5b1461010857806397eda4531461011b578063aafc96511461012e578063f8b2cb4f1461014157600080fd5b80631b11d0ff1461008d578063571eb114146100b55780635eddc5ed146100e05780636ff1c9bc146100f3575b600080fd5b6100a061009b366004610923565b610162565b60405190151581526020015b60405180910390f35b6001546100c8906001600160a01b031681565b6040516001600160a01b0390911681526020016100ac565b6100a06100ee3660046109e0565b6103ad565b610106610101366004610aba565b61054d565b005b6000546100c8906001600160a01b031681565b610106610129366004610aba565b610603565b61010661013c366004610adc565b61064f565b61015461014f366004610aba565b610693565b6040519081526020016100ac565b6001546000906001600160a01b031633146101b75760405162461bcd60e51b815260206004820152601060248201526f2737ba1020b0bb329020b230b83a32b960811b60448201526064015b60405180910390fd5b60408051878152602081018790526001600160a01b038916917f1343998c8d6022eb07eb12064b021c43c49447832d6f53815b05b4b8f43a9ced910160405180910390a2600061020983850185610b06565b9050600080610218888a610b7c565b6040516370a0823160e01b815230600482015290915081906001600160a01b038c16906370a0823190602401602060405180830381865afa158015610261573d6000803e3d6000fd5b505050506040513d601f19601f820116820180604052508101906102859190610b9d565b10156102e45760405162461bcd60e51b815260206004820152602860248201527f496e73756666696369656e742062616c616e636520746f20726570617920666c60448201526730b9b4103637b0b760c11b60648201526084016101ae565b82604001518210156103385760405162461bcd60e51b815260206004820152601860248201527f417262697472616765206e6f742070726f66697461626c65000000000000000060448201526064016101ae565b600154610352906001600160a01b038c8116911683610704565b604080518a815260208101849052428183015290516001600160a01b038c16917fac5e73d65c7df1a72a57e0d680767c7e764095957ee44ec036b761799b56afd2919081900360600190a25060019998505050505050505050565b6001546000906001600160a01b031633146103fd5760405162461bcd60e51b815260206004820152601060248201526f2737ba1020b0bb329020b230b83a32b960811b60448201526064016101ae565b60005b8981101561053c578a8a8281811061041a5761041a610bb6565b905060200201602081019061042f9190610aba565b6001600160a01b03167f1343998c8d6022eb07eb12064b021c43c49447832d6f53815b05b4b8f43a9ced8a8a8481811061046b5761046b610bb6565b9050602002013589898581811061048457610484610bb6565b905060200201356040516104a2929190918252602082015260400190565b60405180910390a260008787838181106104be576104be610bb6565b905060200201358a8a848181106104d7576104d7610bb6565b905060200201356104e89190610b7c565b600154909150610533906001600160a01b0316828e8e8681811061050e5761050e610bb6565b90506020020160208101906105239190610aba565b6001600160a01b03169190610704565b50600101610400565b5060019a9950505050505050505050565b6000546001600160a01b031633146105775760405162461bcd60e51b81526004016101ae90610bcc565b6040516370a0823160e01b81523060048201526000906001600160a01b038316906370a0823190602401602060405180830381865afa1580156105be573d6000803e3d6000fd5b505050506040513d601f19601f820116820180604052508101906105e29190610b9d565b6000549091506105ff906001600160a01b038481169116836107c8565b5050565b6000546001600160a01b0316331461062d5760405162461bcd60e51b81526004016101ae90610bcc565b600180546001600160a01b0319166001600160a01b0392909216919091179055565b6000546001600160a01b031633146106795760405162461bcd60e51b81526004016101ae90610bcc565b6000546105ff906001600160a01b038481169116836107c8565b6040516370a0823160e01b81523060048201526000906001600160a01b038316906370a0823190602401602060405180830381865afa1580156106da573d6000803e3d6000fd5b505050506040513d601f19601f820116820180604052508101906106fe9190610b9d565b92915050565b604080516001600160a01b038416602482015260448082018490528251808303909101815260649091019091526020810180516001600160e01b031663095ea7b360e01b17905261075584826107fe565b6107c2576040516001600160a01b038481166024830152600060448301526107b891869182169063095ea7b3906064015b604051602081830303815290604052915060e01b6020820180516001600160e01b03838183161783525050505061084d565b6107c2848261084d565b50505050565b6040516001600160a01b038381166024830152604482018390526107f991859182169063a9059cbb90606401610786565b505050565b6000806000806020600086516020880160008a5af192503d91506000519050828015610843575081156108345780600114610843565b6000866001600160a01b03163b115b9695505050505050565b600080602060008451602086016000885af180610870576040513d6000823e3d81fd5b50506000513d91508115610888578060011415610895565b6001600160a01b0384163b155b156107c257604051635274afe760e01b81526001600160a01b03851660048201526024016101ae565b80356001600160a01b03811681146108d557600080fd5b919050565b60008083601f8401126108ec57600080fd5b50813567ffffffffffffffff81111561090457600080fd5b60208301915083602082850101111561091c57600080fd5b9250929050565b60008060008060008060a0878903121561093c57600080fd5b610945876108be565b95506020870135945060408701359350610961606088016108be565b9250608087013567ffffffffffffffff81111561097d57600080fd5b61098989828a016108da565b979a9699509497509295939492505050565b60008083601f8401126109ad57600080fd5b50813567ffffffffffffffff8111156109c557600080fd5b6020830191508360208260051b850101111561091c57600080fd5b600080600080600080600080600060a08a8c0312156109fe57600080fd5b893567ffffffffffffffff80821115610a1657600080fd5b610a228d838e0161099b565b909b50995060208c0135915080821115610a3b57600080fd5b610a478d838e0161099b565b909950975060408c0135915080821115610a6057600080fd5b610a6c8d838e0161099b565b9097509550859150610a8060608d016108be565b945060808c0135915080821115610a9657600080fd5b50610aa38c828d016108da565b915080935050809150509295985092959850929598565b600060208284031215610acc57600080fd5b610ad5826108be565b9392505050565b60008060408385031215610aef57600080fd5b610af8836108be565b946020939093013593505050565b600060608284031215610b1857600080fd5b6040516060810181811067ffffffffffffffff82111715610b4957634e487b7160e01b600052604160045260246000fd5b604052610b55836108be565b8152610b63602084016108be565b6020820152604083013560408201528091505092915050565b808201808211156106fe57634e487b7160e01b600052601160045260246000fd5b600060208284031215610baf57600080fd5b5051919050565b634e487b7160e01b600052603260045260246000fd5b6020808252600990820152682737ba1037bbb732b960b91b60408201526060019056fea2646970667358221220e6f5c35986b1619109c03ea2417ab987c19be0ddd6b76d81a5ccad076f3348d664736f6c63430008160033",
  "linkReferences": {},
  "deployedLinkReferences": {}
}