{
  "_format": "hh-sol-artifact-1",
  "contractName": "TreasuryAssetFactory",
  "sourceName": "contracts/layer2/treasury/TreasuryAssetFactory.sol",
  "abi": [
    {
      "inputs": [
        {
          "internalType": "address",
          "name": "admin",
          "type": "address"
        }
      ],
      "stateMutability": "nonpayable",
      "type": "constructor"
    },
    {
      "inputs": [],
      "name": "AccessControlBadConfirmation",
      "type": "error"
    },
    {
      "inputs": [
        {
          "internalType": "address",
          "name": "account",
          "type": "address"
        },
        {
          "internalType": "bytes32",
          "name": "neededRole",
          "type": "bytes32"
        }
      ],
      "name": "AccessControlUnauthorizedAccount",
      "type": "error"
    },
    {
      "inputs": [],
      "name": "EnforcedPause",
      "type": "error"
    },
    {
      "inputs": [],
      "name": "ExpectedPause",
      "type": "error"
    },
    {
      "inputs": [],
      "name": "ReentrancyGuardReentrantCall",
      "type": "error"
    },
    {
      "anonymous": false,
      "inputs": [
        {
          "indexed": true,
          "internalType": "uint256",
          "name": "assetId",
          "type": "uint256"
        },
        {
          "indexed": false,
          "internalType": "enum ITreasuryAsset.AssetStatus",
          "name": "oldStatus",
          "type": "uint8"
        },
        {
          "indexed": false,
          "internalType": "enum ITreasuryAsset.AssetStatus",
          "name": "newStatus",
          "type": "uint8"
        }
      ],
      "name": "AssetStatusUpdated",
      "type": "event"
    },
    {
      "anonymous": false,
      "inputs": [
        {
          "indexed": false,
          "internalType": "address",
          "name": "account",
          "type": "address"
        }
      ],
      "name": "Paused",
      "type": "event"
    },
    {
      "anonymous": false,
      "inputs": [
        {
          "indexed": true,
          "internalType": "bytes32",
          "name": "role",
          "type": "bytes32"
        },
        {
          "indexed": true,
          "internalType": "bytes32",
          "name": "previousAdminRole",
          "type": "bytes32"
        },
        {
          "indexed": true,
          "internalType": "bytes32",
          "name": "newAdminRole",
          "type": "bytes32"
        }
      ],
      "name": "RoleAdminChanged",
      "type": "event"
    },
    {
      "anonymous": false,
      "inputs": [
        {
          "indexed": true,
          "internalType": "bytes32",
          "name": "role",
          "type": "bytes32"
        },
        {
          "indexed": true,
          "internalType": "address",
          "name": "account",
          "type": "address"
        },
        {
          "indexed": true,
          "internalType": "address",
          "name": "sender",
          "type": "address"
        }
      ],
      "name": "RoleGranted",
      "type": "event"
    },
    {
      "anonymous": false,
      "inputs": [
        {
          "indexed": true,
          "internalType": "bytes32",
          "name": "role",
          "type": "bytes32"
        },
        {
          "indexed": true,
          "internalType": "address",
          "name": "account",
          "type": "address"
        },
        {
          "indexed": true,
          "internalType": "address",
          "name": "sender",
          "type": "address"
        }
      ],
      "name": "RoleRevoked",
      "type": "event"
    },
    {
      "anonymous": false,
      "inputs": [
        {
          "indexed": true,
          "internalType": "uint256",
          "name": "assetId",
          "type": "uint256"
        },
        {
          "indexed": true,
          "internalType": "address",
          "name": "holder",
          "type": "address"
        },
        {
          "indexed": false,
          "internalType": "uint256",
          "name": "amount",
          "type": "uint256"
        }
      ],
      "name": "TokensBurned",
      "type": "event"
    },
    {
      "anonymous": false,
      "inputs": [
        {
          "indexed": true,
          "internalType": "uint256",
          "name": "assetId",
          "type": "uint256"
        },
        {
          "indexed": true,
          "internalType": "address",
          "name": "recipient",
          "type": "address"
        },
        {
          "indexed": false,
          "internalType": "uint256",
          "name": "amount",
          "type": "uint256"
        }
      ],
      "name": "TokensMinted",
      "type": "event"
    },
    {
      "anonymous": false,
      "inputs": [
        {
          "indexed": true,
          "internalType": "uint256",
          "name": "assetId",
          "type": "uint256"
        },
        {
          "indexed": false,
          "internalType": "enum ITreasuryAsset.TreasuryType",
          "name": "treasuryType",
          "type": "uint8"
        },
        {
          "indexed": false,
          "internalType": "string",
          "name": "cusip",
          "type": "string"
        },
        {
          "indexed": true,
          "internalType": "address",
          "name": "tokenAddress",
          "type": "address"
        },
        {
          "indexed": false,
          "internalType": "uint256",
          "name": "faceValue",
          "type": "uint256"
        }
      ],
      "name": "TreasuryAssetCreated",
      "type": "event"
    },
    {
      "anonymous": false,
      "inputs": [
        {
          "indexed": false,
          "internalType": "address",
          "name": "account",
          "type": "address"
        }
      ],
      "name": "Unpaused",
      "type": "event"
    },
    {
      "inputs": [],
      "name": "ASSET_MANAGER_ROLE",
      "outputs": [
        {
          "internalType": "bytes32",
          "name": "",
          "type": "bytes32"
        }
      ],
      "stateMutability": "view",
      "type": "function"
    },
    {
      "inputs": [],
      "name": "DEFAULT_ADMIN_ROLE",
      "outputs": [
        {
          "internalType": "bytes32",
          "name": "",
          "type": "bytes32"
        }
      ],
      "stateMutability": "view",
      "type": "function"
    },
    {
      "inputs": [],
      "name": "ISSUER_ROLE",
      "outputs": [
        {
          "internalType": "bytes32",
          "name": "",
          "type": "bytes32"
        }
      ],
      "stateMutability": "view",
      "type": "function"
    },
    {
      "inputs": [
        {
          "internalType": "uint256",
          "name": "assetId",
          "type": "uint256"
        },
        {
          "internalType": "address",
          "name": "holder",
          "type": "address"
        },
        {
          "internalType": "uint256",
          "name": "amount",
          "type": "uint256"
        }
      ],
      "name": "burnTokens",
      "outputs": [],
      "stateMutability": "nonpayable",
      "type": "function"
    },
    {
      "inputs": [
        {
          "internalType": "enum ITreasuryAsset.TreasuryType",
          "name": "treasuryType",
          "type": "uint8"
        },
        {
          "internalType": "string",
          "name": "maturityTerm",
          "type": "string"
        },
        {
          "internalType": "string",
          "name": "cusip",
          "type": "string"
        },
        {
          "internalType": "uint256",
          "name": "issueDate",
          "type": "uint256"
        },
        {
          "internalType": "uint256",
          "name": "maturityDate",
          "type": "uint256"
        },
        {
          "internalType": "uint256",
          "name": "faceValue",
          "type": "uint256"
        },
        {
          "internalType": "uint256",
          "name": "couponRate",
          "type": "uint256"
        }
      ],
      "name": "createTreasuryAsset",
      "outputs": [
        {
          "internalType": "uint256",
          "name": "assetId",
          "type": "uint256"
        },
        {
          "internalType": "address",
          "name": "tokenAddress",
          "type": "address"
        }
      ],
      "stateMutability": "nonpayable",
      "type": "function"
    },
    {
      "inputs": [],
      "name": "getAllAssets",
      "outputs": [
        {
          "internalType": "uint256[]",
          "name": "",
          "type": "uint256[]"
        }
      ],
      "stateMutability": "view",
      "type": "function"
    },
    {
      "inputs": [
        {
          "internalType": "string",
          "name": "cusip",
          "type": "string"
        }
      ],
      "name": "getAssetByCUSIP",
      "outputs": [
        {
          "internalType": "uint256",
          "name": "",
          "type": "uint256"
        }
      ],
      "stateMutability": "view",
      "type": "function"
    },
    {
      "inputs": [
        {
          "internalType": "uint256",
          "name": "assetId",
          "type": "uint256"
        }
      ],
      "name": "getAssetInfo",
      "outputs": [
        {
          "components": [
            {
              "internalType": "uint256",
              "name": "assetId",
              "type": "uint256"
            },
            {
              "internalType": "enum ITreasuryAsset.TreasuryType",
              "name": "treasuryType",
              "type": "uint8"
            },
            {
              "internalType": "string",
              "name": "maturityTerm",
              "type": "string"
            },
            {
              "internalType": "string",
              "name": "cusip",
              "type": "string"
            },
            {
              "internalType": "uint256",
              "name": "issueDate",
              "type": "uint256"
            },
            {
              "internalType": "uint256",
              "name": "maturityDate",
              "type": "uint256"
            },
            {
              "internalType": "uint256",
              "name": "faceValue",
              "type": "uint256"
            },
            {
              "internalType": "uint256",
              "name": "couponRate",
              "type": "uint256"
            },
            {
              "internalType": "uint256",
              "name": "tokensIssued",
              "type": "uint256"
            },
            {
              "internalType": "uint256",
              "name": "tokensOutstanding",
              "type": "uint256"
            },
            {
              "internalType": "address",
              "name": "tokenAddress",
              "type": "address"
            },
            {
              "internalType": "enum ITreasuryAsset.AssetStatus",
              "name": "status",
              "type": "uint8"
            },
            {
              "internalType": "uint256",
              "name": "createdAt",
              "type": "uint256"
            }
          ],
          "internalType": "struct ITreasuryAsset.TreasuryAssetInfo",
          "name": "",
          "type": "tuple"
        }
      ],
      "stateMutability": "view",
      "type": "function"
    },
    {
      "inputs": [
        {
          "internalType": "enum ITreasuryAsset.TreasuryType",
          "name": "treasuryType",
          "type": "uint8"
        }
      ],
      "name": "getAssetsByType",
      "outputs": [
        {
          "internalType": "uint256[]",
          "name": "",
          "type": "uint256[]"
        }
      ],
      "stateMutability": "view",
      "type": "function"
    },
    {
      "inputs": [
        {
          "internalType": "bytes32",
          "name": "role",
          "type": "bytes32"
        }
      ],
      "name": "getRoleAdmin",
      "outputs": [
        {
          "internalType": "bytes32",
          "name": "",
          "type": "bytes32"
        }
      ],
      "stateMutability": "view",
      "type": "function"
    },
    {
      "inputs": [
        {
          "internalType": "uint256",
          "name": "assetId",
          "type": "uint256"
        }
      ],
      "name": "getTokenAddress",
      "outputs": [
        {
          "internalType": "address",
          "name": "",
          "type": "address"
        }
      ],
      "stateMutability": "view",
      "type": "function"
    },
    {
      "inputs": [],
      "name": "getTotalAssets",
      "outputs": [
        {
          "internalType": "uint256",
          "name": "",
          "type": "uint256"
        }
      ],
      "stateMutability": "view",
      "type": "function"
    },
    {
      "inputs": [
        {
          "internalType": "bytes32",
          "name": "role",
          "type": "bytes32"
        },
        {
          "internalType": "address",
          "name": "account",
          "type": "address"
        }
      ],
      "name": "grantRole",
      "outputs": [],
      "stateMutability": "nonpayable",
      "type": "function"
    },
    {
      "inputs": [
        {
          "internalType": "bytes32",
          "name": "role",
          "type": "bytes32"
        },
        {
          "internalType": "address",
          "name": "account",
          "type": "address"
        }
      ],
      "name": "hasRole",
      "outputs": [
        {
          "internalType": "bool",
          "name": "",
          "type": "bool"
        }
      ],
      "stateMutability": "view",
      "type": "function"
    },
    {
      "inputs": [
        {
          "internalType": "uint256",
          "name": "assetId",
          "type": "uint256"
        }
      ],
      "name": "isAssetActive",
      "outputs": [
        {
          "internalType": "bool",
          "name": "",
          "type": "bool"
        }
      ],
      "stateMutability": "view",
      "type": "function"
    },
    {
      "inputs": [
        {
          "internalType": "uint256",
          "name": "assetId",
          "type": "uint256"
        },
        {
          "internalType": "address",
          "name": "recipient",
          "type": "address"
        },
        {
          "internalType": "uint256",
          "name": "amount",
          "type": "uint256"
        }
      ],
      "name": "mintTokens",
      "outputs": [],
      "stateMutability": "nonpayable",
      "type": "function"
    },
    {
      "inputs": [],
      "name": "pause",
      "outputs": [],
      "stateMutability": "nonpayable",
      "type": "function"
    },
    {
      "inputs": [],
      "name": "paused",
      "outputs": [
        {
          "internalType": "bool",
          "name": "",
          "type": "bool"
        }
      ],
      "stateMutability": "view",
      "type": "function"
    },
    {
      "inputs": [
        {
          "internalType": "bytes32",
          "name": "role",
          "type": "bytes32"
        },
        {
          "internalType": "address",
          "name": "callerConfirmation",
          "type": "address"
        }
      ],
      "name": "renounceRole",
      "outputs": [],
      "stateMutability": "nonpayable",
      "type": "function"
    },
    {
      "inputs": [
        {
          "internalType": "bytes32",
          "name": "role",
          "type": "bytes32"
        },
        {
          "internalType": "address",
          "name": "account",
          "type": "address"
        }
      ],
      "name": "revokeRole",
      "outputs": [],
      "stateMutability": "nonpayable",
      "type": "function"
    },
    {
      "inputs": [
        {
          "internalType": "bytes4",
          "name": "interfaceId",
          "type": "bytes4"
        }
      ],
      "name": "supportsInterface",
      "outputs": [
        {
          "internalType": "bool",
          "name": "",
          "type": "bool"
        }
      ],
      "stateMutability": "view",
      "type": "function"
    },
    {
      "inputs": [],
      "name": "unpause",
      "outputs": [],
      "stateMutability": "nonpayable",
      "type": "function"
    },
    {
      "inputs": [
        {
          "internalType": "uint256",
          "name": "assetId",
          "type": "uint256"
        },
        {
          "internalType": "enum ITreasuryAsset.AssetStatus",
          "name": "newStatus",
          "type": "uint8"
        }
      ],
      "name": "updateAssetStatus",
      "outputs": [],
      "stateMutability": "nonpayable",
      "type": "function"
    }
  ],
  "bytecode": "0x60806040523480156200001157600080fd5b5060405162003769380380620037698339810160408190526200003491620001a1565b600180556001600160a01b038116620000835760405162461bcd60e51b815260206004820152600d60248201526c24b73b30b634b21030b236b4b760991b604482015260640160405180910390fd5b62000090600082620000f2565b50620000bd7f114e74f6ea3bd819998f78687bfcb11b140da08e9b7d222fa9c1f1ba1f2aa12282620000f2565b50620000ea7fb1fadd3142ab2ad7f1337ea4d97112bcc8337fc11ce5b20cb04ad038adf9981982620000f2565b5050620001d3565b6000828152602081815260408083206001600160a01b038516845290915281205460ff1662000197576000838152602081815260408083206001600160a01b03861684529091529020805460ff191660011790556200014e3390565b6001600160a01b0316826001600160a01b0316847f2f8788117e7eff1d82e926ec794901d17c78024a50270940304540a733656f0d60405160405180910390a45060016200019b565b5060005b92915050565b600060208284031215620001b457600080fd5b81516001600160a01b0381168114620001cc57600080fd5b9392505050565b61358680620001e36000396000f3fe60806040523480156200001157600080fd5b5060043610620001695760003560e01c80636e07302b11620000d3578063a4b32de81162000086578063a4b32de8146200032a578063c65dc38f1462000352578063d1b2cc2e1462000369578063d547741f1462000380578063d628f4621462000397578063f637d95014620003cc57600080fd5b80636e07302b14620002b857806382aefa2414620002c15780638456cb5914620002e95780638d6819be14620002f357806391d14854146200030a578063a217fddf146200032157600080fd5b806336568abe116200012c57806336568abe14620002185780633f3ca004146200022f5780633f4ba83a14620002465780634554f3cf14620002505780635c975abb146200026757806367ccdf38146200027357600080fd5b806301ffc9a7146200016e57806322e900c2146200019a578063248a9ca314620001b15780632acada4d14620001e65780632f2ff15d14620001ff575b600080fd5b620001856200017f36600462001873565b620003f2565b60405190151581526020015b60405180910390f35b62000185620001ab366004620018a6565b6200042a565b620001d7620001c2366004620018a6565b60009081526020819052604090206001015490565b60405190815260200162000191565b620001f062000464565b604051620001919190620018c0565b620002166200021036600462001923565b620004be565b005b620002166200022936600462001923565b620004ed565b620002166200024036600462001952565b62000528565b6200021662000719565b620002166200026136600462001998565b62000733565b60025460ff1662000185565b6200029f62000284366004620018a6565b6000908152600660205260409020546001600160a01b031690565b6040516001600160a01b03909116815260200162000191565b600354620001d7565b620001d77f114e74f6ea3bd819998f78687bfcb11b140da08e9b7d222fa9c1f1ba1f2aa12281565b620002166200088a565b620002166200030436600462001952565b620008a1565b620001856200031b36600462001923565b62000b17565b620001d7600081565b620001d77fb1fadd3142ab2ad7f1337ea4d97112bcc8337fc11ce5b20cb04ad038adf9981981565b620001d76200036336600462001a76565b62000b40565b620001f06200037a36600462001ab7565b62000b6a565b620002166200039136600462001923565b62000bff565b620003ae620003a836600462001ad7565b62000c28565b604080519283526001600160a01b0390911660208301520162000191565b620003e3620003dd366004620018a6565b620010b0565b60405162000191919062001c13565b60006001600160e01b03198216637965db0b60e01b14806200042457506301ffc9a760e01b6001600160e01b03198316145b92915050565b6000806000838152600460205260409020600a0154600160a01b900460ff1660028111156200045d576200045d62001b7b565b1492915050565b60606007805480602002602001604051908101604052809291908181526020018280548015620004b457602002820191906000526020600020905b8154815260200190600101908083116200049f575b5050505050905090565b600082815260208190526040902060010154620004db8162001314565b620004e7838362001320565b50505050565b6001600160a01b0381163314620005175760405163334bd91960e11b815260040160405180910390fd5b620005238282620013b8565b505050565b7fb1fadd3142ab2ad7f1337ea4d97112bcc8337fc11ce5b20cb04ad038adf99819620005548162001314565b6200055e62001427565b6000848152600460205260408120549003620005975760405162461bcd60e51b81526004016200058e9062001d04565b60405180910390fd5b6001600160a01b038316620005e05760405162461bcd60e51b815260206004820152600e60248201526d24b73b30b634b2103437b63232b960911b60448201526064016200058e565b60008211620006235760405162461bcd60e51b815260206004820152600e60248201526d125b9d985b1a5908185b5bdd5b9d60921b60448201526064016200058e565b600084815260046020819052604091829020600a810154925163079cc67960e41b815290926001600160a01b03169182916379cc6790916200067d9189918991016001600160a01b03929092168252602082015260400190565b600060405180830381600087803b1580156200069857600080fd5b505af1158015620006ad573d6000803e3d6000fd5b5050505083826009016000828254620006c7919062001d43565b90915550506040518481526001600160a01b0386169087907fd9cdec5afc25f7ba2ee747f81cc783a02ebf349091c32d2709b2f81619f75409906020015b60405180910390a35050620004e760018055565b6000620007268162001314565b6200073062001452565b50565b7fb1fadd3142ab2ad7f1337ea4d97112bcc8337fc11ce5b20cb04ad038adf998196200075f8162001314565b60008381526004602052604081205490036200078f5760405162461bcd60e51b81526004016200058e9062001d04565b6000838152600460205260409020600a810154600160a01b900460ff16836002811115620007c157620007c162001b7b565b816002811115620007d657620007d662001b7b565b03620008185760405162461bcd60e51b815260206004820152601060248201526f14dd185d1d5cc81d5b98da185b99d95960821b60448201526064016200058e565b600a8201805485919060ff60a01b1916600160a01b83600281111562000842576200084262001b7b565b0217905550847fb8a9602eb47ff972df4ba4b7290ffc01b7e2bd2fbe481f5e47cd5f800290229282866040516200087b92919062001d59565b60405180910390a25050505050565b6000620008978162001314565b62000730620014a6565b7f114e74f6ea3bd819998f78687bfcb11b140da08e9b7d222fa9c1f1ba1f2aa122620008cd8162001314565b620008d7620014e6565b620008e162001427565b6000848152600460205260408120549003620009115760405162461bcd60e51b81526004016200058e9062001d04565b600080858152600460205260409020600a0154600160a01b900460ff16600281111562000942576200094262001b7b565b14620009845760405162461bcd60e51b815260206004820152601060248201526f4173736574206e6f742061637469766560801b60448201526064016200058e565b6001600160a01b038316620009d05760405162461bcd60e51b8152602060048201526011602482015270125b9d985b1a59081c9958da5c1a595b9d607a1b60448201526064016200058e565b6000821162000a135760405162461bcd60e51b815260206004820152600e60248201526d125b9d985b1a5908185b5bdd5b9d60921b60448201526064016200058e565b600084815260046020819052604091829020600a81015492516340c10f1960e01b815290926001600160a01b03169182916340c10f199162000a6d9189918991016001600160a01b03929092168252602082015260400190565b600060405180830381600087803b15801562000a8857600080fd5b505af115801562000a9d573d6000803e3d6000fd5b505050508382600801600082825462000ab7919062001d83565b925050819055508382600901600082825462000ad4919062001d83565b90915550506040518481526001600160a01b0386169087907f5c8e94c72da12a6d6a1213edafd788896df5fd2d6527a9adeb11f8e5d0be1c4c9060200162000705565b6000918252602082815260408084206001600160a01b0393909316845291905290205460ff1690565b600060058260405162000b54919062001d99565b9081526020016040518091039020549050919050565b60606008600083600281111562000b855762000b8562001b7b565b600281111562000b995762000b9962001b7b565b815260200190815260200160002080548060200260200160405190810160405280929190818152602001828054801562000bf357602002820191906000526020600020905b81548152602001906001019080831162000bde575b50505050509050919050565b60008281526020819052604090206001015462000c1c8162001314565b620004e78383620013b8565b6000807f114e74f6ea3bd819998f78687bfcb11b140da08e9b7d222fa9c1f1ba1f2aa12262000c578162001314565b62000c61620014e6565b62000c6b62001427565b600088511162000cae5760405162461bcd60e51b815260206004820152600d60248201526c0496e76616c696420435553495609c1b60448201526064016200058e565b60058860405162000cc0919062001d99565b90815260200160405180910390205460001462000d175760405162461bcd60e51b8152602060048201526014602482015273435553495020616c72656164792065786973747360601b60448201526064016200058e565b86861162000d605760405162461bcd60e51b8152602060048201526015602482015274496e76616c6964206d61747572697479206461746560581b60448201526064016200058e565b42861162000da45760405162461bcd60e51b815260206004820152601060248201526f13585d1d5c9a5d1e481a5b881c185cdd60821b60448201526064016200058e565b6000851162000deb5760405162461bcd60e51b8152602060048201526012602482015271496e76616c696420666163652076616c756560701b60448201526064016200058e565b61271084111562000e345760405162461bcd60e51b8152602060048201526012602482015271436f75706f6e2072617465203e203130302560701b60448201526064016200058e565b62000e4c8a8a62000e468a8a62001d43565b6200150d565b6003805490600062000e5e8362001db7565b9190505550600354925060008062000e788c8c8c62001688565b9150915060008282878d8f8d8c3060405162000e9490620017df565b62000ea798979695949392919062001dd3565b604051809103906000f08015801562000ec4573d6000803e3d6000fd5b506000878152600460205260409020878155600180820180549398509195508f945090925060ff199091169083600281111562000f055762000f0562001b7b565b02179055506002810162000f1a8b8262001eeb565b506003810162000f2b8a8262001eeb565b5060048101889055600580820188905560068201879055600782018690556000600883018190556009830155600a820180546001600160a81b0319166001600160a01b03861617905542600b83015560405185919062000f8d908c9062001d99565b9081526040805160209281900383019020929092556000868152600690915290812080546001600160a01b0319166001600160a01b038616179055600780546001810182559082527fa66cc928b5edb82af9bd49922954155ab7b0942694bea4ce44661d9a8736c688018590556008908c600281111562001012576200101262001b7b565b600281111562001026576200102662001b7b565b8152602080820192909252604090810160009081208054600181018255908252929020909101859055516001600160a01b0384169085907fc4899ff689c4b51fc7f1a3a73a991ee24398427b2a52b349f9619277fda9b5609062001090908f908e908c9062001fb8565b60405180910390a350620010a360018055565b5097509795505050505050565b620010ba620017ed565b6000828152600460205260408120549003620010ea5760405162461bcd60e51b81526004016200058e9062001d04565b60008281526004602090815260409182902082516101a08101909352805483526001810154909183019060ff1660028111156200112b576200112b62001b7b565b60028111156200113f576200113f62001b7b565b8152602001600282018054620011559062001e5b565b80601f0160208091040260200160405190810160405280929190818152602001828054620011839062001e5b565b8015620011d45780601f10620011a857610100808354040283529160200191620011d4565b820191906000526020600020905b815481529060010190602001808311620011b657829003601f168201915b50505050508152602001600382018054620011ef9062001e5b565b80601f01602080910402602001604051908101604052809291908181526020018280546200121d9062001e5b565b80156200126e5780601f1062001242576101008083540402835291602001916200126e565b820191906000526020600020905b8154815290600101906020018083116200125057829003601f168201915b505050918352505060048201546020820152600582015460408201526006820154606082015260078201546080820152600882015460a0820152600982015460c0820152600a8201546001600160a01b03811660e083015261010090910190600160a01b900460ff166002811115620012eb57620012eb62001b7b565b6002811115620012ff57620012ff62001b7b565b8152602001600b820154815250509050919050565b6200073081336200177a565b60006200132e838362000b17565b620013af576000838152602081815260408083206001600160a01b03861684529091529020805460ff19166001179055620013663390565b6001600160a01b0316826001600160a01b0316847f2f8788117e7eff1d82e926ec794901d17c78024a50270940304540a733656f0d60405160405180910390a450600162000424565b50600062000424565b6000620013c6838362000b17565b15620013af576000838152602081815260408083206001600160a01b0386168085529252808320805460ff1916905551339286917ff6391f5c32d9c69d2a47ea670b442974b53935d1edc7fd64eb21e047a839171b9190a450600162000424565b6002600154036200144b57604051633ee5aeb560e01b815260040160405180910390fd5b6002600155565b6200145c620017bb565b6002805460ff191690557f5db9ee0a495bf2e6ff9c91a7834c1ba4fdd244a5e8aa4e537bd38aeae4b073aa335b6040516001600160a01b03909116815260200160405180910390a1565b620014b0620014e6565b6002805460ff191660011790557f62e78cea01bee320cd4e420270b5ea74000d11b0c9f74754ebdbfc544b05a258620014893390565b60025460ff16156200150b5760405163d93c066560e01b815260040160405180910390fd5b565b600083600281111562001524576200152462001b7b565b0362001580576301e13380811115620005235760405162461bcd60e51b815260206004820152601860248201527f542d42696c6c206d61747572697479203e20312079656172000000000000000060448201526064016200058e565b600183600281111562001597576200159762001b7b565b0362001604576303c267008110158015620015b657506312cc03008111155b620005235760405162461bcd60e51b815260206004820152601760248201527f542d4e6f7465206d6174757269747920696e76616c696400000000000000000060448201526064016200058e565b60028360028111156200161b576200161b62001b7b565b036200052357632598060081101580156200163a575063386409008111155b620005235760405162461bcd60e51b815260206004820152601760248201527f542d426f6e64206d6174757269747920696e76616c696400000000000000000060448201526064016200058e565b606080806000866002811115620016a357620016a362001b7b565b03620016cb5750604080518082019091526004815263109a5b1b60e21b602082015262001727565b6001866002811115620016e257620016e262001b7b565b036200170a57506040805180820190915260048152634e6f746560e01b602082015262001727565b50604080518082019091526004815263109bdb9960e21b60208201525b84816040516020016200173c92919062001fee565b60405160208183030381529060405292508460405160200162001760919062002046565b604051602081830303815290604052915050935093915050565b62001786828262000b17565b620017b75760405163e2517d3f60e01b81526001600160a01b0382166004820152602481018390526044016200058e565b5050565b60025460ff166200150b57604051638dfc202b60e01b815260040160405180910390fd5b6114dc806200207583390190565b604080516101a08101909152600080825260208201908152602001606081526020016060815260200160008152602001600081526020016000815260200160008152602001600081526020016000815260200160006001600160a01b031681526020016000600281111562001866576200186662001b7b565b8152602001600081525090565b6000602082840312156200188657600080fd5b81356001600160e01b0319811681146200189f57600080fd5b9392505050565b600060208284031215620018b957600080fd5b5035919050565b6020808252825182820181905260009190848201906040850190845b81811015620018fa57835183529284019291840191600101620018dc565b50909695505050505050565b80356001600160a01b03811681146200191e57600080fd5b919050565b600080604083850312156200193757600080fd5b82359150620019496020840162001906565b90509250929050565b6000806000606084860312156200196857600080fd5b833592506200197a6020850162001906565b9150604084013590509250925092565b600381106200073057600080fd5b60008060408385031215620019ac57600080fd5b823591506020830135620019c0816200198a565b809150509250929050565b634e487b7160e01b600052604160045260246000fd5b600082601f830112620019f357600080fd5b813567ffffffffffffffff8082111562001a115762001a11620019cb565b604051601f8301601f19908116603f0116810190828211818310171562001a3c5762001a3c620019cb565b8160405283815286602085880101111562001a5657600080fd5b836020870160208301376000602085830101528094505050505092915050565b60006020828403121562001a8957600080fd5b813567ffffffffffffffff81111562001aa157600080fd5b62001aaf84828501620019e1565b949350505050565b60006020828403121562001aca57600080fd5b81356200189f816200198a565b600080600080600080600060e0888a03121562001af357600080fd5b873562001b00816200198a565b9650602088013567ffffffffffffffff8082111562001b1e57600080fd5b62001b2c8b838c01620019e1565b975060408a013591508082111562001b4357600080fd5b5062001b528a828b01620019e1565b979a96995096976060810135975060808101359660a0820135965060c090910135945092505050565b634e487b7160e01b600052602160045260246000fd5b600381106200073057634e487b7160e01b600052602160045260246000fd5b62001bbb8162001b91565b9052565b60005b8381101562001bdc57818101518382015260200162001bc2565b50506000910152565b6000815180845262001bff81602086016020860162001bbf565b601f01601f19169290920160200192915050565b60208152815160208201526000602083015162001c34604084018262001bb0565b5060408301516101a080606085015262001c536101c085018362001be5565b91506060850151601f1985840301608086015262001c72838262001be5565b925050608085015160a085015260a085015160c085015260c085015160e085015260e085015161010081818701528087015191505061012081818701528087015191505061014081818701528087015191505061016062001cdd818701836001600160a01b03169052565b860151905061018062001cf38682018362001bb0565b959095015193019290925250919050565b6020808252600f908201526e105cdcd95d081b9bdd08199bdd5b99608a1b604082015260600190565b634e487b7160e01b600052601160045260246000fd5b8181038181111562000424576200042462001d2d565b6040810162001d688462001b91565b83825262001d768362001b91565b8260208301529392505050565b8082018082111562000424576200042462001d2d565b6000825162001dad81846020870162001bbf565b9190910192915050565b60006001820162001dcc5762001dcc62001d2d565b5060010190565b600061010080835262001de98184018c62001be5565b9050828103602084015262001dff818b62001be5565b9050886040840152828103606084015262001e1b818962001be5565b9050828103608084015262001e31818862001be5565b60a0840196909652505060c08101929092526001600160a01b031660e09091015295945050505050565b600181811c9082168062001e7057607f821691505b60208210810362001e9157634e487b7160e01b600052602260045260246000fd5b50919050565b601f82111562000523576000816000526020600020601f850160051c8101602086101562001ec25750805b601f850160051c820191505b8181101562001ee35782815560010162001ece565b505050505050565b815167ffffffffffffffff81111562001f085762001f08620019cb565b62001f208162001f19845462001e5b565b8462001e97565b602080601f83116001811462001f58576000841562001f3f5750858301515b600019600386901b1c1916600185901b17855562001ee3565b600085815260208120601f198616915b8281101562001f895788860151825594840194600190910190840162001f68565b508582101562001fa85787850151600019600388901b60f8161c191681555b5050505050600190811b01905550565b62001fc38462001b91565b83815260606020820152600062001fde606083018562001be5565b9050826040830152949350505050565b6b02aa9902a3932b0b9bab93c960a51b8152600083516200201781600c85016020880162001bbf565b600160fd1b600c9184019182015283516200203a81600d84016020880162001bbf565b01600d01949350505050565b635553542d60e01b8152600082516200206781600485016020870162001bbf565b919091016004019291505056fe60a06040523480156200001157600080fd5b50604051620014dc380380620014dc8339810160408190526200003491620002de565b8787600362000044838262000458565b50600462000053828262000458565b5050506001600160a01b038116620000a35760405162461bcd60e51b815260206004820152600f60248201526e496e76616c696420666163746f727960881b604482015260640160405180910390fd5b60808690526006620000b6868262000458565b506007620000c5858262000458565b5060088390556009829055620000dd60008262000146565b506200010a7f9f2df0fed2c77648de5860a4cc508cd0818c85b8b8a1ab4ceeef8d981c8956a68262000146565b50620001377f3c11d16cbaffd01df69ce1c404f6340ee057498f5f00246190ea54220576a8488262000146565b50505050505050505062000524565b60008281526005602090815260408083206001600160a01b038516845290915281205460ff16620001ef5760008381526005602090815260408083206001600160a01b03861684529091529020805460ff19166001179055620001a63390565b6001600160a01b0316826001600160a01b0316847f2f8788117e7eff1d82e926ec794901d17c78024a50270940304540a733656f0d60405160405180910390a4506001620001f3565b5060005b92915050565b634e487b7160e01b600052604160045260246000fd5b600082601f8301126200022157600080fd5b81516001600160401b03808211156200023e576200023e620001f9565b604051601f8301601f19908116603f01168101908282118183101715620002695762000269620001f9565b81604052838152602092508660208588010111156200028757600080fd5b600091505b83821015620002ab57858201830151818301840152908201906200028c565b6000602085830101528094505050505092915050565b80516001600160a01b0381168114620002d957600080fd5b919050565b600080600080600080600080610100898b031215620002fc57600080fd5b88516001600160401b03808211156200031457600080fd5b620003228c838d016200020f565b995060208b01519150808211156200033957600080fd5b620003478c838d016200020f565b985060408b0151975060608b01519150808211156200036557600080fd5b620003738c838d016200020f565b965060808b01519150808211156200038a57600080fd5b50620003998b828c016200020f565b94505060a0890151925060c08901519150620003b860e08a01620002c1565b90509295985092959890939650565b600181811c90821680620003dc57607f821691505b602082108103620003fd57634e487b7160e01b600052602260045260246000fd5b50919050565b601f82111562000453576000816000526020600020601f850160051c810160208610156200042e5750805b601f850160051c820191505b818110156200044f578281556001016200043a565b5050505b505050565b81516001600160401b03811115620004745762000474620001f9565b6200048c81620004858454620003c7565b8462000403565b602080601f831160018114620004c45760008415620004ab5750858301515b600019600386901b1c1916600185901b1785556200044f565b600085815260208120601f198616915b82811015620004f557888601518255948401946001909101908401620004d4565b5085821015620005145787850151600019600388901b60f8161c191681555b5050505050600190811b01905550565b608051610f9562000547600039600081816102f2015261067b0152610f956000f3fe608060405234801561001057600080fd5b50600436106101c45760003560e01c80635e3109e7116100f9578063a9059cbb11610097578063d547741f11610071578063d547741f146103db578063d59624b4146103ee578063dd62ed3e146103f7578063ebb200101461043057600080fd5b8063a9059cbb14610398578063c0bcb26f146103ab578063d5391393146103b457600080fd5b806391d14854116100d357806391d148541461036a57806395d89b411461037d578063a109329514610385578063a217fddf1461039057600080fd5b80635e3109e71461031457806370a082311461032e57806379cc67901461035757600080fd5b80632f2ff15d116101665780633a162f32116101405780633a162f32146102bf57806340c10f19146102c757806342966c68146102da57806344de240a146102ed57600080fd5b80632f2ff15d14610288578063313ce5671461029d57806336568abe146102ac57600080fd5b806318160ddd116101a257806318160ddd1461021957806323b872dd1461022b578063248a9ca31461023e578063282c51f31461026157600080fd5b806301ffc9a7146101c957806306fdde03146101f1578063095ea7b314610206575b600080fd5b6101dc6101d7366004610d24565b610438565b60405190151581526020015b60405180910390f35b6101f961046f565b6040516101e89190610d9b565b6101dc610214366004610dca565b610501565b6002545b6040519081526020016101e8565b6101dc610239366004610df4565b610519565b61021d61024c366004610e30565b60009081526005602052604090206001015490565b61021d7f3c11d16cbaffd01df69ce1c404f6340ee057498f5f00246190ea54220576a84881565b61029b610296366004610e49565b61053d565b005b604051601281526020016101e8565b61029b6102ba366004610e49565b610568565b6101f96105a0565b61029b6102d5366004610dca565b61062e565b61029b6102e8366004610e30565b610662565b61021d7f000000000000000000000000000000000000000000000000000000000000000081565b61031c61066f565b6040516101e896959493929190610e75565b61021d61033c366004610ebf565b6001600160a01b031660009081526020819052604090205490565b61029b610365366004610dca565b6107d9565b6101dc610378366004610e49565b61080d565b6101f9610838565b6008544210156101dc565b61021d600081565b6101dc6103a6366004610dca565b610847565b61021d60095481565b61021d7f9f2df0fed2c77648de5860a4cc508cd0818c85b8b8a1ab4ceeef8d981c8956a681565b61029b6103e9366004610e49565b610855565b61021d60085481565b61021d610405366004610eda565b6001600160a01b03918216600090815260016020908152604080832093909416825291909152205490565b6101f961087a565b60006001600160e01b03198216637965db0b60e01b148061046957506301ffc9a760e01b6001600160e01b03198316145b92915050565b60606003805461047e90610f04565b80601f01602080910402602001604051908101604052809291908181526020018280546104aa90610f04565b80156104f75780601f106104cc576101008083540402835291602001916104f7565b820191906000526020600020905b8154815290600101906020018083116104da57829003601f168201915b5050505050905090565b60003361050f818585610887565b5060019392505050565b600033610527858285610894565b610532858585610912565b506001949350505050565b60008281526005602052604090206001015461055881610971565b610562838361097b565b50505050565b6001600160a01b03811633146105915760405163334bd91960e11b815260040160405180910390fd5b61059b8282610a0f565b505050565b600780546105ad90610f04565b80601f01602080910402602001604051908101604052809291908181526020018280546105d990610f04565b80156106265780601f106105fb57610100808354040283529160200191610626565b820191906000526020600020905b81548152906001019060200180831161060957829003601f168201915b505050505081565b7f9f2df0fed2c77648de5860a4cc508cd0818c85b8b8a1ab4ceeef8d981c8956a661065881610971565b61059b8383610a7c565b61066c3382610ab6565b50565b600060608060008060007f0000000000000000000000000000000000000000000000000000000000000000600660076008546009546106ad60025490565b8480546106b990610f04565b80601f01602080910402602001604051908101604052809291908181526020018280546106e590610f04565b80156107325780601f1061070757610100808354040283529160200191610732565b820191906000526020600020905b81548152906001019060200180831161071557829003601f168201915b5050505050945083805461074590610f04565b80601f016020809104026020016040519081016040528092919081815260200182805461077190610f04565b80156107be5780601f10610793576101008083540402835291602001916107be565b820191906000526020600020905b8154815290600101906020018083116107a157829003601f168201915b50505050509350955095509550955095509550909192939495565b7f3c11d16cbaffd01df69ce1c404f6340ee057498f5f00246190ea54220576a84861080381610971565b61059b8383610ab6565b60009182526005602090815260408084206001600160a01b0393909316845291905290205460ff1690565b60606004805461047e90610f04565b60003361050f818585610912565b60008281526005602052604090206001015461087081610971565b6105628383610a0f565b600680546105ad90610f04565b61059b8383836001610aec565b6001600160a01b03838116600090815260016020908152604080832093861683529290522054600019811015610562578181101561090357604051637dc7a0d960e11b81526001600160a01b038416600482015260248101829052604481018390526064015b60405180910390fd5b61056284848484036000610aec565b6001600160a01b03831661093c57604051634b637e8f60e11b8152600060048201526024016108fa565b6001600160a01b0382166109665760405163ec442f0560e01b8152600060048201526024016108fa565b61059b838383610bc1565b61066c8133610ceb565b6000610987838361080d565b610a075760008381526005602090815260408083206001600160a01b03861684529091529020805460ff191660011790556109bf3390565b6001600160a01b0316826001600160a01b0316847f2f8788117e7eff1d82e926ec794901d17c78024a50270940304540a733656f0d60405160405180910390a4506001610469565b506000610469565b6000610a1b838361080d565b15610a075760008381526005602090815260408083206001600160a01b0386168085529252808320805460ff1916905551339286917ff6391f5c32d9c69d2a47ea670b442974b53935d1edc7fd64eb21e047a839171b9190a4506001610469565b6001600160a01b038216610aa65760405163ec442f0560e01b8152600060048201526024016108fa565b610ab260008383610bc1565b5050565b6001600160a01b038216610ae057604051634b637e8f60e11b8152600060048201526024016108fa565b610ab282600083610bc1565b6001600160a01b038416610b165760405163e602df0560e01b8152600060048201526024016108fa565b6001600160a01b038316610b4057604051634a1406b160e11b8152600060048201526024016108fa565b6001600160a01b038085166000908152600160209081526040808320938716835292905220829055801561056257826001600160a01b0316846001600160a01b03167f8c5be1e5ebec7d5bd14f71427d1e84f3dd0314c0f7b2291e5b200ac8c7c3b92584604051610bb391815260200190565b60405180910390a350505050565b6001600160a01b038316610bec578060026000828254610be19190610f3e565b90915550610c5e9050565b6001600160a01b03831660009081526020819052604090205481811015610c3f5760405163391434e360e21b81526001600160a01b038516600482015260248101829052604481018390526064016108fa565b6001600160a01b03841660009081526020819052604090209082900390555b6001600160a01b038216610c7a57600280548290039055610c99565b6001600160a01b03821660009081526020819052604090208054820190555b816001600160a01b0316836001600160a01b03167fddf252ad1be2c89b69c2b068fc378daa952ba7f163c4a11628f55a4df523b3ef83604051610cde91815260200190565b60405180910390a3505050565b610cf5828261080d565b610ab25760405163e2517d3f60e01b81526001600160a01b0382166004820152602481018390526044016108fa565b600060208284031215610d3657600080fd5b81356001600160e01b031981168114610d4e57600080fd5b9392505050565b6000815180845260005b81811015610d7b57602081850181015186830182015201610d5f565b506000602082860101526020601f19601f83011685010191505092915050565b602081526000610d4e6020830184610d55565b80356001600160a01b0381168114610dc557600080fd5b919050565b60008060408385031215610ddd57600080fd5b610de683610dae565b946020939093013593505050565b600080600060608486031215610e0957600080fd5b610e1284610dae565b9250610e2060208501610dae565b9150604084013590509250925092565b600060208284031215610e4257600080fd5b5035919050565b60008060408385031215610e5c57600080fd5b82359150610e6c60208401610dae565b90509250929050565b86815260c060208201526000610e8e60c0830188610d55565b8281036040840152610ea08188610d55565b60608401969096525050608081019290925260a0909101529392505050565b600060208284031215610ed157600080fd5b610d4e82610dae565b60008060408385031215610eed57600080fd5b610ef683610dae565b9150610e6c60208401610dae565b600181811c90821680610f1857607f821691505b602082108103610f3857634e487b7160e01b600052602260045260246000fd5b50919050565b8082018082111561046957634e487b7160e01b600052601160045260246000fdfea2646970667358221220e96f92e5518c37271c22347da7f85c600782a08a8a3792c4522c640048a240d764736f6c63430008160033a26469706673582212209cd54abe7018e2fc03eb645de743e0c3ec841d5557cc6060a6284ceda2d0515d64736f6c63430008160033",
  "linkReferences": {},
  "deployedLinkReferences": {}
}