{
  "_format": "hh-sol-artifact-1",
  "contractName": "TreasuryToken",
  "sourceName": "contracts/layer2/treasury/TreasuryToken.sol",
  "abi": [
    {
      "inputs": [
        {
          "internalType": "string",
          "name": "name_",
          "type": "string"
        },
        {
          "internalType": "string",
          "name": "symbol_",
          "type": "string"
        },
        {
          "internalType": "uint256",
          "name": "assetId_",
          "type": "uint256"
        },
        {
          "internalType": "string",
          "name": "cusip_",
          "type": "string"
        },
        {
          "internalType": "string",
          "name": "maturityTerm_",
          "type": "string"
        },
        {
          "internalType": "uint256",
          "name": "maturityDate_",
          "type": "uint256"
        },
        {
          "internalType": "uint256",
          "name": "couponRate_",
          "type": "uint256"
        },
        {
          "internalType": "address",
          "name": "factory",
          "type": "address"
        }
      ],
      "stateMutability": "nonpayable",
      "type": "constructor"
    },
    {
      "inputs": [],
      "name": "AccessControlBadConfirmation",
      "type": "error"
    },
    {
      "inputs": [
        {
          "internalType": "address",
          "name": "account",
          "type": "address"
        },
        {
          "internalType": "bytes32",
          "name": "neededRole",
          "type": "bytes32"
        }
      ],
      "name": "AccessControlUnauthorizedAccount",
      "type": "error"
    },
    {
      "inputs": [
        {
          "internalType": "address",
          "name": "spender",
          "type": "address"
        },
        {
          "internalType": "uint256",
          "name": "allowance",
          "type": "uint256"
        },
        {
          "internalType": "uint256",
          "name": "needed",
          "type": "uint256"
        }
      ],
      "name": "ERC20InsufficientAllowance",
      "type": "error"
    },
    {
      "inputs": [
        {
          "internalType": "address",
          "name": "sender",
          "type": "address"
        },
        {
          "internalType": "uint256",
          "name": "balance",
          "type": "uint256"
        },
        {
          "internalType": "uint256",
          "name": "needed",
          "type": "uint256"
        }
      ],
      "name": "ERC20InsufficientBalance",
      "type": "error"
    },
    {
      "inputs": [
        {
          "internalType": "address",
          "name": "approver",
          "type": "address"
        }
      ],
      "name": "ERC20InvalidApprover",
      "type": "error"
    },
    {
      "inputs": [
        {
          "internalType": "address",
          "name": "receiver",
          "type": "address"
        }
      ],
      "name": "ERC20InvalidReceiver",
      "type": "error"
    },
    {
      "inputs": [
        {
          "internalType": "address",
          "name": "sender",
          "type": "address"
        }
      ],
      "name": "ERC20InvalidSender",
      "type": "error"
    },
    {
      "inputs": [
        {
          "internalType": "address",
          "name": "spender",
          "type": "address"
        }
      ],
      "name": "ERC20InvalidSpender",
      "type": "error"
    },
    {
      "anonymous": false,
      "inputs": [
        {
          "indexed": true,
          "internalType": "address",
          "name": "owner",
          "type": "address"
        },
        {
          "indexed": true,
          "internalType": "address",
          "name": "spender",
          "type": "address"
        },
        {
          "indexed": false,
          "internalType": "uint256",
          "name": "value",
          "type": "uint256"
        }
      ],
      "name": "Approval",
      "type": "event"
    },
    {
      "anonymous": false,
      "inputs": [
        {
          "indexed": true,
          "internalType": "bytes32",
          "name": "role",
          "type": "bytes32"
        },
        {
          "indexed": true,
          "internalType": "bytes32",
          "name": "previousAdminRole",
          "type": "bytes32"
        },
        {
          "indexed": true,
          "internalType": "bytes32",
          "name": "newAdminRole",
          "type": "bytes32"
        }
      ],
      "name": "RoleAdminChanged",
      "type": "event"
    },
    {
      "anonymous": false,
      "inputs": [
        {
          "indexed": true,
          "internalType": "bytes32",
          "name": "role",
          "type": "bytes32"
        },
        {
          "indexed": true,
          "internalType": "address",
          "name": "account",
          "type": "address"
        },
        {
          "indexed": true,
          "internalType": "address",
          "name": "sender",
          "type": "address"
        }
      ],
      "name": "RoleGranted",
      "type": "event"
    },
    {
      "anonymous": false,
      "inputs": [
        {
          "indexed": true,
          "internalType": "bytes32",
          "name": "role",
          "type": "bytes32"
        },
        {
          "indexed": true,
          "internalType": "address",
          "name": "account",
          "type": "address"
        },
        {
          "indexed": true,
          "internalType": "address",
          "name": "sender",
          "type": "address"
        }
      ],
      "name": "RoleRevoked",
      "type": "event"
    },
    {
      "anonymous": false,
      "inputs": [
        {
          "indexed": true,
          "internalType": "address",
          "name": "from",
          "type": "address"
        },
        {
          "indexed": true,
          "internalType": "address",
          "name": "to",
          "type": "address"
        },
        {
          "indexed": false,
          "internalType": "uint256",
          "name": "value",
          "type": "uint256"
        }
      ],
      "name": "Transfer",
      "type": "event"
    },
    {
      "inputs": [],
      "name": "BURNER_ROLE",
      "outputs": [
        {
          "internalType": "bytes32",
          "name": "",
          "type": "bytes32"
        }
      ],
      "stateMutability": "view",
      "type": "function"
    },
    {
      "inputs": [],
      "name": "DEFAULT_ADMIN_ROLE",
      "outputs": [
        {
          "internalType": "bytes32",
          "name": "",
          "type": "bytes32"
        }
      ],
      "stateMutability": "view",
      "type": "function"
    },
    {
      "inputs": [],
      "name": "MINTER_ROLE",
      "outputs": [
        {
          "internalType": "bytes32",
          "name": "",
          "type": "bytes32"
        }
      ],
      "stateMutability": "view",
      "type": "function"
    },
    {
      "inputs": [
        {
          "internalType": "address",
          "name": "owner",
          "type": "address"
        },
        {
          "internalType": "address",
          "name": "spender",
          "type": "address"
        }
      ],
      "name": "allowance",
      "outputs": [
        {
          "internalType": "uint256",
          "name": "",
          "type": "uint256"
        }
      ],
      "stateMutability": "view",
      "type": "function"
    },
    {
      "inputs": [
        {
          "internalType": "address",
          "name": "spender",
          "type": "address"
        },
        {
          "internalType": "uint256",
          "name": "value",
          "type": "uint256"
        }
      ],
      "name": "approve",
      "outputs": [
        {
          "internalType": "bool",
          "name": "",
          "type": "bool"
        }
      ],
      "stateMutability": "nonpayable",
      "type": "function"
    },
    {
      "inputs": [],
      "name": "assetId",
      "outputs": [
        {
          "internalType": "uint256",
          "name": "",
          "type": "uint256"
        }
      ],
      "stateMutability": "view",
      "type": "function"
    },
    {
      "inputs": [
        {
          "internalType": "address",
          "name": "account",
          "type": "address"
        }
      ],
      "name": "balanceOf",
      "outputs": [
        {
          "internalType": "uint256",
          "name": "",
          "type": "uint256"
        }
      ],
      "stateMutability": "view",
      "type": "function"
    },
    {
      "inputs": [
        {
          "internalType": "uint256",
          "name": "value",
          "type": "uint256"
        }
      ],
      "name": "burn",
      "outputs": [],
      "stateMutability": "nonpayable",
      "type": "function"
    },
    {
      "inputs": [
        {
          "internalType": "address",
          "name": "from",
          "type": "address"
        },
        {
          "internalType": "uint256",
          "name": "amount",
          "type": "uint256"
        }
      ],
      "name": "burnFrom",
      "outputs": [],
      "stateMutability": "nonpayable",
      "type": "function"
    },
    {
      "inputs": [],
      "name": "couponRate",
      "outputs": [
        {
          "internalType": "uint256",
          "name": "",
          "type": "uint256"
        }
      ],
      "stateMutability": "view",
      "type": "function"
    },
    {
      "inputs": [],
      "name": "cusip",
      "outputs": [
        {
          "internalType": "string",
          "name": "",
          "type": "string"
        }
      ],
      "stateMutability": "view",
      "type": "function"
    },
    {
      "inputs": [],
      "name": "decimals",
      "outputs": [
        {
          "internalType": "uint8",
          "name": "",
          "type": "uint8"
        }
      ],
      "stateMutability": "view",
      "type": "function"
    },
    {
      "inputs": [],
      "name": "getAssetInfo",
      "outputs": [
        {
          "internalType": "uint256",
          "name": "id",
          "type": "uint256"
        },
        {
          "internalType": "string",
          "name": "cusipId",
          "type": "string"
        },
        {
          "internalType": "string",
          "name": "term",
          "type": "string"
        },
        {
          "internalType": "uint256",
          "name": "maturity",
          "type": "uint256"
        },
        {
          "internalType": "uint256",
          "name": "coupon",
          "type": "uint256"
        },
        {
          "internalType": "uint256",
          "name": "supply",
          "type": "uint256"
        }
      ],
      "stateMutability": "view",
      "type": "function"
    },
    {
      "inputs": [
        {
          "internalType": "bytes32",
          "name": "role",
          "type": "bytes32"
        }
      ],
      "name": "getRoleAdmin",
      "outputs": [
        {
          "internalType": "bytes32",
          "name": "",
          "type": "bytes32"
        }
      ],
      "stateMutability": "view",
      "type": "function"
    },
    {
      "inputs": [
        {
          "internalType": "bytes32",
          "name": "role",
          "type": "bytes32"
        },
        {
          "internalType": "address",
          "name": "account",
          "type": "address"
        }
      ],
      "name": "grantRole",
      "outputs": [],
      "stateMutability": "nonpayable",
      "type": "function"
    },
    {
      "inputs": [],
      "name": "hasMatured",
      "outputs": [
        {
          "internalType": "bool",
          "name": "",
          "type": "bool"
        }
      ],
      "stateMutability": "view",
      "type": "function"
    },
    {
      "inputs": [
        {
          "internalType": "bytes32",
          "name": "role",
          "type": "bytes32"
        },
        {
          "internalType": "address",
          "name": "account",
          "type": "address"
        }
      ],
      "name": "hasRole",
      "outputs": [
        {
          "internalType": "bool",
          "name": "",
          "type": "bool"
        }
      ],
      "stateMutability": "view",
      "type": "function"
    },
    {
      "inputs": [],
      "name": "maturityDate",
      "outputs": [
        {
          "internalType": "uint256",
          "name": "",
          "type": "uint256"
        }
      ],
      "stateMutability": "view",
      "type": "function"
    },
    {
      "inputs": [],
      "name": "maturityTerm",
      "outputs": [
        {
          "internalType": "string",
          "name": "",
          "type": "string"
        }
      ],
      "stateMutability": "view",
      "type": "function"
    },
    {
      "inputs": [
        {
          "internalType": "address",
          "name": "to",
          "type": "address"
        },
        {
          "internalType": "uint256",
          "name": "amount",
          "type": "uint256"
        }
      ],
      "name": "mint",
      "outputs": [],
      "stateMutability": "nonpayable",
      "type": "function"
    },
    {
      "inputs": [],
      "name": "name",
      "outputs": [
        {
          "internalType": "string",
          "name": "",
          "type": "string"
        }
      ],
      "stateMutability": "view",
      "type": "function"
    },
    {
      "inputs": [
        {
          "internalType": "bytes32",
          "name": "role",
          "type": "bytes32"
        },
        {
          "internalType": "address",
          "name": "callerConfirmation",
          "type": "address"
        }
      ],
      "name": "renounceRole",
      "outputs": [],
      "stateMutability": "nonpayable",
      "type": "function"
    },
    {
      "inputs": [
        {
          "internalType": "bytes32",
          "name": "role",
          "type": "bytes32"
        },
        {
          "internalType": "address",
          "name": "account",
          "type": "address"
        }
      ],
      "name": "revokeRole",
      "outputs": [],
      "stateMutability": "nonpayable",
      "type": "function"
    },
    {
      "inputs": [
        {
          "internalType": "bytes4",
          "name": "interfaceId",
          "type": "bytes4"
        }
      ],
      "name": "supportsInterface",
      "outputs": [
        {
          "internalType": "bool",
          "name": "",
          "type": "bool"
        }
      ],
      "stateMutability": "view",
      "type": "function"
    },
    {
      "inputs": [],
      "name": "symbol",
      "outputs": [
        {
          "internalType": "string",
          "name": "",
          "type": "string"
        }
      ],
      "stateMutability": "view",
      "type": "function"
    },
    {
      "inputs": [],
      "name": "totalSupply",
      "outputs": [
        {
          "internalType": "uint256",
          "name": "",
          "type": "uint256"
        }
      ],
      "stateMutability": "view",
      "type": "function"
    },
    {
      "inputs": [
        {
          "internalType": "address",
          "name": "to",
          "type": "address"
        },
        {
          "internalType": "uint256",
          "name": "value",
          "type": "uint256"
        }
      ],
      "name": "transfer",
      "outputs": [
        {
          "internalType": "bool",
          "name": "",
          "type": "bool"
        }
      ],
      "stateMutability": "nonpayable",
      "type": "function"
    },
    {
      "inputs": [
        {
          "internalType": "address",
          "name": "from",
          "type": "address"
        },
        {
          "internalType": "address",
          "name": "to",
          "type": "address"
        },
        {
          "internalType": "uint256",
          "name": "value",
          "type": "uint256"
        }
      ],
      "name": "transferFrom",
      "outputs": [
        {
          "internalType": "bool",
          "name": "",
          "type": "bool"
        }
      ],
      "stateMutability": "nonpayable",
      "type": "function"
    }
  ],
  "bytecode": "0x60a06040523480156200001157600080fd5b50604051620014dc380380620014dc8339810160408190526200003491620002de565b8787600362000044838262000458565b50600462000053828262000458565b5050506001600160a01b038116620000a35760405162461bcd60e51b815260206004820152600f60248201526e496e76616c696420666163746f727960881b604482015260640160405180910390fd5b60808690526006620000b6868262000458565b506007620000c5858262000458565b5060088390556009829055620000dd60008262000146565b506200010a7f9f2df0fed2c77648de5860a4cc508cd0818c85b8b8a1ab4ceeef8d981c8956a68262000146565b50620001377f3c11d16cbaffd01df69ce1c404f6340ee057498f5f00246190ea54220576a8488262000146565b50505050505050505062000524565b60008281526005602090815260408083206001600160a01b038516845290915281205460ff16620001ef5760008381526005602090815260408083206001600160a01b03861684529091529020805460ff19166001179055620001a63390565b6001600160a01b0316826001600160a01b0316847f2f8788117e7eff1d82e926ec794901d17c78024a50270940304540a733656f0d60405160405180910390a4506001620001f3565b5060005b92915050565b634e487b7160e01b600052604160045260246000fd5b600082601f8301126200022157600080fd5b81516001600160401b03808211156200023e576200023e620001f9565b604051601f8301601f19908116603f01168101908282118183101715620002695762000269620001f9565b81604052838152602092508660208588010111156200028757600080fd5b600091505b83821015620002ab57858201830151818301840152908201906200028c565b6000602085830101528094505050505092915050565b80516001600160a01b0381168114620002d957600080fd5b919050565b600080600080600080600080610100898b031215620002fc57600080fd5b88516001600160401b03808211156200031457600080fd5b620003228c838d016200020f565b995060208b01519150808211156200033957600080fd5b620003478c838d016200020f565b985060408b0151975060608b01519150808211156200036557600080fd5b620003738c838d016200020f565b965060808b01519150808211156200038a57600080fd5b50620003998b828c016200020f565b94505060a0890151925060c08901519150620003b860e08a01620002c1565b90509295985092959890939650565b600181811c90821680620003dc57607f821691505b602082108103620003fd57634e487b7160e01b600052602260045260246000fd5b50919050565b601f82111562000453576000816000526020600020601f850160051c810160208610156200042e5750805b601f850160051c820191505b818110156200044f578281556001016200043a565b5050505b505050565b81516001600160401b03811115620004745762000474620001f9565b6200048c81620004858454620003c7565b8462000403565b602080601f831160018114620004c45760008415620004ab5750858301515b600019600386901b1c1916600185901b1785556200044f565b600085815260208120601f198616915b82811015620004f557888601518255948401946001909101908401620004d4565b5085821015620005145787850151600019600388901b60f8161c191681555b5050505050600190811b01905550565b608051610f9562000547600039600081816102f2015261067b0152610f956000f3fe608060405234801561001057600080fd5b50600436106101c45760003560e01c80635e3109e7116100f9578063a9059cbb11610097578063d547741f11610071578063d547741f146103db578063d59624b4146103ee578063dd62ed3e146103f7578063ebb200101461043057600080fd5b8063a9059cbb14610398578063c0bcb26f146103ab578063d5391393146103b457600080fd5b806391d14854116100d357806391d148541461036a57806395d89b411461037d578063a109329514610385578063a217fddf1461039057600080fd5b80635e3109e71461031457806370a082311461032e57806379cc67901461035757600080fd5b80632f2ff15d116101665780633a162f32116101405780633a162f32146102bf57806340c10f19146102c757806342966c68146102da57806344de240a146102ed57600080fd5b80632f2ff15d14610288578063313ce5671461029d57806336568abe146102ac57600080fd5b806318160ddd116101a257806318160ddd1461021957806323b872dd1461022b578063248a9ca31461023e578063282c51f31461026157600080fd5b806301ffc9a7146101c957806306fdde03146101f1578063095ea7b314610206575b600080fd5b6101dc6101d7366004610d24565b610438565b60405190151581526020015b60405180910390f35b6101f961046f565b6040516101e89190610d9b565b6101dc610214366004610dca565b610501565b6002545b6040519081526020016101e8565b6101dc610239366004610df4565b610519565b61021d61024c366004610e30565b60009081526005602052604090206001015490565b61021d7f3c11d16cbaffd01df69ce1c404f6340ee057498f5f00246190ea54220576a84881565b61029b610296366004610e49565b61053d565b005b604051601281526020016101e8565b61029b6102ba366004610e49565b610568565b6101f96105a0565b61029b6102d5366004610dca565b61062e565b61029b6102e8366004610e30565b610662565b61021d7f000000000000000000000000000000000000000000000000000000000000000081565b61031c61066f565b6040516101e896959493929190610e75565b61021d61033c366004610ebf565b6001600160a01b031660009081526020819052604090205490565b61029b610365366004610dca565b6107d9565b6101dc610378366004610e49565b61080d565b6101f9610838565b6008544210156101dc565b61021d600081565b6101dc6103a6366004610dca565b610847565b61021d60095481565b61021d7f9f2df0fed2c77648de5860a4cc508cd0818c85b8b8a1ab4ceeef8d981c8956a681565b61029b6103e9366004610e49565b610855565b61021d60085481565b61021d610405366004610eda565b6001600160a01b03918216600090815260016020908152604080832093909416825291909152205490565b6101f961087a565b60006001600160e01b03198216637965db0b60e01b148061046957506301ffc9a760e01b6001600160e01b03198316145b92915050565b60606003805461047e90610f04565b80601f01602080910402602001604051908101604052809291908181526020018280546104aa90610f04565b80156104f75780601f106104cc576101008083540402835291602001916104f7565b820191906000526020600020905b8154815290600101906020018083116104da57829003601f168201915b5050505050905090565b60003361050f818585610887565b5060019392505050565b600033610527858285610894565b610532858585610912565b506001949350505050565b60008281526005602052604090206001015461055881610971565b610562838361097b565b50505050565b6001600160a01b03811633146105915760405163334bd91960e11b815260040160405180910390fd5b61059b8282610a0f565b505050565b600780546105ad90610f04565b80601f01602080910402602001604051908101604052809291908181526020018280546105d990610f04565b80156106265780601f106105fb57610100808354040283529160200191610626565b820191906000526020600020905b81548152906001019060200180831161060957829003601f168201915b505050505081565b7f9f2df0fed2c77648de5860a4cc508cd0818c85b8b8a1ab4ceeef8d981c8956a661065881610971565b61059b8383610a7c565b61066c3382610ab6565b50565b600060608060008060007f0000000000000000000000000000000000000000000000000000000000000000600660076008546009546106ad60025490565b8480546106b990610f04565b80601f01602080910402602001604051908101604052809291908181526020018280546106e590610f04565b80156107325780601f1061070757610100808354040283529160200191610732565b820191906000526020600020905b81548152906001019060200180831161071557829003601f168201915b5050505050945083805461074590610f04565b80601f016020809104026020016040519081016040528092919081815260200182805461077190610f04565b80156107be5780601f10610793576101008083540402835291602001916107be565b820191906000526020600020905b8154815290600101906020018083116107a157829003601f168201915b50505050509350955095509550955095509550909192939495565b7f3c11d16cbaffd01df69ce1c404f6340ee057498f5f00246190ea54220576a84861080381610971565b61059b8383610ab6565b60009182526005602090815260408084206001600160a01b0393909316845291905290205460ff1690565b60606004805461047e90610f04565b60003361050f818585610912565b60008281526005602052604090206001015461087081610971565b6105628383610a0f565b600680546105ad90610f04565b61059b8383836001610aec565b6001600160a01b03838116600090815260016020908152604080832093861683529290522054600019811015610562578181101561090357604051637dc7a0d960e11b81526001600160a01b038416600482015260248101829052604481018390526064015b60405180910390fd5b61056284848484036000610aec565b6001600160a01b03831661093c57604051634b637e8f60e11b8152600060048201526024016108fa565b6001600160a01b0382166109665760405163ec442f0560e01b8152600060048201526024016108fa565b61059b838383610bc1565b61066c8133610ceb565b6000610987838361080d565b610a075760008381526005602090815260408083206001600160a01b03861684529091529020805460ff191660011790556109bf3390565b6001600160a01b0316826001600160a01b0316847f2f8788117e7eff1d82e926ec794901d17c78024a50270940304540a733656f0d60405160405180910390a4506001610469565b506000610469565b6000610a1b838361080d565b15610a075760008381526005602090815260408083206001600160a01b0386168085529252808320805460ff1916905551339286917ff6391f5c32d9c69d2a47ea670b442974b53935d1edc7fd64eb21e047a839171b9190a4506001610469565b6001600160a01b038216610aa65760405163ec442f0560e01b8152600060048201526024016108fa565b610ab260008383610bc1565b5050565b6001600160a01b038216610ae057604051634b637e8f60e11b8152600060048201526024016108fa565b610ab282600083610bc1565b6001600160a01b038416610b165760405163e602df0560e01b8152600060048201526024016108fa565b6001600160a01b038316610b4057604051634a1406b160e11b8152600060048201526024016108fa565b6001600160a01b038085166000908152600160209081526040808320938716835292905220829055801561056257826001600160a01b0316846001600160a01b03167f8c5be1e5ebec7d5bd14f71427d1e84f3dd0314c0f7b2291e5b200ac8c7c3b92584604051610bb391815260200190565b60405180910390a350505050565b6001600160a01b038316610bec578060026000828254610be19190610f3e565b90915550610c5e9050565b6001600160a01b03831660009081526020819052604090205481811015610c3f5760405163391434e360e21b81526001600160a01b038516600482015260248101829052604481018390526064016108fa565b6001600160a01b03841660009081526020819052604090209082900390555b6001600160a01b038216610c7a57600280548290039055610c99565b6001600160a01b03821660009081526020819052604090208054820190555b816001600160a01b0316836001600160a01b03167fddf252ad1be2c89b69c2b068fc378daa952ba7f163c4a11628f55a4df523b3ef83604051610cde91815260200190565b60405180910390a3505050565b610cf5828261080d565b610ab25760405163e2517d3f60e01b81526001600160a01b0382166004820152602481018390526044016108fa565b600060208284031215610d3657600080fd5b81356001600160e01b031981168114610d4e57600080fd5b9392505050565b6000815180845260005b81811015610d7b57602081850181015186830182015201610d5f565b506000602082860101526020601f19601f83011685010191505092915050565b602081526000610d4e6020830184610d55565b80356001600160a01b0381168114610dc557600080fd5b919050565b60008060408385031215610ddd57600080fd5b610de683610dae565b946020939093013593505050565b600080600060608486031215610e0957600080fd5b610e1284610dae565b9250610e2060208501610dae565b9150604084013590509250925092565b600060208284031215610e4257600080fd5b5035919050565b60008060408385031215610e5c57600080fd5b82359150610e6c60208401610dae565b90509250929050565b86815260c060208201526000610e8e60c0830188610d55565b8281036040840152610ea08188610d55565b60608401969096525050608081019290925260a0909101529392505050565b600060208284031215610ed157600080fd5b610d4e82610dae565b60008060408385031215610eed57600080fd5b610ef683610dae565b9150610e6c60208401610dae565b600181811c90821680610f1857607f821691505b602082108103610f3857634e487b7160e01b600052602260045260246000fd5b50919050565b8082018082111561046957634e487b7160e01b600052601160045260246000fdfea2646970667358221220e96f92e5518c37271c22347da7f85c600782a08a8a3792c4522c640048a240d764736f6c63430008160033",
  "linkReferences": {},
  "deployedLinkReferences": {}
}