{
  "_format": "hh-sol-artifact-1",
  "contractName": "L1Gateway",
  "sourceName": "contracts/layer1/bridges/L1Gateway.sol",
  "abi": [
    {
      "inputs": [
        {
          "internalType": "address",
          "name": "_collateralVault",
          "type": "address"
        },
        {
          "internalType": "address",
          "name": "_loyaltyUSD",
          "type": "address"
        },
        {
          "internalType": "address",
          "name": "_collateralToken",
          "type": "address"
        },
        {
          "internalType": "address",
          "name": "_inbox",
          "type": "address"
        },
        {
          "internalType": "address",
          "name": "_outbox",
          "type": "address"
        }
      ],
      "stateMutability": "nonpayable",
      "type": "constructor"
    },
    {
      "inputs": [
        {
          "internalType": "address",
          "name": "owner",
          "type": "address"
        }
      ],
      "name": "OwnableInvalidOwner",
      "type": "error"
    },
    {
      "inputs": [
        {
          "internalType": "address",
          "name": "account",
          "type": "address"
        }
      ],
      "name": "OwnableUnauthorizedAccount",
      "type": "error"
    },
    {
      "inputs": [],
      "name": "ReentrancyGuardReentrantCall",
      "type": "error"
    },
    {
      "inputs": [
        {
          "internalType": "address",
          "name": "token",
          "type": "address"
        }
      ],
      "name": "SafeERC20FailedOperation",
      "type": "error"
    },
    {
      "anonymous": false,
      "inputs": [
        {
          "indexed": true,
          "internalType": "uint256",
          "name": "depositId",
          "type": "uint256"
        },
        {
          "indexed": true,
          "internalType": "address",
          "name": "user",
          "type": "address"
        },
        {
          "indexed": false,
          "internalType": "uint256",
          "name": "amount",
          "type": "uint256"
        }
      ],
      "name": "DepositFinalized",
      "type": "event"
    },
    {
      "anonymous": false,
      "inputs": [
        {
          "indexed": true,
          "internalType": "uint256",
          "name": "depositId",
          "type": "uint256"
        },
        {
          "indexed": true,
          "internalType": "address",
          "name": "user",
          "type": "address"
        },
        {
          "indexed": false,
          "internalType": "uint256",
          "name": "amount",
          "type": "uint256"
        },
        {
          "indexed": true,
          "internalType": "uint256",
          "name": "ticketId",
          "type": "uint256"
        }
      ],
      "name": "DepositInitiated",
      "type": "event"
    },
    {
      "anonymous": false,
      "inputs": [
        {
          "indexed": false,
          "internalType": "uint256",
          "name": "maxSubmissionCost",
          "type": "uint256"
        },
        {
          "indexed": false,
          "internalType": "uint256",
          "name": "maxGas",
          "type": "uint256"
        },
        {
          "indexed": false,
          "internalType": "uint256",
          "name": "gasPriceBid",
          "type": "uint256"
        }
      ],
      "name": "GasParametersUpdated",
      "type": "event"
    },
    {
      "anonymous": false,
      "inputs": [
        {
          "indexed": true,
          "internalType": "address",
          "name": "oldGateway",
          "type": "address"
        },
        {
          "indexed": true,
          "internalType": "address",
          "name": "newGateway",
          "type": "address"
        }
      ],
      "name": "L2GatewayUpdated",
      "type": "event"
    },
    {
      "anonymous": false,
      "inputs": [
        {
          "indexed": true,
          "internalType": "address",
          "name": "previousOwner",
          "type": "address"
        },
        {
          "indexed": true,
          "internalType": "address",
          "name": "newOwner",
          "type": "address"
        }
      ],
      "name": "OwnershipTransferred",
      "type": "event"
    },
    {
      "anonymous": false,
      "inputs": [
        {
          "indexed": true,
          "internalType": "bytes32",
          "name": "withdrawalId",
          "type": "bytes32"
        },
        {
          "indexed": true,
          "internalType": "address",
          "name": "user",
          "type": "address"
        },
        {
          "indexed": false,
          "internalType": "uint256",
          "name": "amount",
          "type": "uint256"
        }
      ],
      "name": "WithdrawalExecuted",
      "type": "event"
    },
    {
      "anonymous": false,
      "inputs": [
        {
          "indexed": true,
          "internalType": "bytes32",
          "name": "withdrawalId",
          "type": "bytes32"
        },
        {
          "indexed": true,
          "internalType": "address",
          "name": "user",
          "type": "address"
        },
        {
          "indexed": false,
          "internalType": "uint256",
          "name": "amount",
          "type": "uint256"
        }
      ],
      "name": "WithdrawalInitiated",
      "type": "event"
    },
    {
      "inputs": [
        {
          "internalType": "address",
          "name": "user",
          "type": "address"
        },
        {
          "internalType": "uint256",
          "name": "amount",
          "type": "uint256"
        },
        {
          "internalType": "bytes32",
          "name": "l2TxHash",
          "type": "bytes32"
        }
      ],
      "name": "bridgeBurn",
      "outputs": [],
      "stateMutability": "nonpayable",
      "type": "function"
    },
    {
      "inputs": [
        {
          "internalType": "address",
          "name": "user",
          "type": "address"
        },
        {
          "internalType": "uint256",
          "name": "amount",
          "type": "uint256"
        },
        {
          "internalType": "bytes32",
          "name": "l2TxHash",
          "type": "bytes32"
        }
      ],
      "name": "bridgeMint",
      "outputs": [],
      "stateMutability": "nonpayable",
      "type": "function"
    },
    {
      "inputs": [],
      "name": "calculateRequiredEth",
      "outputs": [
        {
          "internalType": "uint256",
          "name": "",
          "type": "uint256"
        }
      ],
      "stateMutability": "view",
      "type": "function"
    },
    {
      "inputs": [],
      "name": "collateralToken",
      "outputs": [
        {
          "internalType": "contract IERC20",
          "name": "",
          "type": "address"
        }
      ],
      "stateMutability": "view",
      "type": "function"
    },
    {
      "inputs": [],
      "name": "collateralVault",
      "outputs": [
        {
          "internalType": "contract CollateralVaultL1",
          "name": "",
          "type": "address"
        }
      ],
      "stateMutability": "view",
      "type": "function"
    },
    {
      "inputs": [],
      "name": "depositNonce",
      "outputs": [
        {
          "internalType": "uint256",
          "name": "",
          "type": "uint256"
        }
      ],
      "stateMutability": "view",
      "type": "function"
    },
    {
      "inputs": [
        {
          "internalType": "uint256",
          "name": "amount",
          "type": "uint256"
        }
      ],
      "name": "depositToL2",
      "outputs": [
        {
          "internalType": "uint256",
          "name": "depositId",
          "type": "uint256"
        },
        {
          "internalType": "uint256",
          "name": "ticketId",
          "type": "uint256"
        }
      ],
      "stateMutability": "payable",
      "type": "function"
    },
    {
      "inputs": [
        {
          "internalType": "uint256",
          "name": "",
          "type": "uint256"
        }
      ],
      "name": "deposits",
      "outputs": [
        {
          "internalType": "address",
          "name": "user",
          "type": "address"
        },
        {
          "internalType": "uint256",
          "name": "amount",
          "type": "uint256"
        },
        {
          "internalType": "uint256",
          "name": "timestamp",
          "type": "uint256"
        },
        {
          "internalType": "bytes32",
          "name": "l2TxHash",
          "type": "bytes32"
        },
        {
          "internalType": "bool",
          "name": "processed",
          "type": "bool"
        }
      ],
      "stateMutability": "view",
      "type": "function"
    },
    {
      "inputs": [
        {
          "internalType": "bytes32",
          "name": "withdrawalId",
          "type": "bytes32"
        },
        {
          "internalType": "address",
          "name": "user",
          "type": "address"
        },
        {
          "internalType": "uint256",
          "name": "amount",
          "type": "uint256"
        }
      ],
      "name": "finalizeWithdrawal",
      "outputs": [],
      "stateMutability": "nonpayable",
      "type": "function"
    },
    {
      "inputs": [],
      "name": "gasPriceBid",
      "outputs": [
        {
          "internalType": "uint256",
          "name": "",
          "type": "uint256"
        }
      ],
      "stateMutability": "view",
      "type": "function"
    },
    {
      "inputs": [
        {
          "internalType": "uint256",
          "name": "depositId",
          "type": "uint256"
        }
      ],
      "name": "getDeposit",
      "outputs": [
        {
          "internalType": "address",
          "name": "user",
          "type": "address"
        },
        {
          "internalType": "uint256",
          "name": "amount",
          "type": "uint256"
        },
        {
          "internalType": "uint256",
          "name": "timestamp",
          "type": "uint256"
        },
        {
          "internalType": "bytes32",
          "name": "l2TxHash",
          "type": "bytes32"
        },
        {
          "internalType": "bool",
          "name": "processed",
          "type": "bool"
        }
      ],
      "stateMutability": "view",
      "type": "function"
    },
    {
      "inputs": [
        {
          "internalType": "bytes32",
          "name": "withdrawalId",
          "type": "bytes32"
        }
      ],
      "name": "getWithdrawal",
      "outputs": [
        {
          "internalType": "address",
          "name": "user",
          "type": "address"
        },
        {
          "internalType": "uint256",
          "name": "amount",
          "type": "uint256"
        },
        {
          "internalType": "uint256",
          "name": "timestamp",
          "type": "uint256"
        },
        {
          "internalType": "bool",
          "name": "executed",
          "type": "bool"
        }
      ],
      "stateMutability": "view",
      "type": "function"
    },
    {
      "inputs": [],
      "name": "inbox",
      "outputs": [
        {
          "internalType": "contract IInbox",
          "name": "",
          "type": "address"
        }
      ],
      "stateMutability": "view",
      "type": "function"
    },
    {
      "inputs": [],
      "name": "l2Gateway",
      "outputs": [
        {
          "internalType": "address",
          "name": "",
          "type": "address"
        }
      ],
      "stateMutability": "view",
      "type": "function"
    },
    {
      "inputs": [],
      "name": "loyaltyUSD",
      "outputs": [
        {
          "internalType": "contract LoyaltyUSDL1",
          "name": "",
          "type": "address"
        }
      ],
      "stateMutability": "view",
      "type": "function"
    },
    {
      "inputs": [],
      "name": "maxGas",
      "outputs": [
        {
          "internalType": "uint256",
          "name": "",
          "type": "uint256"
        }
      ],
      "stateMutability": "view",
      "type": "function"
    },
    {
      "inputs": [],
      "name": "maxSubmissionCost",
      "outputs": [
        {
          "internalType": "uint256",
          "name": "",
          "type": "uint256"
        }
      ],
      "stateMutability": "view",
      "type": "function"
    },
    {
      "inputs": [],
      "name": "outbox",
      "outputs": [
        {
          "internalType": "contract IOutbox",
          "name": "",
          "type": "address"
        }
      ],
      "stateMutability": "view",
      "type": "function"
    },
    {
      "inputs": [],
      "name": "owner",
      "outputs": [
        {
          "internalType": "address",
          "name": "",
          "type": "address"
        }
      ],
      "stateMutability": "view",
      "type": "function"
    },
    {
      "inputs": [],
      "name": "pause",
      "outputs": [],
      "stateMutability": "nonpayable",
      "type": "function"
    },
    {
      "inputs": [],
      "name": "paused",
      "outputs": [
        {
          "internalType": "bool",
          "name": "",
          "type": "bool"
        }
      ],
      "stateMutability": "view",
      "type": "function"
    },
    {
      "inputs": [],
      "name": "renounceOwnership",
      "outputs": [],
      "stateMutability": "nonpayable",
      "type": "function"
    },
    {
      "inputs": [
        {
          "internalType": "uint256",
          "name": "_maxSubmissionCost",
          "type": "uint256"
        },
        {
          "internalType": "uint256",
          "name": "_maxGas",
          "type": "uint256"
        },
        {
          "internalType": "uint256",
          "name": "_gasPriceBid",
          "type": "uint256"
        }
      ],
      "name": "setGasParameters",
      "outputs": [],
      "stateMutability": "nonpayable",
      "type": "function"
    },
    {
      "inputs": [
        {
          "internalType": "address",
          "name": "_inbox",
          "type": "address"
        }
      ],
      "name": "setInbox",
      "outputs": [],
      "stateMutability": "nonpayable",
      "type": "function"
    },
    {
      "inputs": [
        {
          "internalType": "address",
          "name": "_l2Gateway",
          "type": "address"
        }
      ],
      "name": "setL2Gateway",
      "outputs": [],
      "stateMutability": "nonpayable",
      "type": "function"
    },
    {
      "inputs": [
        {
          "internalType": "address",
          "name": "_outbox",
          "type": "address"
        }
      ],
      "name": "setOutbox",
      "outputs": [],
      "stateMutability": "nonpayable",
      "type": "function"
    },
    {
      "inputs": [
        {
          "internalType": "address",
          "name": "newOwner",
          "type": "address"
        }
      ],
      "name": "transferOwnership",
      "outputs": [],
      "stateMutability": "nonpayable",
      "type": "function"
    },
    {
      "inputs": [],
      "name": "unpause",
      "outputs": [],
      "stateMutability": "nonpayable",
      "type": "function"
    },
    {
      "inputs": [
        {
          "internalType": "bytes32",
          "name": "",
          "type": "bytes32"
        }
      ],
      "name": "withdrawals",
      "outputs": [
        {
          "internalType": "address",
          "name": "user",
          "type": "address"
        },
        {
          "internalType": "uint256",
          "name": "amount",
          "type": "uint256"
        },
        {
          "internalType": "uint256",
          "name": "timestamp",
          "type": "uint256"
        },
        {
          "internalType": "bool",
          "name": "executed",
          "type": "bool"
        }
      ],
      "stateMutability": "view",
      "type": "function"
    }
  ],
  "bytecode": "0x60e0604052662386f26fc10000600555620493e0600655633b9aca006007553480156200002b57600080fd5b5060405162001c7d38038062001c7d8339810160408190526200004e91620002a6565b600160005533806200007b57604051631e4fbdf760e01b8152600060048201526024015b60405180910390fd5b620000868162000237565b506001600160a01b038516620000cf5760405162461bcd60e51b815260206004820152600d60248201526c125b9d985b1a59081d985d5b1d609a1b604482015260640162000072565b6001600160a01b038416620001165760405162461bcd60e51b815260206004820152600c60248201526b125b9d985b1a5908131554d160a21b604482015260640162000072565b6001600160a01b038316620001635760405162461bcd60e51b8152602060048201526012602482015271125b9d985b1a590818dbdb1b185d195c985b60721b604482015260640162000072565b6001600160a01b038216620001ab5760405162461bcd60e51b815260206004820152600d60248201526c092dcecc2d8d2c840d2dcc4def609b1b604482015260640162000072565b6001600160a01b038116620001f45760405162461bcd60e51b815260206004820152600e60248201526d092dcecc2d8d2c840deeae8c4def60931b604482015260640162000072565b6001600160a01b0394851660805292841660a05290831660c052600280549184166001600160a01b03199283161790556003805492909316911617905562000316565b600180546001600160a01b038381166001600160a01b0319831681179093556040519116919082907f8be0079c531659141344cd1fd0a4f28419497f9722a3daafe3b4186f6b6457e090600090a35050565b80516001600160a01b0381168114620002a157600080fd5b919050565b600080600080600060a08688031215620002bf57600080fd5b620002ca8662000289565b9450620002da6020870162000289565b9350620002ea6040870162000289565b9250620002fa6060870162000289565b91506200030a6080870162000289565b90509295509295909350565b60805160a05160c051611906620003776000396000818161059401528181610e810152610eb601526000818161050901528181610c0f01526112d20152600081816101fb0152818161095501528181610ed80152610f6401526119066000f3fe6080604052600436106101c25760003560e01c80638fa74a0e116100f7578063ce11e6ab11610095578063f2fde38b11610064578063f2fde38b14610683578063f661e631146106a3578063fb0e722b146106c3578063ff204f3b146106e357600080fd5b8063ce11e6ab146105d6578063de35f5cb146105f6578063e09addc41461060c578063efbf64a71461063457600080fd5b8063a2e950cc116100d1578063a2e950cc146104f7578063b02c43d01461052b578063b2016bd414610582578063c80a0f84146105b657600080fd5b80638fa74a0e1461038657806398efa653146103a65780639f9fb9681461044557600080fd5b80635c975abb11610164578063715018a61161013e578063715018a61461031e5780638456cb591461033357806387e04042146103485780638da5cb5b1461036857600080fd5b80635c975abb146102c85780635d942ac1146102f257806370123fee1461030857600080fd5b80633928e5a9116101a05780633928e5a91461025a5780633f4ba83a1461027d578063501d815c1461029257806353b60c4a146102a857600080fd5b80630629dc5e146101c75780630bece79c146101e9578063185b550c1461023a575b600080fd5b3480156101d357600080fd5b506101e76101e23660046115e0565b610703565b005b3480156101f557600080fd5b5061021d7f000000000000000000000000000000000000000000000000000000000000000081565b6040516001600160a01b0390911681526020015b60405180910390f35b34801561024657600080fd5b506101e7610255366004611621565b610760565b34801561026657600080fd5b5061026f610a14565b604051908152602001610231565b34801561028957600080fd5b506101e7610a38565b34801561029e57600080fd5b5061026f60065481565b3480156102b457600080fd5b506101e76102c3366004611659565b610a4c565b3480156102d457600080fd5b50600b546102e29060ff1681565b6040519015158152602001610231565b3480156102fe57600080fd5b5061026f60075481565b34801561031457600080fd5b5061026f60055481565b34801561032a57600080fd5b506101e7610abc565b34801561033f57600080fd5b506101e7610ad0565b34801561035457600080fd5b506101e761036336600461167d565b610ae7565b34801561037457600080fd5b506001546001600160a01b031661021d565b34801561039257600080fd5b5060045461021d906001600160a01b031681565b3480156103b257600080fd5b506104196103c13660046116b2565b6000908152600a6020908152604091829020825160808101845281546001600160a01b03168082526001830154938201849052600283015494820185905260039092015460ff16151560609091018190529093919291565b604080516001600160a01b03909516855260208501939093529183015215156060820152608001610231565b34801561045157600080fd5b506104c36104603660046116b2565b600090815260086020908152604091829020825160a08101845281546001600160a01b03168082526001830154938201849052600283015494820185905260038301546060830181905260049093015460ff161515608090920182905294929392565b604080516001600160a01b03909616865260208601949094529284019190915260608301521515608082015260a001610231565b34801561050357600080fd5b5061021d7f000000000000000000000000000000000000000000000000000000000000000081565b34801561053757600080fd5b506104c36105463660046116b2565b600860205260009081526040902080546001820154600283015460038401546004909401546001600160a01b0390931693919290919060ff1685565b34801561058e57600080fd5b5061021d7f000000000000000000000000000000000000000000000000000000000000000081565b3480156105c257600080fd5b506101e76105d1366004611659565b610c84565b3480156105e257600080fd5b5060035461021d906001600160a01b031681565b34801561060257600080fd5b5061026f60095481565b61061f61061a3660046116b2565b610d26565b60408051928352602083019190915201610231565b34801561064057600080fd5b5061041961064f3660046116b2565b600a6020526000908152604090208054600182015460028301546003909301546001600160a01b0390921692909160ff1684565b34801561068f57600080fd5b506101e761069e366004611659565b61116c565b3480156106af57600080fd5b506101e76106be36600461167d565b6111aa565b3480156106cf57600080fd5b5060025461021d906001600160a01b031681565b3480156106ef57600080fd5b506101e76106fe366004611659565b61130b565b61070b61137c565b60058390556006829055600781905560408051848152602081018490529081018290527fa5801b007372d0623488a3aa478f88d8063ba2317686061e02cea1bba6e1eb2c9060600160405180910390a1505050565b6003546001600160a01b031633146107935760405162461bcd60e51b815260040161078a906116cb565b60405180910390fd5b6004805460035460408051634032458160e11b815290516001600160a01b039384169493909216926380648b029282820192602092908290030181865afa1580156107e2573d6000803e3d6000fd5b505050506040513d601f19601f820116820180604052508101906108069190611702565b6001600160a01b03161461082c5760405162461bcd60e51b815260040161078a9061171f565b6108346113a9565b6001600160a01b03821661085a5760405162461bcd60e51b815260040161078a90611756565b6000811161087a5760405162461bcd60e51b815260040161078a9061177c565b6000838152600a602052604090206003015460ff16156108cf5760405162461bcd60e51b815260206004820152601060248201526f105b1c9958591e48195e1958dd5d195960821b604482015260640161078a565b604080516080810182526001600160a01b03848116825260208083018581524284860190815260016060860181815260008b8152600a90955293879020955186546001600160a01b031916908616178655915191850191909155516002840155516003909201805460ff191692151592909217909155905163139a61ff60e01b815284917f0000000000000000000000000000000000000000000000000000000000000000169063139a61ff9061098e908690869086906004016117a4565b600060405180830381600087803b1580156109a857600080fd5b505af11580156109bc573d6000803e3d6000fd5b50505050826001600160a01b0316847f9b500c765f0aa508908d3e165168183a5cef5acd68573acc126ce58c80ac6b3c846040516109fc91815260200190565b60405180910390a350610a0f6001600055565b505050565b6000600754600654610a2691906117db565b600554610a3391906117f2565b905090565b610a4061137c565b600b805460ff19169055565b610a5461137c565b6001600160a01b038116610a9a5760405162461bcd60e51b815260206004820152600d60248201526c092dcecc2d8d2c840d2dcc4def609b1b604482015260640161078a565b600280546001600160a01b0319166001600160a01b0392909216919091179055565b610ac461137c565b610ace60006113d3565b565b610ad861137c565b600b805460ff19166001179055565b6003546001600160a01b03163314610b115760405162461bcd60e51b815260040161078a906116cb565b6004805460035460408051634032458160e11b815290516001600160a01b039384169493909216926380648b029282820192602092908290030181865afa158015610b60573d6000803e3d6000fd5b505050506040513d601f19601f82011682018060405250810190610b849190611702565b6001600160a01b031614610baa5760405162461bcd60e51b815260040161078a9061171f565b610bb26113a9565b6001600160a01b038316610bd85760405162461bcd60e51b815260040161078a90611756565b60008211610bf85760405162461bcd60e51b815260040161078a9061177c565b6040516343f0202160e11b81526001600160a01b037f000000000000000000000000000000000000000000000000000000000000000016906387e0404290610c48908690869086906004016117a4565b600060405180830381600087803b158015610c6257600080fd5b505af1158015610c76573d6000803e3d6000fd5b50505050610a0f6001600055565b610c8c61137c565b6001600160a01b038116610cd45760405162461bcd60e51b815260206004820152600f60248201526e496e76616c6964206761746577617960881b604482015260640161078a565b600480546001600160a01b038381166001600160a01b0319831681179093556040519116919082907f113186743aa005710d6b5693b32a224cb33334370ee31a6cc864a7b04f7d600590600090a35050565b600b54600090819060ff1615610d725760405162461bcd60e51b8152602060048201526011602482015270130c51d85d195dd85e4e881c185d5cd959607a1b604482015260640161078a565b610d7a6113a9565b60008311610dbf5760405162461bcd60e51b81526020600482015260126024820152710416d6f756e74206d757374206265203e20360741b604482015260640161078a565b6004546001600160a01b0316610e0c5760405162461bcd60e51b8152602060048201526012602482015271130c8819d85d195dd85e481b9bdd081cd95d60721b604482015260640161078a565b600554341015610e5e5760405162461bcd60e51b815260206004820152601f60248201527f496e73756666696369656e742045544820666f72207375626d697373696f6e00604482015260640161078a565b60098054906000610e6e83611805565b909155509150610ea96001600160a01b037f000000000000000000000000000000000000000000000000000000000000000016333086611425565b610efd6001600160a01b037f0000000000000000000000000000000000000000000000000000000000000000167f000000000000000000000000000000000000000000000000000000000000000085611492565b60408051602081018490526bffffffffffffffffffffffff193360601b16918101919091526054810184905242607482015260009060940160408051601f1981840301815290829052805160209091012063035be36960e51b825291506001600160a01b037f00000000000000000000000000000000000000000000000000000000000000001690636b7c6d2090610f9d903390889086906004016117a4565b600060405180830381600087803b158015610fb757600080fd5b505af1158015610fcb573d6000803e3d6000fd5b5050604051602481018690523360448201526064810187905260009250608401905060408051601f198184030181529181526020820180516001600160e01b0316636303f37f60e01b17905260025460048054600554600654600754955163679b6ded60e01b81529697506001600160a01b039485169663679b6ded96349661106396951694600094933393849391928d910161181e565b60206040518083038185885af1158015611081573d6000803e3d6000fd5b50505050506040513d601f19601f820116820180604052508101906110a691906118b7565b6040805160a0810182523380825260208083018a815242848601908152606085018981526000608087018181528d82526008865290889020965187546001600160a01b0319166001600160a01b039091161787559251600187015590516002860155516003850155516004909301805460ff1916931515939093179092559151888152929550859287917f8bf3c565a3ccbbed4c759fe404c97a3f3a900345d2224cd2a9ace35403641728910160405180910390a450506111676001600055565b915091565b61117461137c565b6001600160a01b03811661119e57604051631e4fbdf760e01b81526000600482015260240161078a565b6111a7816113d3565b50565b6003546001600160a01b031633146111d45760405162461bcd60e51b815260040161078a906116cb565b6004805460035460408051634032458160e11b815290516001600160a01b039384169493909216926380648b029282820192602092908290030181865afa158015611223573d6000803e3d6000fd5b505050506040513d601f19601f820116820180604052508101906112479190611702565b6001600160a01b03161461126d5760405162461bcd60e51b815260040161078a9061171f565b6112756113a9565b6001600160a01b03831661129b5760405162461bcd60e51b815260040161078a90611756565b600082116112bb5760405162461bcd60e51b815260040161078a9061177c565b60405163f661e63160e01b81526001600160a01b037f0000000000000000000000000000000000000000000000000000000000000000169063f661e63190610c48908690869086906004016117a4565b61131361137c565b6001600160a01b03811661135a5760405162461bcd60e51b815260206004820152600e60248201526d092dcecc2d8d2c840deeae8c4def60931b604482015260640161078a565b600380546001600160a01b0319166001600160a01b0392909216919091179055565b6001546001600160a01b03163314610ace5760405163118cdaa760e01b815233600482015260240161078a565b6002600054036113cc57604051633ee5aeb560e01b815260040160405180910390fd5b6002600055565b600180546001600160a01b038381166001600160a01b0319831681179093556040519116919082907f8be0079c531659141344cd1fd0a4f28419497f9722a3daafe3b4186f6b6457e090600090a35050565b6040516001600160a01b03848116602483015283811660448301526064820183905261148c9186918216906323b872dd906084015b604051602081830303815290604052915060e01b6020820180516001600160e01b03838183161783525050505061151e565b50505050565b604080516001600160a01b038416602482015260448082018490528251808303909101815260649091019091526020810180516001600160e01b031663095ea7b360e01b1790526114e3848261158f565b61148c576040516001600160a01b0384811660248301526000604483015261151891869182169063095ea7b39060640161145a565b61148c84825b600080602060008451602086016000885af180611541576040513d6000823e3d81fd5b50506000513d91508115611559578060011415611566565b6001600160a01b0384163b155b1561148c57604051635274afe760e01b81526001600160a01b038516600482015260240161078a565b6000806000806020600086516020880160008a5af192503d915060005190508280156115d4575081156115c557806001146115d4565b6000866001600160a01b03163b115b93505050505b92915050565b6000806000606084860312156115f557600080fd5b505081359360208301359350604090920135919050565b6001600160a01b03811681146111a757600080fd5b60008060006060848603121561163657600080fd5b8335925060208401356116488161160c565b929592945050506040919091013590565b60006020828403121561166b57600080fd5b81356116768161160c565b9392505050565b60008060006060848603121561169257600080fd5b833561169d8161160c565b95602085013595506040909401359392505050565b6000602082840312156116c457600080fd5b5035919050565b6020808252601a908201527f4c31476174657761793a206e6f742066726f6d206f7574626f78000000000000604082015260600190565b60006020828403121561171457600080fd5b81516116768161160c565b6020808252601e908201527f4c31476174657761793a206e6f742066726f6d204c3220676174657761790000604082015260600190565b6020808252600c908201526b24b73b30b634b2103ab9b2b960a11b604082015260600190565b6020808252600e908201526d125b9d985b1a5908185b5bdd5b9d60921b604082015260600190565b6001600160a01b039390931683526020830191909152604082015260600190565b634e487b7160e01b600052601160045260246000fd5b80820281158282048414176115da576115da6117c5565b808201808211156115da576115da6117c5565b600060018201611817576118176117c5565b5060010190565b600061010060018060a01b03808c16845260208b60208601528a6040860152818a16606086015281891660808601528760a08601528660c08601528260e0860152855191508183860152600092505b8183101561188c5785830181015185840161012001529182019161186d565b506101209150600082828601015281601f19601f830116850101925050509998505050505050505050565b6000602082840312156118c957600080fd5b505191905056fea264697066735822122083e1af463afaf7c996fea6ae37f8678388aadf5f64e971eb1bacdca9bed30cad64736f6c63430008160033",
  "linkReferences": {},
  "deployedLinkReferences": {}
}