{
  "_format": "hh-sol-artifact-1",
  "contractName": "MockERC20",
  "sourceName": "contracts/mocks/MockERC20.sol",
  "abi": [
    {
      "inputs": [
        {
          "internalType": "string",
          "name": "name",
          "type": "string"
        },
        {
          "internalType": "string",
          "name": "symbol",
          "type": "string"
        },
        {
          "internalType": "uint256",
          "name": "initialSupply",
          "type": "uint256"
        }
      ],
      "stateMutability": "nonpayable",
      "type": "constructor"
    },
    {
      "inputs": [
        {
          "internalType": "address",
          "name": "spender",
          "type": "address"
        },
        {
          "internalType": "uint256",
          "name": "allowance",
          "type": "uint256"
        },
        {
          "internalType": "uint256",
          "name": "needed",
          "type": "uint256"
        }
      ],
      "name": "ERC20InsufficientAllowance",
      "type": "error"
    },
    {
      "inputs": [
        {
          "internalType": "address",
          "name": "sender",
          "type": "address"
        },
        {
          "internalType": "uint256",
          "name": "balance",
          "type": "uint256"
        },
        {
          "internalType": "uint256",
          "name": "needed",
          "type": "uint256"
        }
      ],
      "name": "ERC20InsufficientBalance",
      "type": "error"
    },
    {
      "inputs": [
        {
          "internalType": "address",
          "name": "approver",
          "type": "address"
        }
      ],
      "name": "ERC20InvalidApprover",
      "type": "error"
    },
    {
      "inputs": [
        {
          "internalType": "address",
          "name": "receiver",
          "type": "address"
        }
      ],
      "name": "ERC20InvalidReceiver",
      "type": "error"
    },
    {
      "inputs": [
        {
          "internalType": "address",
          "name": "sender",
          "type": "address"
        }
      ],
      "name": "ERC20InvalidSender",
      "type": "error"
    },
    {
      "inputs": [
        {
          "internalType": "address",
          "name": "spender",
          "type": "address"
        }
      ],
      "name": "ERC20InvalidSpender",
      "type": "error"
    },
    {
      "anonymous": false,
      "inputs": [
        {
          "indexed": true,
          "internalType": "address",
          "name": "owner",
          "type": "address"
        },
        {
          "indexed": true,
          "internalType": "address",
          "name": "spender",
          "type": "address"
        },
        {
          "indexed": false,
          "internalType": "uint256",
          "name": "value",
          "type": "uint256"
        }
      ],
      "name": "Approval",
      "type": "event"
    },
    {
      "anonymous": false,
      "inputs": [
        {
          "indexed": true,
          "internalType": "address",
          "name": "from",
          "type": "address"
        },
        {
          "indexed": true,
          "internalType": "address",
          "name": "to",
          "type": "address"
        },
        {
          "indexed": false,
          "internalType": "uint256",
          "name": "value",
          "type": "uint256"
        }
      ],
      "name": "Transfer",
      "type": "event"
    },
    {
      "inputs": [
        {
          "internalType": "address",
          "name": "owner",
          "type": "address"
        },
        {
          "internalType": "address",
          "name": "spender",
          "type": "address"
        }
      ],
      "name": "allowance",
      "outputs": [
        {
          "internalType": "uint256",
          "name": "",
          "type": "uint256"
        }
      ],
      "stateMutability": "view",
      "type": "function"
    },
    {
      "inputs": [
        {
          "internalType": "address",
          "name": "spender",
          "type": "address"
        },
        {
          "internalType": "uint256",
          "name": "value",
          "type": "uint256"
        }
      ],
      "name": "approve",
      "outputs": [
        {
          "internalType": "bool",
          "name": "",
          "type": "bool"
        }
      ],
      "stateMutability": "nonpayable",
      "type": "function"
    },
    {
      "inputs": [
        {
          "internalType": "address",
          "name": "account",
          "type": "address"
        }
      ],
      "name": "balanceOf",
      "outputs": [
        {
          "internalType": "uint256",
          "name": "",
          "type": "uint256"
        }
      ],
      "stateMutability": "view",
      "type": "function"
    },
    {
      "inputs": [
        {
          "internalType": "address",
          "name": "from",
          "type": "address"
        },
        {
          "internalType": "uint256",
          "name": "amount",
          "type": "uint256"
        }
      ],
      "name": "burn",
      "outputs": [],
      "stateMutability": "nonpayable",
      "type": "function"
    },
    {
      "inputs": [],
      "name": "decimals",
      "outputs": [
        {
          "internalType": "uint8",
          "name": "",
          "type": "uint8"
        }
      ],
      "stateMutability": "view",
      "type": "function"
    },
    {
      "inputs": [
        {
          "internalType": "address",
          "name": "to",
          "type": "address"
        },
        {
          "internalType": "uint256",
          "name": "amount",
          "type": "uint256"
        }
      ],
      "name": "mint",
      "outputs": [],
      "stateMutability": "nonpayable",
      "type": "function"
    },
    {
      "inputs": [],
      "name": "name",
      "outputs": [
        {
          "internalType": "string",
          "name": "",
          "type": "string"
        }
      ],
      "stateMutability": "view",
      "type": "function"
    },
    {
      "inputs": [
        {
          "internalType": "uint8",
          "name": "decimals_",
          "type": "uint8"
        }
      ],
      "name": "setDecimals",
      "outputs": [],
      "stateMutability": "nonpayable",
      "type": "function"
    },
    {
      "inputs": [],
      "name": "symbol",
      "outputs": [
        {
          "internalType": "string",
          "name": "",
          "type": "string"
        }
      ],
      "stateMutability": "view",
      "type": "function"
    },
    {
      "inputs": [],
      "name": "totalSupply",
      "outputs": [
        {
          "internalType": "uint256",
          "name": "",
          "type": "uint256"
        }
      ],
      "stateMutability": "view",
      "type": "function"
    },
    {
      "inputs": [
        {
          "internalType": "address",
          "name": "to",
          "type": "address"
        },
        {
          "internalType": "uint256",
          "name": "value",
          "type": "uint256"
        }
      ],
      "name": "transfer",
      "outputs": [
        {
          "internalType": "bool",
          "name": "",
          "type": "bool"
        }
      ],
      "stateMutability": "nonpayable",
      "type": "function"
    },
    {
      "inputs": [
        {
          "internalType": "address",
          "name": "from",
          "type": "address"
        },
        {
          "internalType": "address",
          "name": "to",
          "type": "address"
        },
        {
          "internalType": "uint256",
          "name": "value",
          "type": "uint256"
        }
      ],
      "name": "transferFrom",
      "outputs": [
        {
          "internalType": "bool",
          "name": "",
          "type": "bool"
        }
      ],
      "stateMutability": "nonpayable",
      "type": "function"
    }
  ],
  "bytecode": "0x60806040523480156200001157600080fd5b5060405162000cf938038062000cf98339810160408190526200003491620002b5565b82826003620000448382620003b9565b506004620000538282620003b9565b50506005805460ff19166012179055506200006f338262000078565b505050620004ad565b6001600160a01b038216620000a85760405163ec442f0560e01b8152600060048201526024015b60405180910390fd5b620000b660008383620000ba565b5050565b6001600160a01b038316620000e9578060026000828254620000dd919062000485565b909155506200015d9050565b6001600160a01b038316600090815260208190526040902054818110156200013e5760405163391434e360e21b81526001600160a01b038516600482015260248101829052604481018390526064016200009f565b6001600160a01b03841660009081526020819052604090209082900390555b6001600160a01b0382166200017b576002805482900390556200019a565b6001600160a01b03821660009081526020819052604090208054820190555b816001600160a01b0316836001600160a01b03167fddf252ad1be2c89b69c2b068fc378daa952ba7f163c4a11628f55a4df523b3ef83604051620001e091815260200190565b60405180910390a3505050565b634e487b7160e01b600052604160045260246000fd5b600082601f8301126200021557600080fd5b81516001600160401b0380821115620002325762000232620001ed565b604051601f8301601f19908116603f011681019082821181831017156200025d576200025d620001ed565b81604052838152602092508660208588010111156200027b57600080fd5b600091505b838210156200029f578582018301518183018401529082019062000280565b6000602085830101528094505050505092915050565b600080600060608486031215620002cb57600080fd5b83516001600160401b0380821115620002e357600080fd5b620002f18783880162000203565b945060208601519150808211156200030857600080fd5b50620003178682870162000203565b925050604084015190509250925092565b600181811c908216806200033d57607f821691505b6020821081036200035e57634e487b7160e01b600052602260045260246000fd5b50919050565b601f821115620003b4576000816000526020600020601f850160051c810160208610156200038f5750805b601f850160051c820191505b81811015620003b0578281556001016200039b565b5050505b505050565b81516001600160401b03811115620003d557620003d5620001ed565b620003ed81620003e6845462000328565b8462000364565b602080601f8311600181146200042557600084156200040c5750858301515b600019600386901b1c1916600185901b178555620003b0565b600085815260208120601f198616915b82811015620004565788860151825594840194600190910190840162000435565b5085821015620004755787850151600019600388901b60f8161c191681555b5050505050600190811b01905550565b80820180821115620004a757634e487b7160e01b600052601160045260246000fd5b92915050565b61083c80620004bd6000396000f3fe608060405234801561001057600080fd5b50600436106100b45760003560e01c806370a082311161007157806370a08231146101495780637a1395aa1461017257806395d89b41146101965780639dc29fac1461019e578063a9059cbb146101b1578063dd62ed3e146101c457600080fd5b806306fdde03146100b9578063095ea7b3146100d757806318160ddd146100fa57806323b872dd1461010c578063313ce5671461011f57806340c10f1914610134575b600080fd5b6100c16101fd565b6040516100ce9190610662565b60405180910390f35b6100ea6100e53660046106cd565b61028f565b60405190151581526020016100ce565b6002545b6040519081526020016100ce565b6100ea61011a3660046106f7565b6102a9565b60055460405160ff90911681526020016100ce565b6101476101423660046106cd565b6102cd565b005b6100fe610157366004610733565b6001600160a01b031660009081526020819052604090205490565b610147610180366004610755565b6005805460ff191660ff92909216919091179055565b6100c16102db565b6101476101ac3660046106cd565b6102ea565b6100ea6101bf3660046106cd565b6102f4565b6100fe6101d2366004610778565b6001600160a01b03918216600090815260016020908152604080832093909416825291909152205490565b60606003805461020c906107ab565b80601f0160208091040260200160405190810160405280929190818152602001828054610238906107ab565b80156102855780601f1061025a57610100808354040283529160200191610285565b820191906000526020600020905b81548152906001019060200180831161026857829003601f168201915b5050505050905090565b60003361029d818585610302565b60019150505b92915050565b6000336102b7858285610314565b6102c2858585610398565b506001949350505050565b6102d782826103f7565b5050565b60606004805461020c906107ab565b6102d7828261042d565b60003361029d818585610398565b61030f8383836001610463565b505050565b6001600160a01b03838116600090815260016020908152604080832093861683529290522054600019811015610392578181101561038357604051637dc7a0d960e11b81526001600160a01b038416600482015260248101829052604481018390526064015b60405180910390fd5b61039284848484036000610463565b50505050565b6001600160a01b0383166103c257604051634b637e8f60e11b81526000600482015260240161037a565b6001600160a01b0382166103ec5760405163ec442f0560e01b81526000600482015260240161037a565b61030f838383610538565b6001600160a01b0382166104215760405163ec442f0560e01b81526000600482015260240161037a565b6102d760008383610538565b6001600160a01b03821661045757604051634b637e8f60e11b81526000600482015260240161037a565b6102d782600083610538565b6001600160a01b03841661048d5760405163e602df0560e01b81526000600482015260240161037a565b6001600160a01b0383166104b757604051634a1406b160e11b81526000600482015260240161037a565b6001600160a01b038085166000908152600160209081526040808320938716835292905220829055801561039257826001600160a01b0316846001600160a01b03167f8c5be1e5ebec7d5bd14f71427d1e84f3dd0314c0f7b2291e5b200ac8c7c3b9258460405161052a91815260200190565b60405180910390a350505050565b6001600160a01b03831661056357806002600082825461055891906107e5565b909155506105d59050565b6001600160a01b038316600090815260208190526040902054818110156105b65760405163391434e360e21b81526001600160a01b0385166004820152602481018290526044810183905260640161037a565b6001600160a01b03841660009081526020819052604090209082900390555b6001600160a01b0382166105f157600280548290039055610610565b6001600160a01b03821660009081526020819052604090208054820190555b816001600160a01b0316836001600160a01b03167fddf252ad1be2c89b69c2b068fc378daa952ba7f163c4a11628f55a4df523b3ef8360405161065591815260200190565b60405180910390a3505050565b60006020808352835180602085015260005b8181101561069057858101830151858201604001528201610674565b506000604082860101526040601f19601f8301168501019250505092915050565b80356001600160a01b03811681146106c857600080fd5b919050565b600080604083850312156106e057600080fd5b6106e9836106b1565b946020939093013593505050565b60008060006060848603121561070c57600080fd5b610715846106b1565b9250610723602085016106b1565b9150604084013590509250925092565b60006020828403121561074557600080fd5b61074e826106b1565b9392505050565b60006020828403121561076757600080fd5b813560ff8116811461074e57600080fd5b6000806040838503121561078b57600080fd5b610794836106b1565b91506107a2602084016106b1565b90509250929050565b600181811c908216806107bf57607f821691505b6020821081036107df57634e487b7160e01b600052602260045260246000fd5b50919050565b808201808211156102a357634e487b7160e01b600052601160045260246000fdfea2646970667358221220fb3c6ec56328f85766fe2a21e6a9f23e4b361c9680d4a8fe498d1c05b1779f9664736f6c63430008160033",
  "linkReferences": {},
  "deployedLinkReferences": {}
}