{
  "_format": "hh-sol-artifact-1",
  "contractName": "TreasuryYieldDistributor",
  "sourceName": "contracts/layer2/treasury/TreasuryYieldDistributor.sol",
  "abi": [
    {
      "inputs": [
        {
          "internalType": "address",
          "name": "admin",
          "type": "address"
        },
        {
          "internalType": "address",
          "name": "factory",
          "type": "address"
        },
        {
          "internalType": "address",
          "name": "yieldToken_",
          "type": "address"
        }
      ],
      "stateMutability": "nonpayable",
      "type": "constructor"
    },
    {
      "inputs": [],
      "name": "AccessControlBadConfirmation",
      "type": "error"
    },
    {
      "inputs": [
        {
          "internalType": "address",
          "name": "account",
          "type": "address"
        },
        {
          "internalType": "bytes32",
          "name": "neededRole",
          "type": "bytes32"
        }
      ],
      "name": "AccessControlUnauthorizedAccount",
      "type": "error"
    },
    {
      "inputs": [],
      "name": "EnforcedPause",
      "type": "error"
    },
    {
      "inputs": [],
      "name": "ExpectedPause",
      "type": "error"
    },
    {
      "inputs": [],
      "name": "ReentrancyGuardReentrantCall",
      "type": "error"
    },
    {
      "inputs": [
        {
          "internalType": "address",
          "name": "token",
          "type": "address"
        }
      ],
      "name": "SafeERC20FailedOperation",
      "type": "error"
    },
    {
      "anonymous": false,
      "inputs": [
        {
          "indexed": true,
          "internalType": "uint256",
          "name": "distributionId",
          "type": "uint256"
        },
        {
          "indexed": true,
          "internalType": "uint256",
          "name": "assetId",
          "type": "uint256"
        },
        {
          "indexed": false,
          "internalType": "uint256",
          "name": "recipientsCount",
          "type": "uint256"
        },
        {
          "indexed": false,
          "internalType": "uint256",
          "name": "totalAmount",
          "type": "uint256"
        }
      ],
      "name": "BatchDistributed",
      "type": "event"
    },
    {
      "anonymous": false,
      "inputs": [
        {
          "indexed": false,
          "internalType": "address",
          "name": "account",
          "type": "address"
        }
      ],
      "name": "Paused",
      "type": "event"
    },
    {
      "anonymous": false,
      "inputs": [
        {
          "indexed": true,
          "internalType": "bytes32",
          "name": "role",
          "type": "bytes32"
        },
        {
          "indexed": true,
          "internalType": "bytes32",
          "name": "previousAdminRole",
          "type": "bytes32"
        },
        {
          "indexed": true,
          "internalType": "bytes32",
          "name": "newAdminRole",
          "type": "bytes32"
        }
      ],
      "name": "RoleAdminChanged",
      "type": "event"
    },
    {
      "anonymous": false,
      "inputs": [
        {
          "indexed": true,
          "internalType": "bytes32",
          "name": "role",
          "type": "bytes32"
        },
        {
          "indexed": true,
          "internalType": "address",
          "name": "account",
          "type": "address"
        },
        {
          "indexed": true,
          "internalType": "address",
          "name": "sender",
          "type": "address"
        }
      ],
      "name": "RoleGranted",
      "type": "event"
    },
    {
      "anonymous": false,
      "inputs": [
        {
          "indexed": true,
          "internalType": "bytes32",
          "name": "role",
          "type": "bytes32"
        },
        {
          "indexed": true,
          "internalType": "address",
          "name": "account",
          "type": "address"
        },
        {
          "indexed": true,
          "internalType": "address",
          "name": "sender",
          "type": "address"
        }
      ],
      "name": "RoleRevoked",
      "type": "event"
    },
    {
      "anonymous": false,
      "inputs": [
        {
          "indexed": false,
          "internalType": "address",
          "name": "account",
          "type": "address"
        }
      ],
      "name": "Unpaused",
      "type": "event"
    },
    {
      "anonymous": false,
      "inputs": [
        {
          "indexed": true,
          "internalType": "address",
          "name": "user",
          "type": "address"
        },
        {
          "indexed": true,
          "internalType": "uint256",
          "name": "assetId",
          "type": "uint256"
        },
        {
          "indexed": false,
          "internalType": "uint256",
          "name": "amount",
          "type": "uint256"
        },
        {
          "indexed": false,
          "internalType": "uint256",
          "name": "distributionId",
          "type": "uint256"
        }
      ],
      "name": "YieldClaimed",
      "type": "event"
    },
    {
      "anonymous": false,
      "inputs": [
        {
          "indexed": true,
          "internalType": "uint256",
          "name": "distributionId",
          "type": "uint256"
        },
        {
          "indexed": true,
          "internalType": "uint256",
          "name": "assetId",
          "type": "uint256"
        },
        {
          "indexed": false,
          "internalType": "uint256",
          "name": "totalYield",
          "type": "uint256"
        },
        {
          "indexed": false,
          "internalType": "uint256",
          "name": "yieldPerToken",
          "type": "uint256"
        },
        {
          "indexed": false,
          "internalType": "string",
          "name": "distributionType",
          "type": "string"
        }
      ],
      "name": "YieldDeposited",
      "type": "event"
    },
    {
      "inputs": [],
      "name": "DEFAULT_ADMIN_ROLE",
      "outputs": [
        {
          "internalType": "bytes32",
          "name": "",
          "type": "bytes32"
        }
      ],
      "stateMutability": "view",
      "type": "function"
    },
    {
      "inputs": [],
      "name": "DISTRIBUTOR_ROLE",
      "outputs": [
        {
          "internalType": "bytes32",
          "name": "",
          "type": "bytes32"
        }
      ],
      "stateMutability": "view",
      "type": "function"
    },
    {
      "inputs": [],
      "name": "YIELD_MANAGER_ROLE",
      "outputs": [
        {
          "internalType": "bytes32",
          "name": "",
          "type": "bytes32"
        }
      ],
      "stateMutability": "view",
      "type": "function"
    },
    {
      "inputs": [
        {
          "internalType": "uint256",
          "name": "",
          "type": "uint256"
        },
        {
          "internalType": "uint256",
          "name": "",
          "type": "uint256"
        }
      ],
      "name": "assetDistributions",
      "outputs": [
        {
          "internalType": "uint256",
          "name": "",
          "type": "uint256"
        }
      ],
      "stateMutability": "view",
      "type": "function"
    },
    {
      "inputs": [],
      "name": "assetFactory",
      "outputs": [
        {
          "internalType": "contract ITreasuryAsset",
          "name": "",
          "type": "address"
        }
      ],
      "stateMutability": "view",
      "type": "function"
    },
    {
      "inputs": [
        {
          "internalType": "uint256",
          "name": "distributionId",
          "type": "uint256"
        },
        {
          "internalType": "address[]",
          "name": "recipients",
          "type": "address[]"
        },
        {
          "internalType": "uint256[]",
          "name": "amounts",
          "type": "uint256[]"
        }
      ],
      "name": "batchDistribute",
      "outputs": [],
      "stateMutability": "nonpayable",
      "type": "function"
    },
    {
      "inputs": [
        {
          "internalType": "uint256",
          "name": "assetId",
          "type": "uint256"
        },
        {
          "internalType": "address",
          "name": "user",
          "type": "address"
        }
      ],
      "name": "calculatePendingYield",
      "outputs": [
        {
          "internalType": "uint256",
          "name": "",
          "type": "uint256"
        }
      ],
      "stateMutability": "view",
      "type": "function"
    },
    {
      "inputs": [
        {
          "internalType": "uint256",
          "name": "assetId",
          "type": "uint256"
        }
      ],
      "name": "claimYield",
      "outputs": [
        {
          "internalType": "uint256",
          "name": "claimedAmount",
          "type": "uint256"
        }
      ],
      "stateMutability": "nonpayable",
      "type": "function"
    },
    {
      "inputs": [
        {
          "internalType": "uint256",
          "name": "assetId",
          "type": "uint256"
        },
        {
          "internalType": "uint256",
          "name": "totalYield",
          "type": "uint256"
        },
        {
          "internalType": "string",
          "name": "distributionType",
          "type": "string"
        }
      ],
      "name": "depositYield",
      "outputs": [
        {
          "internalType": "uint256",
          "name": "distributionId",
          "type": "uint256"
        }
      ],
      "stateMutability": "nonpayable",
      "type": "function"
    },
    {
      "inputs": [
        {
          "internalType": "uint256",
          "name": "",
          "type": "uint256"
        }
      ],
      "name": "distributions",
      "outputs": [
        {
          "internalType": "uint256",
          "name": "distributionId",
          "type": "uint256"
        },
        {
          "internalType": "uint256",
          "name": "assetId",
          "type": "uint256"
        },
        {
          "internalType": "uint256",
          "name": "totalYield",
          "type": "uint256"
        },
        {
          "internalType": "uint256",
          "name": "yieldPerToken",
          "type": "uint256"
        },
        {
          "internalType": "uint256",
          "name": "totalTokens",
          "type": "uint256"
        },
        {
          "internalType": "uint256",
          "name": "recipientsCount",
          "type": "uint256"
        },
        {
          "internalType": "uint256",
          "name": "distributedAmount",
          "type": "uint256"
        },
        {
          "internalType": "bool",
          "name": "isCompleted",
          "type": "bool"
        },
        {
          "internalType": "uint256",
          "name": "timestamp",
          "type": "uint256"
        },
        {
          "internalType": "string",
          "name": "distributionType",
          "type": "string"
        }
      ],
      "stateMutability": "view",
      "type": "function"
    },
    {
      "inputs": [
        {
          "internalType": "address",
          "name": "token",
          "type": "address"
        },
        {
          "internalType": "uint256",
          "name": "amount",
          "type": "uint256"
        },
        {
          "internalType": "address",
          "name": "recipient",
          "type": "address"
        }
      ],
      "name": "emergencyWithdraw",
      "outputs": [],
      "stateMutability": "nonpayable",
      "type": "function"
    },
    {
      "inputs": [
        {
          "internalType": "uint256",
          "name": "assetId",
          "type": "uint256"
        }
      ],
      "name": "getAssetDistributions",
      "outputs": [
        {
          "internalType": "uint256[]",
          "name": "",
          "type": "uint256[]"
        }
      ],
      "stateMutability": "view",
      "type": "function"
    },
    {
      "inputs": [
        {
          "internalType": "uint256",
          "name": "distributionId",
          "type": "uint256"
        }
      ],
      "name": "getDistribution",
      "outputs": [
        {
          "components": [
            {
              "internalType": "uint256",
              "name": "distributionId",
              "type": "uint256"
            },
            {
              "internalType": "uint256",
              "name": "assetId",
              "type": "uint256"
            },
            {
              "internalType": "uint256",
              "name": "totalYield",
              "type": "uint256"
            },
            {
              "internalType": "uint256",
              "name": "yieldPerToken",
              "type": "uint256"
            },
            {
              "internalType": "uint256",
              "name": "totalTokens",
              "type": "uint256"
            },
            {
              "internalType": "uint256",
              "name": "recipientsCount",
              "type": "uint256"
            },
            {
              "internalType": "uint256",
              "name": "distributedAmount",
              "type": "uint256"
            },
            {
              "internalType": "bool",
              "name": "isCompleted",
              "type": "bool"
            },
            {
              "internalType": "uint256",
              "name": "timestamp",
              "type": "uint256"
            },
            {
              "internalType": "string",
              "name": "distributionType",
              "type": "string"
            }
          ],
          "internalType": "struct TreasuryYieldDistributor.YieldDistribution",
          "name": "",
          "type": "tuple"
        }
      ],
      "stateMutability": "view",
      "type": "function"
    },
    {
      "inputs": [
        {
          "internalType": "bytes32",
          "name": "role",
          "type": "bytes32"
        }
      ],
      "name": "getRoleAdmin",
      "outputs": [
        {
          "internalType": "bytes32",
          "name": "",
          "type": "bytes32"
        }
      ],
      "stateMutability": "view",
      "type": "function"
    },
    {
      "inputs": [
        {
          "internalType": "uint256",
          "name": "assetId",
          "type": "uint256"
        },
        {
          "internalType": "address",
          "name": "user",
          "type": "address"
        }
      ],
      "name": "getUserYieldInfo",
      "outputs": [
        {
          "components": [
            {
              "internalType": "uint256",
              "name": "totalEarned",
              "type": "uint256"
            },
            {
              "internalType": "uint256",
              "name": "totalClaimed",
              "type": "uint256"
            },
            {
              "internalType": "uint256",
              "name": "pendingYield",
              "type": "uint256"
            },
            {
              "internalType": "uint256",
              "name": "lastClaimTime",
              "type": "uint256"
            }
          ],
          "internalType": "struct TreasuryYieldDistributor.UserYield",
          "name": "",
          "type": "tuple"
        }
      ],
      "stateMutability": "view",
      "type": "function"
    },
    {
      "inputs": [
        {
          "internalType": "uint256",
          "name": "assetId",
          "type": "uint256"
        },
        {
          "internalType": "address",
          "name": "user",
          "type": "address"
        }
      ],
      "name": "getUserYieldSummary",
      "outputs": [
        {
          "internalType": "uint256",
          "name": "totalEarned",
          "type": "uint256"
        },
        {
          "internalType": "uint256",
          "name": "pendingYield",
          "type": "uint256"
        },
        {
          "internalType": "uint256",
          "name": "totalClaimed",
          "type": "uint256"
        }
      ],
      "stateMutability": "view",
      "type": "function"
    },
    {
      "inputs": [
        {
          "internalType": "bytes32",
          "name": "role",
          "type": "bytes32"
        },
        {
          "internalType": "address",
          "name": "account",
          "type": "address"
        }
      ],
      "name": "grantRole",
      "outputs": [],
      "stateMutability": "nonpayable",
      "type": "function"
    },
    {
      "inputs": [
        {
          "internalType": "bytes32",
          "name": "role",
          "type": "bytes32"
        },
        {
          "internalType": "address",
          "name": "account",
          "type": "address"
        }
      ],
      "name": "hasRole",
      "outputs": [
        {
          "internalType": "bool",
          "name": "",
          "type": "bool"
        }
      ],
      "stateMutability": "view",
      "type": "function"
    },
    {
      "inputs": [
        {
          "internalType": "uint256",
          "name": "distributionId",
          "type": "uint256"
        }
      ],
      "name": "markDistributionCompleted",
      "outputs": [],
      "stateMutability": "nonpayable",
      "type": "function"
    },
    {
      "inputs": [],
      "name": "pause",
      "outputs": [],
      "stateMutability": "nonpayable",
      "type": "function"
    },
    {
      "inputs": [],
      "name": "paused",
      "outputs": [
        {
          "internalType": "bool",
          "name": "",
          "type": "bool"
        }
      ],
      "stateMutability": "view",
      "type": "function"
    },
    {
      "inputs": [
        {
          "internalType": "bytes32",
          "name": "role",
          "type": "bytes32"
        },
        {
          "internalType": "address",
          "name": "callerConfirmation",
          "type": "address"
        }
      ],
      "name": "renounceRole",
      "outputs": [],
      "stateMutability": "nonpayable",
      "type": "function"
    },
    {
      "inputs": [
        {
          "internalType": "bytes32",
          "name": "role",
          "type": "bytes32"
        },
        {
          "internalType": "address",
          "name": "account",
          "type": "address"
        }
      ],
      "name": "revokeRole",
      "outputs": [],
      "stateMutability": "nonpayable",
      "type": "function"
    },
    {
      "inputs": [
        {
          "internalType": "bytes4",
          "name": "interfaceId",
          "type": "bytes4"
        }
      ],
      "name": "supportsInterface",
      "outputs": [
        {
          "internalType": "bool",
          "name": "",
          "type": "bool"
        }
      ],
      "stateMutability": "view",
      "type": "function"
    },
    {
      "inputs": [],
      "name": "totalDistributions",
      "outputs": [
        {
          "internalType": "uint256",
          "name": "",
          "type": "uint256"
        }
      ],
      "stateMutability": "view",
      "type": "function"
    },
    {
      "inputs": [],
      "name": "totalYieldDistributed",
      "outputs": [
        {
          "internalType": "uint256",
          "name": "",
          "type": "uint256"
        }
      ],
      "stateMutability": "view",
      "type": "function"
    },
    {
      "inputs": [],
      "name": "unpause",
      "outputs": [],
      "stateMutability": "nonpayable",
      "type": "function"
    },
    {
      "inputs": [
        {
          "internalType": "uint256",
          "name": "",
          "type": "uint256"
        },
        {
          "internalType": "address",
          "name": "",
          "type": "address"
        }
      ],
      "name": "userLastDistribution",
      "outputs": [
        {
          "internalType": "uint256",
          "name": "",
          "type": "uint256"
        }
      ],
      "stateMutability": "view",
      "type": "function"
    },
    {
      "inputs": [
        {
          "internalType": "uint256",
          "name": "",
          "type": "uint256"
        },
        {
          "internalType": "address",
          "name": "",
          "type": "address"
        }
      ],
      "name": "userYields",
      "outputs": [
        {
          "internalType": "uint256",
          "name": "totalEarned",
          "type": "uint256"
        },
        {
          "internalType": "uint256",
          "name": "totalClaimed",
          "type": "uint256"
        },
        {
          "internalType": "uint256",
          "name": "pendingYield",
          "type": "uint256"
        },
        {
          "internalType": "uint256",
          "name": "lastClaimTime",
          "type": "uint256"
        }
      ],
      "stateMutability": "view",
      "type": "function"
    },
    {
      "inputs": [],
      "name": "yieldToken",
      "outputs": [
        {
          "internalType": "address",
          "name": "",
          "type": "address"
        }
      ],
      "stateMutability": "view",
      "type": "function"
    }
  ],
  "bytecode": "0x60c06040523480156200001157600080fd5b506040516200259338038062002593833981016040819052620000349162000276565b600180556001600160a01b038316620000845760405162461bcd60e51b815260206004820152600d60248201526c24b73b30b634b21030b236b4b760991b60448201526064015b60405180910390fd5b6001600160a01b038216620000ce5760405162461bcd60e51b815260206004820152600f60248201526e496e76616c696420666163746f727960881b60448201526064016200007b565b6001600160a01b038116620001265760405162461bcd60e51b815260206004820152601360248201527f496e76616c6964207969656c6420746f6b656e0000000000000000000000000060448201526064016200007b565b6001600160a01b03808316608052811660a05262000146600084620001aa565b50620001737f470f4f1717679395b6a9e0700797bfeeaa970f1643e72f5684d687c0be10fe2784620001aa565b50620001a07ffbd454f36a7e1a388bd6fc3ab10d434aa4578f811acbbcf33afb1c697486313c84620001aa565b50505050620002c0565b6000828152602081815260408083206001600160a01b038516845290915281205460ff166200024f576000838152602081815260408083206001600160a01b03861684529091529020805460ff19166001179055620002063390565b6001600160a01b0316826001600160a01b0316847f2f8788117e7eff1d82e926ec794901d17c78024a50270940304540a733656f0d60405160405180910390a450600162000253565b5060005b92915050565b80516001600160a01b03811681146200027157600080fd5b919050565b6000806000606084860312156200028c57600080fd5b620002978462000259565b9250620002a76020850162000259565b9150620002b76040850162000259565b90509250925092565b60805160a05161227c62000317600039600081816103fa015281816109e301528181610dc801526112550152600081816104930152818161080001528181610fcb015281816110dd01526114b9015261227c6000f3fe608060405234801561001057600080fd5b50600436106101da5760003560e01c80635e8719251161010457806397206bd5116100a2578063d20abae211610071578063d20abae2146104b5578063d547741f146104fb578063f0bd87cc1461050e578063fe9e96401461053557600080fd5b806397206bd51461044f5780639ba3b81414610458578063a217fddf14610486578063c3acb4d11461048e57600080fd5b806373572235116100de57806373572235146103e257806376d5de85146103f55780638456cb591461043457806391d148541461043c57600080fd5b80635e8719251461034457806361b98dd91461036f578063698e7e30146103cf57600080fd5b806340bd2e231161017c57806351a8d88b1161014b57806351a8d88b146102f3578063551512de14610313578063575f12f7146103265780635c975abb1461033957600080fd5b806340bd2e23146102915780634487d3df146102a457806349fff710146102cd57806350af8e34146102e057600080fd5b80632f2ff15d116101b85780632f2ff15d1461024157806336568abe146102565780633b345a87146102695780633f4ba83a1461028957600080fd5b806301ffc9a7146101df578063163db71b14610207578063248a9ca31461021e575b600080fd5b6101f26101ed366004611bba565b61055c565b60405190151581526020015b60405180910390f35b61021060085481565b6040519081526020016101fe565b61021061022c366004611beb565b60009081526020819052604090206001015490565b61025461024f366004611c19565b610593565b005b610254610264366004611c19565b6105be565b61027c610277366004611beb565b6105f6565b6040516101fe9190611c8f565b610254610768565b61021061029f366004611beb565b61077e565b6102b76102b2366004611beb565b610a98565b6040516101fe9a99989796959493929190611d1c565b6102546102db366004611dc7565b610b79565b6102106102ee366004611e57565b610f79565b610306610301366004611beb565b61139a565b6040516101fe9190611f1b565b610254610321366004611f5f565b6113fc565b610210610334366004611fa1565b611465565b60025460ff166101f2565b610210610352366004611c19565b600660209081526000928352604080842090915290825290205481565b6103af61037d366004611c19565b600760209081526000928352604080842090915290825290208054600182015460028301546003909301549192909184565b6040805194855260208501939093529183015260608201526080016101fe565b6102106103dd366004611c19565b611496565b6102546103f0366004611beb565b61169f565b61041c7f000000000000000000000000000000000000000000000000000000000000000081565b6040516001600160a01b0390911681526020016101fe565b610254611733565b6101f261044a366004611c19565b611746565b61021060095481565b61046b610466366004611c19565b61176f565b604080519384526020840192909252908201526060016101fe565b610210600081565b61041c7f000000000000000000000000000000000000000000000000000000000000000081565b6104c86104c3366004611c19565b6117c4565b6040516101fe91908151815260208083015190820152604080830151908201526060918201519181019190915260800190565b610254610509366004611c19565b611846565b6102107ffbd454f36a7e1a388bd6fc3ab10d434aa4578f811acbbcf33afb1c697486313c81565b6102107f470f4f1717679395b6a9e0700797bfeeaa970f1643e72f5684d687c0be10fe2781565b60006001600160e01b03198216637965db0b60e01b148061058d57506301ffc9a760e01b6001600160e01b03198316145b92915050565b6000828152602081905260409020600101546105ae8161186b565b6105b88383611875565b50505050565b6001600160a01b03811633146105e75760405163334bd91960e11b815260040160405180910390fd5b6105f18282611907565b505050565b61064e6040518061014001604052806000815260200160008152602001600081526020016000815260200160008152602001600081526020016000815260200160001515815260200160008152602001606081525090565b6000828152600460208181526040928390208351610140810185528154815260018201549281019290925260028101549382019390935260038301546060820152908201546080820152600582015460a0820152600682015460c0820152600782015460ff16151560e08201526008820154610100820152600982018054919291610120840191906106df90611fc3565b80601f016020809104026020016040519081016040528092919081815260200182805461070b90611fc3565b80156107585780601f1061072d57610100808354040283529160200191610758565b820191906000526020600020905b81548152906001019060200180831161073b57829003601f168201915b5050505050815250509050919050565b60006107738161186b565b61077b611972565b50565b60006107886119c4565b6107906119ea565b33600061079d8483611496565b9050600081116107e75760405162461bcd60e51b815260206004820152601060248201526f139bc81c195b991a5b99c81e5a595b1960821b60448201526064015b60405180910390fd5b604051630cf99be760e31b8152600481018590526000907f00000000000000000000000000000000000000000000000000000000000000006001600160a01b0316906367ccdf3890602401602060405180830381865afa15801561084f573d6000803e3d6000fd5b505050506040513d601f19601f820116820180604052508101906108739190611ffd565b6040516370a0823160e01b81526001600160a01b0385811660048301529192508291600091908316906370a0823190602401602060405180830381865afa1580156108c2573d6000803e3d6000fd5b505050506040513d601f19601f820116820180604052508101906108e6919061201a565b90506000811161092b5760405162461bcd60e51b815260206004820152601060248201526f4e6f20746f6b656e2062616c616e636560801b60448201526064016107de565b60008781526007602090815260408083206001600160a01b0389168452909152812060018101805491928792610962908490612049565b90915550506000600282018190554260038301558881526005602052604090208054156109d657805481906109999060019061205c565b815481106109a9576109a961206f565b60009182526020808320909101548b83526006825260408084206001600160a01b038c1685529092529120555b610a0a6001600160a01b037f0000000000000000000000000000000000000000000000000000000000000000168888611a14565b8560096000828254610a1c9190612049565b909155505060008981526006602090815260408083206001600160a01b038b16808552908352928190205481518a81529283015297995089978b92917ff9162cc26f0eca9f5be23538144021fb5ee49b0dc99cbc082094912199583cda910160405180910390a350505050505050610a9360018055565b919050565b60046020819052600091825260409091208054600182015460028301546003840154948401546005850154600686015460078701546008880154600989018054989a9799969895969495939460ff90931693919291610af690611fc3565b80601f0160208091040260200160405190810160405280929190818152602001828054610b2290611fc3565b8015610b6f5780601f10610b4457610100808354040283529160200191610b6f565b820191906000526020600020905b815481529060010190602001808311610b5257829003601f168201915b505050505090508a565b7ffbd454f36a7e1a388bd6fc3ab10d434aa4578f811acbbcf33afb1c697486313c610ba38161186b565b610bab6119c4565b610bb36119ea565b838214610bf45760405162461bcd60e51b815260206004820152600f60248201526e098cadccee8d040dad2e6dac2e8c6d608b1b60448201526064016107de565b83610c345760405162461bcd60e51b815260206004820152601060248201526f456d70747920726563697069656e747360801b60448201526064016107de565b60008681526004602052604081208054909103610c8c5760405162461bcd60e51b8152602060048201526016602482015275111a5cdd1c9a589d5d1a5bdb881b9bdd08199bdd5b9960521b60448201526064016107de565b600781015460ff1615610cda5760405162461bcd60e51b8152602060048201526016602482015275111a5cdd1c9a589d5d1a5bdb8818dbdb5c1b195d195960521b60448201526064016107de565b6000805b86811015610eb8576000888883818110610cfa57610cfa61206f565b9050602002016020810190610d0f9190612085565b90506000878784818110610d2557610d2561206f565b60200291909101359150506001600160a01b038216610d7a5760405162461bcd60e51b8152602060048201526011602482015270125b9d985b1a59081c9958da5c1a595b9d607a1b60448201526064016107de565b60008111610dbb5760405162461bcd60e51b815260206004820152600e60248201526d125b9d985b1a5908185b5bdd5b9d60921b60448201526064016107de565b610def6001600160a01b037f0000000000000000000000000000000000000000000000000000000000000000168383611a14565b600185015460009081526007602090815260408083206001600160a01b03861684529091528120805490918391839190610e2a908490612049565b9250508190555081816001016000828254610e459190612049565b9091555050426003820155610e5a8286612049565b94508560010154836001600160a01b03167ff9162cc26f0eca9f5be23538144021fb5ee49b0dc99cbc082094912199583cda848f604051610ea5929190918252602082015260400190565b60405180910390a3505050600101610cde565b5086869050826005016000828254610ed09190612049565b9250508190555080826006016000828254610eeb9190612049565b90915550506002820154600683015410610f0f5760078201805460ff191660011790555b8060096000828254610f219190612049565b9091555050600182015460408051888152602081018490528a917f5217fd35953304bd5d532a156cfb6929811cf9c93c680f472c4f69f8c0bf6962910160405180910390a35050610f7160018055565b505050505050565b60007f470f4f1717679395b6a9e0700797bfeeaa970f1643e72f5684d687c0be10fe27610fa58161186b565b610fad6119c4565b610fb56119ea565b604051631174806160e11b8152600481018690527f00000000000000000000000000000000000000000000000000000000000000006001600160a01b0316906322e900c290602401602060405180830381865afa15801561101a573d6000803e3d6000fd5b505050506040513d601f19601f8201168201806040525081019061103e91906120a2565b61107d5760405162461bcd60e51b815260206004820152601060248201526f4173736574206e6f742061637469766560801b60448201526064016107de565b600084116110c45760405162461bcd60e51b8152602060048201526014602482015273125b9d985b1a59081e5a595b1908185b5bdd5b9d60621b60448201526064016107de565b604051630cf99be760e31b8152600481018690526000907f00000000000000000000000000000000000000000000000000000000000000006001600160a01b0316906367ccdf3890602401602060405180830381865afa15801561112c573d6000803e3d6000fd5b505050506040513d601f19601f820116820180604052508101906111509190611ffd565b90506001600160a01b03811661119a5760405162461bcd60e51b815260206004820152600f60248201526e151bdad95b881b9bdd08199bdd5b99608a1b60448201526064016107de565b60008190506000816001600160a01b03166318160ddd6040518163ffffffff1660e01b8152600401602060405180830381865afa1580156111df573d6000803e3d6000fd5b505050506040513d601f19601f82011682018060405250810190611203919061201a565b9050600081116112485760405162461bcd60e51b815260206004820152601060248201526f139bc81d1bdad95b9cc81a5cdcdd595960821b60448201526064016107de565b61127d6001600160a01b037f00000000000000000000000000000000000000000000000000000000000000001633308a611a73565b60008161129289670de0b6b3a76400006120c4565b61129c91906120db565b6003805491925060006112ae836120fd565b90915550506003805460008181526004602081905260408220838155600181018e9055600281018d9055938401859055830185905560058301819055600683015560078201805460ff19169055426008830155965060098101611311898261215e565b5060008a815260056020908152604082208054600181018255908352908220018890556008805491611342836120fd565b919050555089877f289b91629fa6218272852e9953cd1c5db4edf3585d849f97f2ecab67051a5c418b858c60405161137c9392919061221e565b60405180910390a3505050505061139260018055565b509392505050565b6000818152600560209081526040918290208054835181840281018401909452808452606093928301828280156113f057602002820191906000526020600020905b8154815260200190600101908083116113dc575b50505050509050919050565b60006114078161186b565b6001600160a01b0382166114515760405162461bcd60e51b8152602060048201526011602482015270125b9d985b1a59081c9958da5c1a595b9d607a1b60448201526064016107de565b6105b86001600160a01b0385168385611a14565b6005602052816000526040600020818154811061148157600080fd5b90600052602060002001600091509150505481565b604051630cf99be760e31b81526004810183905260009081906001600160a01b037f000000000000000000000000000000000000000000000000000000000000000016906367ccdf3890602401602060405180830381865afa158015611500573d6000803e3d6000fd5b505050506040513d601f19601f820116820180604052508101906115249190611ffd565b90506001600160a01b03811661153e57600091505061058d565b6040516370a0823160e01b81526001600160a01b03848116600483015282916000918316906370a0823190602401602060405180830381865afa158015611589573d6000803e3d6000fd5b505050506040513d601f19601f820116820180604052508101906115ad919061201a565b9050806000036115c3576000935050505061058d565b600086815260056020526040812080549091036115e757600094505050505061058d565b60008781526006602090815260408083206001600160a01b038a16845290915281205490805b835481101561169257600084828154811061162a5761162a61206f565b90600052602060002001549050838111611644575061168a565b60008181526004602052604081206003810154909190670de0b6b3a76400009061166e908a6120c4565b61167891906120db565b90506116848186612049565b94505050505b60010161160d565b5098975050505050505050565b7f470f4f1717679395b6a9e0700797bfeeaa970f1643e72f5684d687c0be10fe276116c98161186b565b600082815260046020526040812080549091036117215760405162461bcd60e51b8152602060048201526016602482015275111a5cdd1c9a589d5d1a5bdb881b9bdd08199bdd5b9960521b60448201526064016107de565b600701805460ff191660011790555050565b600061173e8161186b565b61077b611aac565b6000918252602082815260408084206001600160a01b0393909316845291905290205460ff1690565b60008281526007602090815260408083206001600160a01b0385168452909152812081908190816117a08787611496565b82549091506117b0908290612049565b600190920154919450925090509250925092565b6117ef6040518060800160405280600081526020016000815260200160008152602001600081525090565b5060009182526007602090815260408084206001600160a01b039390931684529181529181902081516080810183528154815260018201549381019390935260028101549183019190915260030154606082015290565b6000828152602081905260409020600101546118618161186b565b6105b88383611907565b61077b8133611ae9565b60006118818383611746565b6118ff576000838152602081815260408083206001600160a01b03861684529091529020805460ff191660011790556118b73390565b6001600160a01b0316826001600160a01b0316847f2f8788117e7eff1d82e926ec794901d17c78024a50270940304540a733656f0d60405160405180910390a450600161058d565b50600061058d565b60006119138383611746565b156118ff576000838152602081815260408083206001600160a01b0386168085529252808320805460ff1916905551339286917ff6391f5c32d9c69d2a47ea670b442974b53935d1edc7fd64eb21e047a839171b9190a450600161058d565b61197a611b26565b6002805460ff191690557f5db9ee0a495bf2e6ff9c91a7834c1ba4fdd244a5e8aa4e537bd38aeae4b073aa335b6040516001600160a01b03909116815260200160405180910390a1565b60025460ff16156119e85760405163d93c066560e01b815260040160405180910390fd5b565b600260015403611a0d57604051633ee5aeb560e01b815260040160405180910390fd5b6002600155565b6040516001600160a01b038381166024830152604482018390526105f191859182169063a9059cbb906064015b604051602081830303815290604052915060e01b6020820180516001600160e01b038381831617835250505050611b49565b6040516001600160a01b0384811660248301528381166044830152606482018390526105b89186918216906323b872dd90608401611a41565b611ab46119c4565b6002805460ff191660011790557f62e78cea01bee320cd4e420270b5ea74000d11b0c9f74754ebdbfc544b05a2586119a73390565b611af38282611746565b611b225760405163e2517d3f60e01b81526001600160a01b0382166004820152602481018390526044016107de565b5050565b60025460ff166119e857604051638dfc202b60e01b815260040160405180910390fd5b600080602060008451602086016000885af180611b6c576040513d6000823e3d81fd5b50506000513d91508115611b84578060011415611b91565b6001600160a01b0384163b155b156105b857604051635274afe760e01b81526001600160a01b03851660048201526024016107de565b600060208284031215611bcc57600080fd5b81356001600160e01b031981168114611be457600080fd5b9392505050565b600060208284031215611bfd57600080fd5b5035919050565b6001600160a01b038116811461077b57600080fd5b60008060408385031215611c2c57600080fd5b823591506020830135611c3e81611c04565b809150509250929050565b6000815180845260005b81811015611c6f57602081850181015186830182015201611c53565b506000602082860101526020601f19601f83011685010191505092915050565b6020815281516020820152602082015160408201526040820151606082015260608201516080820152608082015160a082015260a082015160c082015260c082015160e0820152600060e0830151610100611ced8185018315159052565b84015161012084810191909152840151610140808501529050611d14610160840182611c49565b949350505050565b60006101408c83528b60208401528a60408401528960608401528860808401528760a08401528660c084015285151560e08401528461010084015280610120840152611d6a81840185611c49565b9d9c50505050505050505050505050565b60008083601f840112611d8d57600080fd5b50813567ffffffffffffffff811115611da557600080fd5b6020830191508360208260051b8501011115611dc057600080fd5b9250929050565b600080600080600060608688031215611ddf57600080fd5b85359450602086013567ffffffffffffffff80821115611dfe57600080fd5b611e0a89838a01611d7b565b90965094506040880135915080821115611e2357600080fd5b50611e3088828901611d7b565b969995985093965092949392505050565b634e487b7160e01b600052604160045260246000fd5b600080600060608486031215611e6c57600080fd5b8335925060208401359150604084013567ffffffffffffffff80821115611e9257600080fd5b818601915086601f830112611ea657600080fd5b813581811115611eb857611eb8611e41565b604051601f8201601f19908116603f01168101908382118183101715611ee057611ee0611e41565b81604052828152896020848701011115611ef957600080fd5b8260208601602083013760006020848301015280955050505050509250925092565b6020808252825182820181905260009190848201906040850190845b81811015611f5357835183529284019291840191600101611f37565b50909695505050505050565b600080600060608486031215611f7457600080fd5b8335611f7f81611c04565b9250602084013591506040840135611f9681611c04565b809150509250925092565b60008060408385031215611fb457600080fd5b50508035926020909101359150565b600181811c90821680611fd757607f821691505b602082108103611ff757634e487b7160e01b600052602260045260246000fd5b50919050565b60006020828403121561200f57600080fd5b8151611be481611c04565b60006020828403121561202c57600080fd5b5051919050565b634e487b7160e01b600052601160045260246000fd5b8082018082111561058d5761058d612033565b8181038181111561058d5761058d612033565b634e487b7160e01b600052603260045260246000fd5b60006020828403121561209757600080fd5b8135611be481611c04565b6000602082840312156120b457600080fd5b81518015158114611be457600080fd5b808202811582820484141761058d5761058d612033565b6000826120f857634e487b7160e01b600052601260045260246000fd5b500490565b60006001820161210f5761210f612033565b5060010190565b601f8211156105f1576000816000526020600020601f850160051c8101602086101561213f5750805b601f850160051c820191505b81811015610f715782815560010161214b565b815167ffffffffffffffff81111561217857612178611e41565b61218c816121868454611fc3565b84612116565b602080601f8311600181146121c157600084156121a95750858301515b600019600386901b1c1916600185901b178555610f71565b600085815260208120601f198616915b828110156121f0578886015182559484019460019091019084016121d1565b508582101561220e5787850151600019600388901b60f8161c191681555b5050505050600190811b01905550565b83815282602082015260606040820152600061223d6060830184611c49565b9594505050505056fea26469706673582212202983036e47bf2e962f57c2249d74316855df89806aac82b88f0bc91a46d3a54b64736f6c63430008160033",
  "linkReferences": {},
  "deployedLinkReferences": {}
}