{
  "_format": "hh-sol-artifact-1",
  "contractName": "AaveV3Adapter",
  "sourceName": "contracts/layer2/adapters/AaveV3Adapter.sol",
  "abi": [
    {
      "inputs": [
        {
          "internalType": "address",
          "name": "_aavePool",
          "type": "address"
        },
        {
          "internalType": "address",
          "name": "_stateAggregator",
          "type": "address"
        },
        {
          "internalType": "address",
          "name": "initialOwner",
          "type": "address"
        }
      ],
      "stateMutability": "nonpayable",
      "type": "constructor"
    },
    {
      "inputs": [
        {
          "internalType": "address",
          "name": "owner",
          "type": "address"
        }
      ],
      "name": "OwnableInvalidOwner",
      "type": "error"
    },
    {
      "inputs": [
        {
          "internalType": "address",
          "name": "account",
          "type": "address"
        }
      ],
      "name": "OwnableUnauthorizedAccount",
      "type": "error"
    },
    {
      "inputs": [],
      "name": "ReentrancyGuardReentrantCall",
      "type": "error"
    },
    {
      "inputs": [
        {
          "internalType": "address",
          "name": "token",
          "type": "address"
        }
      ],
      "name": "SafeERC20FailedOperation",
      "type": "error"
    },
    {
      "anonymous": false,
      "inputs": [
        {
          "indexed": true,
          "internalType": "address",
          "name": "user",
          "type": "address"
        },
        {
          "indexed": true,
          "internalType": "address",
          "name": "asset",
          "type": "address"
        },
        {
          "indexed": false,
          "internalType": "uint256",
          "name": "amount",
          "type": "uint256"
        },
        {
          "indexed": false,
          "internalType": "uint256",
          "name": "interestRateMode",
          "type": "uint256"
        },
        {
          "indexed": false,
          "internalType": "uint256",
          "name": "timestamp",
          "type": "uint256"
        }
      ],
      "name": "Borrowed",
      "type": "event"
    },
    {
      "anonymous": false,
      "inputs": [
        {
          "indexed": true,
          "internalType": "address",
          "name": "user",
          "type": "address"
        },
        {
          "indexed": true,
          "internalType": "address",
          "name": "asset",
          "type": "address"
        },
        {
          "indexed": false,
          "internalType": "bool",
          "name": "useAsCollateral",
          "type": "bool"
        }
      ],
      "name": "CollateralStatusChanged",
      "type": "event"
    },
    {
      "anonymous": false,
      "inputs": [
        {
          "indexed": true,
          "internalType": "address",
          "name": "initiator",
          "type": "address"
        },
        {
          "indexed": true,
          "internalType": "address",
          "name": "asset",
          "type": "address"
        },
        {
          "indexed": false,
          "internalType": "uint256",
          "name": "amount",
          "type": "uint256"
        },
        {
          "indexed": false,
          "internalType": "uint256",
          "name": "premium",
          "type": "uint256"
        },
        {
          "indexed": false,
          "internalType": "uint256",
          "name": "timestamp",
          "type": "uint256"
        }
      ],
      "name": "FlashLoanExecuted",
      "type": "event"
    },
    {
      "anonymous": false,
      "inputs": [
        {
          "indexed": true,
          "internalType": "address",
          "name": "user",
          "type": "address"
        },
        {
          "indexed": true,
          "internalType": "address",
          "name": "asset",
          "type": "address"
        },
        {
          "indexed": false,
          "internalType": "uint256",
          "name": "newMode",
          "type": "uint256"
        }
      ],
      "name": "InterestRateModeSwapped",
      "type": "event"
    },
    {
      "anonymous": false,
      "inputs": [
        {
          "indexed": true,
          "internalType": "address",
          "name": "previousOwner",
          "type": "address"
        },
        {
          "indexed": true,
          "internalType": "address",
          "name": "newOwner",
          "type": "address"
        }
      ],
      "name": "OwnershipTransferred",
      "type": "event"
    },
    {
      "anonymous": false,
      "inputs": [
        {
          "indexed": true,
          "internalType": "address",
          "name": "user",
          "type": "address"
        },
        {
          "indexed": true,
          "internalType": "address",
          "name": "asset",
          "type": "address"
        },
        {
          "indexed": false,
          "internalType": "uint256",
          "name": "amount",
          "type": "uint256"
        },
        {
          "indexed": false,
          "internalType": "uint256",
          "name": "interestRateMode",
          "type": "uint256"
        },
        {
          "indexed": false,
          "internalType": "uint256",
          "name": "timestamp",
          "type": "uint256"
        }
      ],
      "name": "Repaid",
      "type": "event"
    },
    {
      "anonymous": false,
      "inputs": [
        {
          "indexed": true,
          "internalType": "address",
          "name": "user",
          "type": "address"
        },
        {
          "indexed": true,
          "internalType": "address",
          "name": "asset",
          "type": "address"
        },
        {
          "indexed": false,
          "internalType": "uint256",
          "name": "amount",
          "type": "uint256"
        },
        {
          "indexed": false,
          "internalType": "uint256",
          "name": "timestamp",
          "type": "uint256"
        }
      ],
      "name": "Supplied",
      "type": "event"
    },
    {
      "anonymous": false,
      "inputs": [
        {
          "indexed": true,
          "internalType": "address",
          "name": "user",
          "type": "address"
        },
        {
          "indexed": true,
          "internalType": "address",
          "name": "asset",
          "type": "address"
        },
        {
          "indexed": false,
          "internalType": "uint256",
          "name": "amount",
          "type": "uint256"
        },
        {
          "indexed": false,
          "internalType": "uint256",
          "name": "timestamp",
          "type": "uint256"
        }
      ],
      "name": "Withdrawn",
      "type": "event"
    },
    {
      "inputs": [],
      "name": "FLASH_LOAN_PREMIUM",
      "outputs": [
        {
          "internalType": "uint256",
          "name": "",
          "type": "uint256"
        }
      ],
      "stateMutability": "view",
      "type": "function"
    },
    {
      "inputs": [],
      "name": "INTEREST_RATE_MODE_STABLE",
      "outputs": [
        {
          "internalType": "uint256",
          "name": "",
          "type": "uint256"
        }
      ],
      "stateMutability": "view",
      "type": "function"
    },
    {
      "inputs": [],
      "name": "INTEREST_RATE_MODE_VARIABLE",
      "outputs": [
        {
          "internalType": "uint256",
          "name": "",
          "type": "uint256"
        }
      ],
      "stateMutability": "view",
      "type": "function"
    },
    {
      "inputs": [],
      "name": "PREMIUM_PRECISION",
      "outputs": [
        {
          "internalType": "uint256",
          "name": "",
          "type": "uint256"
        }
      ],
      "stateMutability": "view",
      "type": "function"
    },
    {
      "inputs": [],
      "name": "REFERRAL_CODE",
      "outputs": [
        {
          "internalType": "uint16",
          "name": "",
          "type": "uint16"
        }
      ],
      "stateMutability": "view",
      "type": "function"
    },
    {
      "inputs": [],
      "name": "aavePool",
      "outputs": [
        {
          "internalType": "contract IAaveV3Pool",
          "name": "",
          "type": "address"
        }
      ],
      "stateMutability": "view",
      "type": "function"
    },
    {
      "inputs": [],
      "name": "activeUsers",
      "outputs": [
        {
          "internalType": "uint256",
          "name": "",
          "type": "uint256"
        }
      ],
      "stateMutability": "view",
      "type": "function"
    },
    {
      "inputs": [
        {
          "internalType": "address",
          "name": "",
          "type": "address"
        }
      ],
      "name": "authorizedFlashLoanReceivers",
      "outputs": [
        {
          "internalType": "bool",
          "name": "",
          "type": "bool"
        }
      ],
      "stateMutability": "view",
      "type": "function"
    },
    {
      "inputs": [
        {
          "internalType": "address",
          "name": "asset",
          "type": "address"
        },
        {
          "internalType": "uint256",
          "name": "amount",
          "type": "uint256"
        },
        {
          "internalType": "uint256",
          "name": "interestRateMode",
          "type": "uint256"
        }
      ],
      "name": "borrow",
      "outputs": [],
      "stateMutability": "nonpayable",
      "type": "function"
    },
    {
      "inputs": [
        {
          "internalType": "uint256",
          "name": "amount",
          "type": "uint256"
        }
      ],
      "name": "calculateFlashLoanPremium",
      "outputs": [
        {
          "internalType": "uint256",
          "name": "",
          "type": "uint256"
        }
      ],
      "stateMutability": "pure",
      "type": "function"
    },
    {
      "inputs": [
        {
          "internalType": "address",
          "name": "asset",
          "type": "address"
        },
        {
          "internalType": "uint256",
          "name": "amount",
          "type": "uint256"
        },
        {
          "internalType": "uint256",
          "name": "premium",
          "type": "uint256"
        },
        {
          "internalType": "address",
          "name": "initiator",
          "type": "address"
        },
        {
          "internalType": "bytes",
          "name": "params",
          "type": "bytes"
        }
      ],
      "name": "executeOperation",
      "outputs": [
        {
          "internalType": "bool",
          "name": "",
          "type": "bool"
        }
      ],
      "stateMutability": "nonpayable",
      "type": "function"
    },
    {
      "inputs": [
        {
          "internalType": "address[]",
          "name": "assets",
          "type": "address[]"
        },
        {
          "internalType": "uint256[]",
          "name": "amounts",
          "type": "uint256[]"
        },
        {
          "internalType": "uint256[]",
          "name": "premiums",
          "type": "uint256[]"
        },
        {
          "internalType": "address",
          "name": "initiator",
          "type": "address"
        },
        {
          "internalType": "bytes",
          "name": "params",
          "type": "bytes"
        }
      ],
      "name": "executeOperation",
      "outputs": [
        {
          "internalType": "bool",
          "name": "",
          "type": "bool"
        }
      ],
      "stateMutability": "nonpayable",
      "type": "function"
    },
    {
      "inputs": [
        {
          "internalType": "address[]",
          "name": "assets",
          "type": "address[]"
        },
        {
          "internalType": "uint256[]",
          "name": "amounts",
          "type": "uint256[]"
        },
        {
          "internalType": "uint256[]",
          "name": "interestRateModes",
          "type": "uint256[]"
        },
        {
          "internalType": "bytes",
          "name": "params",
          "type": "bytes"
        }
      ],
      "name": "flashLoan",
      "outputs": [],
      "stateMutability": "nonpayable",
      "type": "function"
    },
    {
      "inputs": [
        {
          "internalType": "address",
          "name": "asset",
          "type": "address"
        },
        {
          "internalType": "uint256",
          "name": "amount",
          "type": "uint256"
        },
        {
          "internalType": "bytes",
          "name": "params",
          "type": "bytes"
        }
      ],
      "name": "flashLoanSimple",
      "outputs": [],
      "stateMutability": "nonpayable",
      "type": "function"
    },
    {
      "inputs": [
        {
          "internalType": "address",
          "name": "asset",
          "type": "address"
        }
      ],
      "name": "getReserveData",
      "outputs": [
        {
          "components": [
            {
              "components": [
                {
                  "internalType": "uint256",
                  "name": "data",
                  "type": "uint256"
                }
              ],
              "internalType": "struct IAaveV3Pool.ReserveConfigurationMap",
              "name": "configuration",
              "type": "tuple"
            },
            {
              "internalType": "uint128",
              "name": "liquidityIndex",
              "type": "uint128"
            },
            {
              "internalType": "uint128",
              "name": "currentLiquidityRate",
              "type": "uint128"
            },
            {
              "internalType": "uint128",
              "name": "variableBorrowIndex",
              "type": "uint128"
            },
            {
              "internalType": "uint128",
              "name": "currentVariableBorrowRate",
              "type": "uint128"
            },
            {
              "internalType": "uint128",
              "name": "currentStableBorrowRate",
              "type": "uint128"
            },
            {
              "internalType": "uint40",
              "name": "lastUpdateTimestamp",
              "type": "uint40"
            },
            {
              "internalType": "uint16",
              "name": "id",
              "type": "uint16"
            },
            {
              "internalType": "address",
              "name": "aTokenAddress",
              "type": "address"
            },
            {
              "internalType": "address",
              "name": "stableDebtTokenAddress",
              "type": "address"
            },
            {
              "internalType": "address",
              "name": "variableDebtTokenAddress",
              "type": "address"
            },
            {
              "internalType": "address",
              "name": "interestRateStrategyAddress",
              "type": "address"
            },
            {
              "internalType": "uint128",
              "name": "accruedToTreasury",
              "type": "uint128"
            },
            {
              "internalType": "uint128",
              "name": "unbacked",
              "type": "uint128"
            },
            {
              "internalType": "uint128",
              "name": "isolationModeTotalDebt",
              "type": "uint128"
            }
          ],
          "internalType": "struct IAaveV3Pool.ReserveData",
          "name": "",
          "type": "tuple"
        }
      ],
      "stateMutability": "view",
      "type": "function"
    },
    {
      "inputs": [
        {
          "internalType": "address",
          "name": "user",
          "type": "address"
        }
      ],
      "name": "getUserAccountData",
      "outputs": [
        {
          "internalType": "uint256",
          "name": "totalCollateralBase",
          "type": "uint256"
        },
        {
          "internalType": "uint256",
          "name": "totalDebtBase",
          "type": "uint256"
        },
        {
          "internalType": "uint256",
          "name": "availableBorrowsBase",
          "type": "uint256"
        },
        {
          "internalType": "uint256",
          "name": "currentLiquidationThreshold",
          "type": "uint256"
        },
        {
          "internalType": "uint256",
          "name": "ltv",
          "type": "uint256"
        },
        {
          "internalType": "uint256",
          "name": "healthFactor",
          "type": "uint256"
        }
      ],
      "stateMutability": "view",
      "type": "function"
    },
    {
      "inputs": [
        {
          "internalType": "address",
          "name": "user",
          "type": "address"
        }
      ],
      "name": "getUserPosition",
      "outputs": [
        {
          "components": [
            {
              "internalType": "uint256",
              "name": "totalSupplied",
              "type": "uint256"
            },
            {
              "internalType": "uint256",
              "name": "totalBorrowed",
              "type": "uint256"
            },
            {
              "internalType": "uint256",
              "name": "lastUpdate",
              "type": "uint256"
            }
          ],
          "internalType": "struct AaveV3Adapter.UserPosition",
          "name": "",
          "type": "tuple"
        }
      ],
      "stateMutability": "view",
      "type": "function"
    },
    {
      "inputs": [],
      "name": "owner",
      "outputs": [
        {
          "internalType": "address",
          "name": "",
          "type": "address"
        }
      ],
      "stateMutability": "view",
      "type": "function"
    },
    {
      "inputs": [
        {
          "internalType": "address",
          "name": "token",
          "type": "address"
        },
        {
          "internalType": "uint256",
          "name": "amount",
          "type": "uint256"
        }
      ],
      "name": "recoverToken",
      "outputs": [],
      "stateMutability": "nonpayable",
      "type": "function"
    },
    {
      "inputs": [],
      "name": "renounceOwnership",
      "outputs": [],
      "stateMutability": "nonpayable",
      "type": "function"
    },
    {
      "inputs": [
        {
          "internalType": "address",
          "name": "asset",
          "type": "address"
        },
        {
          "internalType": "uint256",
          "name": "amount",
          "type": "uint256"
        },
        {
          "internalType": "uint256",
          "name": "interestRateMode",
          "type": "uint256"
        }
      ],
      "name": "repay",
      "outputs": [
        {
          "internalType": "uint256",
          "name": "",
          "type": "uint256"
        }
      ],
      "stateMutability": "nonpayable",
      "type": "function"
    },
    {
      "inputs": [
        {
          "internalType": "address",
          "name": "asset",
          "type": "address"
        },
        {
          "internalType": "bool",
          "name": "useAsCollateral",
          "type": "bool"
        }
      ],
      "name": "setUserUseReserveAsCollateral",
      "outputs": [],
      "stateMutability": "nonpayable",
      "type": "function"
    },
    {
      "inputs": [],
      "name": "stateAggregator",
      "outputs": [
        {
          "internalType": "contract L2StateAggregator",
          "name": "",
          "type": "address"
        }
      ],
      "stateMutability": "view",
      "type": "function"
    },
    {
      "inputs": [
        {
          "internalType": "address",
          "name": "asset",
          "type": "address"
        },
        {
          "internalType": "uint256",
          "name": "amount",
          "type": "uint256"
        }
      ],
      "name": "supply",
      "outputs": [],
      "stateMutability": "nonpayable",
      "type": "function"
    },
    {
      "inputs": [
        {
          "internalType": "address",
          "name": "asset",
          "type": "address"
        },
        {
          "internalType": "uint256",
          "name": "currentRateMode",
          "type": "uint256"
        }
      ],
      "name": "swapBorrowRateMode",
      "outputs": [],
      "stateMutability": "nonpayable",
      "type": "function"
    },
    {
      "inputs": [],
      "name": "totalBorrowed",
      "outputs": [
        {
          "internalType": "uint256",
          "name": "",
          "type": "uint256"
        }
      ],
      "stateMutability": "view",
      "type": "function"
    },
    {
      "inputs": [],
      "name": "totalSupplied",
      "outputs": [
        {
          "internalType": "uint256",
          "name": "",
          "type": "uint256"
        }
      ],
      "stateMutability": "view",
      "type": "function"
    },
    {
      "inputs": [
        {
          "internalType": "address",
          "name": "newOwner",
          "type": "address"
        }
      ],
      "name": "transferOwnership",
      "outputs": [],
      "stateMutability": "nonpayable",
      "type": "function"
    },
    {
      "inputs": [
        {
          "internalType": "address",
          "name": "_newAggregator",
          "type": "address"
        }
      ],
      "name": "updateStateAggregator",
      "outputs": [],
      "stateMutability": "nonpayable",
      "type": "function"
    },
    {
      "inputs": [
        {
          "internalType": "address",
          "name": "",
          "type": "address"
        }
      ],
      "name": "userPositions",
      "outputs": [
        {
          "internalType": "uint256",
          "name": "totalSupplied",
          "type": "uint256"
        },
        {
          "internalType": "uint256",
          "name": "totalBorrowed",
          "type": "uint256"
        },
        {
          "internalType": "uint256",
          "name": "lastUpdate",
          "type": "uint256"
        }
      ],
      "stateMutability": "view",
      "type": "function"
    },
    {
      "inputs": [
        {
          "internalType": "address",
          "name": "asset",
          "type": "address"
        },
        {
          "internalType": "uint256",
          "name": "amount",
          "type": "uint256"
        }
      ],
      "name": "withdraw",
      "outputs": [
        {
          "internalType": "uint256",
          "name": "",
          "type": "uint256"
        }
      ],
      "stateMutability": "nonpayable",
      "type": "function"
    }
  ],
  "bytecode": "0x60a06040523480156200001157600080fd5b506040516200297338038062002973833981016040819052620000349162000164565b806001600160a01b0381166200006557604051631e4fbdf760e01b8152600060048201526024015b60405180910390fd5b6200007081620000f7565b50600180556001600160a01b038316620000cd5760405162461bcd60e51b815260206004820152601960248201527f496e76616c6964204161766520506f6f6c20616464726573730000000000000060448201526064016200005c565b506001600160a01b03918216608052600280546001600160a01b03191691909216179055620001ae565b600080546001600160a01b038381166001600160a01b0319831681178455604051919092169283917f8be0079c531659141344cd1fd0a4f28419497f9722a3daafe3b4186f6b6457e09190a35050565b80516001600160a01b03811681146200015f57600080fd5b919050565b6000806000606084860312156200017a57600080fd5b620001858462000147565b9250620001956020850162000147565b9150620001a56040850162000147565b90509250925092565b6080516127396200023a600039600081816103e70152818161052e015281816105d0015281816107a0015281816108c401528181610a0101528181610ac801528181610c7601528181610cd101528181610e52015281816110be015281816111ff015281816113210152818161145d015281816115df0152818161163701526117ea01526127396000f3fe608060405234801561001057600080fd5b50600436106101e45760003560e01c806374aa34de1161010f578063bf92857c116100a2578063edec34e411610071578063edec34e41461049a578063f2b9fdb8146104a3578063f2fde38b146104b6578063f3fef3a3146104c957600080fd5b8063bf92857c1461041c578063c1bce0b71461045c578063e549ff211461046f578063e55bd4ea1461047757600080fd5b8063920f5c84116100de578063920f5c84146103bc57806394ba89a2146103cf578063a03e4bc3146103e2578063b29a81401461040957600080fd5b806374aa34de1461037c57806387095873146103855780638cd2e0c7146103985780638da5cb5b146103ab57600080fd5b80635a3b74b911610187578063630fd0ac11610156578063630fd0ac1461035b5780636591e3a2146103645780636669e4051461036c578063715018a61461037457600080fd5b80635a3b74b9146102b65780635b7c2dad146102c95780635ec71e77146102fe578063613cf4201461031157600080fd5b806335ea6a75116101c357806335ea6a75146102415780634c19386c14610261578063542961541461027857806354ef29201461028b57600080fd5b8062666eea146101e95780631b11d0ff146101fe5780633583849a14610226575b600080fd5b6101fc6101f7366004611c9a565b6104dc565b005b61021161020c366004611cf6565b6105c3565b60405190151581526020015b60405180910390f35b61022e600081565b60405161ffff909116815260200161021d565b61025461024f366004611d72565b610825565b60405161021d9190611d8f565b61026a60055481565b60405190815260200161021d565b6101fc610286366004611f0e565b610936565b60025461029e906001600160a01b031681565b6040516001600160a01b03909116815260200161021d565b6101fc6102c4366004611fe0565b610aa1565b6102dc6102d7366004611d72565b610b6a565b604080518251815260208084015190820152918101519082015260600161021d565b6101fc61030c366004611d72565b610bd0565b61034061031f366004611d72565b60036020526000908152604090208054600182015460029092015490919083565b6040805193845260208401929092529082015260600161021d565b61026a60045481565b61026a600181565b61026a600281565b6101fc610bfa565b61026a60065481565b61026a610393366004612019565b610c0e565b61026a6103a6366004612032565b610c28565b6000546001600160a01b031661029e565b6102116103ca366004612067565b610e45565b6101fc6103dd366004612142565b6111d9565b61029e7f000000000000000000000000000000000000000000000000000000000000000081565b6101fc610417366004612142565b6112c3565b61042f61042a366004611d72565b6112f5565b604080519687526020870195909552938501929092526060840152608083015260a082015260c00161021d565b6101fc61046a366004612032565b6113a0565b61026a600981565b610211610485366004611d72565b60076020526000908152604090205460ff1681565b61026a61271081565b6101fc6104b1366004612142565b611593565b6101fc6104c4366004611d72565b611753565b61026a6104d7366004612142565b611791565b6104e4611927565b6000831161050d5760405162461bcd60e51b81526004016105049061216e565b60405180910390fd5b600880546001600160a01b031916331790556040516310ac2ddf60e21b81527f00000000000000000000000000000000000000000000000000000000000000006001600160a01b0316906342b0b77c9061057690309088908890889088906000906004016121cc565b600060405180830381600087803b15801561059057600080fd5b505af11580156105a4573d6000803e3d6000fd5b5050600880546001600160a01b03191690555050600180555b50505050565b6000336001600160a01b037f000000000000000000000000000000000000000000000000000000000000000016146106385760405162461bcd60e51b815260206004820152601860248201527710d85b1b195c881b5d5cdd0818994810585d9948141bdbdb60421b6044820152606401610504565b6001600160a01b03841630146106905760405162461bcd60e51b815260206004820152601f60248201527f496e69746961746f72206d757374206265207468697320636f6e7472616374006044820152606401610504565b6008546001600160a01b03166106df5760405162461bcd60e51b815260206004820152601460248201527327379030b1ba34bb3290333630b9b4103637b0b760611b6044820152606401610504565b60006106ed83850185611d72565b90506107036001600160a01b0389168289611951565b600854604051631b11d0ff60e01b81526001600160a01b0383811692631b11d0ff9261073f928d928d928d92909116908b908b90600401612217565b6020604051808303816000875af115801561075e573d6000803e3d6000fd5b505050506040513d601f19601f82011682018060405250810190610782919061225e565b50600061078f8789612291565b90506107c56001600160a01b038a167f0000000000000000000000000000000000000000000000000000000000000000836119b0565b600854604080518a8152602081018a9052428183015290516001600160a01b038c81169316917f7496e4be6af6dfb89358a476c6b4e25416b1223f4d0a29999fefbaf4adb8d515919081900360600190a350600198975050505050505050565b604080516102008101825260006101e08201818152825260208201819052918101829052606081018290526080810182905260a0810182905260c0810182905260e08101829052610100810182905261012081018290526101408101829052610160810182905261018081018290526101a081018290526101c08101919091526040516335ea6a7560e01b81526001600160a01b0383811660048301527f000000000000000000000000000000000000000000000000000000000000000016906335ea6a75906024016101e060405180830381865afa15801561090c573d6000803e3d6000fd5b505050506040513d601f19601f82011682018060405250810190610930919061237a565b92915050565b61093e611927565b8661098b5760405162461bcd60e51b815260206004820152601e60248201527f4d75737420626f72726f77206174206c65617374206f6e6520617373657400006044820152606401610504565b868514801561099957508683145b6109dd5760405162461bcd60e51b8152602060048201526015602482015274082e4e4c2f240d8cadccee8d040dad2e6dac2e8c6d605b1b6044820152606401610504565b600880546001600160a01b0319163390811790915560405163ab9c4b5d60e01b81527f00000000000000000000000000000000000000000000000000000000000000006001600160a01b03169163ab9c4b5d91610a519130918d918d918d918d918d918d918d908d90600090600401612518565b600060405180830381600087803b158015610a6b57600080fd5b505af1158015610a7f573d6000803e3d6000fd5b5050600880546001600160a01b03191690555050600180555050505050505050565b604051635a3b74b960e01b81526001600160a01b03838116600483015282151560248301527f00000000000000000000000000000000000000000000000000000000000000001690635a3b74b990604401600060405180830381600087803b158015610b0c57600080fd5b505af1158015610b20573d6000803e3d6000fd5b505060405183151581526001600160a01b03851692503391507f540342942401f36944b5df8d514c51499b07194c3655ab20df5e3dd2f1af6cb49060200160405180910390a35050565b610b8e60405180606001604052806000815260200160008152602001600081525090565b506001600160a01b0316600090815260036020908152604091829020825160608101845281548152600182015492810192909252600201549181019190915290565b610bd8611a40565b600280546001600160a01b0319166001600160a01b0392909216919091179055565b610c02611a40565b610c0c6000611a6d565b565b6000612710610c1e60098461259e565b61093091906125b5565b6000610c32611927565b60008311610c525760405162461bcd60e51b81526004016105049061216e565b610c676001600160a01b038516333086611abd565b610c9b6001600160a01b0385167f0000000000000000000000000000000000000000000000000000000000000000856119b0565b60405163573ade8160e01b81526001600160a01b03858116600483015260248201859052604482018490523360648301526000917f00000000000000000000000000000000000000000000000000000000000000009091169063573ade81906084016020604051808303816000875af1158015610d1c573d6000803e3d6000fd5b505050506040513d601f19601f82011682018060405250810190610d4091906125d7565b905083811015610d6957610d6933610d5883876125f0565b6001600160a01b0388169190611951565b33600090815260036020526040812060018101805491928492610d8d9084906125f0565b909155505042600282015560058054839190600090610dad9084906125f0565b90915550506001810154158015610dc357508054155b15610dde5760068054906000610dd883612603565b91905055505b6040805183815260208101869052428183015290516001600160a01b0388169133917f244fed5b3268b6a17fff986a36f3d87e163ac678d91d552866eb1e74f010f3a69181900360600190a3610e32611af6565b509050610e3e60018055565b9392505050565b6000336001600160a01b037f00000000000000000000000000000000000000000000000000000000000000001614610eba5760405162461bcd60e51b815260206004820152601860248201527710d85b1b195c881b5d5cdd0818994810585d9948141bdbdb60421b6044820152606401610504565b6001600160a01b0384163014610f125760405162461bcd60e51b815260206004820152601f60248201527f496e69746961746f72206d757374206265207468697320636f6e7472616374006044820152606401610504565b6008546001600160a01b0316610f615760405162461bcd60e51b815260206004820152601460248201527327379030b1ba34bb3290333630b9b4103637b0b760611b6044820152606401610504565b6000610f6f83850185611d72565b905060005b8a811015610fd857610fd0828b8b84818110610f9257610f9261261a565b905060200201358e8e85818110610fab57610fab61261a565b9050602002016020810190610fc09190611d72565b6001600160a01b03169190611951565b600101610f74565b50806001600160a01b031663920f5c848c8c8c8c8c8c600860009054906101000a90046001600160a01b03168c8c6040518a63ffffffff1660e01b815260040161102a99989796959493929190612630565b6020604051808303816000875af1158015611049573d6000803e3d6000fd5b505050506040513d601f19601f8201168201806040525081019061106d919061225e565b5060005b8a8110156111c757600088888381811061108d5761108d61261a565b905060200201358b8b848181106110a6576110a661261a565b905060200201356110b79190612291565b90506111157f0000000000000000000000000000000000000000000000000000000000000000828f8f868181106110f0576110f061261a565b90506020020160208101906111059190611d72565b6001600160a01b031691906119b0565b8c8c838181106111275761112761261a565b905060200201602081019061113c9190611d72565b6008546001600160a01b0391821691167f7496e4be6af6dfb89358a476c6b4e25416b1223f4d0a29999fefbaf4adb8d5158d8d8681811061117f5761117f61261a565b905060200201358c8c878181106111985761119861261a565b60408051948552602091820293909301359084015250429082015260600160405180910390a350600101611071565b5060019b9a5050505050505050505050565b604051634a5d44d160e11b81526001600160a01b038381166004830152602482018390527f000000000000000000000000000000000000000000000000000000000000000016906394ba89a290604401600060405180830381600087803b15801561124357600080fd5b505af1158015611257573d6000803e3d6000fd5b5050505060006001821461126c57600161126f565b60025b9050826001600160a01b0316336001600160a01b03167f7a1499fe284581882902f8fabb44bfcdcc0b84f606cd58eeff27c5d7e9f38cc5836040516112b691815260200190565b60405180910390a3505050565b6112cb611a40565b6112f16112e06000546001600160a01b031690565b6001600160a01b0384169083611951565b5050565b604051632fe4a15f60e21b81526001600160a01b038281166004830152600091829182918291829182917f0000000000000000000000000000000000000000000000000000000000000000169063bf92857c9060240160c060405180830381865afa158015611368573d6000803e3d6000fd5b505050506040513d601f19601f8201168201806040525081019061138c91906126a0565b949c939b5091995097509550909350915050565b6113a8611927565b600082116113c85760405162461bcd60e51b81526004016105049061216e565b60018114806113d75750600281145b6114235760405162461bcd60e51b815260206004820152601a60248201527f496e76616c696420696e7465726573742072617465206d6f64650000000000006044820152606401610504565b60405163a415bcad60e01b81526001600160a01b0384811660048301526024820184905260448201839052600060648301523360848301527f0000000000000000000000000000000000000000000000000000000000000000169063a415bcad9060a401600060405180830381600087803b1580156114a157600080fd5b505af11580156114b5573d6000803e3d6000fd5b5050336000908152600360205260409020600181015490925015905080156114dc57508054155b156114f757600680549060006114f1836126ea565b91905055505b8281600101600082825461150b9190612291565b90915550504260028201556005805484919060009061152b908490612291565b90915550506040805184815260208101849052428183015290516001600160a01b0386169133917fc1cba78646fef030830d099fc25cb498953709c9d47d883848f81fd207174c9f9181900360600190a3611584611af6565b5061158e60018055565b505050565b61159b611927565b600081116115bb5760405162461bcd60e51b81526004016105049061216e565b6115d06001600160a01b038316333084611abd565b6116046001600160a01b0383167f0000000000000000000000000000000000000000000000000000000000000000836119b0565b60405163617ba03760e01b81526001600160a01b03838116600483015260248201839052336044830152600060648301527f0000000000000000000000000000000000000000000000000000000000000000169063617ba03790608401600060405180830381600087803b15801561167b57600080fd5b505af115801561168f573d6000803e3d6000fd5b50503360009081526003602052604081208054909350900390506116c357600680549060006116bd836126ea565b91905055505b818160000160008282546116d79190612291565b9091555050426002820155600480548391906000906116f7908490612291565b9091555050604080518381524260208201526001600160a01b0385169133917f2b650c94fbe31b46ae7946bf007a115a23c6e4532d75ad025261819304334598910160405180910390a3611749611af6565b506112f160018055565b61175b611a40565b6001600160a01b03811661178557604051631e4fbdf760e01b815260006004820152602401610504565b61178e81611a6d565b50565b600061179b611927565b600082116117bb5760405162461bcd60e51b81526004016105049061216e565b604051631a4ca37b60e21b81526001600160a01b038481166004830152602482018490523360448301526000917f0000000000000000000000000000000000000000000000000000000000000000909116906369328dec906064016020604051808303816000875af1158015611835573d6000803e3d6000fd5b505050506040513d601f19601f8201168201806040525081019061185991906125d7565b3360009081526003602052604081208054929350918391839161187d9084906125f0565b90915550504260028201556004805483919060009061189d9084906125f0565b909155505080541580156118b357506001810154155b156118ce57600680549060006118c883612603565b91905055505b604080518381524260208201526001600160a01b0387169133917f91fb9d98b786c57d74c099ccd2beca1739e9f6a81fb49001ca465c4b7591bbe2910160405180910390a361191b611af6565b50905061093060018055565b60026001540361194a57604051633ee5aeb560e01b815260040160405180910390fd5b6002600155565b6040516001600160a01b0383811660248301526044820183905261158e91859182169063a9059cbb906064015b604051602081830303815290604052915060e01b6020820180516001600160e01b038381831617835250505050611b7c565b604080516001600160a01b038416602482015260448082018490528251808303909101815260649091019091526020810180516001600160e01b031663095ea7b360e01b179052611a018482611bed565b6105bd576040516001600160a01b03848116602483015260006044830152611a3691869182169063095ea7b39060640161197e565b6105bd8482611b7c565b6000546001600160a01b03163314610c0c5760405163118cdaa760e01b8152336004820152602401610504565b600080546001600160a01b038381166001600160a01b0319831681178455604051919092169283917f8be0079c531659141344cd1fd0a4f28419497f9722a3daafe3b4186f6b6457e09190a35050565b6040516001600160a01b0384811660248301528381166044830152606482018390526105bd9186918216906323b872dd9060840161197e565b6002546001600160a01b031615610c0c57600254600480546005546006546040516305a888b960e21b81529384019290925260248301526044820152600060648201526001600160a01b03909116906316a222e490608401600060405180830381600087803b158015611b6857600080fd5b505af11580156105bd573d6000803e3d6000fd5b600080602060008451602086016000885af180611b9f576040513d6000823e3d81fd5b50506000513d91508115611bb7578060011415611bc4565b6001600160a01b0384163b155b156105bd57604051635274afe760e01b81526001600160a01b0385166004820152602401610504565b6000806000806020600086516020880160008a5af192503d91506000519050828015611c3257508115611c235780600114611c32565b6000866001600160a01b03163b115b9695505050505050565b6001600160a01b038116811461178e57600080fd5b60008083601f840112611c6357600080fd5b50813567ffffffffffffffff811115611c7b57600080fd5b602083019150836020828501011115611c9357600080fd5b9250929050565b60008060008060608587031215611cb057600080fd5b8435611cbb81611c3c565b935060208501359250604085013567ffffffffffffffff811115611cde57600080fd5b611cea87828801611c51565b95989497509550505050565b60008060008060008060a08789031215611d0f57600080fd5b8635611d1a81611c3c565b955060208701359450604087013593506060870135611d3881611c3c565b9250608087013567ffffffffffffffff811115611d5457600080fd5b611d6089828a01611c51565b979a9699509497509295939492505050565b600060208284031215611d8457600080fd5b8135610e3e81611c3c565b81515181526101e081016020830151611db360208401826001600160801b03169052565b506040830151611dce60408401826001600160801b03169052565b506060830151611de960608401826001600160801b03169052565b506080830151611e0460808401826001600160801b03169052565b5060a0830151611e1f60a08401826001600160801b03169052565b5060c0830151611e3860c084018264ffffffffff169052565b5060e0830151611e4e60e084018261ffff169052565b50610100838101516001600160a01b039081169184019190915261012080850151821690840152610140808501518216908401526101608085015190911690830152610180808401516001600160801b03908116918401919091526101a0808501518216908401526101c09384015116929091019190915290565b60008083601f840112611edb57600080fd5b50813567ffffffffffffffff811115611ef357600080fd5b6020830191508360208260051b8501011115611c9357600080fd5b6000806000806000806000806080898b031215611f2a57600080fd5b883567ffffffffffffffff80821115611f4257600080fd5b611f4e8c838d01611ec9565b909a50985060208b0135915080821115611f6757600080fd5b611f738c838d01611ec9565b909850965060408b0135915080821115611f8c57600080fd5b611f988c838d01611ec9565b909650945060608b0135915080821115611fb157600080fd5b50611fbe8b828c01611c51565b999c989b5096995094979396929594505050565b801515811461178e57600080fd5b60008060408385031215611ff357600080fd5b8235611ffe81611c3c565b9150602083013561200e81611fd2565b809150509250929050565b60006020828403121561202b57600080fd5b5035919050565b60008060006060848603121561204757600080fd5b833561205281611c3c565b95602085013595506040909401359392505050565b600080600080600080600080600060a08a8c03121561208557600080fd5b893567ffffffffffffffff8082111561209d57600080fd5b6120a98d838e01611ec9565b909b50995060208c01359150808211156120c257600080fd5b6120ce8d838e01611ec9565b909950975060408c01359150808211156120e757600080fd5b6120f38d838e01611ec9565b909750955060608c0135915061210882611c3c565b90935060808b0135908082111561211e57600080fd5b5061212b8c828d01611c51565b915080935050809150509295985092959850929598565b6000806040838503121561215557600080fd5b823561216081611c3c565b946020939093013593505050565b6020808252818101527f416d6f756e74206d7573742062652067726561746572207468616e207a65726f604082015260600190565b81835281816020850137506000828201602090810191909152601f909101601f19169091010190565b6001600160a01b038781168252861660208201526040810185905260a06060820181905260009061220090830185876121a3565b905061ffff83166080830152979650505050505050565b6001600160a01b03878116825260208201879052604082018690528416606082015260a06080820181905260009061225290830184866121a3565b98975050505050505050565b60006020828403121561227057600080fd5b8151610e3e81611fd2565b634e487b7160e01b600052601160045260246000fd5b808201808211156109305761093061227b565b6040516101e0810167ffffffffffffffff811182821017156122d657634e487b7160e01b600052604160045260246000fd5b60405290565b6000602082840312156122ee57600080fd5b6040516020810181811067ffffffffffffffff8211171561231f57634e487b7160e01b600052604160045260246000fd5b6040529151825250919050565b80516001600160801b038116811461234357600080fd5b919050565b805164ffffffffff8116811461234357600080fd5b805161ffff8116811461234357600080fd5b805161234381611c3c565b60006101e0828403121561238d57600080fd5b6123956122a4565b61239f84846122dc565b81526123ad6020840161232c565b60208201526123be6040840161232c565b60408201526123cf6060840161232c565b60608201526123e06080840161232c565b60808201526123f160a0840161232c565b60a082015261240260c08401612348565b60c082015261241360e0840161235d565b60e082015261010061242681850161236f565b9082015261012061243884820161236f565b9082015261014061244a84820161236f565b9082015261016061245c84820161236f565b9082015261018061246e84820161232c565b908201526101a061248084820161232c565b908201526101c061249284820161232c565b908201529392505050565b8183526000602080850194508260005b858110156124db5781356124c081611c3c565b6001600160a01b0316875295820195908201906001016124ad565b509495945050505050565b81835260006001600160fb1b038311156124ff57600080fd5b8260051b80836020870137939093016020019392505050565b600060018060a01b03808e16835260e0602084015261253b60e084018d8f61249d565b838103604085015261254e818c8e6124e6565b90508381036060850152612563818a8c6124e6565b9050818816608085015283810360a08501526125808187896121a3565b9250505061ffff831660c08301529c9b505050505050505050505050565b80820281158282048414176109305761093061227b565b6000826125d257634e487b7160e01b600052601260045260246000fd5b500490565b6000602082840312156125e957600080fd5b5051919050565b818103818111156109305761093061227b565b6000816126125761261261227b565b506000190190565b634e487b7160e01b600052603260045260246000fd5b60a08152600061264460a083018b8d61249d565b8281036020840152612657818a8c6124e6565b9050828103604084015261266c81888a6124e6565b6001600160a01b0387166060850152838103608085015290506126908185876121a3565b9c9b505050505050505050505050565b60008060008060008060c087890312156126b957600080fd5b865195506020870151945060408701519350606087015192506080870151915060a087015190509295509295509295565b6000600182016126fc576126fc61227b565b506001019056fea26469706673582212209a8c0b6dc664643bd733a1941638b8f246385b412791bf14a44aca5cde9dff7064736f6c63430008160033",
  "linkReferences": {},
  "deployedLinkReferences": {}
}