{
  "_format": "hh-sol-artifact-1",
  "contractName": "MockGMXV2Reader",
  "sourceName": "contracts/mocks/MockGMXV2.sol",
  "abi": [
    {
      "inputs": [
        {
          "internalType": "address",
          "name": "dataStore",
          "type": "address"
        },
        {
          "internalType": "address",
          "name": "market",
          "type": "address"
        },
        {
          "internalType": "uint256",
          "name": "longTokenPrice",
          "type": "uint256"
        },
        {
          "internalType": "uint256",
          "name": "shortTokenPrice",
          "type": "uint256"
        },
        {
          "internalType": "uint256",
          "name": "indexTokenPrice",
          "type": "uint256"
        },
        {
          "internalType": "bytes32",
          "name": "pnlFactorType",
          "type": "bytes32"
        },
        {
          "internalType": "bool",
          "name": "maximize",
          "type": "bool"
        }
      ],
      "name": "getMarketTokenPrice",
      "outputs": [
        {
          "internalType": "int256",
          "name": "",
          "type": "int256"
        },
        {
          "components": [
            {
              "internalType": "uint256",
              "name": "indexTokenPrice",
              "type": "uint256"
            },
            {
              "internalType": "uint256",
              "name": "longTokenPrice",
              "type": "uint256"
            },
            {
              "internalType": "uint256",
              "name": "shortTokenPrice",
              "type": "uint256"
            }
          ],
          "internalType": "struct IGMXV2Reader.MarketPrices",
          "name": "",
          "type": "tuple"
        }
      ],
      "stateMutability": "view",
      "type": "function"
    },
    {
      "inputs": [
        {
          "internalType": "address",
          "name": "dataStore",
          "type": "address"
        },
        {
          "internalType": "address",
          "name": "account",
          "type": "address"
        },
        {
          "internalType": "address",
          "name": "market",
          "type": "address"
        },
        {
          "internalType": "address",
          "name": "collateralToken",
          "type": "address"
        },
        {
          "internalType": "bool",
          "name": "isLong",
          "type": "bool"
        }
      ],
      "name": "getPosition",
      "outputs": [
        {
          "components": [
            {
              "internalType": "address",
              "name": "account",
              "type": "address"
            },
            {
              "internalType": "address",
              "name": "market",
              "type": "address"
            },
            {
              "internalType": "address",
              "name": "collateralToken",
              "type": "address"
            },
            {
              "internalType": "bool",
              "name": "isLong",
              "type": "bool"
            },
            {
              "internalType": "uint256",
              "name": "sizeInUsd",
              "type": "uint256"
            },
            {
              "internalType": "uint256",
              "name": "sizeInTokens",
              "type": "uint256"
            },
            {
              "internalType": "uint256",
              "name": "collateralAmount",
              "type": "uint256"
            },
            {
              "internalType": "uint256",
              "name": "borrowingFactor",
              "type": "uint256"
            },
            {
              "internalType": "uint256",
              "name": "fundingFeeAmountPerSize",
              "type": "uint256"
            },
            {
              "internalType": "uint256",
              "name": "longTokenClaimableFundingAmountPerSize",
              "type": "uint256"
            },
            {
              "internalType": "uint256",
              "name": "shortTokenClaimableFundingAmountPerSize",
              "type": "uint256"
            }
          ],
          "internalType": "struct IGMXV2Reader.PositionInfo",
          "name": "",
          "type": "tuple"
        }
      ],
      "stateMutability": "view",
      "type": "function"
    },
    {
      "inputs": [
        {
          "internalType": "address",
          "name": "account",
          "type": "address"
        },
        {
          "internalType": "address",
          "name": "market",
          "type": "address"
        },
        {
          "internalType": "address",
          "name": "collateralToken",
          "type": "address"
        },
        {
          "internalType": "bool",
          "name": "isLong",
          "type": "bool"
        },
        {
          "internalType": "uint256",
          "name": "sizeInUsd",
          "type": "uint256"
        },
        {
          "internalType": "uint256",
          "name": "collateralAmount",
          "type": "uint256"
        }
      ],
      "name": "setPosition",
      "outputs": [],
      "stateMutability": "nonpayable",
      "type": "function"
    }
  ],
  "bytecode": "0x608060405234801561001057600080fd5b506105fc806100206000396000f3fe608060405234801561001057600080fd5b50600436106100415760003560e01c8063653f780614610046578063881fe7f91461005b578063bb86cd101461009b575b600080fd5b6100596100543660046103a5565b6100bb565b005b61006e61006936600461040b565b6101df565b60408051928352815160208085019190915282015183820152015160608201526080015b60405180910390f35b6100ae6100a9366004610475565b61022c565b60405161009291906104da565b6000868686866040516020016100d49493929190610588565b60408051601f198184030181528282528051602091820120610160840183526001600160a01b039a8b168452988a16838201908152978a168383019081529615156060840190815260808401968752600060a0850181815260c0860197885260e086018281526101008701838152610120880184815261014089018581529e8552958490529590922095518654908e166001600160a01b03199182161787559a51600187018054918f1691909c1617909a55975160028501805492511515600160a01b026001600160a81b031990931691909c161717909955935160038201559451600486015550516005840155905160068301555160078201559151600883015551600990910155565b600061020560405180606001604052806000815260200160008152602001600081525090565b50506040805160608101825293845260208401959095525050918201526000939092509050565b6102a660405180610160016040528060006001600160a01b0316815260200160006001600160a01b0316815260200160006001600160a01b03168152602001600015158152602001600081526020016000815260200160008152602001600081526020016000815260200160008152602001600081525090565b6000858585856040516020016102bf9493929190610588565b60408051808303601f19018152828252805160209182012060009081528082528290206101608401835280546001600160a01b0390811685526001820154811692850192909252600281015491821692840192909252600160a01b900460ff161515606083015260038101546080830152600481015460a0830152600581015460c0830152600681015460e08301526007810154610100830152600881015461012083015260090154610140820152979650505050505050565b80356001600160a01b038116811461039057600080fd5b919050565b8035801515811461039057600080fd5b60008060008060008060c087890312156103be57600080fd5b6103c787610379565b95506103d560208801610379565b94506103e360408801610379565b93506103f160608801610395565b92506080870135915060a087013590509295509295509295565b600080600080600080600060e0888a03121561042657600080fd5b61042f88610379565b965061043d60208901610379565b955060408801359450606088013593506080880135925060a0880135915061046760c08901610395565b905092959891949750929550565b600080600080600060a0868803121561048d57600080fd5b61049686610379565b94506104a460208701610379565b93506104b260408701610379565b92506104c060608701610379565b91506104ce60808701610395565b90509295509295909350565b81516001600160a01b031681526101608101602083015161050660208401826001600160a01b03169052565b50604083015161052160408401826001600160a01b03169052565b506060830151610535606084018215159052565b506080830151608083015260a083015160a083015260c083015160c083015260e083015160e083015261010080840151818401525061012080840151818401525061014080840151818401525092915050565b6bffffffffffffffffffffffff19606095861b8116825293851b841660148201529190931b909116602882015290151560f81b603c820152603d019056fea2646970667358221220919fcb18de27052b7edd4e1ccd488349320ef2029eff2c27a58116496fe6dc3764736f6c63430008160033",
  "linkReferences": {},
  "deployedLinkReferences": {}
}