{
  "_format": "hh-sol-artifact-1",
  "contractName": "MockGMXV2DataStore",
  "sourceName": "contracts/mocks/MockGMXV2.sol",
  "abi": [
    {
      "inputs": [
        {
          "internalType": "bytes32",
          "name": "key",
          "type": "bytes32"
        }
      ],
      "name": "getAddress",
      "outputs": [
        {
          "internalType": "address",
          "name": "",
          "type": "address"
        }
      ],
      "stateMutability": "view",
      "type": "function"
    },
    {
      "inputs": [
        {
          "internalType": "bytes32",
          "name": "key",
          "type": "bytes32"
        }
      ],
      "name": "getBool",
      "outputs": [
        {
          "internalType": "bool",
          "name": "",
          "type": "bool"
        }
      ],
      "stateMutability": "view",
      "type": "function"
    },
    {
      "inputs": [
        {
          "internalType": "bytes32",
          "name": "key",
          "type": "bytes32"
        }
      ],
      "name": "getInt",
      "outputs": [
        {
          "internalType": "int256",
          "name": "",
          "type": "int256"
        }
      ],
      "stateMutability": "view",
      "type": "function"
    },
    {
      "inputs": [
        {
          "internalType": "bytes32",
          "name": "key",
          "type": "bytes32"
        }
      ],
      "name": "getUint",
      "outputs": [
        {
          "internalType": "uint256",
          "name": "",
          "type": "uint256"
        }
      ],
      "stateMutability": "view",
      "type": "function"
    },
    {
      "inputs": [
        {
          "internalType": "bytes32",
          "name": "key",
          "type": "bytes32"
        },
        {
          "internalType": "address",
          "name": "value",
          "type": "address"
        }
      ],
      "name": "setAddress",
      "outputs": [],
      "stateMutability": "nonpayable",
      "type": "function"
    },
    {
      "inputs": [
        {
          "internalType": "bytes32",
          "name": "key",
          "type": "bytes32"
        },
        {
          "internalType": "bool",
          "name": "value",
          "type": "bool"
        }
      ],
      "name": "setBool",
      "outputs": [],
      "stateMutability": "nonpayable",
      "type": "function"
    },
    {
      "inputs": [
        {
          "internalType": "bytes32",
          "name": "key",
          "type": "bytes32"
        },
        {
          "internalType": "int256",
          "name": "value",
          "type": "int256"
        }
      ],
      "name": "setInt",
      "outputs": [],
      "stateMutability": "nonpayable",
      "type": "function"
    },
    {
      "inputs": [
        {
          "internalType": "bytes32",
          "name": "key",
          "type": "bytes32"
        },
        {
          "internalType": "uint256",
          "name": "value",
          "type": "uint256"
        }
      ],
      "name": "setUint",
      "outputs": [],
      "stateMutability": "nonpayable",
      "type": "function"
    }
  ],
  "bytecode": "0x608060405234801561001057600080fd5b506102d7806100206000396000f3fe608060405234801561001057600080fd5b50600436106100885760003560e01c8063bd02d0f51161005b578063bd02d0f514610156578063ca446dd914610184578063dc97d962146101c0578063e2a4853a146101e057600080fd5b806321f8a7211461008d5780633e49bed0146100d35780637ae1cfca146100f5578063abfdcced14610128575b600080fd5b6100b661009b366004610200565b6000908152600260205260409020546001600160a01b031690565b6040516001600160a01b0390911681526020015b60405180910390f35b6100f36100e1366004610219565b60009182526001602052604090912055565b005b610118610103366004610200565b60009081526003602052604090205460ff1690565b60405190151581526020016100ca565b6100f361013636600461023b565b600091825260036020526040909120805460ff1916911515919091179055565b610176610164366004610200565b60009081526020819052604090205490565b6040519081526020016100ca565b6100f3610192366004610270565b60009182526002602052604090912080546001600160a01b0319166001600160a01b03909216919091179055565b6101766101ce366004610200565b60009081526001602052604090205490565b6100f36101ee366004610219565b60009182526020829052604090912055565b60006020828403121561021257600080fd5b5035919050565b6000806040838503121561022c57600080fd5b50508035926020909101359150565b6000806040838503121561024e57600080fd5b823591506020830135801515811461026557600080fd5b809150509250929050565b6000806040838503121561028357600080fd5b8235915060208301356001600160a01b038116811461026557600080fdfea26469706673582212200e550d6da3a0134256030efbc7c4df96d09c7a682c16202b42e129d4658a9f0764736f6c63430008160033",
  "linkReferences": {},
  "deployedLinkReferences": {}
}