{
  "_format": "hh-sol-artifact-1",
  "contractName": "TreasuryMarketplace",
  "sourceName": "contracts/layer2/treasury/TreasuryMarketplace.sol",
  "abi": [
    {
      "inputs": [
        {
          "internalType": "address",
          "name": "admin",
          "type": "address"
        },
        {
          "internalType": "address",
          "name": "factory",
          "type": "address"
        },
        {
          "internalType": "address",
          "name": "paymentToken_",
          "type": "address"
        },
        {
          "internalType": "address",
          "name": "feeCollector_",
          "type": "address"
        }
      ],
      "stateMutability": "nonpayable",
      "type": "constructor"
    },
    {
      "inputs": [],
      "name": "AccessControlBadConfirmation",
      "type": "error"
    },
    {
      "inputs": [
        {
          "internalType": "address",
          "name": "account",
          "type": "address"
        },
        {
          "internalType": "bytes32",
          "name": "neededRole",
          "type": "bytes32"
        }
      ],
      "name": "AccessControlUnauthorizedAccount",
      "type": "error"
    },
    {
      "inputs": [],
      "name": "EnforcedPause",
      "type": "error"
    },
    {
      "inputs": [],
      "name": "ExpectedPause",
      "type": "error"
    },
    {
      "inputs": [],
      "name": "ReentrancyGuardReentrantCall",
      "type": "error"
    },
    {
      "inputs": [
        {
          "internalType": "address",
          "name": "token",
          "type": "address"
        }
      ],
      "name": "SafeERC20FailedOperation",
      "type": "error"
    },
    {
      "anonymous": false,
      "inputs": [
        {
          "indexed": true,
          "internalType": "uint256",
          "name": "orderId",
          "type": "uint256"
        },
        {
          "indexed": true,
          "internalType": "address",
          "name": "user",
          "type": "address"
        }
      ],
      "name": "OrderCancelled",
      "type": "event"
    },
    {
      "anonymous": false,
      "inputs": [
        {
          "indexed": true,
          "internalType": "uint256",
          "name": "orderId",
          "type": "uint256"
        },
        {
          "indexed": true,
          "internalType": "uint256",
          "name": "assetId",
          "type": "uint256"
        },
        {
          "indexed": true,
          "internalType": "address",
          "name": "user",
          "type": "address"
        },
        {
          "indexed": false,
          "internalType": "enum ITreasuryMarketplace.OrderType",
          "name": "orderType",
          "type": "uint8"
        },
        {
          "indexed": false,
          "internalType": "uint256",
          "name": "tokenAmount",
          "type": "uint256"
        },
        {
          "indexed": false,
          "internalType": "uint256",
          "name": "pricePerToken",
          "type": "uint256"
        }
      ],
      "name": "OrderCreated",
      "type": "event"
    },
    {
      "anonymous": false,
      "inputs": [
        {
          "indexed": true,
          "internalType": "uint256",
          "name": "tradeId",
          "type": "uint256"
        },
        {
          "indexed": true,
          "internalType": "uint256",
          "name": "buyOrderId",
          "type": "uint256"
        },
        {
          "indexed": true,
          "internalType": "uint256",
          "name": "sellOrderId",
          "type": "uint256"
        },
        {
          "indexed": false,
          "internalType": "address",
          "name": "buyer",
          "type": "address"
        },
        {
          "indexed": false,
          "internalType": "address",
          "name": "seller",
          "type": "address"
        },
        {
          "indexed": false,
          "internalType": "uint256",
          "name": "amount",
          "type": "uint256"
        },
        {
          "indexed": false,
          "internalType": "uint256",
          "name": "price",
          "type": "uint256"
        }
      ],
      "name": "OrderMatched",
      "type": "event"
    },
    {
      "anonymous": false,
      "inputs": [
        {
          "indexed": true,
          "internalType": "uint256",
          "name": "orderId",
          "type": "uint256"
        },
        {
          "indexed": false,
          "internalType": "uint256",
          "name": "filledAmount",
          "type": "uint256"
        },
        {
          "indexed": false,
          "internalType": "uint256",
          "name": "remainingAmount",
          "type": "uint256"
        }
      ],
      "name": "OrderPartiallyFilled",
      "type": "event"
    },
    {
      "anonymous": false,
      "inputs": [
        {
          "indexed": false,
          "internalType": "address",
          "name": "account",
          "type": "address"
        }
      ],
      "name": "Paused",
      "type": "event"
    },
    {
      "anonymous": false,
      "inputs": [
        {
          "indexed": true,
          "internalType": "bytes32",
          "name": "role",
          "type": "bytes32"
        },
        {
          "indexed": true,
          "internalType": "bytes32",
          "name": "previousAdminRole",
          "type": "bytes32"
        },
        {
          "indexed": true,
          "internalType": "bytes32",
          "name": "newAdminRole",
          "type": "bytes32"
        }
      ],
      "name": "RoleAdminChanged",
      "type": "event"
    },
    {
      "anonymous": false,
      "inputs": [
        {
          "indexed": true,
          "internalType": "bytes32",
          "name": "role",
          "type": "bytes32"
        },
        {
          "indexed": true,
          "internalType": "address",
          "name": "account",
          "type": "address"
        },
        {
          "indexed": true,
          "internalType": "address",
          "name": "sender",
          "type": "address"
        }
      ],
      "name": "RoleGranted",
      "type": "event"
    },
    {
      "anonymous": false,
      "inputs": [
        {
          "indexed": true,
          "internalType": "bytes32",
          "name": "role",
          "type": "bytes32"
        },
        {
          "indexed": true,
          "internalType": "address",
          "name": "account",
          "type": "address"
        },
        {
          "indexed": true,
          "internalType": "address",
          "name": "sender",
          "type": "address"
        }
      ],
      "name": "RoleRevoked",
      "type": "event"
    },
    {
      "anonymous": false,
      "inputs": [
        {
          "indexed": false,
          "internalType": "address",
          "name": "account",
          "type": "address"
        }
      ],
      "name": "Unpaused",
      "type": "event"
    },
    {
      "inputs": [],
      "name": "DEFAULT_ADMIN_ROLE",
      "outputs": [
        {
          "internalType": "bytes32",
          "name": "",
          "type": "bytes32"
        }
      ],
      "stateMutability": "view",
      "type": "function"
    },
    {
      "inputs": [],
      "name": "FEE_COLLECTOR_ROLE",
      "outputs": [
        {
          "internalType": "bytes32",
          "name": "",
          "type": "bytes32"
        }
      ],
      "stateMutability": "view",
      "type": "function"
    },
    {
      "inputs": [],
      "name": "FEE_PRECISION",
      "outputs": [
        {
          "internalType": "uint256",
          "name": "",
          "type": "uint256"
        }
      ],
      "stateMutability": "view",
      "type": "function"
    },
    {
      "inputs": [],
      "name": "MARKETPLACE_ADMIN_ROLE",
      "outputs": [
        {
          "internalType": "bytes32",
          "name": "",
          "type": "bytes32"
        }
      ],
      "stateMutability": "view",
      "type": "function"
    },
    {
      "inputs": [],
      "name": "MATCHER_ROLE",
      "outputs": [
        {
          "internalType": "bytes32",
          "name": "",
          "type": "bytes32"
        }
      ],
      "stateMutability": "view",
      "type": "function"
    },
    {
      "inputs": [],
      "name": "MAX_FEE_RATE",
      "outputs": [
        {
          "internalType": "uint256",
          "name": "",
          "type": "uint256"
        }
      ],
      "stateMutability": "view",
      "type": "function"
    },
    {
      "inputs": [],
      "name": "assetFactory",
      "outputs": [
        {
          "internalType": "contract ITreasuryAsset",
          "name": "",
          "type": "address"
        }
      ],
      "stateMutability": "view",
      "type": "function"
    },
    {
      "inputs": [
        {
          "internalType": "uint256",
          "name": "totalValue",
          "type": "uint256"
        }
      ],
      "name": "calculateFee",
      "outputs": [
        {
          "internalType": "uint256",
          "name": "",
          "type": "uint256"
        }
      ],
      "stateMutability": "view",
      "type": "function"
    },
    {
      "inputs": [
        {
          "internalType": "uint256",
          "name": "orderId",
          "type": "uint256"
        }
      ],
      "name": "cancelOrder",
      "outputs": [],
      "stateMutability": "nonpayable",
      "type": "function"
    },
    {
      "inputs": [
        {
          "internalType": "address",
          "name": "",
          "type": "address"
        }
      ],
      "name": "collectedFees",
      "outputs": [
        {
          "internalType": "uint256",
          "name": "",
          "type": "uint256"
        }
      ],
      "stateMutability": "view",
      "type": "function"
    },
    {
      "inputs": [
        {
          "internalType": "uint256",
          "name": "assetId",
          "type": "uint256"
        },
        {
          "internalType": "uint256",
          "name": "tokenAmount",
          "type": "uint256"
        },
        {
          "internalType": "uint256",
          "name": "pricePerToken",
          "type": "uint256"
        },
        {
          "internalType": "uint256",
          "name": "duration",
          "type": "uint256"
        }
      ],
      "name": "createBuyOrder",
      "outputs": [
        {
          "internalType": "uint256",
          "name": "orderId",
          "type": "uint256"
        }
      ],
      "stateMutability": "payable",
      "type": "function"
    },
    {
      "inputs": [
        {
          "internalType": "uint256",
          "name": "assetId",
          "type": "uint256"
        },
        {
          "internalType": "uint256",
          "name": "tokenAmount",
          "type": "uint256"
        },
        {
          "internalType": "uint256",
          "name": "pricePerToken",
          "type": "uint256"
        },
        {
          "internalType": "uint256",
          "name": "duration",
          "type": "uint256"
        }
      ],
      "name": "createSellOrder",
      "outputs": [
        {
          "internalType": "uint256",
          "name": "orderId",
          "type": "uint256"
        }
      ],
      "stateMutability": "nonpayable",
      "type": "function"
    },
    {
      "inputs": [],
      "name": "feeCollector",
      "outputs": [
        {
          "internalType": "address",
          "name": "",
          "type": "address"
        }
      ],
      "stateMutability": "view",
      "type": "function"
    },
    {
      "inputs": [],
      "name": "feeRate",
      "outputs": [
        {
          "internalType": "uint256",
          "name": "",
          "type": "uint256"
        }
      ],
      "stateMutability": "view",
      "type": "function"
    },
    {
      "inputs": [],
      "name": "getMarketStats",
      "outputs": [
        {
          "internalType": "uint256",
          "name": "totalOrders_",
          "type": "uint256"
        },
        {
          "internalType": "uint256",
          "name": "totalTrades_",
          "type": "uint256"
        },
        {
          "internalType": "uint256",
          "name": "totalVolume_",
          "type": "uint256"
        }
      ],
      "stateMutability": "view",
      "type": "function"
    },
    {
      "inputs": [
        {
          "internalType": "uint256",
          "name": "assetId",
          "type": "uint256"
        },
        {
          "internalType": "enum ITreasuryMarketplace.OrderType",
          "name": "orderType",
          "type": "uint8"
        }
      ],
      "name": "getOpenOrders",
      "outputs": [
        {
          "internalType": "uint256[]",
          "name": "",
          "type": "uint256[]"
        }
      ],
      "stateMutability": "view",
      "type": "function"
    },
    {
      "inputs": [
        {
          "internalType": "uint256",
          "name": "orderId",
          "type": "uint256"
        }
      ],
      "name": "getOrder",
      "outputs": [
        {
          "components": [
            {
              "internalType": "uint256",
              "name": "orderId",
              "type": "uint256"
            },
            {
              "internalType": "uint256",
              "name": "assetId",
              "type": "uint256"
            },
            {
              "internalType": "enum ITreasuryMarketplace.OrderType",
              "name": "orderType",
              "type": "uint8"
            },
            {
              "internalType": "address",
              "name": "user",
              "type": "address"
            },
            {
              "internalType": "uint256",
              "name": "tokenAmount",
              "type": "uint256"
            },
            {
              "internalType": "uint256",
              "name": "pricePerToken",
              "type": "uint256"
            },
            {
              "internalType": "uint256",
              "name": "totalValue",
              "type": "uint256"
            },
            {
              "internalType": "uint256",
              "name": "filledAmount",
              "type": "uint256"
            },
            {
              "internalType": "enum ITreasuryMarketplace.OrderStatus",
              "name": "status",
              "type": "uint8"
            },
            {
              "internalType": "uint256",
              "name": "createdAt",
              "type": "uint256"
            },
            {
              "internalType": "uint256",
              "name": "expiresAt",
              "type": "uint256"
            }
          ],
          "internalType": "struct ITreasuryMarketplace.MarketOrder",
          "name": "",
          "type": "tuple"
        }
      ],
      "stateMutability": "view",
      "type": "function"
    },
    {
      "inputs": [
        {
          "internalType": "bytes32",
          "name": "role",
          "type": "bytes32"
        }
      ],
      "name": "getRoleAdmin",
      "outputs": [
        {
          "internalType": "bytes32",
          "name": "",
          "type": "bytes32"
        }
      ],
      "stateMutability": "view",
      "type": "function"
    },
    {
      "inputs": [
        {
          "internalType": "uint256",
          "name": "assetId",
          "type": "uint256"
        },
        {
          "internalType": "uint256",
          "name": "count",
          "type": "uint256"
        }
      ],
      "name": "getTradeHistory",
      "outputs": [
        {
          "components": [
            {
              "internalType": "uint256",
              "name": "tradeId",
              "type": "uint256"
            },
            {
              "internalType": "uint256",
              "name": "orderId",
              "type": "uint256"
            },
            {
              "internalType": "uint256",
              "name": "assetId",
              "type": "uint256"
            },
            {
              "internalType": "address",
              "name": "buyer",
              "type": "address"
            },
            {
              "internalType": "address",
              "name": "seller",
              "type": "address"
            },
            {
              "internalType": "uint256",
              "name": "amount",
              "type": "uint256"
            },
            {
              "internalType": "uint256",
              "name": "price",
              "type": "uint256"
            },
            {
              "internalType": "uint256",
              "name": "totalValue",
              "type": "uint256"
            },
            {
              "internalType": "uint256",
              "name": "fee",
              "type": "uint256"
            },
            {
              "internalType": "uint256",
              "name": "timestamp",
              "type": "uint256"
            }
          ],
          "internalType": "struct ITreasuryMarketplace.Trade[]",
          "name": "",
          "type": "tuple[]"
        }
      ],
      "stateMutability": "view",
      "type": "function"
    },
    {
      "inputs": [
        {
          "internalType": "address",
          "name": "user",
          "type": "address"
        }
      ],
      "name": "getUserOrders",
      "outputs": [
        {
          "internalType": "uint256[]",
          "name": "",
          "type": "uint256[]"
        }
      ],
      "stateMutability": "view",
      "type": "function"
    },
    {
      "inputs": [
        {
          "internalType": "bytes32",
          "name": "role",
          "type": "bytes32"
        },
        {
          "internalType": "address",
          "name": "account",
          "type": "address"
        }
      ],
      "name": "grantRole",
      "outputs": [],
      "stateMutability": "nonpayable",
      "type": "function"
    },
    {
      "inputs": [
        {
          "internalType": "bytes32",
          "name": "role",
          "type": "bytes32"
        },
        {
          "internalType": "address",
          "name": "account",
          "type": "address"
        }
      ],
      "name": "hasRole",
      "outputs": [
        {
          "internalType": "bool",
          "name": "",
          "type": "bool"
        }
      ],
      "stateMutability": "view",
      "type": "function"
    },
    {
      "inputs": [
        {
          "internalType": "uint256",
          "name": "buyOrderId",
          "type": "uint256"
        },
        {
          "internalType": "uint256",
          "name": "sellOrderId",
          "type": "uint256"
        },
        {
          "internalType": "uint256",
          "name": "amount",
          "type": "uint256"
        }
      ],
      "name": "matchOrders",
      "outputs": [
        {
          "internalType": "uint256",
          "name": "tradeId",
          "type": "uint256"
        }
      ],
      "stateMutability": "nonpayable",
      "type": "function"
    },
    {
      "inputs": [],
      "name": "pause",
      "outputs": [],
      "stateMutability": "nonpayable",
      "type": "function"
    },
    {
      "inputs": [],
      "name": "paused",
      "outputs": [
        {
          "internalType": "bool",
          "name": "",
          "type": "bool"
        }
      ],
      "stateMutability": "view",
      "type": "function"
    },
    {
      "inputs": [],
      "name": "paymentToken",
      "outputs": [
        {
          "internalType": "address",
          "name": "",
          "type": "address"
        }
      ],
      "stateMutability": "view",
      "type": "function"
    },
    {
      "inputs": [
        {
          "internalType": "bytes32",
          "name": "role",
          "type": "bytes32"
        },
        {
          "internalType": "address",
          "name": "callerConfirmation",
          "type": "address"
        }
      ],
      "name": "renounceRole",
      "outputs": [],
      "stateMutability": "nonpayable",
      "type": "function"
    },
    {
      "inputs": [
        {
          "internalType": "bytes32",
          "name": "role",
          "type": "bytes32"
        },
        {
          "internalType": "address",
          "name": "account",
          "type": "address"
        }
      ],
      "name": "revokeRole",
      "outputs": [],
      "stateMutability": "nonpayable",
      "type": "function"
    },
    {
      "inputs": [
        {
          "internalType": "address",
          "name": "newFeeCollector",
          "type": "address"
        }
      ],
      "name": "setFeeCollector",
      "outputs": [],
      "stateMutability": "nonpayable",
      "type": "function"
    },
    {
      "inputs": [
        {
          "internalType": "uint256",
          "name": "newFeeRate",
          "type": "uint256"
        }
      ],
      "name": "setFeeRate",
      "outputs": [],
      "stateMutability": "nonpayable",
      "type": "function"
    },
    {
      "inputs": [
        {
          "internalType": "bytes4",
          "name": "interfaceId",
          "type": "bytes4"
        }
      ],
      "name": "supportsInterface",
      "outputs": [
        {
          "internalType": "bool",
          "name": "",
          "type": "bool"
        }
      ],
      "stateMutability": "view",
      "type": "function"
    },
    {
      "inputs": [],
      "name": "totalOrders",
      "outputs": [
        {
          "internalType": "uint256",
          "name": "",
          "type": "uint256"
        }
      ],
      "stateMutability": "view",
      "type": "function"
    },
    {
      "inputs": [],
      "name": "totalTrades",
      "outputs": [
        {
          "internalType": "uint256",
          "name": "",
          "type": "uint256"
        }
      ],
      "stateMutability": "view",
      "type": "function"
    },
    {
      "inputs": [],
      "name": "totalVolume",
      "outputs": [
        {
          "internalType": "uint256",
          "name": "",
          "type": "uint256"
        }
      ],
      "stateMutability": "view",
      "type": "function"
    },
    {
      "inputs": [],
      "name": "unpause",
      "outputs": [],
      "stateMutability": "nonpayable",
      "type": "function"
    },
    {
      "inputs": [
        {
          "internalType": "address",
          "name": "token",
          "type": "address"
        }
      ],
      "name": "withdrawFees",
      "outputs": [],
      "stateMutability": "nonpayable",
      "type": "function"
    }
  ],
  "bytecode": "0x60c06040526019600b553480156200001657600080fd5b5060405162002fb138038062002fb1833981016040819052620000399162000319565b600180556001600160a01b038416620000895760405162461bcd60e51b815260206004820152600d60248201526c24b73b30b634b21030b236b4b760991b60448201526064015b60405180910390fd5b6001600160a01b038316620000d35760405162461bcd60e51b815260206004820152600f60248201526e496e76616c696420666163746f727960881b604482015260640162000080565b6001600160a01b0382166200012b5760405162461bcd60e51b815260206004820152601560248201527f496e76616c6964207061796d656e7420746f6b656e0000000000000000000000604482015260640162000080565b6001600160a01b038116620001835760405162461bcd60e51b815260206004820152601560248201527f496e76616c69642066656520636f6c6c6563746f720000000000000000000000604482015260640162000080565b6001600160a01b0383811660805282811660a052600c80546001600160a01b031916918316919091179055620001bb6000856200024d565b50620001e87f4e9617a5e2ee64b49ea666eb545a00a6f26df1c8ca519835eb93aac8d7889492856200024d565b50620002157f2dca0f5ce7e75a4b43fe2b0d6f5d0b7a2bf92ecf89f8f0aa17b8308b67038821856200024d565b50620002427fdf91394c13c48ebd5370100f1eb84afe3c6c47a78f9f9f874d5a9ec6afe0ae6b856200024d565b505050505062000376565b6000828152602081815260408083206001600160a01b038516845290915281205460ff16620002f2576000838152602081815260408083206001600160a01b03861684529091529020805460ff19166001179055620002a93390565b6001600160a01b0316826001600160a01b0316847f2f8788117e7eff1d82e926ec794901d17c78024a50270940304540a733656f0d60405160405180910390a4506001620002f6565b5060005b92915050565b80516001600160a01b03811681146200031457600080fd5b919050565b600080600080608085870312156200033057600080fd5b6200033b85620002fc565b93506200034b60208601620002fc565b92506200035b60408601620002fc565b91506200036b60608601620002fc565b905092959194509250565b60805160a051612bcf620003e26000396000818161031e01528181610e6a015281816115e20152818161161a015281816116ec015261201f01526000818161059a0152818161087b01528181610a1901528181610eb60152818161151a0152611e240152612bcf6000f3fe60806040526004361061020f5760003560e01c806392f6576e11610118578063cbbb495f116100a0578063e275c9971161006f578063e275c99714610669578063e63a391f1461067f578063f199aeb014610695578063f52bbdc0146106a8578063ff4cd5b9146106d557600080fd5b8063cbbb495f146105dc578063d09ef241146105fc578063d547741f14610629578063e181791e1461064957600080fd5b8063a42dce80116100e7578063a42dce8014610512578063b2194ff514610532578063b2a4eea014610566578063c3acb4d114610588578063c415b95c146105bc57600080fd5b806392f6576e146104b1578063978bbdb9146104c757806399a5d747146104dd578063a217fddf146104fd57600080fd5b80633f4ba83a1161019b5780635f81a57c1161016a5780635f81a57c1461040557806362a2a47c1461041b57806363c69f081461044f5780638456cb591461047c57806391d148541461049157600080fd5b80633f4ba83a1461039857806345596e2e146103ad578063514fcac7146103cd5780635c975abb146103ed57600080fd5b8063248a9ca3116101e2578063248a9ca3146102bc5780632f2ff15d146102ec5780633013ce291461030c57806336568abe1461035857806337609bb21461037857600080fd5b806301ffc9a714610214578063164e68de146102495780631cead9a71461026b5780631d834409146102a6575b600080fd5b34801561022057600080fd5b5061023461022f366004612747565b610706565b60405190151581526020015b60405180910390f35b34801561025557600080fd5b50610269610264366004612786565b61073d565b005b34801561027757600080fd5b50610298610286366004612786565b600d6020526000908152604090205481565b604051908152602001610240565b3480156102b257600080fd5b50610298600e5481565b3480156102c857600080fd5b506102986102d73660046127a3565b60009081526020819052604090206001015490565b3480156102f857600080fd5b506102696103073660046127bc565b6107f5565b34801561031857600080fd5b506103407f000000000000000000000000000000000000000000000000000000000000000081565b6040516001600160a01b039091168152602001610240565b34801561036457600080fd5b506102696103733660046127bc565b610820565b34801561038457600080fd5b506102986103933660046127ec565b610853565b3480156103a457600080fd5b50610269610c4b565b3480156103b957600080fd5b506102696103c83660046127a3565b610c6e565b3480156103d957600080fd5b506102696103e83660046127a3565b610ccd565b3480156103f957600080fd5b5060025460ff16610234565b34801561041157600080fd5b5061029860105481565b34801561042757600080fd5b506102987f2dca0f5ce7e75a4b43fe2b0d6f5d0b7a2bf92ecf89f8f0aa17b8308b6703882181565b34801561045b57600080fd5b5061046f61046a366004612786565b610f8d565b604051610240919061281e565b34801561048857600080fd5b50610269610ff9565b34801561049d57600080fd5b506102346104ac3660046127bc565b611019565b3480156104bd57600080fd5b506102986101f481565b3480156104d357600080fd5b50610298600b5481565b3480156104e957600080fd5b506102986104f83660046127a3565b611042565b34801561050957600080fd5b50610298600081565b34801561051e57600080fd5b5061026961052d366004612786565b61105f565b34801561053e57600080fd5b506102987fdf91394c13c48ebd5370100f1eb84afe3c6c47a78f9f9f874d5a9ec6afe0ae6b81565b34801561057257600080fd5b50610298600080516020612b7a83398151915281565b34801561059457600080fd5b506103407f000000000000000000000000000000000000000000000000000000000000000081565b3480156105c857600080fd5b50600c54610340906001600160a01b031681565b3480156105e857600080fd5b506102986105f7366004612856565b6110d5565b34801561060857600080fd5b5061061c6106173660046127a3565b611a93565b60405161024091906128bc565b34801561063557600080fd5b506102696106443660046127bc565b611b93565b34801561065557600080fd5b5061046f61066436600461295b565b611bb8565b34801561067557600080fd5b50610298600f5481565b34801561068b57600080fd5b5061029861271081565b6102986106a33660046127ec565b611dfc565b3480156106b457600080fd5b506106c86106c3366004612984565b612174565b60405161024091906129a6565b3480156106e157600080fd5b50600e54600f5460105460408051938452602084019290925290820152606001610240565b60006001600160e01b03198216637965db0b60e01b148061073757506301ffc9a760e01b6001600160e01b03198316145b92915050565b7f2dca0f5ce7e75a4b43fe2b0d6f5d0b7a2bf92ecf89f8f0aa17b8308b6703882161076781612373565b6001600160a01b0382166000908152600d6020526040902054806107c85760405162461bcd60e51b81526020600482015260136024820152724e6f206665657320746f20776974686472617760681b60448201526064015b60405180910390fd5b6001600160a01b038084166000818152600d6020526040812055600c546107f092168361237d565b505050565b60008281526020819052604090206001015461081081612373565b61081a83836123dc565b50505050565b6001600160a01b03811633146108495760405163334bd91960e11b815260040160405180910390fd5b6107f0828261246e565b600061085d6124d9565b6108656124ff565b604051631174806160e11b8152600481018690527f00000000000000000000000000000000000000000000000000000000000000006001600160a01b0316906322e900c290602401602060405180830381865afa1580156108ca573d6000803e3d6000fd5b505050506040513d601f19601f820116820180604052508101906108ee9190612a61565b61092d5760405162461bcd60e51b815260206004820152601060248201526f4173736574206e6f742061637469766560801b60448201526064016107bf565b6000841161096e5760405162461bcd60e51b815260206004820152600e60248201526d125b9d985b1a5908185b5bdd5b9d60921b60448201526064016107bf565b600083116109ae5760405162461bcd60e51b815260206004820152600d60248201526c496e76616c696420707269636560981b60448201526064016107bf565b6000821180156109c1575062278d008211155b610a005760405162461bcd60e51b815260206004820152601060248201526f24b73b30b634b210323ab930ba34b7b760811b60448201526064016107bf565b604051630cf99be760e31b8152600481018690526000907f00000000000000000000000000000000000000000000000000000000000000006001600160a01b0316906367ccdf3890602401602060405180830381865afa158015610a68573d6000803e3d6000fd5b505050506040513d601f19601f82011682018060405250810190610a8c9190612a83565b90506001600160a01b038116610ad65760405162461bcd60e51b815260206004820152600f60248201526e151bdad95b881b9bdd08199bdd5b99608a1b60448201526064016107bf565b610aeb6001600160a01b038216333088612529565b60038054906000610afb83612ab6565b909155505060035491506000670de0b6b3a7640000610b1a8688612acf565b610b249190612ae6565b6000848152600560208190526040822086815560018082018c90556002820180546001600160a81b0319163361010002179091179055600381018a905560048101899055908101839055600681019190915560078101805460ff19169055426008820181905591925090610b99908690612b08565b60098201556000888152600760209081526040808320805460018181018355918552838520018890553384526008835290832080549182018155835290822001859055600e805491610bea83612ab6565b9190505550336001600160a01b031688857fa41a14fd76c283a258f01d079aa890c020c9d8debbc35af66e02c60a7b61a86760018b8b604051610c2f93929190612b1b565b60405180910390a4505050610c4360018055565b949350505050565b600080516020612b7a833981519152610c6381612373565b610c6b612562565b50565b600080516020612b7a833981519152610c8681612373565b6101f4821115610cc75760405162461bcd60e51b815260206004820152600c60248201526b08ccaca40e8dede40d0d2ced60a31b60448201526064016107bf565b50600b55565b610cd56124ff565b6000818152600560205260409020600281015461010090046001600160a01b03163314610d365760405162461bcd60e51b815260206004820152600f60248201526e2737ba1037b93232b91037bbb732b960891b60448201526064016107bf565b6000600782015460ff166003811115610d5157610d51612882565b1480610d7557506001600782015460ff166003811115610d7357610d73612882565b145b610db95760405162461bcd60e51b81526020600482015260156024820152744f72646572206e6f742063616e63656c6c61626c6560581b60448201526064016107bf565b600081600601548260030154610dcf9190612b3a565b905060008111610e165760405162461bcd60e51b815260206004820152601260248201527113dc99195c88199d5b1b1e48199a5b1b195960721b60448201526064016107bf565b6000600283015460ff166001811115610e3157610e31612882565b03610e97576000670de0b6b3a7640000836004015483610e519190612acf565b610e5b9190612ae6565b9050610e916001600160a01b037f000000000000000000000000000000000000000000000000000000000000000016338361237d565b50610f46565b6001820154604051630cf99be760e31b81526000916001600160a01b037f000000000000000000000000000000000000000000000000000000000000000016916367ccdf3891610eed9160040190815260200190565b602060405180830381865afa158015610f0a573d6000803e3d6000fd5b505050506040513d601f19601f82011682018060405250810190610f2e9190612a83565b9050610f446001600160a01b038216338461237d565b505b60078201805460ff19166003179055604051339084907fc0362da6f2ff36b382b34aec0814f6b3cdf89f5ef282a1d1f114d0c0b036d59690600090a35050610c6b60018055565b6001600160a01b038116600090815260086020908152604091829020805483518184028101840190945280845260609392830182828015610fed57602002820191906000526020600020905b815481526020019060010190808311610fd9575b50505050509050919050565b600080516020612b7a83398151915261101181612373565b610c6b6125b4565b6000918252602082815260408084206001600160a01b0393909316845291905290205460ff1690565b6000612710600b54836110559190612acf565b6107379190612ae6565b600061106a81612373565b6001600160a01b0382166110b25760405162461bcd60e51b815260206004820152600f60248201526e496e76616c6964206164647265737360881b60448201526064016107bf565b50600c80546001600160a01b0319166001600160a01b0392909216919091179055565b60006110df6124d9565b6110e76124ff565b6000848152600560205260408082208583529082209091600283015460ff16600181111561111757611117612882565b146111545760405162461bcd60e51b815260206004820152600d60248201526c2737ba10313abc9037b93232b960991b60448201526064016107bf565b6001600282015460ff16600181111561116f5761116f612882565b146111ad5760405162461bcd60e51b815260206004820152600e60248201526d2737ba1039b2b6361037b93232b960911b60448201526064016107bf565b80600101548260010154146111f55760405162461bcd60e51b815260206004820152600e60248201526d082e6e6cae840dad2e6dac2e8c6d60931b60448201526064016107bf565b6002600783015460ff16600381111561121057611210612882565b036112505760405162461bcd60e51b815260206004820152601060248201526f109d5e481bdc99195c88199a5b1b195960821b60448201526064016107bf565b6002600782015460ff16600381111561126b5761126b612882565b036112ac5760405162461bcd60e51b815260206004820152601160248201527014d95b1b081bdc99195c88199a5b1b1959607a1b60448201526064016107bf565b6003600783015460ff1660038111156112c7576112c7612882565b0361130a5760405162461bcd60e51b8152602060048201526013602482015272109d5e481bdc99195c8818d85b98d95b1b1959606a1b60448201526064016107bf565b6003600782015460ff16600381111561132557611325612882565b036113695760405162461bcd60e51b815260206004820152601460248201527314d95b1b081bdc99195c8818d85b98d95b1b195960621b60448201526064016107bf565b816009015442106113b05760405162461bcd60e51b8152602060048201526011602482015270109d5e481bdc99195c88195e1c1a5c9959607a1b60448201526064016107bf565b806009015442106113f85760405162461bcd60e51b815260206004820152601260248201527114d95b1b081bdc99195c88195e1c1a5c995960721b60448201526064016107bf565b8060040154826004015410156114415760405162461bcd60e51b815260206004820152600e60248201526d0a0e4d2c6ca40dad2e6dac2e8c6d60931b60448201526064016107bf565b60008060008060008660060154876003015461145d9190612b3a565b90506000866006015487600301546114759190612b3a565b905089955081861115611486578195505b80861115611492578095505b600086116114d75760405162461bcd60e51b81526020600482015260126024820152714e6f20616d6f756e7420746f20747261646560701b60448201526064016107bf565b60048701549450670de0b6b3a76400006114f18688612acf565b6114fb9190612ae6565b935061150684611042565b925060006115148486612b3a565b905060007f00000000000000000000000000000000000000000000000000000000000000006001600160a01b03166367ccdf388b600101546040518263ffffffff1660e01b815260040161156a91815260200190565b602060405180830381865afa158015611587573d6000803e3d6000fd5b505050506040513d601f19601f820116820180604052508101906115ab9190612a83565b60028b01549091506115cf906001600160a01b03808416916101009004168a61237d565b6002890154611610906001600160a01b037f00000000000000000000000000000000000000000000000000000000000000008116916101009004168461237d565b6001600160a01b037f0000000000000000000000000000000000000000000000000000000000000000166000908152600d602052604081208054879290611658908490612b08565b9250508190555050505050838660060160008282546116779190612b08565b909155505060038601546006870154036117225760078601805460ff191660021790556004860154600090670de0b6b3a7640000906116b69087612acf565b6116c09190612ae6565b90508281111561171c5760006116d68483612b3a565b600289015490915061171a906001600160a01b037f00000000000000000000000000000000000000000000000000000000000000008116916101009004168361237d565b505b50611783565b60078601805460ff19166001179055600686015460038701548b917fff5d5b1b81d52f6ee4735ef3e855e92d966085830dc91daad5efcff6defc553191879161176a91612b3a565b6040805192835260208301919091520160405180910390a25b838560060160008282546117979190612b08565b909155505060038501546006860154036117bf5760078501805460ff19166002179055611820565b60078501805460ff19166001179055600685015460038601548a917fff5d5b1b81d52f6ee4735ef3e855e92d966085830dc91daad5efcff6defc553191879161180791612b3a565b6040805192835260208301919091520160405180910390a25b6004805490600061183083612ab6565b9190505550600454965060006040518061014001604052808981526020018c8152602001886001015481526020018860020160019054906101000a90046001600160a01b03166001600160a01b031681526020018760020160019054906101000a90046001600160a01b03166001600160a01b0316815260200186815260200185815260200184815260200183815260200142815250905060098190806001815401808255809150506001900390600052602060002090600a020160009091909190915060008201518160000155602082015181600101556040820151816002015560608201518160030160006101000a8154816001600160a01b0302191690836001600160a01b0316021790555060808201518160040160006101000a8154816001600160a01b0302191690836001600160a01b0316021790555060a0820151816005015560c0820151816006015560e08201518160070155610100820151816008015561012082015181600901555050600a600088600101548152602001908152602001600020889080600181540180825580915050600190039060005260206000200160009091909190915055600f60008154809291906119f390612ab6565b91905055508260106000828254611a0a9190612b08565b909155505060028781015490870154604080516001600160a01b036101009485900481168252939092049092166020820152908101869052606081018590528a908c908a907f944cb2286e33a049d31dd076e8209f9381213dd2c02d56ec71b7702d195455b79060800160405180910390a450505050505050611a8c60018055565b9392505050565b611a9b6126c2565b600560008381526020019081526020016000206040518061016001604052908160008201548152602001600182015481526020016002820160009054906101000a900460ff166001811115611af257611af2612882565b6001811115611b0357611b03612882565b8152600282015461010090046001600160a01b0316602082015260038083015460408301526004830154606083015260058301546080830152600683015460a0830152600783015460c09092019160ff1690811115611b6457611b64612882565b6003811115611b7557611b75612882565b81526008820154602082015260099091015460409091015292915050565b600082815260208190526040902060010154611bae81612373565b61081a838361246e565b6060600080836001811115611bcf57611bcf612882565b14611be7576000848152600760205260409020611bf6565b60008481526006602052604090205b90506000805b8254811015611cb357600060056000858481548110611c1d57611c1d612b4d565b90600052602060002001548152602001908152602001600020905060006003811115611c4b57611c4b612882565b600782015460ff166003811115611c6457611c64612882565b1480611c8857506001600782015460ff166003811115611c8657611c86612882565b145b8015611c975750806009015442105b15611caa5782611ca681612ab6565b9350505b50600101611bfc565b5060008167ffffffffffffffff811115611ccf57611ccf612b63565b604051908082528060200260200182016040528015611cf8578160200160208202803683370190505b5090506000805b8454811015611df057600060056000878481548110611d2057611d20612b4d565b90600052602060002001548152602001908152602001600020905060006003811115611d4e57611d4e612882565b600782015460ff166003811115611d6757611d67612882565b1480611d8b57506001600782015460ff166003811115611d8957611d89612882565b145b8015611d9a5750806009015442105b15611de757858281548110611db157611db1612b4d565b9060005260206000200154848481518110611dce57611dce612b4d565b602090810291909101015282611de381612ab6565b9350505b50600101611cff565b50909695505050505050565b6000611e066124d9565b611e0e6124ff565b604051631174806160e11b8152600481018690527f00000000000000000000000000000000000000000000000000000000000000006001600160a01b0316906322e900c290602401602060405180830381865afa158015611e73573d6000803e3d6000fd5b505050506040513d601f19601f82011682018060405250810190611e979190612a61565b611ed65760405162461bcd60e51b815260206004820152601060248201526f4173736574206e6f742061637469766560801b60448201526064016107bf565b60008411611f175760405162461bcd60e51b815260206004820152600e60248201526d125b9d985b1a5908185b5bdd5b9d60921b60448201526064016107bf565b60008311611f575760405162461bcd60e51b815260206004820152600d60248201526c496e76616c696420707269636560981b60448201526064016107bf565b600082118015611f6a575062278d008211155b611fa95760405162461bcd60e51b815260206004820152601060248201526f24b73b30b634b210323ab930ba34b7b760811b60448201526064016107bf565b6000670de0b6b3a7640000611fbe8587612acf565b611fc89190612ae6565b9050600081116120125760405162461bcd60e51b8152602060048201526015602482015274151bdd185b081d985b1d59481d1bdbc81cdb585b1b605a1b60448201526064016107bf565b6120476001600160a01b037f000000000000000000000000000000000000000000000000000000000000000016333084612529565b6003805490600061205783612ab6565b90915550506003805460008181526005602081905260408220838155600181018b90556002810180546001600160a81b0319163361010002179055938401899055600484018890558301849055600683015560078201805460ff1916905542600883018190559093506120cb908590612b08565b60098201556000878152600660209081526040808320805460018181018355918552838520018790553384526008835290832080549182018155835290822001849055600e80549161211c83612ab6565b9190505550336001600160a01b031687847fa41a14fd76c283a258f01d079aa890c020c9d8debbc35af66e02c60a7b61a86760008a8a60405161216193929190612b1b565b60405180910390a45050610c4360018055565b6000828152600a6020526040812080546060929084116121945783612197565b81545b905060008167ffffffffffffffff8111156121b4576121b4612b63565b60405190808252806020026020018201604052801561224d57816020015b61223a60405180610140016040528060008152602001600081526020016000815260200160006001600160a01b0316815260200160006001600160a01b0316815260200160008152602001600081526020016000815260200160008152602001600081525090565b8152602001906001900390816121d25790505b50905060005b82811015612369576000600185838688805490506122719190612b3a565b61227b9190612b08565b8154811061228b5761228b612b4d565b90600052602060002001546122a09190612b3a565b9050600981815481106122b5576122b5612b4d565b60009182526020918290206040805161014081018252600a9093029091018054835260018101549383019390935260028301549082015260038201546001600160a01b0390811660608301526004830154166080820152600582015460a0820152600682015460c0820152600782015460e08201526008820154610100820152600990910154610120820152835184908490811061235557612355612b4d565b602090810291909101015250600101612253565b5095945050505050565b610c6b81336125f1565b6040516001600160a01b038381166024830152604482018390526107f091859182169063a9059cbb906064015b604051602081830303815290604052915060e01b6020820180516001600160e01b03838183161783525050505061262e565b60006123e88383611019565b612466576000838152602081815260408083206001600160a01b03861684529091529020805460ff1916600117905561241e3390565b6001600160a01b0316826001600160a01b0316847f2f8788117e7eff1d82e926ec794901d17c78024a50270940304540a733656f0d60405160405180910390a4506001610737565b506000610737565b600061247a8383611019565b15612466576000838152602081815260408083206001600160a01b0386168085529252808320805460ff1916905551339286917ff6391f5c32d9c69d2a47ea670b442974b53935d1edc7fd64eb21e047a839171b9190a4506001610737565b60025460ff16156124fd5760405163d93c066560e01b815260040160405180910390fd5b565b60026001540361252257604051633ee5aeb560e01b815260040160405180910390fd5b6002600155565b6040516001600160a01b03848116602483015283811660448301526064820183905261081a9186918216906323b872dd906084016123aa565b61256a61269f565b6002805460ff191690557f5db9ee0a495bf2e6ff9c91a7834c1ba4fdd244a5e8aa4e537bd38aeae4b073aa335b6040516001600160a01b03909116815260200160405180910390a1565b6125bc6124d9565b6002805460ff191660011790557f62e78cea01bee320cd4e420270b5ea74000d11b0c9f74754ebdbfc544b05a2586125973390565b6125fb8282611019565b61262a5760405163e2517d3f60e01b81526001600160a01b0382166004820152602481018390526044016107bf565b5050565b600080602060008451602086016000885af180612651576040513d6000823e3d81fd5b50506000513d91508115612669578060011415612676565b6001600160a01b0384163b155b1561081a57604051635274afe760e01b81526001600160a01b03851660048201526024016107bf565b60025460ff166124fd57604051638dfc202b60e01b815260040160405180910390fd5b6040518061016001604052806000815260200160008152602001600060018111156126ef576126ef612882565b815260200160006001600160a01b03168152602001600081526020016000815260200160008152602001600081526020016000600381111561273357612733612882565b815260200160008152602001600081525090565b60006020828403121561275957600080fd5b81356001600160e01b031981168114611a8c57600080fd5b6001600160a01b0381168114610c6b57600080fd5b60006020828403121561279857600080fd5b8135611a8c81612771565b6000602082840312156127b557600080fd5b5035919050565b600080604083850312156127cf57600080fd5b8235915060208301356127e181612771565b809150509250929050565b6000806000806080858703121561280257600080fd5b5050823594602084013594506040840135936060013592509050565b6020808252825182820181905260009190848201906040850190845b81811015611df05783518352928401929184019160010161283a565b60008060006060848603121561286b57600080fd5b505081359360208301359350604090920135919050565b634e487b7160e01b600052602160045260246000fd5b600281106128a8576128a8612882565b9052565b600481106128a8576128a8612882565b600061016082019050825182526020830151602083015260408301516128e56040840182612898565b50606083015161290060608401826001600160a01b03169052565b506080830151608083015260a083015160a083015260c083015160c083015260e083015160e08301526101008084015161293c828501826128ac565b5050610120838101519083015261014092830151929091019190915290565b6000806040838503121561296e57600080fd5b823591506020830135600281106127e157600080fd5b6000806040838503121561299757600080fd5b50508035926020909101359150565b602080825282518282018190526000919060409081850190868401855b82811015612a5457815180518552868101518786015285810151868601526060808201516001600160a01b0381168288015250506080818101516001600160a01b03811687830152505060a0818101519086015260c0808201519086015260e080820151908601526101008082015190860152610120908101519085015261014090930192908501906001016129c3565b5091979650505050505050565b600060208284031215612a7357600080fd5b81518015158114611a8c57600080fd5b600060208284031215612a9557600080fd5b8151611a8c81612771565b634e487b7160e01b600052601160045260246000fd5b600060018201612ac857612ac8612aa0565b5060010190565b808202811582820484141761073757610737612aa0565b600082612b0357634e487b7160e01b600052601260045260246000fd5b500490565b8082018082111561073757610737612aa0565b60608101612b298286612898565b602082019390935260400152919050565b8181038181111561073757610737612aa0565b634e487b7160e01b600052603260045260246000fd5b634e487b7160e01b600052604160045260246000fdfe4e9617a5e2ee64b49ea666eb545a00a6f26df1c8ca519835eb93aac8d7889492a2646970667358221220b86e7707dc6f3991c8a3ba135c4b2b57ebe05f3b97dd3b2b68d80c566b0c751c64736f6c63430008160033",
  "linkReferences": {},
  "deployedLinkReferences": {}
}